:020000040800F2
:10000000E8220020B9020008BF260008DF2400080B
:10001000BD260008D30400088B4C00080000000037
:10002000000000000000000000000000392A000865
:100030006105000800000000032A0008452A0008A6
:10004000D3020008D3020008D3020008D30200083C
:10005000D3020008D3020008D3020008D30200082C
:10006000D3020008D3020008D3020008D30200081C
:10007000D3020008D3020008D3020008D30200080C
:10008000D302000800000000D3020008D3020008D9
:100090001D4C0008D3020008D3020008D302000858
:1000A000D3020008D3020008D3020008D3020008DC
:1000B000D3020008D3020008D3020008D3020008CC
:1000C000D3020008D3020008D3020008D3020008BC
:1000D000D3020008D3020008D3020008D935000873
:1000E000D3020008D3020008D3020008D30200089C
:1000F000D3020008D3020008D30200080000000069
:1001000000000000D302000800000000D302000835
:10011000C92A000800000000D3020008D30200082A
:10012000D3020008D3020008D3020008D30200085B
:10013000D30200080000000000000000D302000805
:10014000D3020008D30200080000000000000000F5
:10015000000000000000000000000000000000009F
:10016000000000000000000000000000D3020008B2
:10017000D3020008000000000000000000000000A2
:1001800000000000D3020008000000000000000092
:10019000000000000000000000000000000000005F
:1001A0000000000000000000D3020008D302000895
:1001B000D3020008D3020008D302000800000000A8
:1001C00000000000D3020008000000000000000052
:1001D000D3020008D302000800F002F800F05CF837
:1001E0000AA090E8000C82448344AAF10107DA4592
:1001F00001D100F051F8AFF2090EBAE80F0013F088
:10020000010F18BFFB1A43F001031847204B0000F1
:10021000404B00000A444FF0000C10F8013B13F073
:10022000070408BF10F8014B1D1108BF10F8015B4F
:10023000641E05D010F8016B641E01F8016BF9D142
:1002400013F0080F1EBF10F8014BAD1C0C1B09D199
:100250006D1E58BF01F801CBFAD505E014F8016B0B
:1002600001F8016B6D1EF9D59142D6D3704700009D
:100270000023002400250026103A28BF78C1FBD8AF
:10028000520728BF30C148BF0B6070471FB504F04C
:1002900027FD1FBD10B510BD00F0E1F81146FFF7B6
:1002A000F5FF04F003FD00F0FFF803B4FFF7F2FFE1
:1002B00003BC00F007F900000948804709480047DF
:1002C000FEE7FEE7FEE7FEE7FEE7FEE7FEE7FEE706
:1002D000FEE7FEE704480549054A064B7047000063
:1002E000B92A0008D9010008E81C0020E8220020F3
:1002F000E81E0020E81E002053EA020C00F069808E
:100300002DE9F04B4FF00006002B1FBFB3FA83F529
:1003100003FA05F424FA05F65E4012BF1643B2FA5A
:1003200082F502FA05F4C5F120051EBF22FA05FC8C
:1003300044EA0C04203556EA044C4FEA144418BF32
:10034000641C4FF000084FF00009904271EB030C61
:1003500039D3002919BFB1FA81F701FA07F6B0FACB
:1003600080F700FA07F6C7F120071EBF20FA07FC46
:1003700046EA0C062037B6FBF4FCA7EB0507103F56
:1003800007F01F0BCBF120060CFA0BFB2CFA06F63C
:1003900044BFB3460026202FA4BF5E464FF0000B9B
:1003A0005BEA060C08BF4FF0010B19EB0B09ABFB26
:1003B000027C48EB0608C01B06FB02CC0BFB03CCFF
:1003C00071EB0C01C1E70B46024641464846BDE8C9
:1003D000F08B13B54FF000004FF00001AFF3008039
:1003E000BDE81C40704730B505460B462A4613F859
:1003F000014B12F8010B08B1A042F8D01CB1002843
:1004000002D06D1CF1E7284630BD4FF0000200B568
:10041000134694469646203922BFA0E80C50A0E827
:100420000C50B1F12001BFF4F7AF090728BFA0E8D5
:100430000C5048BF0CC05DF804EB890028BF40F8A1
:10044000042B08BF704748BF20F8022B11F0804FE3
:1004500018BF00F8012B704770477047704775460A
:1004600000F02CF8AE4605006946534620F0070020
:10047000854618B020B5FFF72DFFBDE820404FF0AE
:1004800000064FF000074FF000084FF0000B21F07E
:100490000701AC46ACE8C009ACE8C009ACE8C0094B
:1004A000ACE8C0098D46704710B50446AFF3008034
:1004B0002046BDE81040FFF7F8BE00000048704736
:1004C000841C002001491820ABBEFEE72600020074
:1004D0007047FEE7002070470020704710B50022EB
:1004E0000449054803F001FA0449034803F0F4F90C
:1004F000002010BD84180020B40F002084140020B8
:1005000010B5044608884FF0FF3382B221460648F2
:1005100001F08DFF2146054803F0DEF9034803F0A2
:10052000A3F9002010BD000090090020B40F0020A6
:1005300000207047094A10B5D2F8BC22D2F8142224
:100540000AB1012010BD0A460146044803F0CDF966
:10055000BDE81040014803F032BA0000B40F00209B
:10056000704772B6FEE710B590F8253000210122E1
:10057000022B03D00421C163012122E003681C681F
:1005800024F00E041C60836C1C6824F480741C60CE
:1005900003681C6824F001041C6090F84430046C6B
:1005A00003F01F0302FA03F36360D0E913345C60C5
:1005B000436D33B11C6824F480741C60D0E9163498
:1005C0005C6080F82520002280F82420084610BDB9
:1005D00070B590F82520002401212346022A07D077
:1005E0000422C26380F8251080F82430012429E019
:1005F0000268156825F00E0515600268156825F07B
:1006000001051560826C156825F48075156090F8F9
:100610004420056C02F01F0201FA02F26A60D0E980
:1006200013255560426D32B1156825F4807515604B
:10063000D0E91625556080F8251080F82430816BAC
:1006400001B18847204670BD70B5044600F040F9FE
:100650000546601C02D004484068044400F038F9A4
:10066000401BA042FAD370BD040000202DE9F04FDA
:10067000DFF82092002301260324A9F1040B85B0A2
:100680000F2709F1040AABF1040EFAE006FA03F5AC
:100690002A407CD091F804C00CF0030CBCF1010F8F
:1006A00002D0BCF1020F26D1D0F808C0CDF800C0AE
:1006B0004FEA430C04FA0CF8CDF810C0DDF800C086
:1006C0002CEA080CCDF800C0D1F80C80DDF810C081
:1006D00008FA0CF8DDF800C048EA0C08C0F80880F9
:1006E000D0F804C02CEA050C0D79C5F300159D4027
:1006F00045EA0C0545600D79ED43AD070ED0C568A0
:100700004FEA430804FA08FC25EA0C05D1F808C0B2
:100710000CFA08FC4CEA050CC0F80CC00D7905F089
:100720000305022D16D1DD0800EB850CCDF808C0BD
:10073000DCF820805D074FEAD56C07FA0CF528EA53
:1007400005080D6905FA0CF5DDF808C045EA08054D
:10075000CCF8205005684FEA430CCDF808C004FAE5
:100760000CFC25EA0C0591F804C00CF00308DDF838
:1007700008C008FA0CF848EA0508C0F800804D687F
:1007800015F4403F7CD0444DD5F860C000E077E0E0
:100790004CF0010CC5F860C02D6E23F0030C05F081
:1007A000010500953D4D65440295AD684FEA837C97
:1007B0004FEA1C7807FA08FC25EA0C05B0F1904FC7
:1007C00006D0DFF8DCC0604505D14FF0010C20E019
:1007D0004FF0000C1DE0DFF8CCC0604502D14FF0B7
:1007E000020C16E0DFF8C0C0604502D14FF0030CE8
:1007F0000FE0DFF8B8C0604502D14FF0040C08E00C
:10080000DFF8ACC0604502D14FF0050C01E04FF0BD
:10081000060C0CFA08FC4CEA050C029DC5F808C051
:10082000D9F80050CC46D1F8048095435FEAC82837
:1008300000D51543CCF80050DAF80050D446D1F872
:10084000048095435FEA882800D51543CCF8005012
:10085000DBF80050DC46D1F8048095435FEA883825
:1008600000D51543CCF80050DEF80050F446D1F81E
:10087000048095435FEAC83800D51543CCF8005092
:100880005B1C0A6832FA03F57FF400AF05B0BDE8DF
:10089000F08F0000080401400010024000000140F9
:1008A0000004004800080048000C00480010004800
:1008B00000140048426921EA02030A4043EA024167
:1008C000816170470AB181617047816270470000A1
:1008D00001488068704700000400002002488168D9
:1008E00042681144816070470400002010B5002464
:1008F000032000F073F80F2000F008F808B101247D
:1009000001E000F025F8204610BD000070B50E4E45
:1009100005460024706898B14FF47A71B1FBF0F08D
:100920000A490968B1FBF0F001F066FA40B9102DF0
:1009300006D200222946501E00F030F8356000E053
:100940000124204670BD000004000020100000209B
:100950000A4882B0016E41F001010166016E01F0AA
:1009600001010091816D41F080518165806D00F041
:100970008050009002B000F0A7BD000000100240BF
:10098000002809DB00F01F0201219140400980008E
:1009900000F1E020C0F8001170470000F0B40E4BE9
:1009A0001B680C46C3F30223C3F10705042D00D9CD
:1009B0000425191D072901D2002300E0DB1E0126B2
:1009C00006FA05F1491E214099409E40761E1640C8
:1009D0003143F0BC04F05AB90CED00E0064900F0D8
:1009E000070208684FF6FF03184040EA0220034A56
:1009F00010430860704700000CED00E00000FA05AD
:100A000001220168C0F8D022002280F8C82231F803
:100A1000540F40F001000880088840F00200088070
:100A20001046704770B50F4D044669B101290AD1CF
:100A3000D4F8D80203F08FFA607A002803D028682F
:100A400040F00600286070BD607A28B101F0FCFF1C
:100A5000286820F006002860D4F8D802BDE870406D
:100A600003F011BA10ED00E010B50C0607D501F047
:100A7000070101EB810100EBC100103005E001EB43
:100A8000810100EBC10000F5A87099B232B10122DA
:100A900002730181190C4181002010BD00220273F4
:100AA000C180F9E701EB810200EBC202D0F8D80265
:100AB000526A03F0C6B801EB810200EBC202D0F823
:100AC000D802D2F8642103F010B970B504460B06C1
:100AD00001F0070000EB800104EBC1014FF00102BF
:100AE0004FF0000502D54A74103103E081F85151EE
:100AF00001F5A871087094F89002012808D084F8D4
:100B00009022206803F0D9FD84F89052002070BD37
:100B1000022070BD70B5044601F00F0022799042AA
:100B200001D9012070BD0B0601F0070000EB800128
:100B300004EBC1014FF001024FF0000502D54A74E9
:100B4000103103E081F8515101F5A8718D700870E2
:100B500094F89002012808D084F89022206803F0CD
:100B60004BFE84F89052002070BD022070BD2DE92C
:100B7000F04704685FEA42480B788D69B4F850800A
:100B80004FF0000C4BF68F7748F2800648F68F79CD
:100B900048F2C00A444428D540F2024808EBC30892
:100BA00034F80840C4F30904A54203D32D1B8D611A
:100BB00002D00BE0C1F818C0D0F800C03CF82350B8
:100BC0003D4085F4005535432CF82350520609D595
:100BD0000B78056835F8232002EA090242EA0A0286
:100BE00025F8232074B30A8927E040F2064808EB71
:100BF000C30834F80840C4F30904A54203D32D1BED
:100C00008D6102D00BE0C1F818C0D0F800C03CF8EC
:100C100023503D4085F4005535432CF823505206AF
:100C200009D40D78036833F8252002EA090242EA64
:100C30000A0223F825202CB14A8949690068234615
:100C400003F0F5FF2046BDE8F0872DE9F05F05468B
:100C500000680C465FEA42681646D1F818C0227850
:100C6000B0F8508048F6BF7A48F2800B48F68F778C
:100C70004CF280094FF6FF734FF4004E4FF0000125
:100C800040447DD540F2024808EBC20830F8080025
:100C9000C0F30900844514D9BCEB000CC4F818C09B
:100CA00010D0760408D5D5F800C03CF822603E404C
:100CB00046EA09062CF8226094F82420012A60D024
:100CC00076E1A161607810B1012813D01AE028689C
:100CD000B0F85030184400EBC200B0F80224C2F360
:100CE0000902A0F80224B0F8022442F40042A0F85D
:100CF000022407E02868B0F85030184400EBC20026
:100D0000A0F802146278286812B1012A11D018E004
:100D1000B0F850100844217800EBC100B0F8061478
:100D2000C1F30901A0F80614B0F8061441F400411B
:100D300005E0B0F850201044227800EBC200A0F883
:100D40000614E07802280BD12278296831F82200B5
:100D500000EA0A0080F0200040EA0B0021F822009F
:100D600021782846FFF79EFE700408D521782A686E
:100D700032F82100384040EA090022F82100C3E09F
:100D80004DE0626902446261E2690244E2612669FF
:100D9000226AB24202D33046111A03E084F82410CA
:100DA0000AB110462162617811B101292BD033E0DC
:100DB0002968B1F850201144227801EBC201B1F842
:100DC0000224C2F30902A1F8022401F2024158B13F
:100DD0003E280ED84208C60700D0521C0E8803EAEF
:100DE000822216430E8017E00A8842F400420A80ED
:100DF00012E04209C30600D1521E0B884EEA82223D
:100E000013430B8008E02968B1F850201144227880
:100E100001EBC201A1F8020483B22289C4E040F2CE
:100E2000064808EBC20830F80800C0F30900844502
:100E300014D3BCEB000CC4F818C010D0760408D44E
:100E4000D5F800C03CF822603E4046EA09062CF87E
:100E5000226094F82420012A59D0A9E0A161607889
:100E600010B1012813D01AE02868B0F850301844A7
:100E700000EBC200B0F80224C2F30902A0F8022479
:100E8000B0F8022442F40042A0F8022407E02868E7
:100E9000B0F85030184400EBC200A0F80214627899
:100EA000286812B1012A11D018E0B0F85010084497
:100EB000217800EBC100B0F80614C1F30901A0F8D5
:100EC0000614B0F8061441F4004105E0B0F85020D3
:100ED0001044227800EBC200A0F80614E078022843
:100EE0000BD121782A6832F8210000EA0A0080F04C
:100EF000200040EA0B0022F8210021782846FFF765
:100F0000D1FD70047FF532AF0020BDE8F09F62692B
:100F100002446261E2690244E2612669226AB242E5
:100F200003D33046111A216204E00AB1104621624F
:100F300084F824106278296812B1012A2AD031E09D
:100F4000B1F850201144227801EBC201B1F8062417
:100F5000C2F30902A1F8062401F2064158B13E2865
:100F60000ED84208C60700D0521C0E8803EA82221F
:100F700016430E8016E00A8842F400420A8011E00F
:100F80004209C30600D1521E0B884EEA8222134347
:100F90000B8007E0B1F850201144227801EBC20128
:100FA000A1F80604628983B26169286803F05AFED9
:100FB0002278296831F8220000EA0A0080F0300027
:100FC00040EA0B0021F822009EE701F0070101EB47
:100FD000810100EBC100D0F86C0170472DE9F041B0
:100FE00004460F0601F0070000EB800104EBC1018D
:100FF0004FF001064FF0000502D54E74103103E0AA
:1010000081F8515101F5A871022B0870C2F30A0052
:101010000861CB7000D10D7194F89002012809D0BD
:1010200084F89062206803F093F9284684F890527F
:10103000BDE8F0810220FBE710B501F0070404EBE6
:10104000840100EBC101C1E959230022C1F86C21E0
:1010500081F8512181F85041006801F5A87103F031
:101060001DFC002010BD70B5044601F00700227978
:10107000904201D9012070BD0B064FF000054FF0E2
:10108000010206D500EB800104EBC1014A74103166
:1010900007E001EB810104EBC10181F8515101F539
:1010A000A8718A70087094F89002012808D084F81A
:1010B0009022206803F0D8FB84F89052002070BD85
:1010C000022070BD10B501F0070404EB840100EBB1
:1010D000C101C1E90923012281F834200B630023F7
:1010E000CB624A7401F8104F006803F0D7FB002070
:1010F00010BD10B50446006803F096FD010404D548
:101100002046BDE8104001F0DBBA41050ED520684D
:1011100030F8441F21F480610180204600F008F976
:101120002046BDE81040002100F02EB9410405D54D
:10113000206830F8441F21F480417DE0810405D50A
:10114000206830F8441F21F4005175E0C1041FD518
:10115000206830F8401F21F004010180206830F839
:10116000401F21F00801018094F8C802012806D12F
:10117000002084F8C80201462046FFF753FC2046B1
:1011800000F0EAF8206830F8441F21F4805153E061
:10119000010512D5206830F8401F41F00801018098
:1011A000206830F8441F21F400610180206830F885
:1011B000401F41F0040101800AE0010629D52068A2
:1011C00030F8441F21F08001018094F8C80218B162
:1011D000204600F009F910BD206830F8401F41F0AA
:1011E00004010180206830F8401F41F008010180AF
:1011F000012084F8C8022068B0F854003C2101EABC
:101200009000C4F8CC022046BDE810400121FFF751
:1012100009BC810509D5206830F8441F21F400710C
:101220000180204600F0ACF810BDC005FCD5206858
:1012300030F8441F21F48071018010BD70B50400A6
:1012400004D094F89102002510B106E0012070BD91
:1012500084F89052204600F03FF8032084F8910271
:10126000206803F0C1FA002001260BE000EB8001AA
:1012700004EBC1014E740874CD740D624D62401CC4
:10128000C0B28D6221798142F0D8002012E000BF07
:1012900000EB800104EBC10181F8515181F850014C
:1012A00081F85351C1F86051C1F86451401CC0B27B
:1012B000C1F8685121798142EAD894E8070003F027
:1012C0008AFA257384F89162A07A012802D1204617
:1012D000FFF796FB002070BD10B592B00446442184
:1012E0006846FFF792F81049206888421AD14014E6
:1012F000009000200D90684600F0EEF808B1FFF76E
:1013000030F90A48816D41F400018165806D002249
:1013100000F40000119011461420FFF73FFB142049
:10132000FFF72EFB12B010BD005C00400010024021
:1013300070B5044640790125022801D0FFF711F964
:101340002946D4F8D80202F0B8FDD4F8D802BDE896
:10135000704002F06BBD000010B50446407A30B119
:101360000648016821F00601016001F06DFBD4F828
:10137000D802BDE8104002F086BD000010ED00E08C
:10138000D0F8D80202F089BD10B5044690F890025A
:1013900001280AD0012084F890022173206803F00C
:1013A0005AFC002084F8900210BD022010BDD0F835
:1013B000D82200F52671104602F08BBD10B5044608
:1013C00090F8900201280CD0012084F89002206847
:1013D00003F01BFC206803F0F7F9002084F890026A
:1013E00010BD022010BD000010B50446D0F8D80290
:1013F00002F0B1FD607A002804D00348016841F092
:101400000601016010BD000010ED00E02B492C4BDF
:101410000A6832214A432B4940B1B0F5007F086881
:1014200029D020F4C06040F480602CE00868C0F34C
:101430004120022804D051F8800F20F4807022E06F
:10144000D1F8800020F48070C1F88000086820F492
:10145000C06040F400700860B2FBF3F0401C00E094
:10146000401E4A69520501D50028F9D14869400556
:101470000AD503207047C0F34120022806D051F856
:10148000800F40F48070086000207047D1F8800021
:1014900040F48070C1F88000086820F4C06040F417
:1014A00000700860B2FBF3F0401C00E0401E4A6987
:1014B0005205DBD50028F9D1D8E700001000002044
:1014C00040420F00007000400248816841F48041B2
:1014D00081607047007000402DE9F84304460068C1
:1014E00000269D4D00035ED5A86D0027C00008D4DE
:1014F000A86D40F08050A865A86D012700F08050CD
:101500000090DFF85892D9F8001041F48071C9F8C2
:101510000010FFF7DDF9804606E000BFFFF7D8F9BD
:10152000A0EB080002282BD8D9F80000C005F5D59B
:10153000D5F8900010F4407014D0216C814211D085
:10154000D5F89000D5F8901020F4407041F4803127
:10155000C5F89010D5F8901021F48031C5F890109E
:10156000C5F89000C00711D0FFF7B2F9804641F2EC
:10157000883907E0FFF7ACF9A0EB0801494501D92C
:1015800003260BE0D5F890008007F3D5D5F890003E
:10159000216C20F440700843C5F890001FB1A86D7D
:1015A00020F08050A8652078C00707D0D5F88800C3
:1015B000616820F003000843C5F8880020788007A0
:1015C00007D5D5F88800A16820F00C000843C5F8BD
:1015D00088002078400707D5D5F88800E16820F01A
:1015E00030000843C5F888002078000707D5D5F8F3
:1015F0008800216920F0C0000843C5F888002078E1
:10160000800607D5D5F88800616920F4406008435A
:10161000C5F888002078400607D5D5F88800A1696C
:1016200020F440500843C5F888002078000607D50C
:10163000D5F88800E16920F440400843C5F88800E7
:101640002088C00507D5D5F88800216A20F44030ED
:101650000843C5F888002088800507D5D5F888009C
:10166000616A20F440200843C5F8880020884005BE
:101670000FD5D5F88800A16A20F440100843C5F8BA
:101680008800A06AB0F5801F03D1E86840F480109C
:10169000E860208800050FD5D5F88800E16A20F4BD
:1016A00040000843C5F88800E06AB0F5800F03D118
:1016B000E86840F48010E8602088C0040FD5D5F8B1
:1016C0008800216B20F040700843C5F88800206B2B
:1016D000B0F1807F03D1E86840F48010E860208892
:1016E0004FF0006180040ED5D5F88800626B20F0C1
:1016F00040601043C5F88800606B884203D1E868F9
:1017000040F48010E860208840040ED5D5F88800A9
:10171000A26B20F040601043C5F88800A06B88429F
:1017200003D1E86840F48010E860208800040FD5F9
:10173000D5F88800E16B20F040500843C5F88800D8
:10174000E06BB0F1805F03D1E86840F48030E8607E
:101750003046BDE8F88300000010024000700040F1
:101760002DE9F0470E4605004FF0000725D0DFF8C1
:10177000AC81D8F8000000F00F00B0420CD2D8F8CD
:10178000001021F00F013143C8F80010D8F8000014
:1017900000F00F00B04210D12968614CC80741F237
:1017A000883A5AD06868DFF87C91032808D002286C
:1017B00020682DD0400500282CDB0120BDE8F087F3
:1017C00020688001F9D5E06800F00302E068C0F30A
:1017D0000310401C032A19D0534A00BFB2FBF0F09B
:1017E000E268C2F306225043E268C2F34162521C2F
:1017F0005200B0FBF2F0484517D9A06810F0F00F86
:101800000CD0880711D5A86840B10EE0474AE5E73B
:101810008003D0E700F0B6F8484506D9A06820F06C
:10182000F00040F08000A0608027A068696820F088
:1018300003000843A060FFF74BF8814606E000BFB5
:10184000FFF746F8A0EB090151453AD8A06869684E
:1018500000F00C00B0EB810FF2D12868810714D59D
:10186000400703D5A06840F4E060A0602878000736
:1018700005D5A06820F4605040F4E060A060A06846
:10188000A96820F0F000084304E0802F03D1A0688D
:1018900020F0F000A060D8F80010404601F00F01E1
:1018A000B14216D9016821F00F0131430160FFF701
:1018B0000FF8074607E000BFFFF70AF8C11B5145C4
:1018C00001D903207AE7D8F8000000F00F00B042F9
:1018D000F2D12878400705D5A068E96820F4E060D7
:1018E0000843A0602878000706D5A068296920F47D
:1018F000605040EAC100A06000F044F8A1680C4AC2
:10190000C1F30311515C01F01F01C840094908608F
:1019100009480068BDE8F047FEF7F8BF0020024024
:101920000010024000B4C4040024F40000366E012C
:10193000124D000810000020040000200548064950
:1019400000688968054AC1F30221515C01F01F015A
:10195000C84070471000002000100240224D0008CF
:101960000548064900688968054AC1F3C221515CEF
:1019700001F01F01C8407047100000200010024015
:10198000224D0008184910B58868C0F38102174835
:10199000012A0BD08A68164BC2F38102022A06D0B4
:1019A0008A68C2F38102032A03D0002010BD1846C2
:1019B00010BDCA6802F00304CA68C2F30312521CC5
:1019C000032C02D0B0FBF2F001E0B3FBF2F0CA68E6
:1019D000C968C2F306225043C1F34161491C490062
:1019E000B0FBF1F010BD0000001002400024F40034
:1019F00000366E012DE9F84304007AD02078F84DC6
:101A0000C00747D0A868E96800F00C0001F00301A6
:101A10000C2802D0082817D001E0032914D06068F0
:101A2000B0F5803F17D0B0F5A02F286817D020F46C
:101A300080302860286820F4802028606068E0B149
:101A4000FEF746FF064614E02868800322D560684A
:101A50000028D2D01EE0286840F48030EDE740F442
:101A600080202860F7E700BFFEF732FF801B642864
:101A700070D828688003F7D50CE0FEF729FF0646EA
:101A800005E000BFFEF724FF801B6428F0D828681B
:101A90008003F7D4207880074CD5A868E96800F067
:101AA0000C0001F003010C2802D004280DD001E045
:101AB00002290AD0E068002828682BD040F4807002
:101AC0002860FEF705FF064619E02868400502D5A4
:101AD000E068002891D06868217C20F0FE4040EA50
:101AE00001606860BF480068FEF710FF002800D161
:101AF00020E072E1FEF7ECFE801B0228B8D82868CF
:101B00004005F7D56868217C20F0FE4040EA01607E
:101B100068600FE020F480702860FEF7D9FE06466A
:101B200005E000BFFEF7D4FE801B0228A0D828687D
:101B30004005F7D42078000729D560690028D5F83A
:101B4000940013D040F00100C5F89400FEF7C0FEE9
:101B5000064606E090E000BFFEF7BAFE801B0228B2
:101B600086D8D5F894008007F6D510E020F0010063
:101B7000C5F89400FEF7ACFE064604E0FEF7A8FEAA
:101B8000801B022878D8D5F894008007F6D42078F6
:101B9000400761D5A86D0026C00008D4A86D40F0AC
:101BA0008050A865A86D012600F0805000908E48F6
:101BB0000168C90511D40168804641F48071016053
:101BC000FEF786FE074604E0FEF782FEC01B0228F1
:101BD00052D8D8F80000C005F6D5A068012815D065
:101BE0000528D5F8900016D020F00100C5F8900027
:101BF000D5F8900020F00400C5F89000A06841F2EC
:101C00008838B8B1FEF764FE07460EE0D5F89000BC
:101C100040F00100F0E740F00400C5F89000F5E75F
:101C2000FEF756FEC11B414526D8D5F89000800727
:101C3000F6D50CE0FEF74CFE074604E0FEF748FE42
:101C4000C11B414518D8D5F890008007F6D41EB1C5
:101C5000A86D20F08050A8652078800629D5A0695D
:101C60000028D5F8980013D040F00100C5F898007E
:101C7000FEF72EFE064606E075E000BFFEF728FEE2
:101C8000801B02286FD8D5F898008007F6D510E0A1
:101C900020F00100C5F89800FEF71AFE064604E0A1
:101CA000FEF716FE801B02285DD8D5F89800800745
:101CB000F6D4E069F0B3A968C1F3810103295DD0CE
:101CC0000228286820F08070286003D0FEF700FE0C
:101CD00004464BE0FEF7FCFD064604E0FEF7F8FD87
:101CE000801B02283FD828688001F7D4F4E9080156
:101CF0006FF00F0202EB01110843218A52044908D8
:101D000002EB4151A26841EA02210843217D4FF0D4
:101D10007E42490802EB41610843217B40EAC160F1
:101D2000E968324A11400843E860286840F0807052
:101D3000286000E05EE0E86840F08070E860FEF750
:101D4000C7FD044605E000BFFEF7C2FD001B0228E8
:101D500009D828688001F7D54CE000BFFEF7B8FD30
:101D6000001B022802D90320BDE8F88328688001FF
:101D7000F4D4E8681E490840E8603BE00128F3D04D
:101D8000E868226A00F00301914226D1616A00F0FE
:101D9000F0020901103991421FD1A26A00F4FE41FC
:101DA000B1EB022F19D194F82C2000F07841B1EB5F
:101DB000C26F12D1218E00F4C00249084905A1F575
:101DC0000011914209D194F8341000F0C060490824
:101DD0004906A1F1007181420CD00120C4E7000046
:101DE0000010024004000020007000400C809F01A1
:101DF000FCFFEEFE0020B7E710B5401EB0F1807F7B
:101E000001D3012010BD4FF0E02460610F21601765
:101E100002F03CFF0020A06107202061002010BDDF
:101E200090F88410012918D0012180F88410242111
:101E3000C0F8881001680A680B6823F001030B6082
:101E400022F0005100224266036819602021C0F888
:101E5000881080F88420104670470220704770B5C3
:101E60000446D0F88C000025202801D0022070BD47
:101E700069B162B10120E06600202067204601F0D0
:101E8000D9FAE06E012804D00125284670BD012052
:101E900070BD216810200862216851E8000F40F0F1
:101EA000100041E80002002AF6D1EEE710B5006804
:101EB000104A90421CD1104C2068FEF73BFB0FA14A
:101EC0002068FEF790FA20B14FF400510E48FEF75B
:101ED000F1FC0E482168814201D100F5806020604C
:101EE0000146BDE810404FF480620948FFF7B7BFD4
:101EF00010BD0000004C004000000020546F6767D8
:101F00006C654C454400000000080048900100202A
:101F100090090020704770B5044690F884000128AD
:101F20001DD0012084F884002420C4F88800206893
:101F30000568026822F0010202602068826822F0CF
:101F400060620A438260204600F0C4FD206805609C
:101F50002020C4F88800002084F8840070BD02208E
:101F600070BD70B5044690F8840001281DD0012092
:101F700084F884002420C4F888002068056802687A
:101F800022F0010202602068826822F060420A4367
:101F90008260204600F09EFD206805602020C4F885
:101FA0008800002084F8840070BD022070BD704756
:101FB000704770472DE9F04103680446D8691968F5
:101FC0009A6840F60F0528424FF000054FF00206D0
:101FD0000AD187067ED501F0200702F0805C57EA1F
:101FE0000C0777D0616F42E1B64FDFF8DCC21740D3
:101FF00001EA0C0C57EA0C0C6CD05FEAC07C0CD0E8
:102000005FEAC15C09D54FF0010CC3F820C0D4F8D9
:10201000903043F00103C4F89030830709D5D3070B
:1020200007D023681E62D4F8903043F00403C4F84C
:10203000903043070AD5D30708D0266804233362BB
:10204000D4F8903043F00203C4F8903003070CD565
:1020500001F020033B4308D0266808233362D4F8FC
:10206000903043F00803C4F8903003050BD54B01C2
:1020700009D526684FF400633362D4F8903043F0FA
:102080002003C4F89030D4F89030002B3DD0800667
:1020900009D501F0200002F08051084303D0616FA0
:1020A00009B120468847D4F890002168896849061C
:1020B00002D410F0280F2AD0204600F0EFFD20684F
:1020C000806840061ED52068083050E8001F21F0C7
:1020D000400100E021E040E80012002AF3D1D4F8EA
:1020E000800078B179498163D4F88000FEF770FAF6
:1020F00000280AD0D4F88000816B00E02046BDE8BB
:10210000F04108472046FFF754FFBDE8F081204624
:10211000FFF74FFFC4F89050F7E7D4F86CC02027C2
:10212000BCF1010F7ED15FEAC06C7BD55FEAC16C68
:1021300078D51020186220688068400651D5D4F800
:1021400080100A6850680004000C3ED0B4F85C307F
:1021500083423AD9A4F85E000868006880062CD44F
:10216000216851E8000F20F4807041E80002002A45
:10217000F6D12068083050E8001F21F0010140E846
:102180000012002AF5D12068083050E8001F21F025
:10219000400140E80012002AF5D1C4F88C70E566D1
:1021A000216851E8000F20F0100041E80002002AE9
:1021B000F6D1D4F88000FEF7D6F92667B4F85C00B3
:1021C000B4F85E10401A81B207E0B4F85C108142A6
:1021D0009BD11068800698D526672046FFF766FEDB
:1021E00093E7B4F85C00B4F85E10401A81B2B4F81A
:1021F0005E00002889D0002987D0226852E8000FAD
:1022000020F4907042E80003002BF6D12D4BDB4305
:102210002068083050E8002F1A4040E8002CBCF13C
:10222000000F00E00EE0F3D1C4F88C70E56665673E
:10223000206850E8002F22F0100240E80023002B15
:10224000F6D1C9E7C60209D5560207D54FF480106A
:1022500018622046BDE8F041FFF7AABE03060AD582
:1022600001F0800302F40002134304D0A16F00299F
:102270007FF444AF49E7420611D54A060FD5204600
:10228000016851E8002F22F0400241E80023002BB2
:10229000F6D1C0F88870856700F020F935E70202B2
:1022A00006D54A0004D52046BDE8F041FFF77FBEC1
:1022B000C00195D5002993DA2046BDE8F041FFF72B
:1022C00029BE000001000010200100048D2C000830
:1022D00010B5040003D0D4F8880010B107E0012045
:1022E00010BD002084F88400204600F027F8242048
:1022F000C4F888002068016821F001010160A06A2B
:1023000010B1204600F008FC204600F059FF0128DB
:10231000E6D02068416821F49041416020688168DE
:1023200021F02A0181602068016841F0010101600B
:102330002046BDE8104000F053BC0000F0B597B057
:102340000446142111A8FEF760F844216846FEF700
:102350005CF831492068314C022700254FF4406673
:10236000884229D10820009004956846FFF7B4F808
:1023700008B1FEF7F6F8A06D40F40020A065A06D4E
:1023800000F400201690E06C40F00400E064E06C83
:10239000119600F0040016900520CDE91450CDE907
:1023A000127511A91E48FEF761F90022114634206A
:1023B000FEF7F4FA34202BE01A4988422AD104208F
:1023C000009003956846FFF787F808B1FEF7C9F853
:1023D000A06D40F48020A065A06D00F480201690D0
:1023E000E06C40F00200E064E06C119600F0020046
:1023F00016900720CDE91450CDE9127511A90A48AD
:10240000FEF734F9002211462720FEF7C7FA2720ED
:10241000FEF7B6FA17B0F0BD004C004000100240C5
:1024200000080048004800400004004870472DE9BB
:10243000F8430446D0F88800984616460D462028F2
:1024400002D00220BDE8F883A5B19EB10020C4F8F7
:1024500090002120C4F888001834FEF739FAA687C6
:102460008146E68754F8100C2027183CB0F5805FB1
:1024700002D003E00120E5E7206910B12E460025D7
:1024800010E000260EE08021204601F05BF8C0B984
:10249000DEB116F8010B21688862B4F85600401EC0
:1024A000A4F85600B4F856004B464FF00002CDF8A1
:1024B00000800028E7D14FF04001204601F042F8AB
:1024C00040B1C4F888700320BCE735F8020BC0F3B4
:1024D0000800E0E7C4F888700020B3E77047FEE723
:1024E000F0B500230A24302537261F4611E000BF2F
:1024F000B4EB107F02D905EB107C01E006EB107CF9
:1025000001F813C001EB430C00015B1C8CF8017057
:10251000DBB29342ECD3F0BD30B587B014216846EE
:10252000FDF773FF1A48C16C41F00401C164C16C2E
:1025300001F004010591C16C41F02001C164C16C3E
:1025400001F020010591C16C41F00201C164C16C30
:1025500001F002010591C16C41F00101C164C06C40
:102560000C4D00F001004FF460440590002221461C
:102570002846FEF7A7F9012000210094CDE90101CA
:10258000039169462846FEF771F807B030BD000098
:102590000010024000080048184810B516490160B4
:1025A0004FF4E1214160002181600C22C160C0E94B
:1025B00004128161C161016241628162FFF788FE9C
:1025C00008B1FDF7CEFF00210C48FFF7CAFC08B1A7
:1025D000FDF7C7FF00210948FFF79DFC08B1FDF793
:1025E000C0FF0648FFF71CFC002803D0BDE81040E0
:1025F000FDF7B7BF10BD0000004C0040900900205F
:10260000184810B5164901604FF4E13141600021CE
:1026100081600C22C160C0E904128161C161016264
:1026200041628162FFF754FE08B1FDF79AFF002175
:102630000C48FFF796FC08B1FDF793FF002109480D
:10264000FFF769FC08B1FDF78CFF0648FFF7E8FBD0
:10265000002803D0BDE81040FDF783BF10BD000087
:1026600000480040240A002010B500220F491048FD
:1026700001F0C2FA08B1FDF774FF0E490C4801F0F1
:1026800092FC08B1FDF76DFF0B49094801F000F914
:1026900008B1FDF766FF064801F000FD002803D0F1
:1026A000BDE81040FDF75DBF10BD00001400002024
:1026B000B40F00205801002068000020FEE7FEE76C
:1026C0002DE9F84F044640F68F7A40F2064B48F663
:1026D0000F784FF000098BE1B0F8441011F00F05AE
:1026E0003AD030F8256031047DD530F8251001EA64
:1026F0000A0141F0800120F8251005EB850004EB6C
:10270000C00797F85C0107F5A87700286CD0F87827
:1027100002286AD03978226832F8210048F68F738F
:10272000184048F2C003184322F821003878D4F842
:1027300000C03CF820104904BCF8501001EB0C021A
:102740007ED540F2024101EBC000105A8005800D99
:10275000009076D03A89A7E0C9062AD4018801EA18
:10276000080141F400410180206804F11005B0F82F
:102770005010227C014440F2024000EBC200085A93
:10278000C0F30900E062616A0844606200212046EB
:10279000FEF788F9207B00289DD0A86900289AD1EF
:1027A000207B40F080012068A0F84C1084F80C9049
:1027B0001EE1018804F5A8750A051ED5B0F8501071
:1027C0000A1829780BEBC100105A04F52671C0F3E2
:1027D0000903EB61EA88206802F029FA2168088879
:1027E00000EA0A0002E07BE03FE04EE040F08000BB
:1027F00008802046FEF7DBFDFAE00904D8D5018801
:1028000001EA0A0141F0800101802068B0F850100F
:102810002A7808440BEBC201405A83059B0DEB61FB
:102820000DD0696959B1EA88206802F000FAE969B7
:1028300068690844686100212046FEF73CF901E020
:102840002AE028E0206801880A050DD4C1F301318F
:10285000032909D001884BF68F72114081F4405151
:1028600048F2800211430180C2E02068B0F85010A5
:102870003B780A180BEBC301515A8905890D009169
:1028800017D0FA887969009B11E032463946204614
:10289000FEF76DF900900CE00BEBC000105A8005BC
:1028A000800D009005D07A8903466046796902F070
:1028B000BEF9F96900980844F861786900990844FC
:1028C0007861B86918B139690098814204D93978BA
:1028D0002046FEF7F0F803E03946206801F0DEFFFD
:1028E00030062DD505EB850004EBC001206830F8DB
:1028F000252002EA080242F4004220F82520C87C84
:10290000103101281DD0F0056ED42068B0F8502099
:1029100013180A7840F2024000EBC200185A8A6984
:10292000C0F30900824258D9121A8A6157D04A6905
:1029300002444A61CA691044C861206801F0AEFFD0
:1029400056E0C1F818900A7B48461AB3720622D5A1
:102950004A7812B1012A14D041E02068B0F8502022
:1029600010440A7800EBC200B0F80224C2F3090256
:10297000A0F80224B0F8022442F40042A0F8022495
:102980002DE02268B2F850301A440B7802EBC302F3
:10299000A2F8020423E04B78226813B1012B13D074
:1029A0001DE0B2F8500010440A7800EBC200B0F805
:1029B0000624C2F30902A0F80624B0F8062442F463
:1029C0000042A0F806240AE0B2F850301A440B780E
:1029D00002EBC302A2F8060401E0C1F818900978DE
:1029E0002046FEF75FF803E032462046FEF72DF959
:1029F0002068B0F8441009043FF56EAE0020BDE831
:102A0000F88F704770B50B4D4FF4004400222146FB
:102A10002846FDF757FF012291032846FDF752FF94
:102A20000A20FDF711FE21462846BDE8704001222C
:102A3000FDF748BF0008004870470178407841EA38
:102A400000207047FDF74ABF10B594B038216846A2
:102A5000FDF7DBFC14210EA8FDF7D7FC0020FEF7E4
:102A6000D5FC212000904FF48030019003240621F2
:102A70000120CDE90841069002205521CDE90A1038
:102A800007900421CDE90C106846FEF7B3FF08B1AA
:102A900072B6FEE70F20CDE90E04002010901190D1
:102AA000129004210EA8FEF75BFE002801D072B63A
:102AB000FEE714B010BD00000248016841F4700147
:102AC0000160704788ED00E00148FFF773BA00002D
:102AD0009009002030B5416EB9B1026891689268E2
:102AE000C1F342610B4B520F9C5CE50003F10804FB
:102AF000A25CB5FBF2F2A0F86A205A5C615CD200DD
:102B0000B2FBF1F1A0F8681030BD0121A0F86A1005
:102B1000F8E70000024D000890F82810090706D5D4
:102B200001684A68836B22F400421A434A6090F8B5
:102B30002810C90706D001684A68C36A22F4003227
:102B40001A434A6090F82810890706D501684A6838
:102B5000036B22F480321A434A6090F82810490728
:102B600006D501684A68436B22F480221A434A6002
:102B700090F82810C90606D501688A68C36B22F44C
:102B800080521A438A6090F82810890606D5016899
:102B90008A68036C22F400521A438A6090F8281065
:102BA000490611D501684A68436C22F480121A4321
:102BB0004A60416CB1F5801F06D101684A68836C98
:102BC00022F4C0021A434A6090F82810090606D57C
:102BD00001684A68C06C22F4002202434A607047D0
:102BE0002DE9F84300260446C0F89060FDF770FE1A
:102BF0008046206800684FF0200500076FF07E4790
:102C000013D54346002229042046009700F09AFC81
:102C100058B1216851E8000F20F0800041E800021F
:102C2000002AF6D1C4F8885021E0206800684007E7
:102C300022D5434600224FF480012046009700F041
:102C400081FCC8B1216851E8000F20F4907041E880
:102C50000002002AF6D12068083050E8001F21F059
:102C6000010140E80012002AF5D1C4F88C5084F824
:102C700084600320BDE8F883C4F88850C4F88C5001
:102C800044F86C6F666026760020F3E710B5806A22
:102C90000021A0F85E10FFF78CF910BD10B5026896
:102CA00052E8001F21F4907142E80013002BF6D186
:102CB0000E4B0268083252E8001F194042E8001427
:102CC000002CF6D1C16E012908D1016851E8002F0E
:102CD00022F0100241E80023002BF6D12021C0F899
:102CE0008C100021C166416710BD0000FEFFFFEFA0
:102CF00010B5B0F86020D0F88C300168222B04D0D9
:102D0000886940F00800886110BD496A836D1140F0
:102D10001980816D891C8165B0F85E10491EA0F88C
:102D20005E10B0F85E100029EED1026852E8001F74
:102D300021F4907142E80013002BF6D101680831AC
:102D400051E8002F22F0010241E80023002BF5D1C9
:102D50002021C0F88C10002141670167154B0268E3
:102D60009A420BD05268120208D5036853E8002F2C
:102D700022F0806243E80024002CF6D1C26E012AC2
:102D800002D0FFF753FB10BDC166026852E8001F76
:102D900021F0100142E80013002BF6D10168CA6946
:102DA000D243D20601D410220A62B0F85C10FFF7B9
:102DB0007DF810BD008000402DE9F0470446B0F8D2
:102DC00060600068C569D0F800A0D0F80890D4F819
:102DD0008C10222905D0816941F008018161BDE88C
:102DE000F087B4F868704FF0000844E02068406A4B
:102DF000A16D30400880A06D801CA065B4F85E0015
:102E0000401EA4F85E002068C569690730D0E90754
:102E10000AD05FEACA5107D501210162D4F89000B7
:102E200040F00100C4F89000A8070BD55FEAC97014
:102E300008D0216802200862D4F8900040F0040015
:102E4000C4F8900068070BD55FEAC97008D0216804
:102E500004200862D4F8900040F00200C4F890000A
:102E6000D4F8900020B12046FFF7A3F8C4F8908072
:102E7000B4F85E0000B30FB1A806B7D4B4F85E0092
:102E80000028ACD0B4F868108142A8D92068083076
:102E900050E8001F21F0805140E80012002AF5D1CF
:102EA0002A486067206850E8001F41F0200140E890
:102EB0000012002AF6D192E7216851E8000F20F4B1
:102EC000807041E80002002AF6D1214A20680830CB
:102ED00050E8001F114040E80013002BF6D12020DD
:102EE000C4F88C00C4F874804046C4F87080194A55
:102EF000216891420BD04968090208D5226852E83E
:102F0000001F21F0806142E80013002BF6D1E16E32
:102F1000012903D02046FFF789FAAFE7E066216870
:102F200051E8000F20F0100041E80002002AF6D11D
:102F30002068C169C943C90601D410210162B4F8EF
:102F40005C102046FEF7B2FF98E70000F12C000865
:102F5000FEFFFFEF0080004010B5B0F86020D0F811
:102F60008C300168222B04D0886940F00800886109
:102F700010BD496A1140826D1170816D491C8165D7
:102F8000B0F85E10491EA0F85E10B0F85E1000297F
:102F9000EED1016851E8002F22F4907241E800233D
:102FA000002BF6D10168083151E8002F22F0010210
:102FB00041E80023002BF5D12021C0F88C1000211E
:102FC00041670167154B02689A420BD052681202A2
:102FD00008D5036853E8002F22F0806243E80024FC
:102FE000002CF6D1C26E012A02D0FFF71FFA10BDE5
:102FF000C166026852E8001F21F0100142E8001388
:10300000002BF6D10168CA69D243D20601D410223E
:103010000A62B0F85C10FEF749FF10BD0080004066
:103020002DE9F0470446B0F860600068C569D0F843
:1030300000A0D0F80890D4F88C10222905D081691E
:1030400041F008018161BDE8F087B4F868704FF085
:10305000000844E02068406AA16D30400870A06D0F
:10306000401CA065B4F85E00401EA4F85E00206815
:10307000C569690730D0E9070AD05FEACA5107D5A8
:1030800001210162D4F8900040F00100C4F89000E2
:10309000A8070BD55FEAC97008D021680220086232
:1030A000D4F8900040F00400C4F8900068070BD5F5
:1030B0005FEAC97008D0216804200862D4F8900043
:1030C00040F00200C4F89000D4F8900020B12046EF
:1030D000FEF76FFFC4F89080B4F85E0000B30FB144
:1030E000A806B7D4B4F85E000028ACD0B4F86810D5
:1030F0008142A8D92068083050E8001F21F0805193
:1031000040E80012002AF5D12A486067216851E89A
:10311000000F40F0200041E80002002AF6D192E7BB
:10312000216851E8000F20F4807041E80002002A75
:10313000F6D1214A2068083050E8001F114040E8CD
:103140000013002BF6D12020C4F88C00C4F8748042
:103150004046C4F87080194A216891420BD04968F2
:10316000090208D5226852E8001F21F0806142E878
:103170000013002BF6D1E16E012903D02046FFF7A2
:1031800055F9AFE7E066206850E8001F21F0100114
:1031900040E80012002AF6D12068C169C943C90677
:1031A00001D410210162B4F85C102046FEF77EFEC7
:1031B00098E70000592F0008FEFFFFEF0080004055
:1031C0002DE9F0410446016880682269E3691043F3
:1031D000626900251A431043DFF82CC20A688B4B42
:1031E0001A4002430A6020684168E26821F44051B5
:1031F000114341602168A069614501D0226A1043F2
:103200008A68834B1A4002438A602068C16A626AF6
:1032100021F00F011143C1627E4923687E488B4231
:103220000DD1D0F8880010F0030006D0012855D049
:10323000022842D003283FD152E001203DE07749E7
:103240008B420BD1D0F8880010F00C0035D0042848
:1032500033D0082840D00C282ED141E070498B4251
:103260000BD1D0F8880010F0300026D0102835D0CF
:10327000202831D030281FD132E06A498B420BD14F
:10328000D0F8880010F0C00017D0402826D0802841
:1032900022D0C02810D123E063450DD1D0F888009A
:1032A00010F4406009D0B0F5806F17D0B0F5006F12
:1032B00012D0B0F5406F13D010205B495B4F002651
:1032C0004FF4004263453BD160B1022813D004287B
:1032D0000BD0082872D10DE00220EEE70420ECE7C5
:1032E0000820EAE7FEF72AFB01E0FEF74BFB0100AE
:1032F00001D17CE01146606A37F810206768B1FBA5
:10330000F2F007EB4703834270D8B0EB073F6DD86C
:10331000002308461946FCF7EFFF090241EA106155
:1033200002027808101871413A460023FCF7E4FFC6
:103330003F4AA0F54071914258D82168C86056E0D4
:10334000E3694FF6EF7893422CD109284ED2DFE89B
:1033500000F00508114D0D4D4D4D1000FEF7EEFA31
:1033600001E0FEF7FDFA010004D140E0FEF70AFBA0
:10337000F9E71146606A37F81000B1FBF0F0410040
:10338000606801EB5001B1FBF0F0A0F11001414584
:103390002CD84FF6F0710140C0F342000143206881
:1033A000C16024E0092821D2DFE800F005091220DD
:1033B0000E2020201100FEF7C1FA02E016E0FEF711
:1033C000CFFA010004D112E0FEF7DCFAF9E711466A
:1033D000606A37F81000B1FBF0F1606801EB500152
:1033E000B1FBF0F0A0F1100141450AD901250120FF
:1033F000A4F86A0024F8680F2846E6602661BDE854
:10340000F08180B299E7000000800040F369FFCFAF
:10341000FFF4FF110038014000100240004400405A
:1034200000480040004C00400024F400EA4C000832
:10343000FFFC0F0070B58165A0F85C20A0F85E204D
:103440000023436781684FF48056FF24B14204D1C2
:103450000169F9B940F2FF1122E07F25C1B1B1F154
:10346000805F1AD0A0F86030C0F890302221C0F8F8
:103470008C100168083151E8003F43F0010341E836
:103480000034002CF5D1416EB1F1005F0ED031E077
:10349000016941B9A0F86040E6E7016919B13F212F
:1034A000A0F86010E0E7A0F86050DDE7B0F8681021
:1034B00091421FD88168B14201D10169B9B11D495A
:1034C0004167016941B1026852E8001F41F480710F
:1034D00042E80013002BF6D10168083151E8002FB3
:1034E00042F0805241E80023002BF5D120E0124940
:1034F0004167F1E78168B14201D1016969B10F49C2
:103500004167016959B1026852E8001F41F49071A6
:1035100042E80013002BF6D10AE00949416702682E
:1035200052E8001F41F0200142E80013002BF6D1C1
:10353000002070BD21300008B92D0008592F000867
:10354000F12C00082DE9F047994617460D46044630
:103550004FF00008089E33E0701C31D0FDF7B8F939
:10356000A0EB0900B04218D8BEB120680168490735
:1035700026D5802D24D0402D22D0C169C94309070A
:103580000DD4082505622046FFF788FBC4F890504B
:1035900084F884800120BDE8F0870320FBE7C06940
:1035A000C04300050CD421684FF400600862204637
:1035B000FFF774FB2020C4F8900084F88480ECE7C7
:1035C0002068C06935EA000004D00020B842C3D0AA
:1035D0000020E0E70120F9E70148FEF7EBBC00001E
:1035E000240A002010B50A46024903A000F0D4FACC
:1035F000004810BD8412002043444320436F6E6690
:10360000696700002DE9F0410C46D0F8C422D0F8DB
:10361000BC12E9B104EB840600EB86050027AB6918
:103620003BB102EBC602126AB3FBF2F602FB1632A2
:1036300082B1C1F81472D0F8C00203692BB1D1F87D
:103640000802224601F5047198470020BDE8F08188
:103650000320FBE700231A462146AF6100F084FCFB
:10366000F3E770B5D0F8BC4205466CB100F073FBCF
:10367000C4F80C02D5F8C012D4F80402CA6804F5E4
:1036800003719047002070BD032070BD70B50446E3
:10369000812100F0CDFA002525870121204600F088
:1036A000C7FAA4F878518221204600F0C1FAA4F8A4
:1036B0004C50A4F84E50D4F8BC0248B1D4F8C00223
:1036C00004F52F7440688047206800F03CFE2560B8
:1036D000002070BD1220088000487047380000208C
:1036E00010B5D0F8BC4284B1D0F8C01259B194F8EA
:1036F0000002FF2807D08B6894F8012221469847E2
:10370000FF2084F80002002010BD032010BD00003F
:103710000A21018000487047800000204321018079
:1037200000487047D00000204321018000487047C6
:103730008C000020432101800048704714010020C4
:103740002DE9F04704464FF4077000F0FDFD050039
:103750004FF0000735D0C4F8BC52207C4FF0100861
:103760004FF40079012680B34023022281212046B4
:1037700000F047FB2687402302220121204600F06B
:1037800040FBA4F87861A4F84E800823032282212C
:10379000204600F036FBA4F84C60D4F8C002006864
:1037A0008047C5F81472C5F81872207CD5F8042239
:1037B000A8B140230121204600F02FFB0020BDE8E6
:1037C000F0870220C4F8BC72F9E7FFE74B460222FB
:1037D0008121204600F015FB26874B46CCE74B465F
:1037E000E8E7000010B50A46024903A000F0D4F94A
:1037F000004810BD8412002043444320496E746584
:10380000726661636500000004200880004870470C
:103810003400002010B50A46024903A000F0BCF9AC
:10382000004810BD8412002053544D6963726F65C7
:103830006C656374726F6E696373000010B50A463D
:10384000024903A000F0A8F9004810BD841200202E
:1038500053544D3332205669727475616C20436F36
:103860006D506F727400000010B5D0F8BC1251B1E9
:10387000027C002AD1F8042207D04023012100F065
:10388000CCFA002010BD032010BD4FF40073F5E703
:1038900019B1C0F8C0120020704703207047000023
:1038A00010B51A2008800A480168001D0468001D30
:1038B0000068081809D008220649FEF711FE0549DC
:1038C000042210312046FEF70BFE0248801E10BD78
:1038D0009075FF1F4E000020D0F8BC0218B1C0F850
:1038E00004120020704703207047D0F8BC0228B1B2
:1038F000C0F81022C0F8081200207047032070475B
:103900002DE9FC410646D0F8BC7200200C468DF82B
:103910000000ADF80400054637B1207810F06001D2
:1039200028D0202944D102E00320BDE8FC81E288B0
:10393000C2B1000660780AD5D6F8C0128B68394645
:103940009847E288072A00D90722394628E087F8F5
:103950000002A07987F80102E2883946304600F07B
:103960006CF82AE0D6F8C012607800228B682146F5
:10397000984722E0607830B101281ED00A2809D08B
:103980000B2815D110E096F89C02032810D10222D2
:1039900001A905E096F89C02032809D10122694695
:1039A000304600F064F808E096F89C02032804D042
:1039B0002146304600F036F803252846B5E710B515
:1039C000D0F8BC12012219B1D1F8143213B10FE0B2
:1039D000032010BD0122C1F81422D1F81022C262C6
:1039E000D1F81032D1F80822812100F0BDFA00226E
:1039F000104610BD10B5D0F8B8220AB152689047F1
:103A0000002010BD134610B50A46002100F005FA4B
:103A1000002010BD134610B50A46002100F0A4FA9C
:103A2000002010BD10B50446802100F082FA204627
:103A3000BDE81040002100F07CBA10B50323C0F8A7
:103A40009432C0F858211346C0F85C210A46002180
:103A500000F0E3F9002010BD10B50521C0F8941264
:103A600000231A46194600F0D8F9002010BD10B501
:103A70000223C0F8943282611346C2610A460021D3
:103A800000F072FA002010BD10B50421C0F89412A5
:103A900000231A46194600F067FA002010BDF8B559
:103AA00004460020ADF8000048880D46010A0629AA
:103AB00047D006DC01290FD0022912D0032962D198
:103AC0001DE0072946D00F295DD1D4F8B402C269A0
:103AD00020E0694690473BE0D4F8B412207C0A68A5
:103AE000F7E7207C02260028D4F8B80205D0C16A86
:103AF000684688470146467036E0816AF8E7C0B2FA
:103B0000062840D2DFE800F003090D111519D4F89A
:103B1000B4024268B2B3207CDBE7D4F8B402826816
:103B2000F8E7D4F8B402C268F4E7D4F8B402026942
:103B3000F0E7D4F8B4024269ECE7D4F8B402826941
:103B4000E8E7207CF0B9D4F8B802416B68468847B2
:103B5000014609E0207CA8B9D4F8B802016B684698
:103B60008847014607204870EA888AB1BDF80000FE
:103B700040B1824200D90246ADF800202046FFF74E
:103B800076FFF8BDFFE729462046FFF74BFFF8E731
:103B90002046FFF779FFF4E770B5002300281ED018
:103BA0000025044602E06D1CEDB2641C2678002E50
:103BB000F9D1022404EB450414801278CA545B1C2A
:103BC0000322CA5400245B1C06E0CA545B1CDAB210
:103BD0008C54521CD3B2401C0278002AF5D170BD1F
:103BE00001004FF0000004D0012901D0022901D0CA
:103BF000032070470120704778B10023C0F8B83225
:103C0000C0F8C032C0F8CC3209B1C0F8B4120121FA
:103C100080F89C12027000F0A3B80320704710B522
:103C2000D0F8C402FCF776FFBDE81040FFF7D8BF1C
:103C300010B5D0F8C402FCF748FFBDE81040FFF70C
:103C4000CFBF70B51646044621B194F89C020328F4
:103C500041D048E0D4F8941204F114000025022960
:103C600032D1D0E902318B4206D95A1A82603146EC
:103C70002046FFF7CFFE0FE0994214D140688842FA
:103C800011D3D4F8981288420DD200221146204652
:103C9000FFF7C0FEC4F8985200231A461946204682
:103CA00000F0BBF810E094F89C02032805D1D4F88A
:103CB000B802C16809B1204688478021204600F03B
:103CC00038F92046FFF7C8FE94F8A00201280AD16F
:103CD00084F8A05207E0D4F8B80242691AB120462D
:103CE0009047002800D1002070BD10B5134604464F
:103CF00021B194F89C02032823D02AE0D4F894122E
:103D000004F5AA70032924D1D0E9021291420AD9FC
:103D10008A1A8260C068824200D302461946204651
:103D2000FFF770FE15E094F89C02032805D1D4F843
:103D3000B802016909B1204688472046FFF7A4FE72
:103D400007E0D4F8B80282691AB1204690470028EB
:103D500000D1002010BDD0F8C402FDF736B9000034
:103D600010B51E490446C1F8D802C0F8C4121C4858
:103D700008600820087102204871C871002008728C
:103D800048728872C8720846FDF758FA08B1FCF705
:103D9000E8FB0022D4F8C4021823114604F531745C
:103DA000FCF762FE5823002280212068FCF75CFEAD
:103DB000C023002281212068FCF756FE4FF488734F
:103DC000002201212068FCF74FFE4FF4807300228F
:103DD00082212068FCF748FE002010BDD80C00208E
:103DE000005C00400A0601F07F01D0F8C40201EB3C
:103DF000810100EBC10001D5807C704790F8520131
:103E0000704710B51C461346D0F8C4022246FDF791
:103E1000E5F8BDE81040FFF7E3BE10B5D0F8C402E6
:103E2000FDF70AF9BDE81040FFF7DABE70B50125CD
:103E3000044680F89C520020C4F894026060C4F8E4
:103E4000A402D4F8B802E0B1D4F8BC1221B142689F
:103E500012B10021204690470022402311462046FF
:103E6000FFF7CFFF4026A4F864513346002280219B
:103E70002046C4F86061FFF7C4FFA58400202662D5
:103E800070BD032070BD90F89C12042903D190F8F6
:103E90009D1280F89C120020704710B5D0F8B8121F
:103EA00021B190F89C22032A02D004E0032010BD27
:103EB000C96901B18847002010BD01740020704716
:103EC00010B5D0F8C402FDF75FFABDE81040FFF767
:103ED00087BE70B5044600F2AA20054600F04DF8F2
:103EE0000120C4F89402B4F8B002C4F8980294F81F
:103EF000AA0210F01F010AD001290ED0022912D007
:103F000000F080012046BDE8704000F012B829465C
:103F10002046BDE8704000F0C3B829462046BDE801
:103F2000704000F0E7B929462046BDE8704000F037
:103F300041B910B5D0F8C402FDF795F8BDE81040BE
:103F4000FFF74EBE10B5D0F8C402FDF737FABDE852
:103F50001040FFF745BE90F89C1280F89D12042196
:103F600080F89C120020704710B5D0F8C402FDF70D
:103F7000A9F8BDE81040FFF733BE70B5054611F84B
:103F8000010B2870087868704C1C2046FEF755FD20
:103F90006880A41C2046FEF750FDA880A01CFEF7F8
:103FA0004CFDE88070BD38B504460020ADF8000037
:103FB00049B1C4F8B812C96A19B168468847C4F84B
:103FC000CC02002038BD032038BD02460320D2F8C1
:103FD000B832002B02D01B6810461847704700000B
:103FE0002DE9F0410F462C4E8978002504463170AA
:103FF000012906D939462046FFF714FD0320BDE804
:10400000F08194F89C0202280CD003281DD0394678
:104010002046FFF707FD31782046FFF7EBFC03252C
:104020002846ECE799B320466160FFF7CEFF050014
:1040300004D039462046FFF7F5FCF1E72046FFF7AC
:1040400023FD032084F89C02EAE74FF00208C1B187
:10405000606888421BD0C1B22046FFF7CBFC3178A4
:1040600020466160FFF7B1FF050010D039462046B9
:10407000FFF7D8FC21792046FFF7BCFC84F89C822E
:10408000CEE784F89C8220466160FFF7B3FC2046AF
:10409000FFF7FAFCC4E700007C000020FFF752BFE6
:1040A0002DE9F0410A78002512F0600208D0202A9C
:1040B00001D0402A71D1D0F8B8229268904731E0FF
:1040C0004B78002201260A2B67D2DFE803F0415E1D
:1040D0006658660805662D29FFF7E1FC5FE0044697
:1040E0008888D8B9C888C8B94888802816D200F00E
:1040F0007F0794F89C02032810D084F89E723946FA
:104100002046FFF7DDFE2046FFF7BEFC1FB1022070
:1041100084F89C0243E084F89C6240E020463CE046
:10412000FFF75EFF05463AE0CB88012B35D190F8CA
:104130009C32012B04D0022B02D0032B2DD104E0A2
:104140008260012200F1080116E00122011D13E046
:1041500090F89C22012A03D0022A01D0032A1CD104
:10416000CA88022A19D1C660D0F8A41209B1032165
:10417000C160022200F10C01FFF779FC0FE04988D1
:1041800001290CD1C0F8A46211E090F89C32012BF7
:1041900008D0022B06D0032B04D0FFF743FC28469F
:1041A000BDE8F08149880129F9D1C0F8A422FFF7C0
:1041B0006BFCF4E72DE9F0410D4604462878002613
:1041C000097910F060000BD0202801D040286DD173
:1041D000D4F8B8022946826820469047064686E011
:1041E0006878A8B3012822D003287CD194F89C02D7
:1041F000022802D0032876D10BE0002973D0802951
:1042000071D02046FFF795FE80212046FFF791FEF2
:104210006DE0688838B931B1802904D0E88810B9D8
:104220002046FFF786FE2046FFF72EFC5FE094F85D
:104230009C020228E1D0032855D16888A8BB480613
:1042400002D02046FFF7EBFC2046FFF71DFCBFE73E
:10425000FFE794F89C020027022802D0032842D1ED
:1042600011E009B180293ED1080601F07F0000EB82
:10427000800004EB800101D5143101E001F5AA7141
:1042800002220F602BE0080601F00F0000EB800017
:1042900004EB80000BD5808C40B101F07F0000EB77
:1042A000800004EB800514350CE020E01BE0B0F842
:1042B0006401C0B101F07F0000EB800004EB8005D9
:1042C00005F5AA7541B1802906D02046FFF78AFD81
:1042D00010B10120286000E02F600222294620460C
:1042E000FFF7C5FB03E029462046FFF79BFB30465E
:1042F000BDE8F08170B50646087800240D4610F040
:10430000600003D0202801D0402817D196F89C02E5
:10431000012803D0022801D003280FD128790128D1
:104320000CD8D6F8B8028268304690470446E88830
:10433000204306D13046FFF7A7FB02E03046FFF7E7
:1043400071FB204670BD704700487047B80A0020D6
:104350002DE9F04F0C78002530F8243048F68F1204
:104360001340CA78002A7DD0012A7CD0022A02D0CC
:10437000032A79D0012548F28002134320F8243023
:104380000E7830F8263048F68F74234033431343B9
:1043900020F826300B7B48F2C00A48F6BF774CF273
:1043A00080094BF68F764FF6FF7B4FF4004EE3B358
:1043B000CB7891F800C0022B30F82C307ED048F634
:1043C0008F6803EA0803134320F82C30B0F850300C
:1043D00091F800C0034403EBCC03B1F808C02CF003
:1043E000010CA3F800C4B0F8503091F800C00344A9
:1043F00003EBCC03B1F80AC02CF0010CA3F804C401
:104400004B7891F800C0002B30F82C304FEA434332
:104410007ED0002B06DA30F82C30234043EA090323
:1044200020F82C3091F800C000E02EE030F82C305D
:104430005B0606D530F82C30234043EA0A0320F807
:104440002C30CB780C78012B30F8243003EA0703AA
:1044500001D083F02003134320F824300B7830F888
:10446000231002E008E00DE009E03140114320F89C
:1044700023102846BDE8F08F43F400737BE743F434
:10448000C06378E743F4806375E74B78002BB0F89E
:104490005030034424D00E7803EBC603CE8826F0B8
:1044A0000106A3F800640B7830F82360760608D57F
:1044B00030F82360264046EA0A0600E061E020F872
:1044C0002360CB78012B06D00B7830F823103940CD
:1044D00081F02001CAE70B7830F823103940C5E796
:1044E0000F7803EBC703CF8827F00107A3F8047404
:1044F000B0F850300F78034403EBC703B3F80674E9
:10450000C7F30907A3F8067403F206430F6900E036
:104510003DE05FB13E2F0DD84FEA570CFF0701D0A9
:104520000CF1010C1F880BEA8C2C0CE01F8847F45F
:1045300000470AE04FEA571CFF0601D1ACF1010C1D
:104540001F884EEA8C2C47EA0C071F800F7830F842
:1045500027305B0406D530F82730234043EA0903AF
:1045600020F827300B782BB130F82310314081F43C
:1045700000517BE70188314081F4405111430180B3
:1045800077E7234048F2801843EA08031CE7002B32
:1045900006DA30F82C30234043EA090320F82C30A7
:1045A00091F800C030F82C305B0606D530F82C307E
:1045B000234043EA0A0320F82C304B7813B1012B37
:1045C0002DD035E0B0F850300C78034403EBC40331
:1045D000B3F80244C4F30904A3F802440C6903F2DB
:1045E00002435CB13E2C0ED84FEA540CE40701D0D4
:1045F0000CF1010C1C880BEA8C2C0DE01C8844F497
:1046000000441C8014E04FEA541CE40601D1ACF1D4
:10461000010C1C884EEA8C2C44EA0C04F1E7B0F83B
:1046200050300C78034403EBC4030C8AA3F8024413
:104630004B7813B1012B2DD035E0B0F850300C7809
:10464000034403EBC403B3F80644C4F30904A3F81A
:1046500006440C6903F206435CB13E2C0ED84FEAC7
:10466000540CE40701D00CF1010C1C880BEA8C2CD3
:104670000DE01C8844F400441C8014E04FEA541CF4
:10468000E40601D1ACF1010C1C884EEA8C2C44EA02
:104690000C04F1E7B0F8504023180C7803EBC40386
:1046A0000C8AA3F806440C7830F82430334083F4A5
:1046B0004053134320F824300DE72DE9F04391F8DF
:1046C0000C804F780A7848F6BF7C4BF68F7948F219
:1046D000800348F2C0054CF2800648F68F74B8F1AA
:1046E000000F28D0002F30F822704FEA474748D0FB
:1046F000002F05DA30F822702740374320F8227067
:104700000A7830F822707F0605D530F822702740ED
:104710002F4320F822700D7830F8252022403243B4
:1047200020F825200C7830F8242002EA0C021A43E5
:1047300020F824201AE07FB130F82260760605D5F3
:1047400030F8226026402E4320F822600A7830F8A4
:10475000221001EA0C010EE030F822506D0405D55C
:1047600030F822502540354320F822500A7830F89E
:10477000221001EA0901194320F822100020BDE8A7
:10478000F083002F05DA30F822702740374320F8F5
:1047900022700A7830F82260760605D530F822605B
:1047A00026402E4320F822600E7830F82620224042
:1047B0002A4320F826200C7830F8242002EA090247
:1047C0001A4320F82420C1E730F8581F41F4004173
:1047D000018000207047012120F8401F0021018046
:1047E000818001820846704730F8401F4BF6807286
:1047F000914301800020704730B54B780A78002B38
:1048000048F68F7530F8223048F2800415D05B06E8
:1048100007D530F822302B4048F2C0052B4320F852
:104820002230CA78012A1DD00A7830F8221048F6C2
:10483000BF73194081F0200111E05B0407D530F807
:1048400022302B404CF280052B4320F822300A788E
:1048500030F822104BF68F73194081F440512143F8
:1048600020F82210002030BD10B54A780978002ABF
:1048700048F2800330F8212005D048F6BF7422406A
:1048800082F0100204E04BF68F74224082F48052D2
:104890001A4320F82120002010BD00002DE9F04728
:1048A00006460C464878097B4FF0000848F68F72A0
:1048B00048F2801748F68F6348F2800A012809D031
:1048C000002971D0E07802286FD001286ED0012035
:1048D000BDE8F087A5692069854200D9054691B1F8
:1048E000E17802291ED0206A401B2062207836F829
:1048F00020104906B6F85010314401EBC00075D5C0
:10490000A0F8065418E1ABB2E2883046616900F0C5
:10491000A9F9B6F850002178304400EBC100A0F8A6
:1049200002540FE1216A81427AD9217836F82100B8
:104930001040384326F82100206A401B206220786E
:1049400036F820104FF6FF77490661784FF400499A
:1049500067D511B101292AD030E0B6F850103144A2
:1049600001EBC000B0F80614C1F30901A0F8061469
:1049700000F206404DB13E2D0CD86908EA0700D080
:10498000491C028807EA81210BE0018841F40041BB
:10499000018013E06909EA0600D1491E028849EA4C
:1049A00081210A43028009E0EFE008E11DE1B6F849
:1049B0005020911901EBC000A0F806546289ABB2F7
:1049C0003046616900F04EF96069284460612169F0
:1049D000206A884202D9401B206202E00546C4F8E2
:1049E0002080607818B101282BD032E02FE0B6F893
:1049F00050002178304400EBC100B0F80214C1F33C
:104A00000901A0F8021400F202405DB13E2D0ED85B
:104A10006908EA0700D0491C028807EA81210DE0F5
:104A2000A0E018E0018841F40041018011E069092B
:104A3000EA0600D1491E028849EA81210A43028020
:104A400007E0B6F850002178304400EBC100A0F830
:104A50000254228971E011B1012927D02DE0B6F866
:104A60005010314401EBC000B0F80214C1F3090149
:104A7000A0F8021400F202404DB13E2D0CD8690896
:104A8000EA0700D0491C028807EA81210BE001886F
:104A900041F40041018010E06909EA0600D1491E95
:104AA000028849EA81210A43028006E0B6F85010E4
:104AB000314401EBC000A0F802542289ABB2304669
:104AC000616900F0CFF86069284460612169206A5B
:104AD000884202D9401B206202E00546C4F82080CB
:104AE000607810B1012836D026E0B6F85000217861
:104AF000304400EBC100B0F80614C1F30901A0F87E
:104B0000061400F206404DB13E2D0CD86908EA07A4
:104B100000D0491C028807EA81210BE0018841F49A
:104B20000041018008E06909EA0600D1491E0288B7
:104B300049EA81210A4302806289ABB23046616949
:104B400000F090F8217836F8210048F6BF72104046
:104B500080F0300053E0B6F850108819217800EB4F
:104B6000C100CDE6227836F82200184040EA0A005B
:104B700026F82200B6F850002278304400EBC2003C
:104B80008BB2A0F802342289D8E7A06908B9E0788E
:104B900078B1217836F82100184040EA0A0000BFB9
:104BA00026F82100A169206981421ED9081AA06156
:104BB0001DE0217836F8210010403843F0E7E06925
:104BC000A8B1217836F82100430401D5430603D467
:104BD00044F2400318420AD136F82100104048F24E
:104BE000C002104326F8210001E0C4F818802178A3
:104BF00036F821004BF68F72104080F4405040EAA6
:104C00000A0026F82100002062E60021A0F84410E6
:104C10004BF68071A0F84010002070470148FCF767
:104C200068BA0000D80C0020B0F84400704710B5F6
:104C300010445C0800F5806008D030F8022B01F8C1
:104C4000012B120A01F8012B641EF6D1DA0701D0FC
:104C50000088087010BD11B98021A0F84C10002008
:104C60007047000010B55B1C10445B0800F58060C5
:104C70000AD000BF11F8012B11F8014B42EA0422BF
:104C800020F8022B5B1EF5D110BDFEE70907090EC7
:104C9000002804DB00F1E02080F80014704700F0E9
:104CA0000F0000F1E02080F8141D7047FBF71EFE96
:104CB000FDF7CAFEFDF730FCFDF76EFCFDF7A0FC2A
:104CC000FDF7D2FC04484FF4806201680348FDF709
:104CD000C6F8FDF797FEFEE70000002090090020CF
:104CE0004FF04070E1EE100A70470100020004002E
:104CF000060008000A000C001000200040008000A0
:104D00000001010101030701000008040204080179
:104D1000010100000000000000000102030406077A
:104D20000809000000000102030400004C4D0008C7
:104D3000000000209001000014020008144E00083A
:104D400090010020582100007002000813900133E8
:104D5000201082011324F413D536140809381B08D7
:104D600015041A3D041AA1041BE535041237420844
:104D700017040309041201140202021640830440BE
:104D8000571D0201020341031A1A0313DD041B0815
:104D9000D9041AD5041301051B08310441130A066E
:104DA00032022A40801C0902434B111DC032090403
:104DB000911A020B13052416100105240110090194
:104DC00004240202052406170107058203081C10AB
:104DD000090481320A1D07050102432C07058107DA
:104DE0000938442A40072A8107112B0907440A3B46
:104DF00004441341371C088D36EC4A39E81AE10C9B
:104E00001A05041A6304C11A29281A1D041A350444
:044E10001A1104006F
:04000005080001D915
:00000001FF
