:020000040800F2
:10000000F01F0020F9020008ED4F000865430008CA
:10001000E94F0008C5070008E97700080000000064
:10002000000000000000000000000000F54F000884
:100030005508000800000000F14F0008F94F0008C3
:100040001303000813030008130300081303000838
:100050001303000813030008130300081303000828
:100060001303000813030008130300081303000818
:100070001303000813030008130300081303000808
:100080001303000800000000130300081303000816
:1000900091760008130300081303000813030008F7
:1000A00013030008130300081303000813030008D8
:1000B00013030008130300081303000813030008C8
:1000C00013030008130300081303000813030008B8
:1000D00013030008F1590008FD590008095A0008E7
:1000E0001303000813030008130300081303000898
:1000F00013030008130300081303000800000000A6
:1001000000000000130300080000000013030008B3
:10011000B551000800000000130300081303000895
:100120001303000813030008130300081303000857
:100130001303000800000000000000001303000883
:100140001303000813030008000000000000000073
:10015000000000000000000000000000000000009F
:100160000000000000000000000000001303000871
:100170001303000800000000000000000000000061
:100180000000000013030008000000000000000051
:10019000000000000000000000000000000000005F
:1001A0000000000000000000130300081303000813
:1001B00013030008130300081303000800000000E5
:1001C0000000000013030008000000000000000011
:1001D000130300081303000800F002F800F07DF894
:1001E00014A696E8000CB244B344DA4501D100F0FD
:1001F00074F8BAE80F000FA696E83000A5EB0405E6
:1002000004EB0607AAEB0704A7F101074FEA15154F
:100210004FEA3414A4F10104AC4201D300F05DF8BC
:1002200013F0010F18BFFB1A43F0010300F001F8AF
:10023000DBE71847587F0000787F00000A444FF042
:10024000000C10F8013B13F0070408BF10F8014B35
:100250001D1108BF10F8015B641E05D010F8016B7A
:10026000641E01F8016BF9D113F0080F1EBF10F8DE
:10027000014BAD1C0C1B09D16D1E58BF01F801CB01
:10028000FAD505E014F8016B01F8016B6D1EF9D584
:100290009142D6D37047000070470000002300242D
:1002A00000250026103A28BF78C1FBD8520728BF86
:1002B00030C148BF0B607047642900F0298178295C
:1002C00000F06281732900F03E82002070471FB564
:1002D00007F012FF1FBD10B510BD00F038FA11462F
:1002E000FFF7F5FF07F07EFD00F056FA03B4FFF7C5
:1002F000F2FF03BC00F05EFA094880470948004756
:10030000FEE7FEE7FEE7FEE7FEE7FEE7FEE7FEE7C5
:10031000FEE7FEE704480549054A064B7047000022
:100320006D500008D9010008F0190020F01F0020CE
:10033000F01B0020F01B002053EA020C00F0698043
:100340002DE9F04B4FF00006002B1FBFB3FA83F5E9
:1003500003FA05F424FA05F65E4012BF1643B2FA1A
:1003600082F502FA05F4C5F120051EBF22FA05FC4C
:1003700044EA0C04203556EA044C4FEA144418BFF2
:10038000641C4FF000084FF00009904271EB030C21
:1003900039D3002919BFB1FA81F701FA07F6B0FA8B
:1003A00080F700FA07F6C7F120071EBF20FA07FC06
:1003B00046EA0C062037B6FBF4FCA7EB0507103F16
:1003C00007F01F0BCBF120062CFA06F60CFA0BFBFC
:1003D00044BFB3460026202FA4BF5E464FF0000B5B
:1003E0005BEA060C08BF4FF0010B19EB0B0948EB59
:1003F0000608ABFB027C06FB02CC0BFB03CCC01B4C
:1004000071EB0C01C1E70B46024641464846BDE888
:10041000F08B13B5084318BF4FF0FF300146AFF320
:100420000080BDE81C4070470FB41CB5084B06AAFD
:100430007B4469460090059800F05BF90446002073
:10044000694600F069F920461CBC5DF814FB000009
:10045000E50200002DE9F0410E460446002020622E
:100460002046E168884730B3252805D0D4E901212A
:100470009047206A401CF2E7E16820460027884741
:10048000050018D0A5F14100192802D820354FF4F5
:1004900000673246294620462760FFF70DFF40B12E
:1004A000012804D0F61D26F007060836D8E7361DC9
:1004B000D6E72846DAE7206ABDE8F08170B50C4639
:1004C0000546012A05D02878800600D5EA69002370
:1004D00002E0012305E05B1C934202D2E05C0028AD
:1004E000F9D1A869E618C01AA861286A18442862D8
:1004F0002846AFF3008004E0D5E9012114F8010B90
:100500009047B442F8D32846AFF3008070BD000096
:100510002DE9F0410646002410687529314616A5DC
:1005200010D0AFF30080002802DA404213A507E0A4
:1005300031688A0701D512A502E0490704D511A543
:10054000012401E0AFF3008000210A2206F1240714
:1005500009E0B0FBF2FCB0FBF2F302FB1C00303010
:1005600078541846491C0028F3D123462A463046C1
:10057000BDE8F04100F05EB8000000002D00000072
:100580002B0000002000000070B504460D462146F7
:100590001068AFF300802188090502D50F4A7A441C
:1005A00002E00E4A7A440E32002104F1240305E0F1
:1005B00000F00F060009965D5E54491C0028F7D133
:1005C00020780023000704D5702D02D009B1022342
:1005D00011322046BDE8704000F02CB8707B00005E
:1005E0004FF0000200B5134694469646203922BFCC
:1005F000A0E80C50A0E80C50B1F12001BFF4F7AF17
:10060000090728BFA0E80C5048BF0CC05DF804EBF8
:10061000890028BF40F8042B08BF704748BF20F866
:10062000022B11F0804F18BF00F8012B7047704764
:10063000704770472DE9F0470D46994692460446AB
:1006400000F124080168880604D5E06921F0100152
:10065000216000E00120A84201DD471B00E00027E7
:10066000A1697A1902EB0900081AA0612078C00676
:1006700002D42046AFF30080002608E0D4E901212F
:100680001AF806009047206A401C761C20624E45EE
:10069000F4DB2078C0060AD52046AFF3008006E0E0
:1006A000D4E9012130209047206A401C2062381E86
:1006B000A7F10107F4DC07E0D4E9012118F80500EF
:1006C0009047206A401C2062281EA5F10105F3DC3A
:1006D0002046AFF300802078000602D50220BDE856
:1006E000F0870120FBE7000001694A1C02610878DD
:1006F000704700B58FB0CDE9013100210591054962
:100700007944CDE9031011466846FFF7A3FE0FB008
:1007100000BD0000E5FFFFFF0A6802F8010B0A6058
:10072000704710B5436913B1AFF3008001E0FFF7E4
:10073000C5FE012010BD127800F124010A700022CC
:100740004A700122EDE711684FF0FF32E9E7754684
:1007500000F02CF8AE4605006946534620F007002D
:10076000854618B020B5FFF7D5FDBDE820404FF015
:1007700000064FF000074FF000084FF0000BAC46AA
:10078000ACE8C009ACE8C009ACE8C009ACE8C009F5
:1007900021F007018D46704710B50446AFF3008085
:1007A0002046BDE81040FFF7A1BD0000004870479B
:1007B0009801002001491820ABBEFEE72600020088
:1007C00070470000FEE700000020704700207047DF
:1007D00010B540F65864C2F2000440F65821C2F247
:1007E00000012046002205F04DFB40F25861C2F2A4
:1007F0000001204605F03CFB002010BD10B540F67E
:100800005864C2F200040146204605F031FB204640
:1008100005F058FA002010BD0020704740F65862DD
:10082000C2F20002D2F8BC22D2F81432002B1CBF54
:100830000120704710B540F65864C2F200040A4621
:100840000146204605F01EFB2046BDE8104005F09D
:1008500091BB00007047000040F60000C4F60000A5
:100860004FF40041002200F06DB90000EFF310805A
:1008700072B600BFFEE70000014690F8250002288E
:1008800028D180B50868D1E910CE8A6C036823F0BE
:100890000E030360136823F480731360026822F070
:1008A000010202600EF01F00012202FA00F0CCF8F3
:1008B0000400D1E913205060486D30B1026822F481
:1008C00080720260D1E9160242600020BDE88040DB
:1008D00003E000BF0420C8630120012281F8252025
:1008E000002281F82420704790F82510022931D188
:1008F00080B50168D0E910CE826C0B6823F00E033E
:100900000B600B6823F001030B60116821F4807108
:1009100011600EF01F02012101FA02F2CCF804204E
:10092000D0E913325A60426D32B1136823F48073F8
:100930001360D0E91623536080F82510826B0021E4
:1009400080F824100AB190470021BDE88040084695
:10095000704700BF0421C1630121002280F82510E7
:1009600080F8242008467047B0B5044600F0F0F83F
:10097000054640F20000C2F200004068611C18BF4A
:10098000044400BF00F0E4F8401BA042FAD3B0BD1D
:100990002DE9F04F83B00E68002E00F0CF8000F1FB
:1009A000200241F2004C009200F13847C4F6000CDE
:1009B00006224FEAB725604508BF0522052D38BF3E
:1009C0004FEAB722002500274FF0000801920AE005
:1009D0000E6808F1010836FA08F207F1020705F17E
:1009E000040500F0AB80012202FA08FE16EA0E09A7
:1009F000EED0D1F804C003220CF0030BABF10106DA
:100A000002FA07F4012E6FEA040A11D88468CE684E
:100A100004EA0A04BE4034438460446824EA0E06B3
:100A2000CCF3001404FA08F42643466006E000BF45
:100A3000BBF1030F02D14FF0030B21E0C6688C68B5
:100A400006EA0A06BC402643BBF1020FC66017D176
:100A50006FF00302009B02EA580605F01C020F2407
:100A600053F806C004FA02FE0C692CEA0E0C04FAD4
:100A700002F242EA0C029A51D1F804C00CF0030BC6
:100A800002680BFA07F302EA0A021A431CF4403F19
:100A900002609DD041F26003C4F202031A6840F282
:100AA000004E42F001021A601A68C4F2010E02F010
:100AB00001020292029A28F003024FF6084C724497
:100AC000CFF6FF7C52F80C3005F00C060F24B44032
:100AD000A343019C04FA06F6334342F80C30DEF8D7
:100AE00008204B6842EA090640F20C4CDC0258BF71
:100AF00022EA0906CEF80860C4F2010CDCF80020F6
:100B00009C0242EA090658BF22EA0906CCF80060B6
:100B1000DEF804209C0342EA090658BF22EA0906CF
:100B2000CEF80460DEF80020DB0342EA090658BF75
:100B300022EA0906CEF800604AE700BF03B0BDE82C
:100B4000F08F00001823002A08BF2823C1507047E7
:100B500041F6EC10C2F200000068704790F84120A6
:100B6000202A03D190F84020012A01D102207047A9
:100B7000242280F841200268136823F001031360E7
:100B8000136823F4805313601368194311601168CC
:100B900041F001011160202180F84110002180F80E
:100BA000401000207047000090F84120202A03D117
:100BB00090F84020012A01D102207047242280F8B9
:100BC00041200268136823F001031360136823F4C3
:100BD000706343EA01211160116841F00101116065
:100BE000202180F84110002180F84010002070473B
:100BF000002804BF0120704710B590F8411031B9AA
:100C0000002180F84010044600F08AFA2046242192
:100C100080F8411090E81210C3680A68012B22F096
:100C200001020A6024F070620A618A6822F40042BC
:100C30008A6003D14CF400428A6009E04CF404421B
:100C4000022B8A6004D14A6842F4006203E000BFCC
:100C50004A6822F400624A604A6800F1100C42F0CF
:100C6000007242F400424A60CA6822F40042CA603C
:100C70009CE81C101A4342EA0422CA60026A42EA53
:100C80000C020A600A6842F001020A600021202278
:100C9000416480F84120016380F84210002010BDBB
:100CA0002DE9F04F83B0044690F84100202807D189
:100CB0000C9F4FB10D9E3EB194F8400001280BD11E
:100CC000022003B0BDE8F08F4FF400706064012093
:100CD00003B0BDE8F08F00BF01209A4693468846D6
:100CE00084F84000FFF734FF216805468A69120442
:100CF0004BD4222084F8410040204FF0000984F8B2
:100D00004200C4F8449067626685C4F8349049F69E
:100D100000034A68CFF600436FF39F285FFA8AF01A
:100D200048EA00401A40DDF838C0104400F5005091
:100D3000CDF808804860204661462A461E46674630
:100D400003F070FCC0B92068BAF1010F09D04FEA76
:100D50001B218162204639462A4603F063FC58B9BC
:100D600020685FFA8BF181622046402100223B46D9
:100D7000009503F0A7FB48B384F84090012003B02E
:100D8000BDE8F08F88690004B3D5204619212A46B2
:100D900003F0EAFA00289AD1FFF7DAFE401B216837
:100DA0001A28EFD388690004ECD5606C40F020006D
:100DB0006064202084F84100002084F8420084F818
:100DC0004000012003B0BDE8F08F00BF608D40F20D
:100DD0000009B0F5807FC0F2FF1909D3206809F53A
:100DE000105350F8041F4FF0FF0C01EA06020BE00D
:100DF000B4F82AC020685FFA8CF350F8042F324010
:100E000042EA034209F5923302991A430A434FF02A
:100E1000FF0B06F580680260A4F828C012E000BF4E
:100E2000618D2068218550F8042FC9B202EA0802BA
:100E300042EA01414FF00072029B114319430160E5
:100E4000608D98B32046042100223B46009503F0B4
:100E500039FB00287FF43BAF2068616A406A087064
:100E6000606A218D01306062481E2085618D0139E4
:100E70006185618D0029E3D00004E1D12046802105
:100E800000223B46009503F01DFB00287FF41FAFB6
:100E9000608DB0F5807FC3D32068A4F828B050F8E7
:100EA000041F4A4601EA0801C6E700BF204639464A
:100EB0002A4603F079FB00287FF409AF206820213F
:100EC000C16142684EF60003CFF600631A404260EB
:100ED000002084F8411084F8420084F8400003B0F8
:100EE000BDE8F08F2DE9F04F81B0044690F8410045
:100EF000202807D10A9F4FB10B9E3EB194F84000C5
:100F000001280BD1022001B0BDE8F08F4FF4007032
:100F10006064012001B0BDE8F08F00BF01209A4657
:100F200091468B4684F84000FFF712FE2168054683
:100F30008A6912044DD421200C9A84F84100402083
:100F40004FF0000849F6004384F84200C4F844809A
:100F500067626685C4F83480CFF600436FF39F2B39
:100F60005FFA8AF017464A685E464BEA00409B46A5
:100F7000A3F580631A40104440F0807040F40050A4
:100F80004860204639462A4603F04CFBC0B9206829
:100F9000BAF1010F09D04FEA192181622046394682
:100FA0002A4603F03FFB58B920685FFA89F1816255
:100FB0002046802100223B46009503F083FA48B387
:100FC00084F84080012001B0BDE8F08F88690004FA
:100FD000B1D5204619212A4603F0C6F9002898D138
:100FE000FFF7B6FD401B21681A28EFD3886900047B
:100FF000ECD5606C40F020006064202084F8410053
:10100000002084F8420084F84000012001B0BDE8CF
:10101000F08F00BF608D40F20009B0F5807FC0F214
:10102000FF1909D320684FF0FF0C50F8041F4B46FE
:1010300001EA0B020DE000BFB4F82AC020685FFA95
:101040008CF350F8042F02EA0B0242EA03424FF0FD
:1010500000731A4332434FF0FF0831460260A4F890
:1010600028C011E0618D2068218550F8042FC9B295
:1010700002EA0B0242EA01414FF000721143314390
:1010800033460160608D78B3204639462A4603F026
:10109000C9FA00287FF43DAF606A216810F8012B7F
:1010A0008A626062608D01386085208D01382085FC
:1010B000618D0029E6D00004E4D120468021002281
:1010C0003B46009503F0FEF900287FF422AF608DC7
:1010D000B0F5807FC6D32068A4F8288050F8041F9C
:1010E0004A4601EA0B01C9E7204639462A4603F081
:1010F0005BFA00287FF40DAF20682021C1614268AF
:101100004EF60003CFF600631A404260002084F8D8
:10111000411084F8420084F8400001B0BDE8F08F2F
:101120002DE9F04198B0044600201790CDE9150054
:10113000CDE9130002A84421FFF752FA206845F6D2
:101140000001C4F2000188424ED045F20041C4F2D1
:101150000001884240F091804020029002A801F0F6
:1011600061F9002818BFFFF781FB41F24C05C4F27A
:101170000205286813AC40F00100286028684FF091
:10118000120800F00100019001982868002740F043
:10119000020028602868042600F0020001900198EF
:1011A0004FF4004013904FF090402146CDF850800E
:1011B000CDE915771796FFF7EBFB4FF40070CDE9FB
:1011C000130840F20040C4F600002146CDE915772F
:1011D0001796FFF7DDFBE86840F40010E860E86868
:1011E00000F4001047E000BF8020029002A801F048
:1011F00019F9002818BFFFF739FB41F24C05C4F27A
:101200000205286813AC40F00400286028684FF0FD
:10121000120800F00400019001982868002740F0AF
:10122000010028602868042600F001000190019860
:101230001020139040F20040C4F6000000F58060DA
:101240002146CDF85080CDE915771796FFF7A0FB22
:101250004FF48070CDE913084FF090402146CDE95E
:1012600015771796FFF794FBE86840F48000E86074
:10127000E86800F480000190019818B0BDE8F081A2
:1012800040F2000041F6EC11C2F20000C2F200018F
:1012900040680A68104408607047000080B5032069
:1012A00000F08CF80F2000F009F800281CBF012086
:1012B00080BD00F02BF8002080BD0000B0B540F2EA
:1012C0000005C2F200056968F1B1044640F2280049
:1012D000C2F200004FF47A720068B2FBF1F1B0FB89
:1012E000F1F001F00FFF01460F2C4FF001000AD87A
:1012F000002918BFB0BD4FF0FF302146002200F09A
:1013000031F800202C60B0BD0120B0BD82B041F2A8
:101310005800C4F20200816841F0010181608168D7
:1013200001F0010101910199016841F080510160D2
:10133000006800F080500090009802B001F068B89A
:10134000002848BF704700F01F01012202FA01F196
:101350001C2202EAD0004EF20012CEF200028150AE
:101360007047000010B54EF60C5CCEF2000CDCF8B5
:101370000030C3F3022E8EF00704042C28BF04248F
:10138000BEF103034FF0FF3E0EFA04F438BF002312
:10139000A14399400EFA03F39A43114300F00F0260
:1013A00000F160430901043A03F5644362440028F4
:1013B00048BF02F10C03197010BD00004EF60C512D
:1013C000CEF200010A684FF6FF031A4060F30A22CA
:1013D00042F0806040F0FD700860704701220168B3
:1013E000C0F8D022002280F8C822B1F8540040F0A2
:1013F0000100A1F85400B1F8540040F002020020AE
:10140000A1F854207047000010B50129044613D0FC
:1014100011BB607A48B103F0F1FD4EF61050CEF2E8
:101420000000016821F006010160D4F8D802BDE88F
:10143000104004F0FFBF00BFD4F8D80205F082F8D6
:10144000607A002808BF10BD4EF61050CEF20000A2
:10145000016841F00601016010BD000080B501F097
:10146000070C0CEB8C0C00EBCC0C0CF1100C01EB12
:10147000810E090600EBCE0058BF00F5A87C5AB1DA
:10148000ACF808301B0C01210A202CF80030002099
:101490008CF80C1080BD00BF002106202CF8003015
:1014A00000208CF80C1080BD01EB8102D0F8D832FE
:1014B00000EBC200426A184604F07CBE01EB8102D8
:1014C000D0F8D83200EBC200D0F86421184604F0FE
:1014D000C5BE000010B501F0070E0A464FFA81FCA8
:1014E0000EEB8E0100EBC10303F5A871BCF1000FF8
:1014F00048BF03F1100190F89032D209012B4A70D5
:1015000081F800E004BF022010BD0268012380F8CA
:1015100090320446104605F087FC002084F89002C3
:1015200010BD0000027901F00F03934284BF012037
:10153000704710B501F0070303EB830200EBC20212
:101540004FFA81FC8E4602F5A871BCF1000F48BF2E
:1015500002F110014FEADE124A7090F890224FF02B
:10156000000C012A81F802C00B7004BF022010BDDC
:101570000268012380F890320446104605F0E8FC2A
:10158000002084F8900210BD01F0070101EB8101F9
:1015900000EBC100D0F86C0170470000B0B501F05D
:1015A00007048C464FFA81FE04EB840100EBC10571
:1015B00005F5A871BEF1000F48BF05F110014FEA13
:1015C000DC156FF3DF224D700C700A61022BCB70BB
:1015D00004BF00220A7190F89022012A04BF022061
:1015E000B0BD0268012380F890320446104605F031
:1015F00089FA002084F89002B0BD000010B501F017
:10160000070C0CEB8C0100EBC10E00680EF5A87105
:101610000024CEF86421CEF86831CEF86C418EF803
:1016200051418EF850C105F0E9FC002010BD0000CA
:10163000027901F0070C94454FF001022AD810B549
:1016400001EB810300EBC3034FFA81FE03F5A8739E
:101650000CEB8C04C90900EBC404BEF1000F48BFB9
:1016600004F11003597090F890129A70012983F8D0
:1016700000C001D102220BE00168012280F8902213
:1016800004460846194605F09FFC002284F8902283
:10169000BDE810401046704780B501F0070C0CEB18
:1016A0008C0100EBC10101F810CF00684FF0010C74
:1016B00001F1140781F824C04FF0000E87E80C40B8
:1016C0000B6281F801C005F099FC002080BD00008C
:1016D0002DE9F04F83B00446006805F0DFFF0104F8
:1016E00022D4410500F1AA83410400F1B9838104A9
:1016F00000F1CE83C10400F1D583010500F1F88328
:10170000010600F10F84810500F11C84C00540F141
:10171000A3832068B0F8441021F48071A0F844102D
:1017200003B0BDE8F08F00BF2068B0F94410B1F1FC
:10173000FF3F00F3918304F5A871019104F11001BA
:1017400048F2C005029104F5267140F60F78009129
:1017500023E000BFB0F8501094F85021014401EB91
:10176000C201B1F80634B4F8562100996FF39F23F3
:10177000C4F86C3105F096FF2068018801EA080181
:1017800080310180204600F089FD00BF2068B0F95B
:101790004410B1F1FF3F00F35F83B0F8442012F032
:1017A0000F090DD030F929104FEA490BB1F1FF3F75
:1017B0001FFA81FA2EDD5FEA0A60E7D530E100BF4B
:1017C0000188D2065ED401EA080101F500410180DA
:1017D000B0F85010227C084400EBC200B0F80204BC
:1017E000616A6FF39F20E062084460622046002136
:1017F000FFF75AFE207B0028C8D0A06A0028C5D178
:10180000207B216840F08000C0B2A1F84C0000208D
:101810002073BBE730F81B1001EA0801803120F883
:101820001B10019A09EB890102EBC106317B0029EB
:101830006CD0F178022979D1B0F850303178B269A2
:1018400003445FEA4A4703EBC10300F18780B3F822
:10185000067400236FF39F27D21B38BF1A46B2616C
:1018600040F292805FEA4A6200F19C8030F82120C9
:1018700002EA08022A4320F82120002F40F093803A
:10188000B0E000BF0A053FF565AF09B2B1F1FF3F17
:101890003FF77CAF018801EA080180310180B0F890
:1018A000501094F85021014401EBC201B1F8063404
:1018B0006FF39F23C4F86C3193B1D4F8641179B1FC
:1018C000B4F8562105F0EEFED4F86401D4F86C119A
:1018D0000844C4F8640120460021FFF7EFFD2068AA
:1018E00001880A053FF552AF01F44051B1F5405F60
:1018F0003FF44CAF018843F60F7211404CF2800266
:10190000A2F580525140018040E700BFB0F850106E
:101910003278014401EBC201B1F806746FF39F27DE
:10192000002F5FD07169F28857E000BF317830F83E
:10193000212002EA08022A4320F8212030F8212041
:10194000B0F8503000EBC1015204194416D4B1F87C
:1019500006746FF39F2737BB44E000BFB3F80274EF
:1019600000236FF39F27D21B38BF1A46B2611DD9DF
:101970005FEA4A6227D477BB34E000BFB1F8027453
:101980006FF39F273FBB2DE030F8212043F60F7304
:101990001A4005F5FE535A4020F821205FEA4A62BA
:1019A0007FF564AFF7B17169728916E030F82120D4
:1019B00043F60F731A4005F5FE535A4020F82120D4
:1019C0005FEA4A62D7D530F8212002EA08022A43AA
:1019D00020F8212037B1716932893B4605F062FE5B
:1019E00001E000BF0027F169D6E905023944384417
:1019F000F161706112B13069B84209D9317820467D
:101A0000FFF75CFD5FEA0A607FF5C0AE08E000BF4B
:101A10002068314605F0F2FA5FEA0A607FF5B6AE5B
:101A2000206809EB890130F81B20029B03EBC106FB
:101A300002EA080101F5004120F81B10F378012BA0
:101A400022D1317B00294FF00001B16100F02581E6
:101A50005FEA4A617AD47178012900F00B8100298C
:101A600040F01B81B0F850103278084400EBC200FF
:101A7000B0F806146FF39F21A0F80614B0F806140E
:101A800041F40041FDE000BF5FEACA511CD4B0F848
:101A900050203178024402EBC102B2F80224B3694B
:101AA0006FF39F229B1A4FF0000738BF3B46B3618C
:101AB00040F2F4807169F369114471619918F16120
:101AC000314605F09BFA61E6B0F850503178B269C2
:101AD0005FEA4A6700EBC10E50D40EF2064C3CF8A8
:101AE000055000276FF39F25521B38BF3A46B2615D
:101AF00074D95FEA4A4208D430F821204CF28003BE
:101B000002EA08021A4320F8212096F8241001293D
:101B100040F08581D6E90431D6E9077229442F4483
:101B20009A427161F76180F00781002A00F04281DA
:101B30000023336286F8243013467278012A40F07D
:101B40000181B0F850202CF8023052E1717801295F
:101B500000F09A80002940F0A080B0F85010327850
:101B6000084400EBC200B0F802146FF39F21A0F804
:101B70000214B0F8021441F400418CE00EF2024C61
:101B80003CF8055000276FF39F25521B38BF3A469B
:101B9000B26147D95FEA4A4208D530F821204CF2B9
:101BA000800302EA08021A4320F8212096F8241044
:101BB000012940F03481D6E90431D6E907272944C8
:101BC0002A449F427161F26180F0D2800022002F8E
:101BD00086F8242040F0CE802F46CCE07278012A8F
:101BE00060D0002A48F2C00567D1B0F85020724496
:101BF000B2F802746FF39F27A2F80274B2F802746D
:101C000047F40047A2F80274B0F850203CF8027084
:101C10006FF39F272CF802703CF8027047F40047DE
:101C200049E000BF7278012A5CD0002A48F2C00562
:101C300064D1B0F850203CF802506FF39F252CF887
:101C400002503CF8025045F400452CF80250B0F820
:101C5000502048F2C0057244B2F806746FF39F2713
:101C6000A2F80674B2F8067447F40047A2F80674A6
:101C700044E000BFB0F850103278084400EBC200D6
:101C80000021A0F8061408E0B0F85010327808449B
:101C900000EBC2000021A0F8021431782046FFF7C3
:101CA00003FC73E5B0F8502048F2C0057244A2F876
:101CB0000274B0F850202CF80270022B09D130F8D1
:101CC000212040F63F731A40A5F120035A4020F826
:101CD00021202046FFF7E8FB5FEA4A403FF556AD7A
:101CE0001FE000BFB0F8502000252CF80250B0F8DB
:101CF00050207244A2F8065448F2C005022B09D1C4
:101D000030F8212040F63F731A40A5F120035A40D5
:101D100020F821202046FFF7C7FB5FEA4A407FF505
:101D200035AD206831784CF2800330F8212002EA8A
:101D300008021A437FE000BFD21A32627278012A89
:101D40003FF4FFAE002A54D1B0F850703CF80720A1
:101D50006FF39F222CF80720A3B33E2B3AD803F051
:101D600001023CF8075002EB530245EA82223EE0B2
:101D7000FA1A1F4632627278012A15D0002A4AD117
:101D8000B0F850203CF802306FF39F232CF802305B
:101D9000E7B13E2F30D807F001033CF8025003EBC7
:101DA000570345EA832334E0B0F850202CF8027042
:101DB00031E000BF002286F824202B467278012AE9
:101DC000C0D1BEE63CF807200FE000BF3CF802306F
:101DD0001DE000BF5A09DD063CF807E04FF0FF3573
:101DE00008BF05EB53124EEA822242F400422CF85F
:101DF000072072899BB210E07B09FD063CF802E0E7
:101E00004FF0FF3508BF05EB57134EEA832343F429
:101E100000432CF802303289BBB205F099FC2068EF
:101E2000317840F63F7330F8212048F2C0051A405F
:101E3000A5F110035A4020F82120A7E42068B0F84B
:101E4000441021F48061A0F84410204600F0E8F925
:101E500094F8900201280DD103B0BDE8F08F00BFC7
:101E60002068B0F8441021F48041A0F8441003B079
:101E7000BDE8F08F0120002584F8900225732068CA
:101E8000002105F05DFC84F8905203B0BDE8F08FAE
:101E90002068B0F8441021F40051A0F8441003B0B9
:101EA000BDE8F08F2068B0F8401021F00401A0F8E0
:101EB0004010B0F8401021F00801A0F8401094F84C
:101EC000C802012806D1002084F8C802204600215B
:101ED000FFF79AFA204600F0B5F92068B0F84410F0
:101EE00021F48051A0F8441003B0BDE8F08F00BF8A
:101EF0002168B1F8400040F00800A1F84000B1F8B6
:101F0000440020F40060A1F84400B1F8400040F023
:101F100004022046A1F8402003B0BDE8F04F00F0D5
:101F2000DBB900BF2068B0F8441021F08001A0F8B0
:101F3000441094F8C81299B1204603B0BDE8F04FA0
:101F400000F0CAB92168B1F8440020F400722046BC
:101F5000A1F8442003B0BDE8F04F00F087B900BFFE
:101F6000B0F8401041F00401A0F84010B0F8401063
:101F700041F00801A0F84010012184F8C812B0F81F
:101F800054003C2101EA900220460121C4F8CC22F1
:101F900003B0BDE8F04FFFF737BA0000002804BFD8
:101FA00001207047F0B581B0044690F8910228B93D
:101FB000002084F89002204600F0FEF8032084F808
:101FC0009102206804F0BAFF94F804E0BEF1000F1B
:101FD00000F0E0800EF0030CBEF1040F4FF00002A1
:101FE00038D30EF0FC03A4F1A0000321012500BFAB
:101FF000CE1E80F8B0608E1E80F8D8604E1E80F82D
:10200000006180F828110E1D013180F8B15080F870
:10201000B320C0E93022C0F8C82080F8D95080F839
:10202000DB20C0E93A22C0F8F02080F8015180F8A6
:102030000321C0E94422C0F8182180F8295180F812
:102040002B21C0E94E22C0F84021A03099423146F0
:10205000CED1F21EBCF1000F2ED004F1100002EB25
:10206000820100EBC105012300F831200021BCF101
:10207000010F6B70E970C5E90411A9611CD0551CF2
:1020800005EB850600EBC607BCF1020F7B7000F87C
:102090003650F970C7E90411B9610DD0911C01EBFC
:1020A000810200EBC203012500F8321000205D70B0
:1020B000D870C3E904009861BEF1000F6AD0BEF188
:1020C000040F4FF0000235D30EF0FC00032123462D
:1020D000CF1E83F850718F1E83F878714F1E83F8DE
:1020E000C8110D1D013183F8512183F85321C3E933
:1020F0005822C3F8682183F8792183F87B21C3E94A
:102100006222C3F8902183F8A12183F8A07183F89B
:10211000A321C3E96C22C3F8B82183F8C92183F84D
:10212000CB21C3E97622C3F8E021A03381422946BE
:10213000CED1EA1EBCF1000F2CD004F5A87002EB42
:10214000820300EBC3070021BCF1010F797000F896
:102150003320F970C7E90411B9611BD0531C03EB9C
:10216000830700EBC706BCF1020F717000F837302F
:10217000F170C6E90411B1610CD0911C01EB810230
:1021800000EBC20300275F7000F83210DF70C3E974
:1021900004779F6194E8070004F0C2FE002001214B
:1021A000207384F89112A17A012903D12046FFF708
:1021B00015F9002001B0F0BD10B592B0044601A899
:1021C00004304021FEF70CFA206845F60041C4F2C5
:1021D0000001884202D012B010BD00BF4FF4005081
:1021E000019001A800F01EF9002818BFFEF73EFB81
:1021F00041F25800C4F202000168002241F40001DB
:1022000001600068002100F4000000900098142094
:10221000FFF7A8F81420FFF793F812B010BD0000E4
:1022200010B504464079022818BFFEF71FFBD4F80A
:10223000D802012104F01AF9D4F8D802BDE8104000
:1022400004F0C4B810B50446407A48B14EF61050B8
:10225000CEF20000016821F00601016002F0CEFE1E
:10226000D4F8D802BDE8104004F0E4B8D0F8D802A1
:1022700004F0EAB890F89022012A04BF02207047C7
:1022800010B5012280F890220173026804461046BE
:1022900005F056FA002084F8900210BDD0F8D8223C
:1022A00000F52671104604F0F7B8000090F890127F
:1022B000012904BF0220704710B50168012280F88F
:1022C00090220446084605F0D9F9206804F01EFE65
:1022D000002084F8900210BD10B50446D0F8D80252
:1022E00004F030F9607A002808BF10BD4EF6105097
:1022F000CEF20000016841F00601016010BD00004F
:1023000047F21401C4F2000151F8142CB0F5007F1B
:102310003CD0002874D1C86E02F4C06220F48070F2
:10232000B2F5806FC8662FD151F8140C012262F308
:102330004A2041F8140C40F22800C2F20000006864
:10234000322250434DF68362C4F21B32A0FB0202DC
:10235000900C00BF0A68520511D5421C0FD00A68C4
:1023600052050CD558B10A68520508D5012806D087
:102370000A68520503D50228A0F10400EAD10868D2
:10238000400544BF0320704700207047C86E02F428
:10239000C06240F48070B2F5806FC866F4D151F825
:1023A000140C012262F34A2041F8140C40F2280078
:1023B000C2F200000068322250434DF68362C4F23C
:1023C0001B32A0FB0202900C0A68520511D5421C78
:1023D0000FD00A6852050CD558B10A68520508D5C5
:1023E000012806D00A68520503D50228A0F104008E
:1023F000EAD10868400544BF03207047C4E700BF26
:10240000022060F34A2241F8142C0020704700009B
:1024100047F20800C4F20000016841F48041016005
:10242000704700002DE9F04182B00446807841F207
:1024300088060007C4F2020602D400202FE000BF85
:1024400056F8300C5FEAC0080BD456F8300C40F058
:10245000805046F8300C56F8300C00F08050019057
:10246000019847F20007C4F20007386840F4807012
:102470003860FEF76DFB05463868C00500F1D68070
:10248000FEF766FB401B0228F6D90320B8F1000FC7
:1024900005D456F8301C21F0805146F8301C2168D4
:1024A000CA0713D18A0719D44A071FD40A0725D4AB
:1024B0008A062BD44A0631D40A0637D4CA053DD43D
:1024C0008A0543D44A0549D457E000BF326863689F
:1024D00022F003021A4332608A07E5D53268A36806
:1024E00022F00C021A4332604A07DFD53268E368F3
:1024F00022F030021A4332600A07D9D532682369C4
:1025000022F0C0021A4332608A06D3D5326863696A
:1025100022F440621A4332604A06CDD53268A3697C
:1025200022F440521A4332600A06C7D53268E36982
:1025300022F440421A433260CA05C1D53268236A88
:1025400022F440321A4332608A05BBD53268636A8E
:1025500022F440221A4332604A050ED53268A36A3B
:1025600022F440121A43B3F5801F326005D156F8A9
:102570007C2C42F4801246F87C2C0A050ED5326879
:10258000E36A22F440021A43B3F5800F326005D1AA
:1025900056F87C2C42F4801246F87C2CCA040ED5E6
:1025A0003268236B22F040721A43B3F1807F3260AD
:1025B00005D156F87C2C42F4801246F87C2C8A0413
:1025C0000ED53268636B22F040621A43B3F1006F9C
:1025D000326005D156F87C2C42F4801246F87C2CEF
:1025E0004A040ED53268A36B22F040621A43B3F15D
:1025F000006F326005D156F87C2C42F4801246F808
:102600007C2C09040ED53168E26B21F04051114356
:10261000B2F1805F316005D156F87C1C41F4803105
:1026200046F87C1C02B0BDE8F08100BFB06810F431
:10263000407010D0216C88420BD0B068B16820F493
:10264000407041F48031B160B16821F48031B160F3
:10265000B060C0070CD1B068216C20F44070084312
:10266000B0600020B8F1000F3FF519AF11E700BFCF
:10267000FEF76EFA054641F2883700BFB068800762
:10268000E9D4FEF765FA401BB842F7D9FDE6000031
:102690002DE9F047002863D042F2000AC4F2020A92
:1026A0000446DAF800000D4600F00F0088420CD214
:1026B000DAF8000020F00F002843CAF80000DAF82A
:1026C000000000F00F00A8424AD1216841F208083A
:1026D000C807C4F2020803D1880740F1D080B5E0F2
:1026E000606858F8082C022838D003283CD19201A1
:1026F00036D5D8F80420D8F8043042F20046C3F3A7
:10270000031302F00302D8F804700133C0F2F40698
:10271000032A04BF43F20066C0F26E16B6FBF3F262
:10272000D8F80430C7F306277A43C3F3416302277E
:1027300007EB4303B2FBF3F24BF20043C0F2C44396
:102740009A4259D9D8F8002012F0F00F49D08907E1
:1027500052D5A16800294FD143E000BF910305D4B1
:102760000120BDE8F08700BF5105F9D5D8F8001069
:1027700001F00C0104293FD0D8F8001001F00C0141
:10278000082939D0D8F8001001F00C010C2933D1F8
:10279000D8F80410D8F8042042F20047C2F303121C
:1027A00001F00301D8F804300132C0F2F407032924
:1027B00004BF43F20067C0F26E17B7FBF2F1D8F81E
:1027C0000420C3F306235943C2F34162022303EBFF
:1027D0004202B1FBF2F14BF20042C0F2C44291421C
:1027E0000AD9D8F80010082262F307114FF0010946
:1027F000C8F8001002E000BF4FF00009D8F8001040
:1028000021F003010843C8F80000FEF7A1F90646CD
:1028100041F28837D8F80000616800F00C00B0EB96
:10282000810F07D0FEF794F9801BB842F2D903203C
:10283000BDE8F0872168880708D4B9F1000F1ED0E1
:10284000D8F8000020F0F00017E000BF480705D5D9
:10285000D8F8000040F4E060C8F80000080706D58A
:10286000D8F80000072262F30D20C8F80000D8F85D
:102870000000A26820F0F0001043C8F80000DAF869
:10288000000000F00F00A8421BD9DAF8000020F089
:102890000F002843CAF80000FEF75AF9064641F235
:1028A000883700BFDAF8000000F00F00A84207D018
:1028B000FEF74EF9801BB842F4D90320BDE8F0873B
:1028C0002168480707D5D8F80000E26820F4E060E6
:1028D0001043C8F80000080708D5D8F8000021699F
:1028E00020F4605040EAC100C8F80000D8F80000A9
:1028F00042F20041C0F2F40100F00C000428084646
:102900002DD0D8F8000000F00C00082843F2006039
:10291000C0F26E1023D0D8F8002002F00C020C2A6E
:102920001CD1D8F80420D8F8043002F00302C3F315
:102930000313D8F804700133032A08BF0146B1FB22
:10294000F3F0D8F80410C7F30627C1F3416102225F
:10295000784302EB4101B0FBF1F000E00020D8F831
:10296000001048F23A12C1F30311C0F60002515CA4
:1029700040F2280201F01F0120FA01F140F20000AC
:10298000C2F200000068C2F200021160BDE8F04728
:10299000FEF794BC40F2280041F20801C2F20000A8
:1029A000C4F202010068096848F24A12C1F3022128
:1029B000C0F60002515C01F01F01C84070470000E2
:1029C00040F2280041F20801C2F20000C4F2020104
:1029D0000068096848F24A12C1F3C221C0F6000239
:1029E000515C01F01F01C8407047000041F20C012A
:1029F000C4F2020151F8040C42F20042C0F2F402A7
:102A000000F00C000428104608BF704751F8040C71
:102A100000F00C00082843F20060C0F26E1025D0D0
:102A200051F8043C03F00C030C2B1CBF0020704732
:102A300080B5D1F800C00B680CF0030CC3F3031E83
:102A40000B680EF1010EBCF1030F08BF02460968C6
:102A5000B2FBFEF0C3F30623C1F3416102225843E7
:102A600002EB4101B0FBF1F0BDE88040704700008F
:102A7000002804BF012070472DE9F04182B00446D0
:102A8000007841F20006C007C4F202061ED1207889
:102A900080073DD42078000764D42078400700F1F7
:102AA00087802078800600F1D980E569002D00F04C
:102AB0004282B06800F00C000C2840F03181012DFA
:102AC00040F08E81012002B0BDE8F081B06800F0D6
:102AD0000C01F068082961D0032281F00C0122EA80
:102AE00000000844B0FA80F0400957D161683068AE
:102AF000B1F5803F07D0B1F5A02F40F0E38040F45E
:102B000080203060306840F480303060E4E000BF06
:102B1000B068F16800F00C00042871D001F00301E6
:102B200080F00C0081F002010844B0FA80F0400906
:102B300066D1E1683068002900F0E08040F48070E0
:102B40003060FEF705F805463068400500F10A815F
:102B5000FDF7FEFF401B0228F6D9032002B0BDE8B6
:102B6000F08100BF6169D6F89400002900F09480DC
:102B700040F00100C6F89400FDF7EAFF054600BFEB
:102B8000D6F8940080073FF588AFFDF7E1FF401BC2
:102B90000228F5D9032002B0BDE8F0813068800337
:102BA0007FF575AF606800287FF471AF3EE000BF2D
:102BB000B06D5FEAC00808D4B06D40F08050B065D9
:102BC000B06D00F080500190019847F20007C4F208
:102BD00000073868C0052DD4386840F4807038602C
:102BE000FDF7B6FF054600BF3868C00522D4FDF7E3
:102BF000AFFF401B0228F7D9032002B0BDE8F081E7
:102C00003068400501D5E06880B17068216920F026
:102C1000FE4040EA0160706040F20000C2F2000035
:102C20000068FEF74BFB00283FF434AF012002B0F0
:102C3000BDE8F081A168D6F89000012908D00529E7
:102C400040F0AE8040F00400C6F89000D6F8900046
:102C500040F00100C6F89000AEE000BFA169D6F8D0
:102C60009800002900F0868040F00100C6F8980026
:102C7000FDF76EFF054600BFD6F8980080073FF5C8
:102C800014AFFDF765FF401B02284FF00300F3D996
:102C900002B0BDE8F08100BF20F00100C6F894004A
:102CA000FDF756FF054600BFD6F8940080077FF574
:102CB000F4AEFDF74DFF401B0228F5D9032002B00A
:102CC000BDE8F08120F4803030603068002920F4C5
:102CD0008020306000F0BE80FDF73AFF054600BF5F
:102CE000306880033FF5D3AEFDF732FF401B642808
:102CF000F6D9032002B0BDE8F08100BF20F4807057
:102D00003060FDF725FF0546306840057FF5C2AE0F
:102D1000FDF71EFF401B02284FF00300F4D9B7E770
:102D2000306820F080703060FDF712FF022D0546FC
:102D30000CD100BF3068800140F1B880FDF708FF7A
:102D4000401B02284FF00300F4D9A1E7306880014E
:102D500040F1EA80FDF7FCFE401B02284FF0030023
:102D6000F4D995E77068216920F0FE4040EA0160DF
:102D700070608FE620F00100C6F89800FDF7E8FECD
:102D8000054600BFD6F8980080077FF58EAEFDF7A8
:102D9000DFFE401B02284FF00300F3D978E700BFA5
:102DA00020F00100C6F89000D6F89000002920F02D
:102DB0000400C6F890005DD0FDF7CAFE054641F25A
:102DC000883700BFD6F89000800765D4FDF7C0FEB5
:102DD000401BB842F6D9032002B0BDE8F08100BF25
:102DE000F068216A00F003028A427FF41FAF626A32
:102DF0006FF00F0300F0F00103EB021291427FF439
:102E000015AFA16A00F4FE42B2EB012F7FF40EAFC2
:102E1000E16A00F07842B2EBC16F7FF407AF226B3A
:102E20000023CFF6E07303EA025200F4C001A2F5DA
:102E3000001291427FF4FAAE616B4FF07E4202EADB
:102E4000016100F0C06001F17E4188427FF4EEAE86
:102E500071E000BFFDF77CFE054600BF30688003CF
:102E60007FF515AEFDF774FE401B64284FF003009C
:102E7000F4D90DE7FDF76CFE054641F2883700BF37
:102E8000D6F89000800707D5FDF762FE401BB842D8
:102E90004FF00300F4D9FBE6B8F1000F3FF501AEA7
:102EA000B06D20F08050B065FBE500BFF06848F2DF
:102EB0000C01C0F29F1104F1200700EA010C8ECF33
:102EC0006FF00F00D4E90C5400EB02100022CFF693
:102ED000E07241EA0C0102EA05520843A2F5001231
:102EE0004FF07E4540EA032005EA0465104305F1F2
:102EF0007E4540EAC7602843F060306840F080704B
:102F00003060F06840F08070F060FDF721FE04460C
:102F1000306880010FD4FDF71BFE001B02284FF024
:102F20000300F5D9B4E600BFF0684FF6FC71CFF6A8
:102F3000EE610840F060002002B0BDE8F0810000C2
:102F4000002804BF01207047416A19B100210161C6
:102F5000142104E04168B1F5827F02D01C210022D7
:102F60004250B0B50025856290F85D1029B980F80F
:102F70005C50044600F056F82046022180F85D10AF
:102F80000168D0F80CE00B68BEF5E06F23F0400359
:102F90000B6098BF01254EF40063B3F5706F4FEAE4
:102FA000053C1CBF00258562D0E90154D0E90432FC
:102FB00005F4827504F404442C4403F00203234412
:102FC000846902F00102C5691A4404F400731A44CA
:102FD00005F03803056A1A4405F08003856A1A442F
:102FE00005F400531A430A600422436A0EF4706524
:102FF00002EA1442446B45EA0C0503F010032A432D
:1030000004F008041A4322434A60CA6922F40062A9
:10301000CA6100210122016680F85D20BDE8B04050
:1030200008467047B0B586B0006843F60002C4F2A7
:10303000000200219042CDE90411CDE90211019175
:1030400038D043F20001C4F20101884258D141F264
:103050004C00C4F202004169022441F480514161F4
:103060004169002501F4805100910099016841F007
:1030700001010160016801F00101009100990168FE
:1030800041F002010160006801A900F00200009017
:10309000009860200190052005904FF09040029428
:1030A000CDE90355FDF774FC202001A931C1049539
:1030B0001DE000BF41F24C00C4F20200C26842F4BD
:1030C0008042C260C26802F480420092009A0268A4
:1030D00042F002020260006800F0020000900098D6
:1030E0004FF4604001900220CDE9020104910520D7
:1030F000059040F20040C4F6000001A9FDF748FC2D
:1031000006B0B0BD411E0020B0EB116F1CBF012006
:1031100070474EF21002CEF2000251604EF623517B
:10312000CEF20001F0230B70072190601160704710
:1031300090F83C20012A04BF02207047B0B5D1E9C5
:103140000232D1E900CE22F47C5223F4705343EAD8
:10315000020448F2FF73CEF6F0730EEA0302224334
:1031600003F5006404EA0C0442EA040C0C6903F55C
:10317000C05222404C6942EA0C02224303F56054DB
:1031800022400C6B03F5F04323401A438B6940F255
:10319000000CCC69CEF6FF7C0CEA034C14430268A9
:1031A00043F20043C4F201039A4244EA0C0305D0FF
:1031B00042F60044C4F20104A24217D14FF6FF7454
:1031C000CDF60F4403EA040ED1E9084CD1E90A31E7
:1031D0000025CDF6F04505EA035343EA0E0324F03B
:1031E00008552B432CF000552B430B43002153640F
:1031F00080F83C100020B0BD90F83C20012A4FF030
:1032000002024AD070B580F83D20026843F2004CBB
:1032100054689368C4F2010C42F6004E6245C4F251
:10322000010E01D0724503D14D6824F470042C4383
:103230004FF68F75CFF6FF550E682C4042F6FF35DE
:10324000C4F201053443AA4254600FDCB2F1804F4E
:1032500016D040F20046C4F20006B24210D040F64A
:103260000006C4F20006B2420AD00EE0724507D052
:1032700044F20006C4F20106B24201D0624504D114
:10328000896823F08003194391600121002280F8AE
:103290003D1080F83C20BDE87040104670470000AB
:1032A000B0B586B0006840F2FF71C4F200018842F8
:1032B0004FF000010591CDE90311CDE9011133DC97
:1032C000B0F1804F5AD040F20041C4F20001884270
:1032D00040F08A8041F24C00C4F2020001680224EE
:1032E00041F0010101600168002501F00101009138
:1032F0000099016841F002010160006801A900F035
:10330000020000900098102001904FF0904002942D
:10331000CDE903550594FDF73BFB032001A931C11D
:10332000CDE9045459E000BF40F60001C4F20001A9
:1033300088423DD043F20041C4F20101884253D19A
:1033400041F24C00C4F20200016841F00401016046
:10335000006800F0040000900098402001900220D6
:1033600002900020CDE903000420059040F20040C7
:10337000C4F6000000F5806033E000BF41F24C006D
:10338000C4F20200016841F001010160006800F030
:10339000010000900098032001900220029000207C
:1033A000CDE90300012005904FF0904019E000BFE7
:1033B00041F24C00C4F20200016841F002010160D8
:1033C0000068002100F0020000900098C0200190E9
:1033D00002200290CDE90311059040F20040C4F6AE
:1033E000000001A9FDF7D4FA06B0B0BD90F83C305A
:1033F000012B04BF022070474FEAB202052A00F2F7
:10340000D3812DE9F041DFE812F0070035018D008E
:10341000E1005100870100BF03681D6A1A6AA3F129
:10342000804622F001021A621A465C6852F818CFF0
:103430008F68A6F59636D1F800E025F002054FEA30
:10344000B626072E45EA07050AD80127B74017F028
:10345000E50F1FBFCF6825F00C0527F004073D439B
:10346000072E0BD8012707FA06F616F0E50F1FBF47
:10347000D1E9056724F4407434433C434FF68C761D
:10348000CFF6FE760CEA060747EA0E075C609F61FE
:103490004F6809695F631D629F6947F008079F6174
:1034A0009F6927F004079F6173E100BF0368D3F8A9
:1034B00020C01A6AA3F1804722F480321A621A46A9
:1034C000A7F596375D6852F8508FD1F800E08E6806
:1034D0004FEAB727072F09D80124BC4014F0E50FA5
:1034E0001EBF4C6925F4803545EA04252CF40037CD
:1034F00047EA06474FF68C76CFF6FE76033606EAA5
:10350000080646EA0E065D601E654E6809699E64FF
:103510001F621F6D47F008071F651F6D27F0040726
:103520001F6536E1036843F200461D6A1A6AC4F259
:10353000010622F480721A621A46D3F804C052F8C7
:103540001CEFB3428E68D1F8008025F4007545EA7F
:10355000062505D042F60046C4F20106B34207D163
:10356000CE6840F2FF47360225F44065BE4335433E
:10357000A3F18046A6F596364FEAB626072E0CD85C
:10358000012707FA06F616F0E50F1FBFD1E9056718
:103590002CF44054374344EA071C4FF68C74CFF6A2
:1035A000FE740EEA040747EA0807C3F804C0DF61A7
:1035B0004F680969DF631D62DF6947F00807DF6153
:1035C000DF6927F00407DF61E3E000BF036843F22F
:1035D00000461D6A1A6AC4F2010622F480521A6279
:1035E0001A46D3F804C052F81C8FB3428E68D1F843
:1035F00000E025F4005545EA063505D042F60046C0
:10360000C4F20106B34207D1CE6844F6FF77360311
:1036100025F44045BE433543A3F18046A6F59636D2
:103620004FEAB626072E0CD8012707FA06F616F041
:10363000E50F1FBFD1E905672CF44044374344EA46
:10364000871C48F6FF44CFF6FF6404EA080444EA06
:103650000E27C3F804C0DF614F6809691F641D624B
:10366000DF6947F40067DF61DF6927F48067DF61A6
:103670008EE000BF036843F200461D6A1A6AC4F276
:10368000010622F010021A621A465C6852F818CF3E
:10369000B3428E68D1F800E025F0200545EA061512
:1036A00005D042F60046C4F20106B34207D1CE6807
:1036B0006FF0400725F0C00507EA06163543A3F171
:1036C0008046A6F596364FEAB626072E0CD8012777
:1036D00007FA06F616F0E50F1FBFD1E9056724F4D7
:1036E00040643E4344EA860448F6FF46CFF6FF6650
:1036F0000CEA060747EA0E275C609F614F6809697C
:103700009F631D629F6947F400679F619F6927F46B
:1037100080679F613CE000BF0368D3F820C01A6A4D
:10372000A3F1804722F480121A621A46A7F5963751
:103730005D6852F8508FD1F800E08E684FEAB727E5
:10374000072F09D80124BC4014F0E50F1EBF4C69B7
:1037500025F4802545EA84252CF4001747EA06570E
:1037600048F6FF46CFF6FF6606F5407606EA0806FD
:1037700046EA0E265D601E654E680969DE641F62BA
:103780001F6D47F400671F651F6D27F480671F6575
:1037900009021368194311600021BDE8F0410022BD
:1037A00080F83C20084670470121002280F83C2028
:1037B00008467047002804BF0120704710B5044632
:1037C00090F83D0028B9002084F83C00204600F025
:1037D00023F8022084F83D002068211D01F050FCF0
:1037E000012084F8480084F83E0084F83F0084F803
:1037F000400084F8410084F8420084F8430084F8D3
:10380000440084F8450084F8460084F8470084F8B2
:103810003D00002010BD000081B0006840F2FF7143
:10382000C4F20001884215DCB0F1804F2AD040F28A
:103830000041C4F2000188423DD141F25800C4F277
:103840000200016841F002010160006800F002001E
:103850002FE000BF40F60001C4F2000188421DD0F5
:1038600043F20041C4F20101884224D141F25800E0
:10387000C4F20200816841F400518160806800F464
:10388000005016E041F25800C4F20200016841F015
:1038900001010160006800F001000AE041F25800F7
:1038A000C4F20200016841F004010160006800F008
:1038B00004000090009801B07047000090F8841058
:1038C000012904BF022070472421C0F88810016834
:1038D0000A680B6822F0005223F001030B600023FA
:1038E00043660A602021C0F8881080F884300020E8
:1038F00070470000704700007047000090F8842077
:10390000012A04BF02207047B0B52422C0F88820E5
:103910000268D0F864E0D2F800C01368BEF1000F6E
:1039200023F001031360936823F0606341EA03010D
:10393000916019D09368916848F27C1E490FC0F6D7
:10394000000E48F284151EF80140C0F60005695CBF
:10395000C3F34263E400B4FBF1F11EF80340EB5CF7
:10396000E500B5FBF3F301E001210123A0F86A10A3
:103970002021A0F86830C2F800C0C0F888100021EB
:1039800080F884100020B0BD90F88420012A04BF84
:1039900002207047B0B52422C0F888200268D0F811
:1039A00064E0D2F800C01368BEF1000F23F00103F9
:1039B0001360936823F0604341EA0301916019D0DA
:1039C0009368916848F27C1E490FC0F6000E48F2D9
:1039D00084151EF80140C0F60005695CC3F342631C
:1039E000E400B4FBF1F11EF80340EB5CE500B5FB2D
:1039F000F3F301E001210123A0F86A102021A0F8CF
:103A00006830C2F800C0C0F88810002180F8841027
:103A10000020B0BD704700007047000070470000F4
:103A200070B5026840F62F04D369116896681C408F
:103A3000202C0BD101F0200406F080552D1916D052
:103A4000416F61B3BDE87040084700BF40F60F0505
:103A50002B420CD00125C1F2000506EA050C40F20C
:103A60002015C0F200450D4015EB0C0524D1C46EA5
:103A7000DD0615D5012C13D111F0100510D0102141
:103A800011629168490661D4B0F85C10B0F85E200C
:103A9000B0F85E30002B18BF914240F0518270BDEB
:103AA000DD0215D516F4800512D04FF48011116295
:103AB000BDE87040FFF7B0BFDD0718BF11F4807597
:103AC00040F020819D0706F0010E00F1278130E1D2
:103AD0001A0606D501F0800206F40006921940F09D
:103AE000AF825A0640F1028111F0400200F0FE80E0
:103AF000016851E8001F026821F0400142E800130C
:103B0000DBB1016851E8001F026821F0400142E882
:103B1000001393B1016851E8001F026821F04001D1
:103B200042E800134BB1016851E8001F026821F020
:103B3000400142E80013002BDAD12021C0F88810A0
:103B400000218167BDE8704000F00ABCD0F8801009
:103B50000A685368B0F85C4099B2002900F0B88058
:103B6000A14280F0B580A0F85E301168890600F1AE
:103B7000A38000BF016851E8001F026821F4807132
:103B800042E80013E3B1016851E8001F026821F424
:103B9000807142E800139BB1016851E8001F026880
:103BA00021F4807142E8001353B1016851E8001F0D
:103BB000026821F4807142E80013002BDAD100BFC3
:103BC000016851E8021F026821F0010142E8021376
:103BD000BBB3016851E8021F026821F0010142E80D
:103BE000021373B3016851E8021F026821F001015A
:103BF00042E802132BB3016851E8021F026821F06A
:103C0000010142E80213002BDAD11AE0016851E801
:103C1000021F026821F0400142E80213DBB1016893
:103C200051E8021F026821F0400142E8021393B1FB
:103C3000016851E8021F026821F0400142E80213C6
:103C40004BB1016851E8021F026821F0400142E8CF
:103C50000213002BDAD12021C0F88C100021C1669C
:103C6000016851E8001F026821F0100142E80013CA
:103C7000DBB1016851E8001F026821F0100142E841
:103C8000001393B1016851E8001F026821F0100190
:103C900042E800134BB1016851E8001F026821F0AF
:103CA000100142E80013002BDAD1D0F8801004464E
:103CB0000846FCF7E1FD204602210167B0F85C10E0
:103CC000B0F85E20891A89B2BDE87040FFF712BED5
:103CD0008C427FF4E4AE126892067FF5E0AE0222D9
:103CE0000267BDE87040FFF705BE00BF1A0240F151
:103CF000B38111F0804200F0AF81BDE87040FFF762
:103D000089BE00BF01251562D0F8905045F001052D
:103D1000C0F890509D0706F0010E0AD5BEF1000FC5
:103D200007D002241462D0F8904044F00404C0F894
:103D300090405C070AD5BEF1000F07D0042515623C
:103D4000D0F8905045F00205C0F890501D070CD5F2
:103D500001F0200555EA0C0507D008251562D0F8BA
:103D6000905045F00805C0F890501D050BD511F096
:103D7000806508D04FF400651562D0F8905045F08A
:103D80002005C0F89050D0F89050002D3FF487AE39
:103D90009B060BD501F0200106F08053C91805D011
:103DA000416F19B10446884722682046D0F8901028
:103DB000926801F0280102F04002891806D10446F9
:103DC000FFF72CFE0020C4F8900070BD016851E898
:103DD000001F026821F4907142E80013DBB1016812
:103DE00051E8001F026821F4907142E8001393B17A
:103DF000016851E8001F026821F4907142E8001345
:103E00004BB1016851E8001F026821F4907142E84B
:103E10000013002BDAD14FF6FE71CEF6FF7100BF12
:103E2000026852E8022F03680A4043E80226C6B13E
:103E3000026852E8022F03680A4043E8022686B16E
:103E4000026852E8022F03680A4043E8022646B19E
:103E5000026852E8022F03680A4043E80226002E57
:103E6000DED1C16E012924D1016851E8001F02682A
:103E700021F0100142E80013DBB1016851E8001F96
:103E8000026821F0100142E8001393B1016851E883
:103E9000001F026821F0100142E800134BB10168D5
:103EA00051E8001F026821F0100142E80013002BC6
:103EB000DAD12021C0F88C100021C1660268416768
:103EC0009168490640F1C480016851E8021F026808
:103ED00021F0400142E80213DBB1016851E8021F02
:103EE000026821F0400142E8021393B1016851E8F1
:103EF000021F026821F0400142E802134BB1016841
:103F000051E8021F026821F0400142E80213002B31
:103F1000DAD1D0F88010002900F09A8045F21542DD
:103F2000C0F60002044608468A63FCF7DDFC002860
:103F30003FF4B5ADD4F88000816BBDE87040084710
:103F4000891A00BF026852E8002F036822F49072B9
:103F500043E80026DEB1026852E8002F036822F42D
:103F6000907243E8002696B1026852E8002F036879
:103F700022F4907243E800264EB1026852E8002F06
:103F8000036822F4907243E80026002EDAD14FF63F
:103F9000FE72CEF6FF7200BF036853E8023F066868
:103FA000134046E80235C5B1036853E8023F06688E
:103FB000134046E8023585B1036853E8023F0668BE
:103FC000134046E8023545B1036853E8023F0668EE
:103FD000134046E80235002DDED12022C0F88C20A7
:103FE0000022C266426700BF026852E8002F0368E1
:103FF00022F0100243E80026DEB1026852E8002FEA
:10400000036822F0100243E8002696B1026852E8E5
:10401000002F036822F0100243E800264EB1026828
:1040200052E8002F036822F0100243E80026002E19
:10403000DAD1022289B20267BDE87040FFF75ABCAC
:10404000816F00293FF42BADBDE87040084700BFE9
:10405000BDE87040FFF7E2BCDA017FF520ADB1F1B9
:10406000FF3FC8BF70BDBDE87040FFF745BC000012
:1040700010B5D0B10446D0F8880028B9002084F8E3
:104080008400204600F026F82420C4F88800206828
:10409000A16A026822F00102026011B1204601F01B
:1040A0008FF8204601F0BCF910B1012010BD00BF0F
:1040B0002168486820F490404860886820F02A0011
:1040C0008860086840F0010220460A60BDE81040A0
:1040D00001F0EAB810B598B0044600201790CDE979
:1040E0001500CDE9130002A84421FCF779FA2068F5
:1040F00044F6FF31C4F20001884243DD44F600413A
:10410000C4F20001884200F0838043F60001C4F24B
:104110000101884200F0B68048F20001C4F20001BB
:10412000884240F01B812020029002A8FEF77AF915
:10413000002818BFFCF79AFB41F24C00C4F20200C1
:10414000016941F001010161016901F00101019181
:104150000199016841F0010101600068022100F04D
:104160000100019001980C20149100211390CDE9D9
:104170001511179013A94FF09040FCF709FC18B0E7
:1041800010BD00BF44F20041C4F20001884200F0BB
:10419000AF8044F60001C4F20001884240F0DE80A6
:1041A0000420029002A8FEF73DF9002818BFFCF792
:1041B0005DFB41F24C00C4F20200C16841F4802171
:1041C000C160C16801F4802101910199016841F049
:1041D00002010160006813A900F00200019001983B
:1041E0004FF440601390022014900020CDE9150098
:1041F0000720179040F20040C4F60000FCF7C8FB0F
:10420000272000210022FDF7ADF82720A4E000BF01
:104210000820029002A8FEF705F9002818BFFCF755
:1042200025FB41F24C00C4F20200C16841F40021B8
:10423000C160C16801F4002101910199016841F058
:1042400004010160006813A900F0040001900198C6
:104250004FF440601390022014900020CDE9150027
:104260000520179040F20040C4F6000000F5806081
:10427000FCF78EFB342000210022FDF773F8342078
:104280006AE000BF0120029002A8FEF7CBF80028E8
:1042900018BFFCF7EBFA41F24C00C4F2020041698E
:1042A00041F480414161416901F4804101910199EA
:1042B000016841F001010160006813A900F00100EC
:1042C000019001984FF4C0601390022014900020D8
:1042D000CDE91500072017904FF09040FCF758FBF0
:1042E000252000210022FDF73DF8252034E000BF05
:1042F000022402A80294FEF795F8002818BFFCF7E4
:10430000B5FA41F24C00C4F20200C16841F4003138
:10431000C160C16801F4003101910199016841F067
:1043200002010160006813A900F0020001900198E9
:104330001820CDE913040020CDE9150007201790BF
:1043400040F20040C4F60000FCF722FB26200021CA
:104350000022FDF707F82620FCF7F2FF18B010BD89
:1043600070470000FEE7000070B50446006815467F
:104370008369DA0602D40021002266E00E4610218D
:10438000C161816989065CD4711C50D02EBBFCF7D9
:10439000DFFB2068426894F8421083691B040BD548
:1043A00012F4804208D1202906D0416841F48041AE
:1043B0004160FCF7CDFB054620688169890605D47C
:1043C000FCF7C6FB401B1A28F6D328E08169890652
:1043D000DDD536E08169890633D4FCF7B9FB411B92
:1043E0002068B142F6D9426894F8421083691B04F0
:1043F0000CD512F4804209D1202907D0416841F43C
:1044000080414160FCF7A4FB054600BF206881693C
:104410008906DFD4FCF79CFB401B1A28F6D32068E2
:1044200001228169242110E08169890609D481690A
:10443000890606D4816989065CBF81695FEA81616A
:10444000F2D52021C161012204218369DE0505D551
:104450004FF4807241F00101C26101225E0505D472
:104460009B050AD472B9002070BD00BF41F008015D
:104470004FF480629B05C26104D541F002014FF404
:104480000072C2618269920744BF0022826282691F
:10449000D20703D1826942F00102826142684EF67E
:1044A0000003CFF600631A404260606C084360640A
:1044B000202084F84100002084F8420084F8400065
:1044C000012070BD2DE9F041044600688069084074
:1044D000401AB0FA80F04009904221D1DDF81880EE
:1044E00015460E461F46581C27D0CFBB204600213C
:1044F0004246FFF739FF002853D1FCF729FB20681B
:1045000081693140891BB1FA81F14909A9423CD046
:1045100080693040801BB0FA80F04009A842E5D0A5
:104520000020BDE8F08100BF206880693040801B1A
:10453000B0FA80F04009A842F2D120464FF0FF3196
:104540004246FFF711FF0028EED00120BDE8F081C0
:1045500080693040801BB0FA80F04009A842DFD16A
:10456000204639464246FFF7FFFED0B9FCF7F0FA85
:10457000A0EB08012068B942EAD981693140891B62
:10458000B1FA81F14909A942E2D1606C40F0200002
:104590006064202084F84100002084F8420084F800
:1045A00040000120BDE8F08170B5044600688069D4
:1045B000800635D415460E4619B928E08069800674
:1045C0002ED4204631462A46FFF7CEFE30BBFCF7FC
:1045D000BFFA411B2068B142F0D981698906EDD448
:1045E000606C40F020006064202084F841000020CE
:1045F00084F8420084F84000012070BDFCF7A8FA5E
:10460000206881698906EBD58069800608D4204638
:1046100000212A46FFF7A8FE0028EFD0012070BD38
:10462000002070BD70B5044600688069800714D40E
:1046300015460E46481C17D01EBB00BF2046002161
:104640002A46FFF791FEB8BBFCF782FA2068816921
:10465000890725D580698007F0D5002070BD00BF8F
:10466000206880698007F8D420464FF0FF312A4641
:10467000FFF77AFE0028F3D0012070BD8069800723
:10468000EBD4204631462A46FFF76EFEA0B9FCF770
:104690005FFA411B2068B142F0D981698907EDD4E6
:1046A000606C40F020006064202084F8410000200D
:1046B00084F8420084F84000012070BD2DE9F04FDD
:1046C00083B040F2F817C2F2000747F6110041F636
:1046D0008816C0F6000047F2ED7140F6691241F20B
:1046E000281307F12C0C07F12C0407F1020B4FF0F3
:1046F0006C0AC2F200060FF2A0080FF2CC09C0F655
:104700000001C0F60002C2F200038CE80F0000BFF7
:104710002046594603F0D4F8BD783046414640F271
:104720002B124B46CDE900A5FBF77EFE81B2304649
:10473000FCF774F8B8786C28EAD12046012103F020
:1047400025FAFD1C2046294603F010FAF8780028C7
:10475000F8D12046802103F0BDF92046012103F065
:104760008DF82046012103F041FA2046012103F093
:10477000FFF82046002103F0EBFA2046062103F063
:1047800087F92046042103F005FB2046012103B0F0
:10479000BDE8F04F03F0AABA5B494E464F5D2025B5
:1047A0006420257328293A204C534D3644534F5FDB
:1047B00049443D307825782C77686F616D493D30EC
:1047C0007825780D0A0A0000494D555F496E6974D5
:1047D00000000000F0B587B0002641F24C000696BC
:1047E000CDE90466CDE90266C4F20200016840F634
:1047F000000441F0040101600168C4F6000401F006
:104800000401019101990168002241F02001016039
:1048100001684FF4604501F02001019101990168A0
:1048200041F001010160016801F00101019101996C
:10483000016841F00201016000684FF4604100F03E
:104840000200019001982046FCF77CF902950120B6
:1048500002ADCDE90306204629460596FCF798F8F7
:10486000802002904FF488174FF090402946CDE900
:104870000376FCF78DF841F20400CDE90207A4F5B8
:10488000806029460496FCF783F807B0F0BD00006D
:1048900080B541F2281045F20041C2F20000C4F296
:1048A000000148F2C2520023C4F2B2024FF0010CE0
:1048B00080E80E10C0E90433C0E906330362FCF758
:1048C00097F9002818BFFBF7D1FF41F22810C2F278
:1048D00000000021FCF742F9002818BFFBF7C6FFD3
:1048E00041F22810C2F200000021FCF75DF9002817
:1048F00008BF80BDBDE88040FBF7B8BF80B541F27E
:104900007C1045F60001C2F20000C4F2000148F23A
:10491000C2520023C4F2B2024FF0010C80E80E1024
:10492000C0E90433C0E906330362FCF761F90028EB
:1049300018BFFBF79BFF41F27C10C2F20000002180
:10494000FCF70CF9002818BFFBF790FF41F27C1030
:10495000C2F200000021FCF727F9002808BF80BD43
:10496000BDE88040FBF782BF80B541F2D01048F22D
:104970000001C2F20000C4F2000143F2243200231D
:104980004FF00C0CC0F2030280E80E00C0E90333C4
:10499000C0E905C3C0E908338362FFF769FB00285B
:1049A00018BFFBF763FF41F2D010C2F200000021F4
:1049B000FEF7EAFF002818BFFBF758FF41F2D010BE
:1049C000C2F200000021FEF799FF002818BFFBF794
:1049D0004DFF41F2D010C2F20000FEF76FFF002839
:1049E00008BF80BDBDE88040FBF740BF10B541F275
:1049F000405043F20001C2F20000C4F201014FF442
:104A0000827200234FF4407C4FF4007E102480E833
:104A10000E1007210822C0E90433C0E906E4C0E90A
:104A20000833C0E90A31C0E90C32FEF789FA0028E0
:104A300008BF10BDBDE81040FBF718BF10B541F22C
:104A4000A45043F60001C2F20000C4F200014FF48A
:104A5000827200234FF4407C4FF4007E102480E8E3
:104A60000E1007210822C0E90433C0E906E4C0E9BA
:104A70000833C0E90A31C0E90C32FEF761FA0028B8
:104A800008BF10BDBDE81040FBF7F0BE10B58AB0FE
:104A900041F208600024C2F200004FF080414FF064
:104AA000FF320894CDE90544CDE90344C0E9001480
:104AB000C0E9024204618461FEF77CFE002818BF51
:104AC000FBF7D4FE41F20860C2F2000007A9079488
:104AD0000994FEF791FB002818BFFBF7C7FE602082
:104AE00000900020CDE90100049041F20860C2F27C
:104AF000000069460022FEF779FC002818BFFBF78A
:104B0000B5FE41F20860C2F2000069460422FEF7D9
:104B10006DFC002818BFFBF7A9FE41F20860C2F245
:104B20000000FEF7BDFB0AB010BD000010B58AB052
:104B300041F2546040F200410024C2F20000C4F28D
:104B400000014FF6FF720894CDE90544CDE9034416
:104B5000C0E90014C0E9024204618461FEF72AFE44
:104B6000002818BFFBF782FE41F25460C2F2000039
:104B700007A907940994FEF73FFB002818BFFBF72D
:104B800075FE602000900020CDE90100049041F204
:104B90005460C2F2000069460422FEF727FC002898
:104BA00018BFFBF763FE41F25460C2F20000694691
:104BB0000822FEF71BFC002818BFFBF757FE41F246
:104BC0005460C2F2000069460C22FEF70FFC002878
:104BD00018BFFBF74BFE41F25460C2F20000FEF733
:104BE0005FFB0AB010BD000010B58AB041F2A060B2
:104BF00040F600010024C2F20000C4F200014FF6AA
:104C0000FF720894CDE90544CDE90344C0E90014DE
:104C1000C0E9024204618461FEF7CCFD002818BFA0
:104C2000FBF724FE41F2A060C2F2000007A907943E
:104C30000994FEF7E1FA002818BFFBF717FE602081
:104C400000900020CDE90100049041F2A060C2F282
:104C5000000069460022FEF7C9FB002818BFFBF7D9
:104C600005FE41F2A060C2F2000069460422FEF790
:104C7000BDFB002818BFFBF7F9FD41F2A060C2F2AE
:104C80000000FEF70DFB0AB010BD000010B598B093
:104C9000002401A834211494CDE91244CDE9104434
:104CA000CDE90E44FBF79CFC41F2EC6043F200417D
:104CB000C2F20000C4F201014FF6FF72C0E9001415
:104CC000C0E90242C0E904448461FEF773FD002894
:104CD00018BFFBF7CBFD41F2EC60C2F2000015A952
:104CE000CDE915441794FEF787FA002818BFFBF7A3
:104CF000BDFD60200E9041F2EC600024C2F2000085
:104D00000EA90022CDE90F44CDE91144CDE91344A9
:104D1000FEF76CFB002818BFFBF7A8FD4FF400500E
:104D2000CDE906044FF00070CDE90A0441F2EC60D1
:104D3000C2F2000001A90594CDE90344CDE9014484
:104D4000CDE90844CDE90C44FEF7F2F9002818BF7C
:104D5000FBF78CFD41F2EC60C2F20000FEF7A0FA16
:104D600018B010BD80B541F6F40044F60041C2F21F
:104D70000000C4F2000100234FF00C0C4FF4E132AC
:104D800080E80E00C0E90333C0E905C3C0E907337A
:104D9000C0E90933FFF76CF9002818BFFBF766FD7F
:104DA00041F6F400C2F200000021FEF7EDFD0028FC
:104DB00018BFFBF75BFD41F6F400C2F200000021D2
:104DC000FEF79CFD002818BFFBF750FD41F6F400EC
:104DD000C2F20000FEF772FD002808BF80BDBDE8EA
:104DE0008040FBF743BD000080B541F2387043F6C8
:104DF0000001C2F20000C4F2010100234FF00C0CCC
:104E00004FF4E13280E80E00C0E90333C0E905C386
:104E1000C0E90733C0E90933FFF72AF9002818BFB2
:104E2000FBF724FD41F23870C2F200000021FEF7CA
:104E3000ABFD002818BFFBF719FD41F23870C2F234
:104E400000000021FEF75AFD002818BFFBF70EFDF9
:104E500041F23870C2F20000FEF730FD002808BFB2
:104E600080BDBDE88040FBF701BD000080B541F288
:104E7000CC7044F20041C2F20000C4F200010023F1
:104E80004FF00C0C4FF4E12280E80E00C0E9033330
:104E9000C0E905C3C0E90733C0E90933FFF7E8F803
:104EA000002818BFFBF7E2FC41F2CC70C2F2000010
:104EB0000021FEF769FD002818BFFBF7D7FC41F27F
:104EC000CC70C2F200000021FEF718FD002818BFC8
:104ED000FBF7CCFC41F2CC70C2F20000FEF7EEFC16
:104EE000002808BF80BDBDE88040FBF7BFBC0000C4
:104EF00080B541F6600044F60001C2F20000C4F241
:104F0000000100234FF00C0C4FF4E13280E80E005A
:104F1000C0E90333C0E905C3C0E90733C0E9093379
:104F2000FFF7A6F8002818BFFBF7A0FC41F66000C9
:104F3000C2F200000021FEF727FD002818BFFBF792
:104F400095FC41F66000C2F200000021FEF7D6FC9D
:104F5000002818BFFBF78AFC41F66000C2F200008F
:104F6000FEF7ACFC002808BF80BDBDE88040FBF721
:104F70007DBC000080B540F6586040F20801C2F2E6
:104F80000000C2F20001002201F0DAF8002818BF88
:104F9000FBF76CFC40F6586040F22C01C2F20000B6
:104FA000C2F2000101F0F6FA002818BFFBF75EFC20
:104FB00040F6586040F25011C2F20000C2F2000107
:104FC00000F096FE002818BFFBF750FC40F6586032
:104FD000C2F2000001F0FEFA002808BF80BDBDE863
:104FE0008040FBF743BC0000FEE70000FEE7000046
:104FF0007047000070470000FCF742B9B0B594B0AC
:1050000000240020CDE90A44CDE90844FDF778F9F1
:10501000212006904FF480300790012006210C904B
:1050200002200F9155210D900325CDE91010CDE9F7
:10503000120006A80E95FDF71BFD28B1EFF31080B6
:1050400072B600BFFEE700BF0F20CDE9010501A841
:105050000421CDE903440594FDF71AFB20B1EFF3D9
:10506000108072B6FEE700BF14B0B0BD4EF6885097
:10507000CEF20000016841F4700101607047000049
:1050800040F2FF7C0268C4F2000C604524DD40F66B
:105090000003C4F20003984227D043F20043C4F255
:1050A0000103984221D042F60043C4F20103984222
:1050B0001BD043F2FF33C4F2010398421FDC60456A
:1050C00030DCB0F1804F47D040F20043C4F200031F
:1050D000984241D044E000BFB0F1804F05D040F28B
:1050E0000043C4F200039842E3D14B6822F07002FF
:1050F0001A4343F2FF33C4F201039842DFDD44F266
:10510000FF33C4F2010398421ADC43F20043C4F2B5
:105110000103984220D044F20003C4F201039842F4
:105120001AD01DE040F60003C4F20003984213D0E9
:1051300042F60043C4F2010398420DD010E000BFD4
:1051400044F60003C4F20103984205D044F2004340
:10515000C4F20103984203D1CB6822F440721A438F
:1051600080B54B6922F0800E8A6843EA0E03D1F8BD
:1051700000C00360C262A0F18042A2F596324FEAFD
:10518000B222072AC0F828C0BDE8804007D8012312
:1051900003FA02F212F0E50F1CBF09690163012155
:1051A00041610169C90708BF7047016921F0010128
:1051B0000161704741F6F400C2F20000FEF730BC16
:1051C000816A0A070CD4CA0715D18A071ED44A0778
:1051D00027D4CA0630D48A0639D44A0642D457E0C6
:1051E0000268D0F838C0536823F4004343EA0C0344
:1051F0005360CA07E9D00268D0F82CC0536823F482
:10520000003343EA0C0353608A07E0D50268D0F804
:1052100030C0536823F4803343EA0C0353604A07D9
:10522000D7D50268D0F834C0536823F4802343EA0A
:105230000C035360CA06CED50268D0F83CC0936810
:1052400023F4805343EA0C0393608A06C5D50268B1
:10525000D0F840C0936823F4005343EA0C039360F2
:105260004A0615D5D0F800C0436CDCF80420B3F52D
:10527000801F22F4801242EA0302CCF8042007D1F6
:10528000DCF80420836C22F4C0021A43CCF804201A
:10529000090658BF70470168C06C4A6822F40022B2
:1052A0001043486070470000B0B582B0044600204B
:1052B000C4F89000FBF74CFC216805460A68120709
:1052C00037D56FF07E4C20464FF4001100222B465C
:1052D000CDF800C000F0F0F950B300BF206850E8EE
:1052E000000F216820F0800041E80002DAB1206858
:1052F00050E8000F216820F0800041E8000292B1E0
:10530000206850E8000F216820F0800041E800028A
:105310004AB1206850E8000F216820F0800041E881
:105320000002002ADAD10320202188226BE000BF8E
:105330002168086840075DD56FF07E4C20464FF429
:10534000800100222B46CDF800C000F0B5F90028FE
:1053500050D000BF206850E8000F216820F4907002
:1053600041E80002BAB3206850E8000F216820F439
:10537000907041E8000272B3206850E8000F216885
:1053800020F4907041E800022AB3206850E8000F32
:10539000216820F4907041E80002002ADAD11AE076
:1053A000206850E8020F216820F0010041E8020265
:1053B000DAB1206850E8020F216820F0010041E8CE
:1053C000020292B1206850E8020F216820F001002B
:1053D00041E802024AB1206850E8020F216820F03B
:1053E000010041E80202002ADAD1032020218C22A8
:1053F00009E000BF2020C4F88800C4F88C00002118
:1054000070220020E166A150002184F8841002B0CF
:10541000B0BD0000806A0021A0F85E10FEF7FEBA61
:1054200070B5054605F108041ECC0068194341EA31
:105430000403EE69046846F6F311CCF6FF712140CF
:10544000194331430160416848F2000C21F4405196
:1054500011434160AA69C4F2000C60451CBF296A6F
:105460000A4381684FF2FF43C1F2FF131940114311
:105470008160C16AD5F824E021F00F0141EA0E01F4
:10548000C16244F6FF31C4F2000188424FF01003BC
:1054900014DD44F60041C4F20001884222D0604588
:1054A00028D043F60001C4F20101884238D141F20C
:1054B0008801C4F202010B687BA22DE044F2004196
:1054C000C4F2000188421DD044F60001C4F200017C
:1054D000884225D141F28801C4F2020109680B0912
:1054E00016E000BF41F28801C4F2020109688B098D
:1054F0000EE000BF41F28801C4F2020109688B0A84
:1055000006E000BF41F28801C4F2020109688B087D
:1055100048F26C12C0F6000203F0030152F8213089
:10552000604542F20040C0F2F40015D0B6F5004FDD
:1055300022D1082B4FF0010100F2AD80DFE803F02B
:10554000065C74AB64ABABAB720000BFFDF722FA34
:10555000002840F05D809AE0082B4FF0010100F236
:105560009A80DFE803F0059825981B989898230007
:10557000FDF710FAB0B98AE0082B4FF0010100F2F4
:105580008A80DFE803F0053D6F88498888886D00D0
:10559000FDF700FA002842D179E000BFFDF726FAB6
:1055A000002874D0D5F824E002E000BF4FF400409A
:1055B00048F25211C0F6000131F81E106A68B0FBC3
:1055C000F1F002EB420188424FF0010163D3130373
:1055D000984260D8010E000210EB520041F1000128
:1055E0000023FAF7A9FE4FF60052A0F54071C0F271
:1055F0000F02914249D34DE0FDF7E2F940B946E090
:10560000FDF7DEF958B942E0FDF7F0F900283ED089
:10561000D5F824E008E000BFFDF7E8F9B8B3D5F805
:1056200024E01FE04FF4004048F25211C0F60001A0
:1056300031F81E106A68B0FBF1F0510801EB400030
:10564000B0FBF2F04FF6EF72A0F11001914221D8B9
:105650004FF6F0710140C0F34200084415E000BF6E
:105660004FF4004048F25211C0F6000131F81E100C
:105670004FF6EF72B0FBF1F0696800EB5100B0FB40
:10568000F1F0A0F11001914204D82968C86000210E
:1056900001E000BF01214FF00110A866002208467A
:1056A0006A67AA6770BD00BF010000000400000027
:1056B00002000000080000002DE9F041804600686B
:1056C0001546C2690E461140891BB1FA81F149099C
:1056D000A94223D1069C2CB3611C29D1C169314058
:1056E000891BB1FA81F14909A94217D1C169314039
:1056F000891BB1FA81F14909A9420FD1C169314031
:10570000891BB1FA81F14909A94207D1C169314028
:10571000891BB1FA81F14909A942DFD00020BDE817
:10572000F08100BFFBF714FA0320BDE8F08100BF51
:105730001F4607E0C0693040801BB0FA80F0400986
:10574000A842EBD1FBF704FAC01BA04200F2AE80E6
:10575000D8F8000001684907ECD5402EEAD0802E29
:10576000E8D0C169090700F1A580C1690905E1D543
:105770004FF400610162D8F8000050E8000FD8F83B
:10578000001020F4907041E800020AB3D8F800003D
:1057900050E8000FD8F8001020F4907041E80002A3
:1057A000B2B1D8F8000050E8000FD8F8001020F48B
:1057B000907041E800025AB1D8F8000050E8000F9C
:1057C000D8F8001020F4907041E80002002AD2D1ED
:1057D0004FF6FE70CEF6FF70D8F8001051E8021FA9
:1057E000D8F80020014042E80213F3B1D8F80010C5
:1057F00051E8021FD8F80020014042E80213A3B18B
:10580000D8F8001051E8021FD8F80020014042E803
:10581000021353B1D8F8001051E8021FD8F8002045
:10582000014042E80213002BD6D1D8F86C000128C1
:105830002CD1D8F8000050E8000FD8F8001020F064
:10584000100041E800020AB3D8F8000050E8000F49
:10585000D8F8001020F0100041E80002B2B1D8F8EA
:10586000000050E8000FD8F8001020F0100041E8C8
:1058700000025AB1D8F8000050E8000FD8F8001024
:1058800020F0100041E80002002AD2D1202000219F
:10589000C8F88C00C8F86C10C8F87410C8F89000EC
:1058A000032088F88410BDE8F08100BF0320BDE824
:1058B000F08100BF08210162D8F8000050E8000F15
:1058C000D8F8001020F4907041E800020AB3D8F82C
:1058D000000050E8000FD8F8001020F4907041E864
:1058E0000002B2B1D8F8000050E8000FD8F800105C
:1058F00020F4907041E800025AB1D8F8000050E856
:10590000000FD8F8001020F4907041E80002002A3F
:10591000D2D14FF6FE70CEF6FF70D8F8001051E8E5
:10592000021FD8F80020014042E80213F3B1D8F872
:10593000001051E8021FD8F80020014042E802138D
:10594000A3B1D8F8001051E8021FD8F80020014098
:1059500042E8021353B1D8F8001051E8021FD8F8FA
:105960000020014042E80213002BD6D1D8F86C0089
:1059700001282CD1D8F8000050E8000FD8F800100A
:1059800020F0100041E800020AB3D8F8000050E807
:10599000000FD8F8001020F0100041E80002B2B16A
:1059A000D8F8000050E8000FD8F8001020F01000E0
:1059B00041E800025AB1D8F8000050E8000FD8F8CA
:1059C000001020F0100041E80002002AD2D120206F
:1059D000C8F88C0000200821C8F86C00C8F87400D2
:1059E000C8F8901088F884000120BDE8F08100001C
:1059F00041F23870C2F20000FEF712B841F2CC70EA
:105A0000C2F20000FEF70CB841F66000C2F20000DE
:105A1000FEF706B810B540F23824C2F200040A4678
:105A200002A0214600F01EFB204610BD4344432047
:105A3000436F6E666967000010B5D0F8BC323BB3A7
:105A40008E4601EB810100EB810151F8184F64B1E2
:105A5000D0F8C4C20EEB8E020CEBC202D2F820C00A
:105A6000B4FBFCF202FB1C42A2B10024C3F81442B6
:105A7000D0F8C002D0F810C0BCF1000F06D0D3F8A7
:105A8000080203F504717246E0470024204610BD69
:105A9000032010BD00240C6071460022002300F09A
:105AA0005BFD204610BD0000B0B5D0F8BC527DB102
:105AB000044600F007FCD4F8C02205F50371D36852
:105AC000D5F80422C5F80C02104698470020B0BD56
:105AD0000320B0BDB0B58121044600F059FB00257C
