:020000040800F2
:10000000185B002089030008AF3B0008D7340008C4
:10001000AD3B00083B090008E75F00080000000056
:10002000000000000000000000000000C9020008FD
:10003000B10900080000000025030008613F000826
:10004000A3030008A3030008A3030008A3030008F8
:10005000A3030008A3030008A3030008A3030008E8
:10006000A3030008A3030008A3030008A3030008D8
:10007000A3030008A3030008A3030008A3030008C8
:10008000A303000800000000A3030008A303000866
:10009000795F0008A3030008A3030008A303000876
:1000A000A3030008A3030008F93F0008A303000806
:1000B000A3030008A3030008A3030008A303000888
:1000C000A3030008A3030008A3030008A303000878
:1000D000A30300081D490008294900083549000804
:1000E000A3030008A3030008A3030008A303000858
:1000F000A3030008A3030008A303000800000000F6
:1001000000000000A303000800000000A303000893
:10011000ED43000800000000A3030008A30300084B
:10012000A3030008A3030008A3030008A303000817
:10013000A30300080000000000000000A303000863
:10014000A3030008A3030008000000000000000053
:10015000000000000000000000000000000000009F
:10016000000000000000000000000000A3030008E1
:10017000A3030008000000000000000000000000D1
:1001800000000000A30300080000000000000000C1
:10019000000000000000000000000000000000005F
:1001A0000000000000000000A3030008A3030008F3
:1001B000A3030008A3030008A30300080000000035
:1001C00000000000A3030008000000000000000081
:1001D000A3030008A303000800F002F800F064F88D
:1001E0000AA090E8000C82448344AAF10107DA4592
:1001F00001D100F059F8AFF2090EBAE80F0013F080
:10020000010F18BFFB1A43F00103184724770000C1
:10021000447700000A444FF0000C10F8013B13F043
:10022000070408BF10F8014B1D1108BF10F8015B4F
:10023000641E05D010F8016B641E01F8016BF9D142
:1002400013F0080F1EBF10F8014BAD1C0C1B09D199
:100250006D1E58BF01F801CBFAD505E014F8016B0B
:1002600001F8016B6D1EF9D59142D6D3704700009D
:100270000023002400250026103A28BF78C1FBD8AF
:10028000520728BF30C148BF0B607047642900F097
:100290008781732900F0F182002070471FB507F0B5
:1002A000E9FA1FBD10B510BD00F012FB1146FFF7B3
:1002B000F5FF05F0A9FE00F030FB03B4FFF7F2FFF5
:1002C00003BC00F033FB00002C4B19680868B0E851
:1002D000F04F80F30988BFF36F8F4FF0000080F379
:1002E000118870470000000008480068006880F32B
:1002F00008884FF0000080F3148862B661B6BFF33F
:100300004F8FBFF36F8F00DF00BF00BF08ED00E02D
:10031000DFF80C00016841F470010160704700BF14
:1003200088ED00E0EFF30980BFF36F8F134B1A687D
:100330001EF0100F08BF20ED108A20E9F04F10606A
:1003400009B44FF0500080F31188BFF34F8FBFF313
:100350006F8F06F061FD4FF0000080F3118809BC3B
:1003600019680868B0E8F04F1EF0100F08BFB0EC35
:10037000108A80F30988BFF36F8F704794010020C3
:10038000EFF305807047000009488047094800479F
:10039000FEE7FEE7FEE7FEE7FEE7FEE7FEE7FEE735
:1003A000FEE7FEE704480549054A064B7047000092
:1003B000E93F0008D901000818330020185B00202D
:1003C000183B0020183B002053EA020C00F0698023
:1003D0002DE9F04B4FF00006002B1FBFB3FA83F559
:1003E00003FA05F424FA05F65E4012BF1643B2FA8A
:1003F00082F502FA05F4C5F120051EBF22FA05FCBC
:1004000044EA0C04203556EA044C4FEA144418BF61
:10041000641C4FF000084FF00009904271EB030C90
:1004200039D3002919BFB1FA81F701FA07F6B0FAFA
:1004300080F700FA07F6C7F120071EBF20FA07FC75
:1004400046EA0C062037B6FBF4FCA7EB0507103F85
:1004500007F01F0BCBF120060CFA0BFB2CFA06F66B
:1004600044BFB3460026202FA4BF5E464FF0000BCA
:100470005BEA060C08BF4FF0010B19EB0B09ABFB55
:10048000027C48EB0608C01B06FB02CC0BFB03CC2E
:1004900071EB0C01C1E70B46024641464846BDE8F8
:1004A000F08B13B54FF000004FF00001AFF3008068
:1004B000BDE81C40704700000FB41CB5084B06AAED
:1004C0007B4469460090059800F0ADF90446002091
:1004D000694600F0BBF920461CBC5DF814FB000027
:1004E000890300002DE9F0410E46044600202062F9
:1004F0002046E168884730B3252805D0D4E901219A
:100500009047206A401CF2E7E168204600278847B0
:10051000050018D0A5F14100192802D820354FF464
:1005200000673246294620462760FFF7AFFE40B1FC
:10053000012804D0F61D26F007060836D8E7361D38
:10054000D6E72846DAE7206ABDE8F08170B50C46A8
:100550000546012A05D02878800600D5EA690023DF
:1005600002E0012305E05B1C934202D2E05C00281C
:10057000F9D1A869E618C01AA861286A1844286247
:100580002846AFF3008004E0D5E9012114F8010BFF
:100590009047B442F8D32846AFF3008070BD000006
:1005A0002DE9F0410646002410687529314616A54C
:1005B00010D0AFF30080002802DA404213A507E014
:1005C00031688A0701D512A502E0490704D511A5B3
:1005D000012401E0AFF3008000210A2206F1240784
:1005E00009E0B0FBF2FCB0FBF2F302FB1C00303080
:1005F00078541846491C0028F3D123462A46304631
:10060000BDE8F04100F0B1B8000000002D0000008E
:100610002B00000020000000032A40F2308010F080
:10062000030C00F0158011F8013BBCF1020F62448D
:1006300098BF11F801CB00F8013B38BF11F8013B1E
:10064000A2F1040298BF00F801CB38BF00F8013BCB
:1006500011F0030300F02580083AC0F0088051F83B
:10066000043B083A51F804CBA0E80810F5E7121D46
:100670005CBF51F8043B40F8043BAFF30080D20765
:1006800024BF11F8013B11F801CB48BF11F8012B31
:1006900024BF00F8013B00F801CB48BF00F8012B54
:1006A000704710B5203AC0F00B80B1E81850203ADE
:1006B000A0E81850B1E81850A0E81850BFF4F5AF02
:1006C0005FEA027C24BFB1E81850A0E8185044BF8C
:1006D00018C918C0BDE810405FEA827C24BF51F8F9
:1006E000043B40F8043B08BF7047D20728BF31F8ED
:1006F000023B48BF11F8012B28BF20F8023B48BF3E
:1007000000F8012B704702F0FF0343EA032242EA9C
:10071000024200F0B8B84FF0000200B5134694460C
:100720009646203922BFA0E80C50A0E80C50B1F149
:100730002001BFF4F7AF090728BFA0E80C5048BF5D
:100740000CC05DF804EB890028BF40F8042B08BFFB
:10075000704748BF20F8022B11F0804F18BF00F8F7
:10076000012B70477047704770472DE9F0470D46E1
:1007700099469246044600F124080168880604D58B
:10078000E06921F01001216000E00120A84201DDB4
:10079000471B00E00027A1697A1902EB0900081A3B
:1007A000A0612078C00602D42046AFF30080002666
:1007B00008E0D4E901211AF806009047206A401C9D
:1007C000761C20624E45F4DB2078C0060AD5204610
:1007D000AFF3008006E0D4E9012130209047206A81
:1007E000401C2062381EA7F10107F4DC07E0D4E9C1
:1007F000012118F805009047206A401C2062281E3D
:10080000A5F10105F3DC2046AFF300802078000657
:1008100002D50220BDE8F0870120FBE701694A1CF0
:1008200002610878704700B58FB0CDE90131002131
:10083000059105497944CDE9031011466846FFF753
:1008400051FE0FB000BD0000E5FFFFFF0A6802F88F
:10085000010B0A60704710B5436913B1AFF3008014
:1008600001E0FFF773FE012010BD127800F12401B2
:100870000A7000224A700122EDE711684FF0FF3242
:10088000E9E74FF000020429C0F0128010F0030CD9
:100890003FF443AFCCF1040CBCF1020F18BF00F8D9
:1008A000012BA8BF20F8022BA1EB0C01FFF735BFED
:1008B0005FEAC17C24BF00F8012B00F8012B48BF80
:1008C00000F8012B7047000000487047B832002044
:1008D0007546FFF7F9FFAE4605006946534620F01E
:1008E0000700854618B020B5FFF75CFDBDE8204045
:1008F0004FF000064FF000074FF000084FF0000BDC
:1009000021F00701AC46ACE8C009ACE8C009ACE88E
:10091000C009ACE8C0098D46704710B50446AFF376
:1009200000802046BDE81040FFF7C7BC01491820F1
:10093000ABBEFEE7260002007047FEE700207047CE
:100940000020704710B500220449054804F07BF9E7
:100950000449034804F06EF9002010BDE41500209E
:10096000140D0020E411002010B50146034804F0E6
:1009700061F9024804F026F9002010BD140D002092
:1009800000207047094A10B5D2F8BC22D2F81422D0
:100990000AB1012010BD0A460146044804F053F98B
:1009A000BDE81040014804F0B8B90000140D002063
:1009B0007047000000224FF40041014800F02CBABB
:1009C0000008004872B6FEE7F0B504460020CB07E9
:1009D00011D01E235FF0010603F01F0706FA07F58A
:1009E0000D4201D15B1EF7D27AB1082A0BD0102A32
:1009F00006D0182A01D00120F0BD072BFBD204E05D
:100A0000082BF8D201E0102BF5D223685961216838
:100A10008B6823F0180313438B60F0BD10B50400FE
:100A200010D0607F20B900202077204600F030F8F9
:100A300002206077207938B1D4E902122046FFF70E
:100A4000C3FF48B1012010BD2168104848612068EB
:100A5000816821F0180181606079A0B12069216866
:100A6000086120688168626921F06001114381603A
:100A700020688168A26921F0800111438160012012
:100A80006077002010BD4FF0FF30E8E7B71DC104CC
:100A900008B500680649884208D10648816C41F4CF
:100AA00080518164806C00F48050009008BD00008B
:100AB000003002400010024010B590F825300021AF
:100AC0000122022B03D00421C163012122E003682B
:100AD0001C6824F00E041C60836C1C6824F4807471
:100AE0001C6003681C6824F001041C6090F844300A
:100AF000046C03F01F0302FA03F36360D0E91334BC
:100B00005C60436D33B11C6824F480741C60D0E9D0
:100B100016345C6080F82520002280F824200846E6
:100B200010BD70B590F82520002401212346022A2B
:100B300007D00422C26380F8251080F824300124F5
:100B400029E00268156825F00E0515600268156831
:100B500025F001051560826C156825F48075156017
:100B600090F84420056C02F01F0201FA02F26A605C
:100B7000D0E913255560426D32B1156825F48075B2
:100B80001560D0E91625556080F8251080F82430CE
:100B9000816B01B18847204670BD000070B50446E6
:100BA00000F040F90546601C02D004484068044447
:100BB00000F038F9401BA042FAD370BD700000204D
:100BC0002DE9F04FDFF82092002301260324A9F13C
:100BD000040B85B00F2709F1040AABF1040EFAE00B
:100BE00006FA03F52A407CD091F804C00CF0030CFF
:100BF000BCF1010F02D0BCF1020F26D1D0F808C021
:100C0000CDF800C04FEA430C04FA0CF8CDF810C040
:100C1000DDF800C02CEA080CCDF800C0D1F80C803B
:100C2000DDF810C008FA0CF8DDF800C048EA0C083E
:100C3000C0F80880D0F804C02CEA050C0D79C5F383
:100C400000159D4045EA0C0545600D79ED43AD0763
:100C50000ED0C5684FEA430804FA08FC25EA0C05E3
:100C6000D1F808C00CFA08FC4CEA050CC0F80CC01E
:100C70000D7905F00305022D16D1DD0800EB850C7A
:100C8000CDF808C0DCF820805D074FEAD56C07FA84
:100C90000CF528EA05080D6905FA0CF5DDF808C021
:100CA00045EA0805CCF8205005684FEA430CCDF81A
:100CB00008C004FA0CFC25EA0C0591F804C00CF0FD
:100CC0000308DDF808C008FA0CF848EA0508C0F87F
:100CD00000804D6815F4403F7CD0444DD5F860C08D
:100CE00000E077E04CF0010CC5F860C02D6E23F0F9
:100CF000030C05F0010500953D4D65440295AD6876
:100D00004FEA837C4FEA1C7807FA08FC25EA0C05B9
:100D1000B0F1904F06D0DFF8DCC0604505D14FF050
:100D2000010C20E04FF0000C1DE0DFF8CCC0604566
:100D300002D14FF0020C16E0DFF8C0C0604502D1CE
:100D40004FF0030C0FE0DFF8B8C0604502D14FF060
:100D5000040C08E0DFF8ACC0604502D14FF0050C90
:100D600001E04FF0060C0CFA08FC4CEA050C029D61
:100D7000C5F808C0D9F80050CC46D1F80480954396
:100D80005FEAC82800D51543CCF80050DAF80050C7
:100D9000D446D1F8048095435FEA882800D51543EE
:100DA000CCF80050DBF80050DC46D1F804809543C5
:100DB0005FEA883800D51543CCF80050DEF80050C3
:100DC000F446D1F8048095435FEAC83800D515434E
:100DD000CCF800505B1C0A6832FA03F57FF400AFD0
:100DE00005B0BDE8F08F000008040140001002408B
:100DF000000001400004004800080048000C0048C2
:100E00000010004800140048426921EA02030A4029
:100E100043EA0241816170470AB181617047816292
:100E20007047000001488068704700007000002093
:100E300090F84120202A24D190F84020012A20D087
:100E4000012280F84020242280F8412002681368A3
:100E500023F0010313600268136823F480531360C6
:100E6000026813680B43136001680A6842F00102CC
:100E70000A60202180F84110002180F840100846C7
:100E800070470220704790F84120202A22D190F824
:100E90004020012A1ED0012280F84020242280F820
:100EA00041200268136823F001031360026813688D
:100EB00023F4706343EA0121116001680A6842F07B
:100EC00001020A60202180F84110002180F84010C2
:100ED000084670470220704770B5040004D094F8AB
:100EE0004100002510B106E0012070BD84F840509B
:100EF000204600F04FF8242084F841002068016863
:100F000021F0010101606068216820F070600861D3
:100F10002068816821F400418160E0680128A068B0
:100F200030D040F4044021688860E06802282068DE
:100F300041682AD021F40061416020684168144A68
:100F4000114341602068C16821F40041C160D4E9C7
:100F500004010843A16940EA01202168C860D4E97E
:100F600007010843216808602068016841F0010119
:100F700001606564202084F84100256384F84250B4
:100F8000002070BD40F40040CDE741F40061D3E79C
:100F900000800002F0B597B00446142111A8FFF7B5
:100FA000BAFB44216846FFF7B6FB1F492068884218
:100FB00038D18020002500900795684600F060FE3B
:100FC00008B1FFF7FFFC194CE06C40F00400E0644E
:100FD000E06C00F004001690E06C40F00100E0646A
:100FE000E06C122600F00100169004271020CDE9D5
:100FF0001265CDE91457119011A90D48FFF7E0FDD6
:10100000A015CDE91265CDE91457119011A9B006CC
:10101000FFF7D6FDA06D40F48000A065A06D00F440
:101020008000169017B0F0BD00580040001002403C
:101030000008004802488168426811448160704796
:101040007000002010B50024032000F09BF80F2052
:1010500000F008F808B1012401E000F047F820464C
:1010600010BD000030B505461B4887B0016E41F445
:1010700080210166006E06A900F48020009001A87E
:1010800001F030F801F060F81449154AB0FBF1F1B5
:101090001448491E0260416040F2E7320021C0E975
:1010A0000321816001F013FC040012D10D4801F00E
:1010B00041FC04000DD11A2000F036F8102D07D2A3
:1010C000002229461A2000F03DF80748056000E09C
:1010D000012407B0204630BD0010024040420F00FE
:1010E00000480140CC070020700000200D4808B5E2
:1010F000016E41F001010166016E01F001010091F4
:10110000816D41F080518165806D002200F080503A
:1011100000900F21901E00F015F8BDE8084000F087
:10112000A7BD000000100240002809DB00F01F02EC
:10113000012191404009800000F1E020C0F8001139
:1011400070470000F0B40E4B1B680C46C3F302233B
:10115000C3F10705042D00D90425191D072901D263
:10116000002300E0DB1E012606FA05F1491E21409E
:1011700099409E40761E16403143F0BC04F034BFC7
:101180000CED00E0064900F0070208684FF6FF0387
:10119000184040EA0220034A1043086070470000EC
:1011A0000CED00E00000FA0501220168C0F8D02231
:1011B000002280F8C82231F8540F40F00100088066
:1011C000088840F0020008801046704770B50F4D47
:1011D000044669B101290AD1D4F8D80204F069F8AB
:1011E000607A002803D0286840F00600286070BDAF
:1011F000607A28B102F0C1FE286820F0060028605D
:10120000D4F8D802BDE8704003F0EBBF10ED00E069
:1012100010B50C0607D501F0070101EB810100EBC9
:10122000C100103005E001EB810100EBC10000F5C9
:10123000A87099B232B1012202730181190C418167
:10124000002010BD00220273C180F9E701EB81028A
:1012500000EBC202D0F8D802526A03F0A0BE01EB44
:10126000810200EBC202D0F8D802D2F8642103F068
:10127000EABE70B504460B0601F0070000EB8001E2
:1012800004EBC1014FF001024FF0000502D54A7492
:10129000103103E081F8515101F5A871087094F8FC
:1012A0009002012808D084F89022206804F0B3FB53
:1012B00084F89052002070BD022070BD70B50446C5
:1012C00001F00F002279904201D9012070BD0B0678
:1012D00001F0070000EB800104EBC1014FF00102B7
:1012E0004FF0000502D54A74103103E081F85151E6
:1012F00001F5A8718D70087094F89002012808D04B
:1013000084F89022206804F025FC84F89052002094
:1013100070BD022070BD2DE9F04704685FEA4248C5
:101320000B788D69B4F850804FF0000C4BF68F7736
:1013300048F2800648F68F7948F2C00A444428D51E
:1013400040F2024808EBC30834F80840C4F309042B
:10135000A54203D32D1B8D6102D00BE0C1F818C04C
:10136000D0F800C03CF823503D4085F4005535438B
:101370002CF82350520609D50B78056835F8232040
:1013800002EA090242EA0A0225F8232074B30A8914
:1013900027E040F2064808EBC30834F80840C4F3DD
:1013A0000904A54203D32D1B8D6102D00BE0C1F8C7
:1013B00018C0D0F800C03CF823503D4085F40055DB
:1013C00035432CF82350520609D40D78036833F8BE
:1013D000252002EA090242EA0A0223F825202CB15C
:1013E0004A8949690068234604F0CFFD2046BDE8DC
:1013F000F0872DE9F05F054600680C465FEA426819
:101400001646D1F818C02278B0F8508048F6BF7A56
:1014100048F2800B48F68F774CF280094FF6FF7345
:101420004FF4004E4FF0000140447DD540F2024899
:1014300008EBC20830F80800C0F30900844514D94D
:10144000BCEB000CC4F818C010D0760408D5D5F851
:1014500000C03CF822603E4046EA09062CF82260B3
:1014600094F82420012A60D076E1A161607810B15F
:10147000012813D01AE02868B0F85030184400EB67
:10148000C200B0F80224C2F30902A0F80224B0F8A6
:10149000022442F40042A0F8022407E02868B0F8D1
:1014A0005030184400EBC200A0F80214627828689B
:1014B00012B1012A11D018E0B0F850100844217878
:1014C00000EBC100B0F80614C1F30901A0F806143E
:1014D000B0F8061441F4004105E0B0F85020104483
:1014E000227800EBC200A0F80614E07802280BD1A5
:1014F0002278296831F8220000EA0A0080F02000F2
:1015000040EA0B0021F8220021782846FFF79EFED2
:10151000700408D521782A6832F82100384040EA62
:10152000090022F82100C3E04DE0626902446261D3
:10153000E2690244E2612669226AB24202D330467D
:10154000111A03E084F824100AB110462162617870
:1015500011B101292BD033E02968B1F85020114492
:10156000227801EBC201B1F80224C2F30902A1F80A
:10157000022401F2024158B13E280ED84208C607A3
:1015800000D0521C0E8803EA822216430E8017E018
:101590000A8842F400420A8012E04209C30600D1E0
:1015A000521E0B884EEA822213430B8008E0296802
:1015B000B1F850201144227801EBC201A1F80204D5
:1015C00083B22289C4E040F2064808EBC20830F832
:1015D0000800C0F30900844514D3BCEB000CC4F828
:1015E00018C010D0760408D4D5F800C03CF82260AA
:1015F0003E4046EA09062CF8226094F82420012A8D
:1016000059D0A9E0A161607810B1012813D01AE087
:101610002868B0F85030184400EBC200B0F802243B
:10162000C2F30902A0F80224B0F8022442F40042F6
:10163000A0F8022407E02868B0F85030184400EB06
:10164000C200A0F802146278286812B1012A11D0F1
:1016500018E0B0F850100844217800EBC100B0F851
:101660000614C1F30901A0F80614B0F8061441F4F9
:10167000004105E0B0F850201044227800EBC20091
:10168000A0F80614E07802280BD121782A6832F8F5
:10169000210000EA0A0080F0200040EA0B0022F856
:1016A000210021782846FFF7D1FD70047FF532AF85
:1016B0000020BDE8F09F626902446261E269024471
:1016C000E2612669226AB24203D33046111A2162CE
:1016D00004E00AB11046216284F824106278296877
:1016E00012B1012A2AD031E0B1F8502011442278F9
:1016F00001EBC201B1F80624C2F30902A1F80624E5
:1017000001F2064158B13E280ED84208C60700D063
:10171000521C0E8803EA822216430E8016E00A88C5
:1017200042F400420A8011E04209C30600D1521E71
:101730000B884EEA822213430B8007E0B1F8502059
:101740001144227801EBC201A1F80604628983B238
:101750006169286804F034FC2278296831F8220095
:1017600000EA0A0080F0300040EA0B0021F8220075
:101770009EE701F0070101EB810100EBC100D0F809
:101780006C0170472DE9F04104460F0601F0070097
:1017900000EB800104EBC1014FF001064FF00005A2
:1017A00002D54E74103103E081F8515101F5A87152
:1017B000022B0870C2F30A000861CB7000D10D71D2
:1017C00094F89002012809D084F89062206803F010
:1017D0006DFF284684F89052BDE8F0810220FBE7B7
:1017E00010B501F0070404EB840100EBC101C1E96D
:1017F00059230022C1F86C2181F8512181F8504110
:10180000006801F5A87104F0F7F9002010BD70B56B
:10181000044601F007002279904201D9012070BDF1
:101820000B064FF000054FF0010206D500EB8001DA
:1018300004EBC1014A74103107E001EB810104EBB4
:10184000C10181F8515101F5A8718A70087094F8AE
:101850009002012808D084F89022206804F0B2F9A0
:1018600084F89052002070BD022070BD10B501F0C8
:10187000070404EB840100EBC101C1E90923012243
:1018800081F834200B630023CB624A7401F8104FB7
:10189000006804F0B1F9002010BD10B504460068DE
:1018A00004F070FB010404D52046BDE8104002F0AE
:1018B0007FB941050ED5206830F8441F21F48061BE
:1018C0000180204600F008F92046BDE810400021C4
:1018D00000F02EB9410405D5206830F8441F21F4EA
:1018E00080417DE0810405D5206830F8441F21F453
:1018F000005175E0C1041FD5206830F8401F21F069
:1019000004010180206830F8401F21F008010180A7
:1019100094F8C802012806D1002084F8C8020146C4
:101920002046FFF753FC204600F0EAF8206830F824
:10193000441F21F4805153E0010512D5206830F88E
:10194000401F41F008010180206830F8441F21F455
:1019500000610180206830F8401F41F004010180DF
:101960000AE0010629D5206830F8441F21F08001E3
:10197000018094F8C80218B1204600F009F910BDA2
:10198000206830F8401F41F004010180206830F8E1
:10199000401F41F008010180012084F8C80220683E
:1019A000B0F854003C2101EA9000C4F8CC02204673
:1019B000BDE810400121FFF709BC810509D5206869
:1019C00030F8441F21F400710180204600F0ACF88B
:1019D00010BDC005FCD5206830F8441F21F480718B
:1019E000018010BD70B5040004D094F89102002568
:1019F00010B106E0012070BD84F89052204600F03E
:101A00003FF8032084F89102206804F09BF800203E
:101A100001260BE000EB800104EBC1014E74087459
:101A2000CD740D624D62401CC0B28D62217981423D
:101A3000F0D8002012E000BF00EB800104EBC101F0
:101A400081F8515181F8500181F85351C1F860512A
:101A5000C1F86451401CC0B2C1F86851217981427B
:101A6000EAD894E8070004F064F8257384F89162DA
:101A7000A07A012802D12046FFF796FB002070BD16
:101A800010B592B0044644216846FEF744FE104962
:101A9000206888421AD14014009000200D906846BA
:101AA00000F0EEF808B1FEF78DFF0A48816D41F4B1
:101AB00000018165806D002200F400001190052175
:101AC0001420FFF73FFB1420FFF72EFB12B010BDD0
:101AD000005C00400010024070B5044640790125CA
:101AE000022801D0FEF76EFF2946D4F8D80203F091
:101AF00092FBD4F8D802BDE8704003F045BB00006B
:101B000010B50446407A30B10648016821F006015C
:101B1000016002F032FAD4F8D802BDE8104003F0B8
:101B200060BB000010ED00E0D0F8D80203F063BB0A
:101B300010B5044690F8900201280AD0012084F8DC
:101B400090022173206804F034FA002084F8900297
:101B500010BD022010BDD0F8D82200F52671104625
:101B600003F065BB10B5044690F8900201280CD034
:101B7000012084F89002206804F0F5F9206803F051
:101B8000D1FF002084F8900210BD022010BD00009B
:101B900010B50446D0F8D80203F08BFB607A002819
:101BA00004D00348016841F00601016010BD000047
:101BB00010ED00E02B492C4B0A6832214A432B4997
:101BC00040B1B0F5007F086829D020F4C06040F42F
:101BD00080602CE00868C0F34120022804D051F84E
:101BE000800F20F4807022E0D1F8800020F4807013
:101BF000C1F88000086820F4C06040F400700860FC
:101C0000B2FBF3F0401C00E0401E4A69520501D5CA
:101C10000028F9D1486940050AD503207047C0F370
:101C20004120022806D051F8800F40F480700860EF
:101C300000207047D1F8800040F48070C1F8800027
:101C4000086820F4C06040F400700860B2FBF3F054
:101C5000401C00E0401E4A695205DBD50028F9D13E
:101C6000D8E700007C00002040420F0000700040D8
:101C70000248816841F480418160704700700040F3
:101C80002DE9F8430446006800269D4D00035ED50B
:101C9000A86D0027C00008D4A86D40F08050A8654A
:101CA000A86D012700F080500090DFF85892D9F815
:101CB000001041F48071C9F80010FFF7B3F88046B6
:101CC00006E000BFFFF7AEF8A0EB080002282BD813
:101CD000D9F80000C005F5D5D5F8900010F4407093
:101CE00014D0216C814211D0D5F89000D5F8901015
:101CF00020F4407041F48031C5F89010D5F8901070
:101D000021F48031C5F89010C5F89000C00711D0BB
:101D1000FFF788F8804641F2883907E0FFF782F83C
:101D2000A0EB0801494501D903260BE0D5F8900046
:101D30008007F3D5D5F89000216C20F4407008435B
:101D4000C5F890001FB1A86D20F08050A8652078DC
:101D5000C00707D0D5F88800616820F00300084369
:101D6000C5F888002078800707D5D5F88800A168D5
:101D700020F00C000843C5F888002078400707D5FC
:101D8000D5F88800E16820F030000843C5F88800E5
:101D90002078000707D5D5F88800216920F0C00019
:101DA0000843C5F888002078800607D5D5F8880054
:101DB000616920F440600843C5F888002078400637
:101DC00007D5D5F88800A16920F440500843C5F82C
:101DD00088002078000607D5D5F88800E16920F44E
:101DE00040400843C5F888002088C00507D5D5F8CD
:101DF0008800216A20F440300843C5F88800208814
:101E0000800507D5D5F88800616A20F44020084392
:101E1000C5F88800208840050FD5D5F88800A16A4C
:101E200020F440100843C5F88800A06AB0F5801F70
:101E300003D1E86840F48010E860208800050FD5E1
:101E4000D5F88800E16A20F440000843C5F888000E
:101E5000E06AB0F5800F03D1E86840F48010E860D4
:101E60002088C0040FD5D5F88800216B20F0407081
:101E70000843C5F88800206BB0F1807F03D1E86883
:101E800040F48010E86020884FF0006180040ED597
:101E9000D5F88800626B20F040601043C5F88800D8
:101EA000606B884203D1E86840F48010E8602088C5
:101EB00040040ED5D5F88800A26B20F04060104396
:101EC000C5F88800A06B884203D1E86840F4801010
:101ED000E860208800040FD5D5F88800E16B20F079
:101EE00040500843C5F88800E06BB0F1805F03D133
:101EF000E86840F48030E8603046BDE8F8830000D0
:101F000000100240007000402DE9F0470E46050029
:101F10004FF0000725D0DFF8AC81D8F8000000F0C2
:101F20000F00B0420CD2D8F8001021F00F0131435D
:101F3000C8F80010D8F8000000F00F00B04210D12F
:101F40002968614CC80741F2883A5AD06868DFF8BE
:101F50007C91032808D0022820682DD04005002855
:101F60002CDB0120BDE8F08720688001F9D5E0680E
:101F700000F00302E068C0F30310401C032A19D0EC
:101F8000534A00BFB2FBF0F0E268C2F306225043AE
:101F9000E268C2F34162521C5200B0FBF2F04845C5
:101FA00017D9A06810F0F00F0CD0880711D5A868D9
:101FB00040B10EE0474AE5E78003D0E700F0D6F8ED
:101FC000484506D9A06820F0F00040F08000A060ED
:101FD0008027A068696820F003000843A060FEF72E
:101FE00021FF814606E000BFFEF71CFFA0EB0901C0
:101FF00051453AD8A068696800F00C00B0EB810F39
:10200000F2D12868810714D5400703D5A06840F4B1
:10201000E060A0602878000705D5A06820F4605033
:1020200040F4E060A060A068A96820F0F0000843D8
:1020300004E0802F03D1A06820F0F000A060D8F861
:102040000010404601F00F01B14216D9016821F09D
:102050000F0131430160FEF7E5FE074607E000BFD0
:10206000FEF7E0FEC11B514501D903207AE7D8F8FD
:10207000000000F00F00B042F2D12878400705D5EB
:10208000A068E96820F4E0600843A06028780007B1
:1020900006D5A068296920F4605040EAC100A0601C
:1020A00000F064F8A1680C4AC1F30311515C01F01F
:1020B0001F01C8400949086009480068BDE8F047A9
:1020C000FEF7D0BF002002400010024000B4C4045C
:1020D0000024F40000366E01007900087C00002026
:1020E000700000200F2202600C4A936803F0030383
:1020F0004360936803F0F0038360936803F4E06344
:10210000C36092684FF4E06303EAD20202610448BC
:10211000006800F00F0008607047000000100240E7
:10212000002002400548064900688968054AC1F355
:102130000221515C01F01F01C84070477C00002063
:1021400000100240107900080548064900688968B7
:10215000054AC1F3C221515C01F01F01C84070471C
:102160007C0000200010024010790008184910B5CA
:102170008868C0F381021748012A0BD08A68164B81
:10218000C2F38102022A06D08A68C2F38102032ABE
:1021900003D0002010BD184610BDCA6802F0030429
:1021A000CA68C2F30312521C032C02D0B0FBF2F037
:1021B00001E0B3FBF2F0CA68C968C2F306225043DB
:1021C000C1F34161491C4900B0FBF1F010BD0000B2
:1021D000001002400024F40000366E012DE9F8439F
:1021E00004007AD02078F84DC00747D0A868E96885
:1021F00000F00C0001F003010C2802D0082817D0D1
:1022000001E0032914D06068B0F5803F17D0B0F525
:10221000A02F286817D020F480302860286820F488
:10222000802028606068E0B1FEF7FCFD064614E0FF
:102230002868800322D560680028D2D01EE0286874
:1022400040F48030EDE740F480202860F7E700BFDD
:10225000FEF7E8FD801B642870D828688003F7D556
:102260000CE0FEF7DFFD064605E000BFFEF7DAFDF5
:10227000801B6428F0D828688003F7D42078800772
:102280004CD5A868E96800F00C0001F003010C28A7
:1022900002D004280DD001E002290AD0E06800280D
:1022A00028682BD040F480702860FEF7BBFD0646FE
:1022B00019E02868400502D5E068002891D06868D8
:1022C000217C20F0FE4040EA01606860BF48006861
:1022D000FEF7C8FE002800D120E072E1FEF7A2FD63
:1022E000801B0228B8D828684005F7D56868217C8B
:1022F00020F0FE4040EA016068600FE020F480704A
:102300002860FEF78FFD064605E000BFFEF78AFD58
:10231000801B0228A0D828684005F7D42078000741
:1023200029D560690028D5F8940013D040F0010049
:10233000C5F89400FEF776FD064606E090E000BF83
:10234000FEF770FD801B022886D8D5F89400800720
:10235000F6D510E020F00100C5F89400FEF762FD0C
:10236000064604E0FEF75EFD801B022878D8D5F80B
:1023700094008007F6D42078400761D5A86D002628
:10238000C00008D4A86D40F08050A865A86D012653
:1023900000F0805000908E480168C90511D4016892
:1023A000804641F480710160FEF73CFD074604E081
:1023B000FEF738FDC01B022852D8D8F80000C0052F
:1023C000F6D5A068012815D00528D5F8900016D0BC
:1023D00020F00100C5F89000D5F8900020F004002E
:1023E000C5F89000A06841F28838B8B1FEF71AFD30
:1023F00007460EE0D5F8900040F00100F0E740F00D
:102400000400C5F89000F5E7FEF70CFDC11B41453F
:1024100026D8D5F890008007F6D50CE0FEF702FD2F
:10242000074604E0FEF7FEFCC11B414518D8D5F86D
:1024300090008007F6D41EB1A86D20F08050A865EA
:102440002078800629D5A0690028D5F8980013D0F7
:1024500040F00100C5F89800FEF7E4FC064606E0EF
:1024600075E000BFFEF7DEFC801B02286FD8D5F8B0
:1024700098008007F6D510E020F00100C5F898001C
:10248000FEF7D0FC064604E0FEF7CCFC801B0228D9
:102490005DD8D5F898008007F6D4E069F0B3A96854
:1024A000C1F3810103295DD00228286820F08070E3
:1024B000286003D0FEF7B6FC04464BE0FEF7B2FC02
:1024C000064604E0FEF7AEFC801B02283FD82868D1
:1024D0008001F7D4F4E908016FF00F0202EB01115B
:1024E0000843218A5204490802EB4151A26841EA9B
:1024F00002210843217D4FF07E42490802EB4161F1
:102500000843217B40EAC160E968324A1140084330
:10251000E860286840F08070286000E05EE0E868CD
:1025200040F08070E860FEF77DFC044605E000BFE7
:10253000FEF778FC001B022809D828688001F7D52F
:102540004CE000BFFEF76EFC001B022802D90320FE
:10255000BDE8F88328688001F4D4E8681E49084083
:10256000E8603BE00128F3D0E868226A00F003014C
:10257000914226D1616A00F0F002090110399142BE
:102580001FD1A26A00F4FE41B1EB022F19D194F8D9
:102590002C2000F07841B1EBC26F12D1218E00F4F3
:1025A000C00249084905A1F50011914209D194F8EA
:1025B000341000F0C06049084906A1F10071814261
:1025C0000CD00120C4E70000001002407000002081
:1025D000007000400C809F01FCFFEEFE0020B7E77A
:1025E00070B5040009D0606A002540B125616561BD
:1025F000A56294F85D0040B10CE0012070BD6068F8
:10260000B0F5827FF4D0E561F2E784F85C502046B3
:1026100000F05CF8022084F85D002068016821F079
:1026200040010160E1684FF4E062914201D900206D
:1026300001E04FF48050B1F5706F02D0914200D0AC
:10264000A562A188228901F4827102F40442114337
:10265000227C02F002021143227D02F001021143AA
:10266000228B02F400721143227F02F038021143E0
:1026700094F8202002F080021143228D02F40052CF
:10268000114322681160A169042202EA114194F801
:10269000242000F4805002F01002114394F83420FA
:1026A00002F008021143A28902F47062114301434F
:1026B000206841602068C16921F40061C16125661C
:1026C000012084F85D00002070BD0000F0B587B0E7
:1026D000044614216846FEF71EF8264A21680024A5
:1026E000254802250526254F914224D1016E41F44B
:1026F00080510166016E01F480510591C16C41F079
:102700000101C164C16C01F001010591C16C41F08E
:102710000201C164C06C694600F0020005906020AF
:102720000090CDE90154CDE903464FF09040FEF70B
:1027300047FA202013E0124A914219D1816D41F4E9
:1027400080418165816D01F480410591C16C41F04A
:102750000201C164C06C00F002000590900000907E
:10276000CDE90154CDE9034669463846FEF728FA1B
:1027700007B0F0BD003001400010024000040048E6
:1027800000380040704770477047000030B590F83F
:102790003C20012A42D0012280F83C20CA688B6884
:1027A00022F440721A434B6822F480621A430B6889
:1027B00022F400621A430B6922F480521A434B69D7
:1027C00022F400521A430B6B22F480421A430B8B03
:1027D00022F4702242EA0342CB6922F080521A436B
:1027E0000F4D03680024AB4202D00E4DAB4210D116
:1027F0000D8D22F4700242EA05520D6A22F08072B9
:102800002A434D6A22F000722A43C96A22F000521C
:102810000A435A6480F83C40002030BD022030BD9D
:10282000002C0140003401407047704770470000A1
:10283000F0B590F83C20012A3AD0012580F83C50B0
:10284000022280F83D2003685A689C68194E1A4F8E
:10285000B34201D0BB4204D122F4700C4A6842EA70
:102860000C02DFF858C002EA0C02D1F800C04CEAB2
:10287000020CC3F804C00268B2420DD0B2F1804F1E
:102880000AD00F4B9A4207D00E4B9A4204D0BA425C
:1028900002D00D4B9A4204D1896824F08003194379
:1028A000916080F83D50002180F83C100846F0BD52
:1028B0000220F0BD002C0140003401408FFFFFFDDD
:1028C000000400400008004000400140704710B57F
:1028D000040003D094F83D0010B107E0012010BDC2
:1028E000002084F83C00204600F022F8022084F802
:1028F0003D00211D206801F085FB012084F848007F
:1029000084F83E0084F83F0084F8400084F84100D9
:1029100084F8420084F8430084F8440084F84500B9
:1029200084F8460084F8470084F83D00002010BD7C
:102930007047000090F83D10012901D00120704738
:10294000022180F83D100168CA6842F00102CA60A5
:102950000068104988420ED0B0F1804F0BD00E496C
:10296000884208D00D49884205D00D49884202D0DE
:102970000C49884207D181680B4A1140062906D0CC
:10298000B1F5803F03D0016841F0010101600020F2
:1029900070470000002C0140000400400008004087
:1029A00000340140004001400700010070472DE95C
:1029B000F04104460068C66805694FF00007A907A2
:1029C00013D5B10711D5F91E0161012020772068C8
:1029D00080698007204602D0FFF7E8FF04E000F09E
:1029E00033F9204600F02CFA2777680716D57007D0
:1029F00014D521686FF00400086102202077206858
:102A0000806910F4407F204602D0FFF7CFFF04E03A
:102A100000F01AF9204600F013FA2777280715D599
:102A2000300713D521686FF0080008610420207773
:102A30002068C0698007204602D0FFF7B7FF04E096
:102A400000F002F9204600F0FBF92777E80616D5DA
:102A5000F00614D521686FF0100008610820207777
:102A60002068C06910F4407F204602D0FFF79EFF27
:102A700004E000F0E9F8204600F0E2F92777E807E3
:102A800008D0F00706D021686FF0010008612046E9
:102A900000F0D8F9280601D4A80408D5300606D5D8
:102AA00021686FF4025008612046FFF76CFEE805CC
:102AB00008D5300606D521686FF48070086120467D
:102AC000FFF760FE680608D5700606D521686FF02E
:102AD00040000861204600F0BFF9A80608D5B006FE
:102AE00006D521686FF0200008612046FFF74CFEF4
:102AF000E80208D5F00206D521686FF4801008615D
:102B00002046FFF792FEA80208D5B00206D521683C
:102B10006FF4001008612046FFF786FE680208D5B2
:102B2000700206D521686FF4800008612046FFF727
:102B30007DFE28020AD5300208D521686FF4000016
:102B400008612046BDE8F041FFF7C0BEBDE8F08156
:102B5000F0B587B0044614216846FDF7DCFD216816
:102B600000243348032602254FF09042B1F1804FF4
:102B70001FD0304B304F994230D1C16C41F0010130
:102B8000C164C16C01F001010591C16C41F0020109
:102B9000C164C06C694600F00200059010200090EE
:102BA000CDE901541046CDE90345FEF709F800963A
:102BB00021E0C16C41F00101C164C06C009600F0DD
:102BC00001000590CDE901540120CDE9034069469B
:102BD0004FEA0200FDF7F4FF07B0F0BD174A91423B
:102BE00010D1C16C41F00201C164C06C00F0020060
:102BF0000590C0200090CDE9015469463846CDE9E2
:102C00000345E7E70E4A9142E6D1C16C41F0040169
:102C1000C164C06C694600F004000590402000903B
:102C2000CDE901540420CDE903400648D2E7000075
:102C3000001002400004004000040048000800406A
:102C40000034014000080048704770B5044690F811
:102C50003C0000260D4601280BD0012084F83C00E2
:102C60000C2A4AD007DC82B1042A20D0082A06D1D7
:102C700031E0022070BD102A53D0142A63D00126FF
:102C8000002084F83C00304670BD206801F018FA3E
:102C90002068816941F0080181612068816921F023
:102CA00004018161206881692A69114311E020686B
:102CB00001F054FA2068816941F400618161206863
:102CC000816921F480618161206881692A6941EA12
:102CD00002218161D4E7206801F088FA2068C16987
:102CE00041F00801C1612068C16921F00401C1619E
:102CF0002068C1692A69114311E0206801F0BEFA19
:102D00002068C16941F40061C1612068C16921F492
:102D10008061C1612068C1692A6941EA0221C161FB
:102D2000AEE7206801F0F2FA2068016D41F0080179
:102D300001652068016D21F0040101652068016DC5
:102D40002A69114311E0206801F018FB2068016D29
:102D500041F4006101652068016D21F48061016525
:102D60002068016D2A6941EA0221016588E710B5F2
:102D7000040003D094F83D0010B107E0012010BD1D
:102D8000002084F83C00204600F022F8022084F85D
:102D90003D00211D206801F035F9012084F848002C
:102DA00084F83E0084F83F0084F8400084F8410035
:102DB00084F8420084F8430084F8440084F8450015
:102DC00084F8460084F8470084F83D00002010BDD8
:102DD00008B501681648B1F1804F0BD0154A9142F1
:102DE00010D1816D41F002018165806D00F002001B
:102DF000009008BD816D41F001018165806D00F09A
:102E00000100F5E70C4A914207D1816D41F00401C0
:102E10008165806D00F00400EAE7084A9142E8D13C
:102E2000016E41F400510166006E00F40050DFE7CE
:102E3000001002400004004000080040003401403F
:102E40007047000000680349884201D1FEF7F2B8DC
:102E50007047000000480140704790F88410012935
:102E600018D0012180F884102421C0F8881001684E
:102E70000A680B6823F001030B6022F00051002266
:102E80004266036819602021C0F8881080F8842009
:102E900010467047022070477047704770B504466F
:102EA00090F8840001281DD0012084F8840024209B
:102EB000C4F8880020680568026822F001020260F8
:102EC0002068826822F060620A438260204601F036
:102ED00093FA206805602020C4F88800002084F858
:102EE000840070BD022070BD70B5044690F8840067
:102EF00001281DD0012084F884002420C4F8880013
:102F000020680568026822F0010202602068826879
:102F100022F060420A438260204601F06DFA206888
:102F200005602020C4F88800002084F8840070BD6B
:102F3000022070BD70477047704700002DE9F041D6
:102F400003680446D86919689A6840F60F05284254
:102F50004FF000054FF002060AD187067ED501F03A
:102F6000200702F0805C57EA0C0777D0616F42E1DE
:102F7000B64FDFF8DCC2174001EA0C0C57EA0C0C24
:102F80006CD05FEAC07C0CD05FEAC15C09D54FF021
:102F9000010CC3F820C0D4F8903043F00103C4F80A
:102FA0009030830709D5D30707D023681E62D4F871
:102FB000903043F00403C4F8903043070AD5D30798
:102FC00008D0266804233362D4F8903043F002031B
:102FD000C4F8903003070CD501F020033B4308D020
:102FE000266808233362D4F8903043F00803C4F80D
:102FF000903003050BD54B0109D526684FF40063CB
:103000003362D4F8903043F02003C4F89030D4F801
:103010009030002B3DD0800609D501F0200002F051
:103020008051084303D0616F09B120468847D4F826
:10303000900021688968490602D410F0280F2AD030
:10304000204601F0BDFA2068806840061ED5206841
:10305000083050E8001F21F0400100E021E040E886
:103060000012002AF3D1D4F8800078B17949816345
:10307000D4F88000FDF755FD00280AD0D4F8800070
:10308000816B00E02046BDE8F04108472046FFF78D
:1030900053FFBDE8F0812046FFF74EFFC4F8905083
:1030A000F7E7D4F86CC02027BCF1010F7ED15FEAAE
:1030B000C06C7BD55FEAC16C78D51020186220689F
:1030C0008068400651D5D4F880100A685068000422
:1030D000000C3ED0B4F85C3083423AD9A4F85E00CC
:1030E0000868006880062CD4216851E8000F20F49D
:1030F000807041E80002002AF6D12068083050E8CC
:10310000001F21F0010140E80012002AF5D12068DB
:10311000083050E8001F21F0400140E80012002A6A
:10312000F5D1C4F88C70E566216851E8000F20F0F5
:10313000100041E80002002AF6D1D4F88000FDF723
:10314000BBFC2667B4F85C00B4F85E10401A81B28C
:1031500007E0B4F85C1081429BD11068800698D5D6
:1031600026672046FFF798FE93E7B4F85C00B4F8B2
:103170005E10401A81B2B4F85E00002889D00029A0
:1031800087D0226852E8000F20F4907042E80003D4
:10319000002BF6D12D4BDB432068083050E8002F80
:1031A0001A4040E8002CBCF1000F00E00EE0F3D123
:1031B000C4F88C70E5666567206850E8002F22F03F
:1031C000100240E80023002BF6D1C9E7C60209D55A
:1031D000560207D54FF4801018622046BDE8F04132
:1031E000FFF7A9BE03060AD501F0800302F400022E
:1031F000134304D0A16F00297FF444AF49E742068E
:1032000011D54A060FD52046016851E8002F22F05B
:10321000400241E80023002BF6D1C0F88870856792
:1032200000F058F935E7020206D54A0004D52046D9
:10323000BDE8F041FFF77EBEC00195D5002993DAC5
:103240002046BDE8F041FFF728BE00000100001055
:1032500020010004B145000810B5040003D0D4F8E3
:10326000880010B107E0012010BD002084F8840020
:10327000204600F027F82420C4F888002068016860
:1032800021F001010160A06A10B1204601F0D6F8DA
:10329000204601F0BFF90128E6D02068416821F4FA
:1032A000904141602068816821F02A018160206896
:1032B000016841F0010101602046BDE8104001F0C5
:1032C00021B900002DE9F04397B00446142111A85C
:1032D000FDF721FA44216846FDF71DFA754920687B
:1032E000754C022600254FF09049884225D12020B8
:1032F000059500906846FEF7C3FC08B1FDF762FB38
:10330000E06D40F00100E065E06D00F00100169016
:10331000E06C40F00100E064E06CCDE9126500F083
:10332000010016900C20CDE91450119011A94846C7
:10333000FDF746FC17B0BDE8F08360494FF44068E4
:1033400088422AD10820009004956846FEF798FC30
:1033500008B1FDF737FBA06D40F40020A065A06D1B
:1033600000F400201690E06C40F00400E064E06C93
:10337000CDF8448000F0040016900520CDE91450EB
:10338000CDE9126511A94E48FDF71AFC002205216E
:103390003420FDF7D7FE34202DE04A490727884224
:1033A0002CD10120CDE900056846FEF769FC08B183
:1033B000FDF708FB206E40F480402066206E00F48C
:1033C00080401690E06C40F00100E064E06CCDE9D4
:1033D000126500F0010016904FF4C060CDE914575B
:1033E000119011A94846FDF7EBFB0022052125208D
:1033F000FDF7A8FE2520FDF797FE9BE73249DFF891
:10340000CC90884228D1684600960295FEF738FC99
:1034100008B1FDF7D7FAA06D40F40030A065A06DAB
:1034200000F400301690E06C40F00200E064E06CC4
:10343000CDE9126500F0020016901820CDE914576E
:10344000119011A94846FDF7BBFB0022052126205B
:10345000FDF778FE2620CEE71D498842CDD1042015
:10346000009003956846FEF70BFC08B1FDF7AAFA39
:10347000A06D40F48020A065A06D00F4802016901F
:10348000E06C40F00200E064E06CCDE9126500F011
:103490000200CDF844801495CDE9157011A9484675
:1034A000FDF78EFB002205212720FDF74BFE27208C
:1034B000A1E700000080004000100240004C0040E6
:1034C0000008004800380140004400400004004863
:1034D000004800407047FEE7F0B500230A2430257D
:1034E00037261F4611E000BFB4EB107F02D905EB71
:1034F000107C01E006EB107C01F813C001EB430CDB
:1035000000015B1C8CF80170DBB29342ECD3F0BD80
:103510000A4810B5084901600021017141714161FB
:10352000816101210162FDF779FA002803D0BDE82D
:103530001040FDF747BA10BD00300240780200206D
:1035400010B5074A0021074802F0EAFD064C044A7C
:10355000002120602432054802F0E2FD606010BDC9
:1035600084780008FD3E000800000020213F00088C
:1035700030B587B014216846FDF7CDF82448C16CFA
:1035800041F00401C164C16C01F004010591C16CFA
:1035900041F02001C164C16C01F020010591C16CB2
:1035A00041F00101C164C16C01F001010591C16CE0
:1035B00041F00201C164C06C164D00F002004FF4EE
:1035C00060440590002221462846FDF725FC012095
:1035D000CDE9004000240294694628460394FDF793
:1035E000EFFA80204FF48815CDE900056946029472
:1035F0004FF09040FDF7E4FA41F20400CDE90005F8
:10360000694602940448FDF7DBFA07B030BD0000BC
:10361000001002400008004800040048134810B59C
:10362000114901601249416000210122C0E90212E2
:10363000016141618161C1610162FDF74DFC08B129
:10364000FDF7C0F900210948FDF7F2FB08B1FDF7CD
:10365000B9F900210548FDF716FC002803D0BDE8A4
:103660001040FDF7AFB910BD005800409C0200208B
:10367000C285B240174810B515490160164941602E
:10368000002181600C22C160C0E9041281610162E5
:1036900041628162FFF7E0FD08B1FDF793F9002177
:1036A0000C48FFF721FC08B1FDF78CF9002109480F
:1036B000FFF7F4FB08B1FDF785F90648FFF7CDFBEE
:1036C000002803D0BDE81040FDF77CB910BD000014
:1036D00000800040F002002024330300124810B59F
:1036E000104901604FF48271416000214FF4407233
:1036F000C0E902124FF400720161C0E90512102204
:10370000C0E9072107224162C0E90A1201630821CA
:103710004163FEF765FF002803D0BDE81040FDF7C8
:1037200051B910BD00300140D4050020124810B539
:10373000104901604FF48271416000214FF44072E2
:10374000C0E902124FF400720161C0E905121022B3
:10375000C0E9072107224162C0E90A12016308217A
:103760004163FEF73DFF002803D0BDE81040FDF7A0
:1037700029B910BD003800403806002010B58AB0C5
:103780000024079408941C2168460994FCF7C3FFA1
:1037900018484FF08041C0E90014611EC0E90241A1
:1037A00004618461FFF7E3FA08B1FDF70BF90794B0
:1037B00007A910480994FFF73BF808B1FDF702F993
:1037C0006020CDE90004029400226946094804946F
:1037D000FFF73BFA08B1FDF7F5F804226946054802
:1037E000FFF733FA08B1FDF7EDF80248FFF7B0F93B
:1037F0000AB010BD9C06002010B58AB000240794C2
:1038000008941C2168460994FCF785FF1D481C4953
:10381000C0E900144FF6FF71C0E902410461846100
:10382000FFF7A5FA08B1FDF7CDF8079407A91548E9
:103830000994FEF7FDFF08B1FDF7C4F86020CDE95B
:1038400000040294042269460E480494FFF7FDF92F
:1038500008B1FDF7B7F8082269460A48FFF7F5F9FD
:1038600008B1FDF7AFF80C2269460648FFF7EDF9FD
:1038700008B1FDF7A7F80348FFF76AF90AB010BDD1
:1038800000040040E806002010B58AB00024079428
:1038900008941C2168460994FCF73DFF1948184913
:1038A000C0E900144FF6FF71C0E902410461846170
:1038B000FFF75DFA08B1FDF785F8079407A91148ED
:1038C0000994FEF7B5FF08B1FDF77CF86020CDE95B
:1038D00000040294002269460A480494FFF7B5F9EF
:1038E00008B1FDF76FF8042269460648FFF7ADF905
:1038F00008B1FDF767F80348FFF72AF90AB010BDD1
:10390000000800403407002010B598B0002414943B
:1039100015941C210DA81694FCF7FDFE3421684671
:10392000FCF7F9FE23482249C0E900144FF6FF7165
:10393000C0E90241046144618461FFF718FA08B1EB
:10394000FDF740F81494159414A91A481694FEF73C
:103950006FFF08B1FDF736F86020CDE90D040F9434
:1039600010941194129400220DA912481394FFF799
:103970006CF908B1FDF726F800944FF40050CDE93A
:10398000044003940003CDE9084001940294069496
:1039900007940A940B94694606480C94FEF7F6FEC9
:1039A00008B1FDF70FF80348FFF7D2F818B010BDC3
:1039B0000034014080070020184810B51649016006
:1039C0004FF4E1314160002181600C22C160C0E907
:1039D00004128161C161016241628162FFF73CFCB6
:1039E00008B1FCF7EFFF00210C48FFF77DFA08B1A2
:1039F000FCF7E8FF00210948FFF750FA08B1FCF78F
:103A0000E1FF0648FFF729FA002803D0BDE810407F
:103A1000FCF7D8BF10BD0000004C0040840300201C
:103A2000184810B5164901604FF4E131416000219A
:103A300081600C22C160C0E904128161C161016230
:103A400041628162FFF708FC08B1FCF7BBFF00216F
:103A50000C48FFF749FA08B1FCF7B4FF0021094808
:103A6000FFF71CFA08B1FCF7ADFF0648FFF7F5F9C0
:103A7000002803D0BDE81040FCF7A4BF10BD000033
:103A80000038014018040020184810B5164901609C
:103A90004FF4E1214160002181600C22C160C0E946
:103AA00004128161C161016241628162FFF7D4FB4E
:103AB00008B1FCF787FF00210C48FFF715FA08B1A1
:103AC000FCF780FF00210948FFF7E8F908B1FCF78F
:103AD00079FF0648FFF7C1F9002803D0BDE8104080
:103AE000FCF770BF10BD000000440040AC04002093
:103AF000184810B5164901604FF4E13141600021CA
:103B000081600C22C160C0E904128161C16101625F
:103B100041628162FFF7A0FB08B1FCF753FF00216F
:103B20000C48FFF7E1F908B1FCF74CFF0021094808
:103B3000FFF7B4F908B1FCF745FF0648FFF78DF928
:103B4000002803D0BDE81040FCF73CBF10BD0000CA
:103B5000004800404005002010B500220F491048E1
:103B600001F0F8F908B1FCF72DFF0E490C4801F0FF
:103B7000C8FB08B1FCF726FF0B49094801F036F8ED
:103B800008B1FCF71FFF064801F036FC002803D0FF
:103B9000BDE81040FCF716BF10BD00000800002073
:103BA000140D00205C0100205C000020FEE7FEE711
:103BB0002DE9F84F044640F68F7A40F2064B48F65E
:103BC0000F784FF000098BE1B0F8441011F00F05A9
:103BD0003AD030F8256031047DD530F8251001EA5F
:103BE0000A0141F0800120F8251005EB850004EB67
:103BF000C00797F85C0107F5A87700286CD0F87823
:103C000002286AD03978226832F8210048F68F738A
:103C1000184048F2C003184322F821003878D4F83D
:103C200000C03CF820104904BCF8501001EB0C0215
:103C30007ED540F2024101EBC000105A8005800D94
:103C4000009076D03A89A7E0C9062AD4018801EA13
:103C5000080141F400410180206804F11005B0F82A
:103C60005010227C014440F2024000EBC200085A8E
:103C7000C0F30900E062616A0844606200212046E6
:103C8000FDF7E4FA207B00289DD0A86900289AD18E
:103C9000207B40F080012068A0F84C1084F80C9044
:103CA0001EE1018804F5A8750A051ED5B0F850106C
:103CB0000A1829780BEBC100105A04F52671C0F3DD
:103CC0000903EB61EA88206802F05FF9216808883F
:103CD00000EA0A0002E07BE03FE04EE040F08000B6
:103CE00008802046FDF737FFFAE00904D8D501889F
:103CF00001EA0A0141F0800101802068B0F850100B
:103D00002A7808440BEBC201405A83059B0DEB61F6
:103D10000DD0696959B1EA88206802F036F9E9697D
:103D200068690844686100212046FDF798FA01E0BF
:103D30002AE028E0206801880A050DD4C1F301318A
:103D4000032909D001884BF68F72114081F440514C
:103D500048F2800211430180C2E02068B0F85010A0
:103D60003B780A180BEBC301515A8905890D009164
:103D700017D0FA887969009B11E03246394620460F
:103D8000FDF7C9FA00900CE00BEBC000105A80055B
:103D9000800D009005D07A8903466046796902F06B
:103DA000F4F8F96900980844F861786900990844C2
:103DB0007861B86918B139690098814204D93978B5
:103DC0002046FDF74CFA03E03946206801F014FF65
:103DD00030062DD505EB850004EBC001206830F8D6
:103DE000252002EA080242F4004220F82520C87C7F
:103DF000103101281DD0F0056ED42068B0F8502095
:103E000013180A7840F2024000EBC200185A8A697F
:103E1000C0F30900824258D9121A8A6157D04A6900
:103E200002444A61CA691044C861206801F0E4FE96
:103E300056E0C1F818900A7B48461AB3720622D59C
:103E40004A7812B1012A14D041E02068B0F850201D
:103E500010440A7800EBC200B0F80224C2F3090251
:103E6000A0F80224B0F8022442F40042A0F8022490
:103E70002DE02268B2F850301A440B7802EBC302EE
:103E8000A2F8020423E04B78226813B1012B13D06F
:103E90001DE0B2F8500010440A7800EBC200B0F800
:103EA0000624C2F30902A0F80624B0F8062442F45E
:103EB0000042A0F806240AE0B2F850301A440B7809
:103EC00002EBC302A2F8060401E0C1F818900978D9
:103ED0002046FDF7BBF903E032462046FDF789FA9C
:103EE0002068B0F8441009043FF56EAE0020BDE82C
:103EF000F88F0178407841EA00207047FFF72CFEE8
:103F0000064D4FF400544FF4FA7621462846FCF74C
:103F10007BFF304602F0C8F8F7E7000000080048D1
:103F2000064A07A10D48FCF7C7FA81B20B48FCF717
:103F300029FD642002F0B8F8F2E70000CC78000810
:103F40005B5052494E545D20257328293A2048453C
:103F50004C4C4F5F574F524C440A00001402002053
:103F600010B54FF0E020006903F0CEFA012803D02D
:103F7000BDE8104002F0FCBF10BD10B594B0382170
:103F80006846FCF7C8FB14210EA8FCF7C4FB002010
:103F9000FDF710FE212000904FF4803001900120A9
:103FA000032406210690CDE9084102205521CDE9E0
:103FB0000A1007900C900D906846FEF70FF908B1B3
:103FC00072B6FEE70F20CDE90E040020109011908C
:103FD000129004210EA8FDF797FF002801D072B6B9
:103FE000FEE714B010BD00000248016841F4700102
:103FF0000160704788ED00E00148FEF7D8BC000082
:10400000CC0700202DE9F0430268264B264D274EB1
:10401000274C4FF08049984207D0484505D0A84228
:1040200003D0B04201D0A04203D122F070074A6809
:104030003A43204FDFF880C0DFF8808098420DD0EF
:1040400048450BD0A84209D0B04207D0A04205D0C5
:10405000B84203D0604501D0404503D122F44075F9
:10406000CA682A434D6922F080022A4302608A68A6
:10407000C2620A688262984207D0A04205D0B84264
:1040800003D0604501D0404501D109690163012198
:1040900041610169C90703D0016921F00101016192
:1040A000BDE8F083002C01400004004000080040FF
:1040B00000340140004001400044014000480140FC
:1040C0002DE9F043056A026A22F0010202624368A8
:1040D00082691C4C25F0020522400C6822F0030284
:1040E00014438A68194E2A43174D194FDFF864C0EC
:1040F000DFF86490A84207D0B04205D0B84203D0A0
:10410000604501D0484506D122F00808CA6842EA55
:10411000080222F00402A84207D0B04205D0B842FB
:1041200003D0604501D0484505D14D6923F4407363
:104130001D438B692B43436084614968416302627C
:10414000BDE8F0838FFFFEFF002C014000340140EA
:10415000004001400044014000480140F0B5056ABC
:10416000026A22F01002026242688369194C1B4EF7
:1041700023400C6823F4407343EA042425F0200311
:104180008D6843EA0513144DA84201D0B04206D110
:10419000CF6823F0800343EA071323F04003A842CB
:1041A0000AD0B04208D00E4DA84205D00D4DA8420D
:1041B00002D00D4DA84207D14D6922F4406242EA77
:1041C00085028D6942EA85024260846149688163A3
:1041D0000362F0BDFF8FFFFE002C01400034014060
:1041E000004001400044014000480140F0B5056A2C
:1041F000026A22F4807202624368C269194C1B4E43
:1042000022400C6822F00302144325F400728D68EA
:1042100042EA0522144DA84201D0B04206D1CF682F
:1042200022F4006242EA072222F48062A8420AD005
:10423000B04208D00E4DA84205D00E4DA84202D083
:104240000D4DA84207D14D6923F4405343EA0513AD
:104250008D6943EA05134360C4614968C163026222
:10426000F0BD00008FFFFEFF002C01400034014034
:10427000004001400044014000480140F0B5056A9B
:10428000026A22F4805202624268C369194C1B4ED2
:1042900023400C6823F4407343EA042425F40053BC
:1042A0008D6843EA0533144DA84201D0B04206D1CF
:1042B000CF6823F4004343EA073323F48043A84242
:1042C0000AD0B04208D00E4DA84205D00D4DA842EC
:1042D00002D00D4DA84207D14D6922F4404242EA76
:1042E00085128D6942EA85124260C46149680164A1
:1042F0000362F0BDFF8FFFFE002C0140003401403F
:1043000000400140004401400048014030B5056ACA
:10431000026A22F4803202624268036D114C23402B
:104320000C681C4325F400330D8943EA05430E4D08
:10433000A8420BD00D4DA84208D00D4DA84205D083
:104340000C4DA84202D00C4DA84204D14D6922F474
:10435000803242EA05224260046549688164036252
:1043600030BD00008FFFFEFF002C014000340140F3
:1043700000400140004401400048014030B5046A5B
:10438000026A22F4801202624268036D114D24F425
:1043900000142B400D6843EA05230D8944EA0554B7
:1043A0000D4DA8420BD00D4DA84208D00C4DA8428F
:1043B00005D00C4DA84202D00B4DA84204D14D6946
:1043C00022F4802242EA8522426003654968C16482
:1043D000046230BDFF8FFFFE002C0140003401401D
:1043E0000040014000440140004801400148FEF700
:1043F000A5BD00008403002030B5416EB9B102684C
:1044000091689268C1F342610B4B520F9C5CE500CE
:1044100003F10804A25CB5FBF2F2A0F86A205A5C32
:10442000615CD200B2FBF1F1A0F8681030BD01214F
:10443000A0F86A10F8E70000F078000890F828105B
:10444000090706D501684A68836B22F400421A43C3
:104450004A6090F82810C90706D001684A68C36A04
:1044600022F400321A434A6090F82810890706D5D2
:1044700001684A68036B22F480321A434A6090F85C
:104480002810490706D501684A68436B22F4802248
:104490001A434A6090F82810C90606D501688A6850
:1044A000C36B22F480521A438A6090F82810890660
:1044B00006D501688A68036C22F400521A438A60A8
:1044C00090F82810490611D501684A68436C22F417
:1044D00080121A434A60416CB1F5801F06D1016811
:1044E0004A68836C22F4C0021A434A6090F828108C
:1044F000090606D501684A68C06C22F4002202430E
:104500004A6070472DE9F84300260446C0F89060E1
:10451000FCF788FC8046206800684FF02005000703
:104520006FF07E4713D543460022290420460097AA
:1045300000F0AAF958B1216851E8000F20F080007E
:1045400041E80002002AF6D1C4F8885021E0206832
:104550000068400722D5434600224FF480012046E0
:10456000009700F091F9C8B1216851E8000F20F4DC
:10457000907041E80002002AF6D12068083050E827
:10458000001F21F0010140E80012002AF5D1C4F813
:104590008C5084F884600320BDE8F883C4F8885008
:1045A000C4F88C5044F86C6F666026760020F3E700
:1045B00010B5806A0021A0F85E10FEF7BDFC10BDAA
:1045C00010B5026852E8001F21F4907142E8001310
:1045D000002BF6D10E4B0268083252E8001F19403A
:1045E00042E80014002CF6D1C16E012908D10168FF
:1045F00051E8002F22F0100241E80023002BF6D1F1
:104600002021C0F88C100021C166416710BD000058
:10461000FEFFFFEF2DE9F041044601688068226942
:10462000E3691043626900251A431043DFF82CC286
:104630000A688B4B1A4002430A6020684168E268AE
:1046400021F44051114341602168A069614501D0C6
:10465000226A10438A68834B1A4002438A602068AA
:10466000C16A626A21F00F011143C1627E49236869
:104670007E488B420DD1D0F8880010F0030006D0A0
:10468000012855D0022842D003283FD152E0012012
:104690003DE077498B420BD1D0F8880010F00C0038
:1046A00035D0042833D0082840D00C282ED141E042
:1046B00070498B420BD1D0F8880010F0300026D022
:1046C000102835D0202831D030281FD132E06A4957
:1046D0008B420BD1D0F8880010F0C00017D04028D2
:1046E00026D0802822D0C02810D123E063450DD1E8
:1046F000D0F8880010F4406009D0B0F5806F17D072
:10470000B0F5006F12D0B0F5406F13D010205B49A8
:104710005B4F00264FF4004263453BD160B1022855
:1047200013D004280BD0082872D10DE00220EEE748
:104730000420ECE70820EAE7FDF7F4FC01E0FDF7D0
:1047400015FD010001D17CE01146606A37F81020A8
:104750006768B1FBF2F007EB4703834270D8B0EB18
:10476000073F6DD8002308461946FBF72DFE0902C6
:1047700041EA106102027808101871413A4600239C
:10478000FBF722FE3F4AA0F54071914258D82168BC
:10479000C86056E0E3694FF6EF7893422CD10928C0
:1047A0004ED2DFE800F00508114D0D4D4D4D1000C3
:1047B000FDF7B8FC01E0FDF7C7FC010004D140E0C3
:1047C000FDF7D4FCF9E71146606A37F81000B1FB39
:1047D000F0F04100606801EB5001B1FBF0F0A0F196
:1047E000100141452CD84FF6F0710140C0F3420052
:1047F00001432068C16024E0092821D2DFE800F0ED
:10480000050912200E2020201100FDF78BFC02E08C
:1048100016E0FDF799FC010004D112E0FDF7A6FCBB
:10482000F9E71146606A37F81000B1FBF0F16068F3
:1048300001EB5001B1FBF0F0A0F1100141450AD9A4
:1048400001250120A4F86A0024F8680F2846E660D4
:104850002661BDE8F08180B299E700000080004049
:10486000F369FFCFFFF4FF11003801400010024050
:104870000044004000480040004C00400024F40088
:10488000D8780008FFFC0F002DE9F047994617463D
:104890000D4604464FF00008089E33E0701C31D0EE
:1048A000FCF7C0FAA0EB0900B04218D8BEB12068EE
:1048B0000168490726D5802D24D0402D22D0C1691A
:1048C000C94309070DD4082505622046FFF778FE85
:1048D000C4F8905084F884800120BDE8F08703205C
:1048E000FBE7C069C04300050CD421684FF40060A9
:1048F00008622046FFF764FE2020C4F8900084F888
:104900008480ECE72068C06935EA000004D000200C
:10491000B842C3D00020E0E70120F9E70148FEF7E4
:104920000DBB0000180400200148FEF707BB000083
:10493000AC0400200148FEF701BB00004005002048
:1049400010B50A46024903A000F0D4FA004810BD91
:10495000E40F002043444320436F6E666967000004
:104960002DE9F0410C46D0F8C422D0F8BC12E9B1D0
:1049700004EB840600EB86050027AB693BB102EB34
:10498000C602126AB3FBF2F602FB163282B1C1F81C
:104990001472D0F8C00203692BB1D1F80802224684
:1049A00001F5047198470020BDE8F0810320FBE782
:1049B00000231A462146AF6100F084FCF3E770B58E
:1049C000D0F8BC4205466CB100F073FBC4F80C0291
:1049D000D5F8C012D4F80402CA6804F503719047F0
:1049E000002070BD032070BD70B50446812100F029
:1049F000CDFA002525870121204600F0C7FAA4F84A
:104A000078518221204600F0C1FAA4F84C50A4F855
:104A10004E50D4F8BC0248B1D4F8C00204F52F744B
:104A200040688047206800F03CFE2560002070BD93
:104A300012200880004870472C00002010B5D0F8E4
:104A4000BC4284B1D0F8C01259B194F80002FF28DA
:104A500007D08B6894F8012221469847FF2084F8FC
:104A60000002002010BD032010BD00000A210180BB
:104A700000487047840000204321018000487047AF
:104A8000D40000204321018000487047900000209E
:104A90004321018000487047180100202DE9F047AC
:104AA00004464FF4077000F0FDFD05004FF00007CD
:104AB00035D0C4F8BC52207C4FF010084FF4007978
:104AC000012680B3402302228121204600F047FBCB
:104AD0002687402302220121204600F040FBA4F853
:104AE0007861A4F84E80082303228221204600F03A
:104AF00036FBA4F84C60D4F8C00200688047C5F8C3
:104B00001472C5F81872207CD5F80422A8B140238D
:104B10000121204600F02FFB0020BDE8F087022095
:104B2000C4F8BC72F9E7FFE74B4602228121204618
:104B300000F015FB26874B46CCE74B46E8E7000024
:104B400010B50A46024903A000F0D4F9004810BD90
:104B5000E40F002043444320496E7465726661632C
:104B600065000000042008800048704728000020ED
:104B700010B50A46024903A000F0BCF9004810BD78
:104B8000E40F002053544D6963726F656C65637464
:104B9000726F6E696373000010B50A46024903A084
:104BA00000F0A8F9004810BDE40F002053544D3325
:104BB00032205669727475616C20436F6D506F724C
:104BC0007400000010B5D0F8BC1251B1027C002A6C
:104BD000D1F8042207D04023012100F0CCFA0020B4
:104BE00010BD032010BD4FF40073F5E719B1C0F8F4
:104BF000C0120020704703207047000010B51A2033
:104C000008800A480168001D0468001D0068081833
:104C100009D008220649FEF75FFC0549042210313D
:104C20002046FEF759FC0248801E10BD9075FF1FFC
:104C300042000020D0F8BC0218B1C0F804120020D5
:104C4000704703207047D0F8BC0228B1C0F810228A
:104C5000C0F8081200207047032070472DE9FC417E
:104C60000646D0F8BC7200200C468DF80000ADF866
:104C70000400054637B1207810F0600128D02029C3
:104C800044D102E00320BDE8FC81E288C2B1000605
:104C900060780AD5D6F8C0128B6839469847E28802
:104CA000072A00D90722394628E087F80002A079B0
:104CB00087F80102E2883946304600F06CF82AE0B5
:104CC000D6F8C012607800228B682146984722E00F
:104CD000607830B101281ED00A2809D00B2815D1E0
:104CE00010E096F89C02032810D1022201A905E0E9
:104CF00096F89C02032809D101226946304600F04B
:104D000064F808E096F89C02032804D02146304657
:104D100000F036F803252846B5E710B5D0F8BC12E8
:104D2000012219B1D1F8143213B10FE0032010BDE4
:104D30000122C1F81422D1F81022C262D1F8103237
:104D4000D1F80822812100F0BDFA0022104610BDE2
:104D500010B5D0F8B8220AB152689047002010BDB3
:104D6000134610B50A46002100F005FA002010BDD8
:104D7000134610B50A46002100F0A4FA002010BD29
:104D800010B50446802100F082FA2046BDE81040AC
:104D9000002100F07CBA10B50323C0F89432C0F8AB
:104DA00058211346C0F85C210A46002100F0E3F9BF
:104DB000002010BD10B50521C0F8941200231A463A
:104DC000194600F0D8F9002010BD10B50223C0F834
:104DD000943282611346C2610A46002100F072FAE1
:104DE000002010BD10B50421C0F8941200231A460B
:104DF000194600F067FA002010BDF8B504460020FF
:104E0000ADF8000048880D46010A062947D006DCA7
:104E100001290FD0022912D0032962D11DE00729F0
:104E200046D00F295DD1D4F8B402C26920E06946AA
:104E300090473BE0D4F8B412207C0A68F7E7207C66
:104E400002260028D4F8B80205D0C16A684688470F
:104E50000146467036E0816AF8E7C0B2062840D2C3
:104E6000DFE800F003090D111519D4F8B402426807
:104E7000B2B3207CDBE7D4F8B4028268F8E7D4F858
:104E8000B402C268F4E7D4F8B4020269F0E7D4F8D7
:104E9000B4024269ECE7D4F8B4028269E8E7207C06
:104EA000F0B9D4F8B802416B68468847014609E07A
:104EB000207CA8B9D4F8B802016B6846884701463F
:104EC00007204870EA888AB1BDF8000040B18242EC
:104ED00000D90246ADF800202046FFF776FFF8BD66
:104EE000FFE729462046FFF74BFFF8E72046FFF78C
:104EF00079FFF4E770B5002300281ED00025044692
:104F000002E06D1CEDB2641C2678002EF9D102245B
:104F100004EB450414801278CA545B1C0322CA5463
:104F200000245B1C06E0CA545B1CDAB28C54521C91
:104F3000D3B2401C0278002AF5D170BD01004FF0B9
:104F4000000004D0012901D0022901D003207047BC
:104F50000120704778B10023C0F8B832C0F8C032E1
:104F6000C0F8CC3209B1C0F8B412012180F89C120B
:104F7000027000F0A3B80320704710B5D0F8C40247
:104F8000FCF79CF9BDE81040FFF7D8BF10B5D0F88A
:104F9000C402FCF76EF9BDE81040FFF7CFBF70B553
:104FA0001646044621B194F89C02032841D048E0FB
:104FB000D4F8941204F114000025022932D1D0E96A
:104FC00002318B4206D95A1A826031462046FFF7D9
:104FD000CFFE0FE0994214D14068884211D3D4F833
:104FE000981288420DD2002211462046FFF7C0FEDB
:104FF000C4F8985200231A461946204600F0BBF820
:1050000010E094F89C02032805D1D4F8B802C168D6
:1050100009B1204688478021204600F038F9204613
:10502000FFF7C8FE94F8A00201280AD184F8A05224
:1050300007E0D4F8B80242691AB120469047002828
:1050400000D1002070BD10B51346044621B194F87C
:105050009C02032823D02AE0D4F8941204F5AA7005
:10506000032924D1D0E9021291420AD98A1A826016
:10507000C068824200D3024619462046FFF770FE00
:1050800015E094F89C02032805D1D4F8B802016910
:1050900009B1204688472046FFF7A4FE07E0D4F870
:1050A000B80282691AB120469047002800D100203A
:1050B00010BDD0F8C402FCF75CBB000010B51E495F
:1050C0000446C1F8D802C0F8C4121C480860082081
:1050D000087102204871C8710020087248728872F5
:1050E000C8720846FCF77EFC08B1FBF76BFC002297
:1050F000D4F8C4021823114604F53174FCF788F87B
:105100005823002280212068FCF782F8C023002267
:1051100081212068FCF77CF84FF48873002201217C
:105120002068FCF775F84FF4807300228221206814
:10513000FCF76EF8002010BD380A0020005C00402B
:105140000A0601F07F01D0F8C40201EB810100EBF7
:10515000C10001D5807C704790F85201704710B5AE
:105160001C461346D0F8C4022246FCF70BFBBDE8F0
:105170001040FFF7E3BE10B5D0F8C402FCF730FBD7
:10518000BDE81040FFF7DABE70B50125044680F88F
:105190009C520020C4F894026060C4F8A402D4F8C1
:1051A000B802E0B1D4F8BC1221B1426812B10021BA
:1051B000204690470022402311462046FFF7CFFFAC
:1051C0004026A4F864513346002280212046C4F8CA
:1051D0006061FFF7C4FFA5840020266270BD032034
:1051E00070BD90F89C12042903D190F89D1280F8AC
:1051F0009C120020704710B5D0F8B81221B190F879
:105200009C22032A02D004E0032010BDC96901B129
:105210008847002010BD01740020704710B5D0F8F9
:10522000C402FCF785FCBDE81040FFF787BE70B5EF
:10523000044600F2AA20054600F04DF80120C4F80B
:105240009402B4F8B002C4F8980294F8AA0210F0DC
:105250001F010AD001290ED0022912D000F08001CE
:105260002046BDE8704000F012B829462046BDE84F
:10527000704000F0C3B829462046BDE8704000F0F9
:10528000E7B929462046BDE8704000F041B910B5A5
:10529000D0F8C402FCF7BBFABDE81040FFF74EBEE1
:1052A00010B5D0F8C402FCF75DFCBDE81040FFF774
:1052B00045BE90F89C1280F89D12042180F89C1243
:1052C0000020704710B5D0F8C402FCF7CFFABDE853
:1052D0001040FFF733BE70B5054611F8010B28707A
:1052E000087868704C1C2046FEF703FE6880A41CFA
:1052F0002046FEF7FEFDA880A01CFEF7FAFDE88020
:1053000070BD38B504460020ADF8000049B1C4F8BE
:10531000B812C96A19B168468847C4F8CC0200209F
:1053200038BD032038BD02460320D2F8B832002B26
:1053300002D01B6810461847704700002DE9F04165
:105340000F462C4E8978002504463170012906D974
:1053500039462046FFF714FD0320BDE8F08194F89C
:105360009C0202280CD003281DD039462046FFF7A6
:1053700007FD31782046FFF7EBFC03252846ECE7D4
:1053800099B320466160FFF7CEFF050004D039468F
:105390002046FFF7F5FCF1E72046FFF723FD032049
:1053A00084F89C02EAE74FF00208C1B160688842C5
:1053B0001BD0C1B22046FFF7CBFC3178204661609C
:1053C000FFF7B1FF050010D039462046FFF7D8FCA3
:1053D00021792046FFF7BCFC84F89C82CEE784F854
:1053E0009C8220466160FFF7B3FC2046FFF7FAFC81
:1053F000C4E7000080000020FFF752BF2DE9F04114
:105400000A78002512F0600208D0202A01D0402A34
:1054100071D1D0F8B8229268904731E04B780022E1
:1054200001260A2B67D2DFE803F0415E6658660862
:1054300005662D29FFF7E1FC5FE004468888D8B9AE
:10544000C888C8B94888802816D200F07F0794F829
:105450009C02032810D084F89E7239462046FFF73C
:10546000DDFE2046FFF7BEFC1FB1022084F89C023F
:1054700043E084F89C6240E020463CE0FFF75EFF9A
:1054800005463AE0CB88012B35D190F89C32012BB0
:1054900004D0022B02D0032B2DD104E08260012224
:1054A00000F1080116E00122011D13E090F89C2292
:1054B000012A03D0022A01D0032A1CD1CA88022A59
:1054C00019D1C660D0F8A41209B10321C16002222B
:1054D00000F10C01FFF779FC0FE0498801290CD19C
:1054E000C0F8A46211E090F89C32012B08D0022B86
:1054F00006D0032B04D0FFF743FC2846BDE8F0811B
:1055000049880129F9D1C0F8A422FFF76BFCF4E720
:105510002DE9F0410D46044628780026097910F05F
:1055200060000BD0202801D040286DD1D4F8B802FB
:105530002946826820469047064686E06878A8B3E8
:10554000012822D003287CD194F89C02022802D0A2
:10555000032876D10BE0002973D0802971D0204632
:10556000FFF795FE80212046FFF791FE6DE06888E9
:1055700038B931B1802904D0E88810B92046FFF746
:1055800086FE2046FFF72EFC5FE094F89C0202287E
:10559000E1D0032855D16888A8BB480602D0204630
:1055A000FFF7EBFC2046FFF71DFCBFE7FFE794F891
:1055B0009C020027022802D0032842D111E009B141
:1055C00080293ED1080601F07F0000EB800004EB4B
:1055D000800101D5143101E001F5AA7102220F60AA
:1055E0002BE0080601F00F0000EB800004EB8000C8
:1055F0000BD5808C40B101F07F0000EB800004EB04
:10560000800514350CE020E01BE0B0F86401C0B167
:1056100001F07F0000EB800004EB800505F5AA7522
:1056200041B1802906D02046FFF78AFD10B1012044
:10563000286000E02F60022229462046FFF7C5FBC4
:1056400003E029462046FFF79BFB3046BDE8F0818A
:1056500070B50646087800240D4610F0600003D0AF
:10566000202801D0402817D196F89C02012803D0A9
:10567000022801D003280FD1287901280CD8D6F8A8
:10568000B8028268304690470446E888204306D135
:105690003046FFF7A7FB02E03046FFF771FB2046DC
:1056A00070BD704700487047180800202DE9F04F82
:1056B0000C78002530F8243048F68F121340CA7851
:1056C000002A7DD0012A7CD0022A02D0032A79D078
:1056D000012548F28002134320F824300E7830F878
:1056E000263048F68F7423403343134320F8263086
:1056F0000B7B48F2C00A48F6BF774CF280094BF6A4
:105700008F764FF6FF7B4FF4004EE3B3CB7891F8E2
:1057100000C0022B30F82C307ED048F68F6803EAA8
:105720000803134320F82C30B0F8503091F800C033
:10573000034403EBCC03B1F808C02CF0010CA3F830
:1057400000C4B0F8503091F800C0034403EBCC0320
:10575000B1F80AC02CF0010CA3F804C44B7891F8FE
:1057600000C0002B30F82C304FEA43437ED0002B92
:1057700006DA30F82C30234043EA090320F82C30B5
:1057800091F800C000E02EE030F82C305B0606D522
:1057900030F82C30234043EA0A0320F82C30CB7831
:1057A0000C78012B30F8243003EA070301D083F092
:1057B0002003134320F824300B7830F8231002E044
:1057C00008E00DE009E03140114320F8231028469D
:1057D000BDE8F08F43F400737BE743F4C06378E7E0
:1057E00043F4806375E74B78002BB0F850300344E6
:1057F00024D00E7803EBC603CE8826F00106A3F86A
:1058000000640B7830F82360760608D530F8236002
:10581000264046EA0A0600E061E020F82360CB78E3
:10582000012B06D00B7830F82310394081F020018D
:10583000CAE70B7830F823103940C5E70F7803EB3F
:10584000C703CF8827F00107A3F80474B0F85030DD
:105850000F78034403EBC703B3F80674C7F30907D3
:10586000A3F8067403F206430F6900E03DE05FB160
:105870003E2F0DD84FEA570CFF0701D00CF1010C59
:105880001F880BEA8C2C0CE01F8847F400470AE0C5
:105890004FEA571CFF0601D1ACF1010C1F884EEAFC
:1058A0008C2C47EA0C071F800F7830F827305B04F8
:1058B00006D530F82730234043EA090320F8273083
:1058C0000B782BB130F82310314081F400517BE785
:1058D0000188314081F440511143018077E7234032
:1058E00048F2801843EA08031CE7002B06DA30F878
:1058F0002C30234043EA090320F82C3091F800C0F3
:1059000030F82C305B0606D530F82C30234043EAC3
:105910000A0320F82C304B7813B1012B2DD035E041
:10592000B0F850300C78034403EBC403B3F80244DE
:10593000C4F30904A3F802440C6903F202435CB106
:105940003E2C0ED84FEA540CE40701D00CF1010CA8
:105950001C880BEA8C2C0DE01C8844F400441C804D
:1059600014E04FEA541CE40601D1ACF1010C1C8890
:105970004EEA8C2C44EA0C04F1E7B0F850300C7875
:10598000034403EBC4030C8AA3F802444B7813B11D
:10599000012B2DD035E0B0F850300C78034403EBE8
:1059A000C403B3F80644C4F30904A3F806440C691D
:1059B00003F206435CB13E2C0ED84FEA540CE407C8
:1059C00001D00CF1010C1C880BEA8C2C0DE01C881A
:1059D00044F400441C8014E04FEA541CE40601D156
:1059E000ACF1010C1C884EEA8C2C44EA0C04F1E763
:1059F000B0F8504023180C7803EBC4030C8AA3F8CA
:105A000006440C7830F82430334083F44053134379
:105A100020F824300DE72DE9F04391F80C804F7801
:105A20000A7848F6BF7C4BF68F7948F2800348F23B
:105A3000C0054CF2800648F68F74B8F1000F28D0EC
:105A4000002F30F822704FEA474748D0002F05DA80
:105A500030F822702740374320F822700A7830F857
:105A600022707F0605D530F8227027402F4320F89A
:105A700022700D7830F825202240324320F825206E
:105A80000C7830F8242002EA0C021A4320F8242073
:105A90001AE07FB130F82260760605D530F8226032
:105AA00026402E4320F822600A7830F8221001EABE
:105AB0000C010EE030F822506D0405D530F822506C
:105AC0002540354320F822500A7830F8221001EAA8
:105AD0000901194320F822100020BDE8F083002FAF
