:020000040800F2
:1000000010200020F5020008B1520008E94900085C
:10001000AD520008DD080008AD7A000800000000BD
:10002000000000000000000000000000B9520008BD
:100030006D09000800000000B5520008BD5200081C
:100040000F0300080F0300080F0300080F03000848
:100050000F0300080F0300080F0300080F03000838
:100060000F0300080F0300080F0300080F03000828
:100070000F0300080F0300080F0300080F03000818
:100080000F030008000000000F0300080F03000822
:10009000557900080F0300080F0300080F0300083C
:1000A0000F0300080F0300080F0300080F030008E8
:1000B0000F0300080F0300080F0300080F030008D8
:1000C0000F0300080F0300080F0300080F030008C8
:1000D0000F030008B55C0008C15C0008CD5C000897
:1000E0000F0300080F0300080F0300080F030008A8
:1000F0000F0300080F0300080F03000800000000B2
:10010000000000000F030008000000000F030008BB
:1001100079540008000000000F0300080F030008D6
:100120000F0300080F0300080F0300080F03000867
:100130000F03000800000000000000000F0300088B
:100140000F0300080F03000800000000000000007B
:10015000000000000000000000000000000000009F
:100160000000000000000000000000000F03000875
:100170000F03000800000000000000000000000065
:10018000000000000F030008000000000000000055
:10019000000000000000000000000000000000005F
:1001A00000000000000000000F0300080F0300081B
:1001B0000F0300080F0300080F03000800000000F1
:1001C000000000000F030008000000000000000015
:1001D0000F0300080F03000800F002F800F07AF89F
:1001E00014A696E8000CB244B344DA4501D100F0FD
:1001F00071F8BAE80F000FA696E83000A5EB0405E9
:1002000004EB0607AAEB0704A7F101074FEA15154F
:100210004FEA3414A4F10104AC4201D300F05AF8BF
:1002200013F0010F18BFFB1A43F0010300F001F8AF
:10023000DBE71847747A0000947A00000A444FF014
:10024000000C10F8013B13F0070408BF10F8014B35
:100250001D1108BF10F8015B641E05D010F8016B7A
:10026000641E01F8016BF9D113F0080F1EBF10F8DE
:10027000014BAD1C0C1B09D16D1E58BF01F801CB01
:10028000FAD505E014F8016B01F8016B6D1EF9D584
:100290009142D6D37047000070470000002300242D
:1002A00000250026103A28BF78C1FBD8520728BF86
:1002B00030C148BF0B607047642900F02781732963
:1002C00000F01382002070471FB507F0B3FC1FBD7C
:1002D00010B510BD00F00DFA1146FFF7F5FF07F05D
:1002E000E7FB00F02BFA03B4FFF7F2FF03BC00F0CA
:1002F00033FA00000948804709480047FEE7FEE757
:10030000FEE7FEE7FEE7FEE7FEE7FEE7FEE7FEE7C5
:1003100004480549054A064B704700003153000860
:10032000D9010008101A002010200020101C002005
:10033000101C002053EA020C00F069802DE9F04BFC
:100340004FF00006002B1FBFB3FA83F503FA05F444
:1003500024FA05F65E4012BF1643B2FA82F502FA9D
:1003600005F4C5F120051EBF22FA05FC44EA0C0481
:10037000203556EA044C4FEA144418BF641C4FF071
:1003800000084FF00009904271EB030C39D30029AB
:1003900019BFB1FA81F701FA07F6B0FA80F700FA4F
:1003A00007F6C7F120071EBF20FA07FC46EA0C0635
:1003B0002037B6FBF4FCA7EB0507103F07F01F0B37
:1003C000CBF120062CFA06F60CFA0BFB44BFB34621
:1003D0000026202FA4BF5E464FF0000B5BEA060C00
:1003E00008BF4FF0010B19EB0B0948EB0608ABFBFC
:1003F000027C06FB02CC0BFB03CCC01B71EB0C0197
:10040000C1E70B46024641464846BDE8F08B13B5AE
:10041000084318BF4FF0FF300146AFF30080BDE83E
:100420001C4070470FB41CB5084B06AA7B446946B4
:100430000090059800F02FF904460020694600F06E
:100440003DF920461CBC5DF814FB00008D02000045
:100450002DE9F0410E460446002020622046E16866
:10046000884730B3252805D0D4E901219047206A78
:10047000401CF2E7E168204600278847050018D0B5
:10048000A5F14100192802D820354FF40067324603
:10049000294620462760FFF70FFF40B1012804D00E
:1004A000F61D26F007060836D8E7361DD6E728469B
:1004B000DAE7206ABDE8F08170B50C460546012AEE
:1004C00005D02878800600D5EA69002302E00123E0
:1004D00005E05B1C934202D2E05C0028F9D1A869D8
:1004E000E618C01AA861286A184428622846AFF3A3
:1004F000008004E0D5E9012114F8010B9047B442D3
:10050000F8D32846AFF3008070BD00002DE9F0411C
:100510000646002410687529314616A510D0AFF3A1
:100520000080002802DA404213A507E031688A07FC
:1005300001D512A502E0490704D511A5012401E067
:10054000AFF3008000210A2206F1240709E0B0FB86
:10055000F2FCB0FBF2F302FB1C003030785418467A
:10056000491C0028F3D123462A463046BDE8F04115
:1005700000F032B8000000002D0000002B00000049
:10058000200000004FF0000200B513469446964646
:10059000203922BFA0E80C50A0E80C50B1F1200196
:1005A000BFF4F7AF090728BFA0E80C5048BF0CC044
:1005B0005DF804EB890028BF40F8042B08BF7047A2
:1005C00048BF20F8022B11F0804F18BF00F8012B14
:1005D00070477047704770472DE9F0470D469946C0
:1005E0009246044600F124080168880604D5E069B3
:1005F00021F01001216000E00120A84201DD471B2D
:1006000000E00027A1697A1902EB0900081AA0612D
:100610002078C00602D42046AFF30080002608E010
:10062000D4E901211AF806009047206A401C761C84
:1006300020624E45F4DB2078C0060AD52046AFF391
:10064000008006E0D4E9012130209047206A401C58
:100650002062381EA7F10107F4DC07E0D4E901218C
:1006600018F805009047206A401C2062281EA5F15A
:100670000105F3DC2046AFF300802078000602D5A8
:100680000220BDE8F0870120FBE7000001694A1C59
:1006900002610878704700B58FB0CDE901310021C3
:1006A000059105497944CDE9031011466846FFF7E5
:1006B000CFFE0FB000BD0000E5FFFFFF0A6802F8A3
:1006C000010B0A60704710B5436913B1AFF30080A6
:1006D00001E0FFF7F1FE012010BD127800F12401C6
:1006E0000A7000224A700122EDE711684FF0FF32D4
:1006F000E9E7754600F02CF8AE460500694653461A
:1007000020F00700854618B020B5FFF701FEBDE8D0
:1007100020404FF000064FF000074FF000084FF068
:10072000000BAC46ACE8C009ACE8C009ACE8C009B5
:10073000ACE8C00921F007018D46704710B50446AA
:10074000AFF300802046BDE81040FFF7CCBD0000AD
:10075000004870478801002001491820ABBEFEE721
:100760002600020070470000B0B5016804468A68A0
:100770008868C0074FF0000031D012F0020218BFA5
:10078000B0BD886800F00D0001281FD188684FF6C1
:10079000C072C7F6FF721040023088600320086004
:1007A00000F058FF21688968C90704BF0020B0BD68
:1007B000054602E08068C00712D000F04BFF411BE5
:1007C00020680329F6D38168C907F3D0E06D40F0B3
:1007D0001000E065206E40F0010020660120B0BDF1
:1007E0000020B0BD70B582B00446002001902168A1
:1007F0008A68D20711D14FF6C076C7F6FF768868AF
:1008000006F17F0210420BD0E06D40F01000E06571
:10081000206E40F001002066012002B070BD00BFD4
:100820008868304040F00100886040F20830C5F22E
:1008300000000068000221D400F00CFF21680A6863
:10084000D20717D1054602E00868C00712D18868B0
:10085000C00704D18868304040F00100886000F093
:10086000F9FE401B21680328EED30868C007EBD1CE
:10087000CAE700BF002002B070BD00BF40F22800F0
:10088000C2F20000006842F663518009C0F23E5196
:10089000A0FB0101880900EB40000C2101EB800066
:1008A000019001980028C7D0019801380190019863
:1008B0000028C1D001980138019001980028BBD0D0
:1008C00001980138019001980028B5D001980138AD
:1008D000019001980028E7D1AEE70000FEE7000094
:1008E000002070470020704710B540F60C64C2F23B
:1008F000000440F60C21C2F200012046002205F05F
:1009000023FC40F20C61C2F20001204605F012FC0B
:10091000002010BD10B540F60C64C2F20004014680
:10092000204605F007FC204605F02EFB002010BDF8
:100930000020704740F60C62C2F20002D2F8BC22DE
:10094000D2F81432002B1CBF0120704710B540F6BE
:100950000C64C2F200040A460146204605F0F4FB8E
:100960002046BDE8104005F067BC0000704700005D
:1009700040F60000C4F600004FF40041002200F0F1
:1009800063BE0000EFF3108072B600BFFEE7000008
:10099000B0B582B004460020019094F858000128B8
:1009A00002D1022002B0B0BD012084F858002046D8
:1009B0000D46FFF7D9FEE16D10B141F010014BE09B
:1009C00041F2021291430231E16521684FF6C07392
:1009D000D1F808C0C3F6FF7303EA0C0305F08045A5
:1009E0004DF601622B44C0F2040203F100438B6018
:1009F0008B68B3F1FF3F2BDC019B01330193019B1B
:100A000093421DD88B68B3F1FF3F21DC019B01337A
:100A10000193019B934213D88B68B3F1FF3F17DC1E
:100A2000019B01330193019B934209D88B68B3F179
:100A3000FF3F0DDC019B01330193019B9342D7D90A
:100A4000E06D40F0100020F00201012004E000BF42
:100A5000E16D012262F30101E165002184F8581083
:100A600002B0B0BD90F85820012A04BF02207047A0
:100A700070B582B00022019200920268B2F1A04FDC
:100A800030D140F208324FF6006E4FF60055C5F2F5
:100A90000002CFF6FF7ECFF6FF7552F80E40535995
:100AA00023435B071ED4D1F800C01368BCF1000FCC
:100AB00023F4604424D04B6890F8386043EA46330E
:100AC00023431360535952F80E603343DB0723D19D
:100AD000136840F61F768968B343194341EA0C0155
:100AE00019E000BFC16D41F02001C1650121002264
:100AF00080F8582002B0BDE870400846704700BF3B
:100B00001460515952F80E301943C90704D11168C5
:100B100040F61F73994311600021E8E7F0B581B0FA
:100B20000022009290F85820012A03D102210846A1
:100B300001B0F0BD0123076880F85830BB685B073F
:100B400034D4D1E900351F26C5F3012407EB840412
:100B5000226B05F01F05AE40C3F38463B243AB4084
:100B60001A432263BA68BB6802F0040203F0080368
:100B7000D21840F0BC800A6807F114030426C2F3BF
:100B80004064D1F808E006EAD25C53F82440C2F38E
:100B900004550722AA40BEF1004F24EA02040BD1FB
:100BA00043F80C401A6842F000430DE0C16D41F07B
:100BB0002001C165012178E10EFA05F2224343F8D4
:100BC0000C201A6822F000437B61D1E90435FC68EF
:100BD000042B5FD13A6E3A6E0B68C2F3846293FACB
:100BE000A3F6C3F3846C6FF3DF43B6FA86F5002BEC
:100BF0002C464FF6FF7E08BF6446A242C0F2070EA5
:100C00000CD13A6E22F000423A660A6802EA0E03FC
:100C1000C2F3846C92FAA2F2B2FA82F57A6E7A6E1C
:100C2000002BC2F384622C4608BF6446A2420CD15A
:100C30007A6E22F000427A660A6802EA0E03C2F374
:100C4000846C92FAA2F2B2FA82F5BA6EBA6E002BF6
:100C5000C2F384622C4608BF6446A2420CD1BA6E2D
:100C600022F00042BA660A6802EA0E03C2F3846CFC
:100C700092FAA2F2B2FA82F5FA6EFA6E002BC2F381
:100C8000846208BF6546AA4231D1FA6E22F0004262
:100C9000FA662CE0062202EA940205FA02FC0E68CB
:100CA00007F1600555F823404FF20002C0F2FF3211
:100CB00006F0F846224046EA0C06324342F0004273
:100CC00045F823200A698B6955F8226026F0807662
:100CD000334345F822300A690B7F55F82260012B17
:100CE00026F0007608BF06F1007645F82260BA6863
:100CF0000D68D20750D1CA68D7F8B0602B466FF3A1
:100D0000DF4326EA030C4FF6FF7602F01804C0F228
:100D10000706E64000242E40C4F27F0446EA0C0693
:100D2000A242C7F8B06037D193B195FAA5F2B2FAF2
:100D300082F2013202F01E03092B02F01F0310D8C9
:100D400001229A4003EB430342EA035315E000BF3C
:100D5000012202EB956202F01E030A2B02F01F0330
:100D6000EED3012200269A4003EB4303CFF6206620
:100D700006EB03531A4342F00073C3F3406607EBDC
:100D800086068A687569C3F3045307249C40A5430B
:100D90009A402A4372610D680021C8F208010D4291
:100DA00000F0828040F2083CC5F2000CDCF8004004
:100DB0000021CCF221318D4204F0E07E04D01021DC
:100DC000C9F2C0018D4241D1B7F1A04F4FF00001EF
:100DD00008BF14F4000268D1DCF8001042F6635238
:100DE00021F0E07141EA0E0141F40001CCF800105D
:100DF00040F22801C2F200010968C0F23E5289099E
:100E0000A1FB0212910901EB41010C2202EB8101CD
:100E100000910099002947D000990139009100996B
:100E2000002941D00099013900910099E1B300995E
:100E3000013900910099B9B30099013900910099E5
:100E400000294FF00001E7D12FE000BF0021CCF2D4
:100E500052718D4210D10021B1EB1E6F0CD1ACF557
:100E600002718F4220D0DCF8001021F0E07141EADD
:100E70000E0141F0807115E0ACF502718F424FF028
:100E8000000112D00022CCF68432954208BF14F43F
:100E900080020AD1DCF8001021F0E07141EA0E0175
:100EA00041F48001CCF800100021002280F8582085
:100EB000084601B0F0BD00000068006C70470000FB
:100EC000B0B582B000210028019155D0C16D39B96B
:100ED000044600F009F920460021216684F85810E4
:100EE0000268916889004FF6C071C5F6FF7102D59E
:100EF00093680B4093609368DB002ED4936801F1F4
:100F00008051194041F08051916040F22801C2F2B5
:100F10000001096842F663538909C0F23E53A1FB00
:100F200003139909022303EB410101910199A1B136
:100F3000019901390191019979B101990139019121
:100F4000019951B1019901390191019929B1019991
:100F50000139019101990029EAD19168C90011D4A0
:100F6000C16D4FF0010E41F01001C165016E41F0FD
:100F70000101016608E000BF4FF0010E704602B0AB
:100F8000B0BD00BF4FF0000E9368C46D03F00403C2
:100F900004F010041B19C36D68D123F4817302336C
:100FA000C3659368DB071AD140F2083C4FF6005442
:100FB0004FF60063C5F2000CCFF6FF74CFF6FF7357
:100FC0005CF804405CF803302343DB0707D1436837
:100FD000DCF8004024F47C142343CCF80030437F39
:100FE000C46BD0E902C144EA4333194390F824307A
:100FF00041EA0C01012B41EA034306D1816A002436
:10100000CFF6FE7404EB41410B43C46A24B1016B7B
:1010100004F4787421430B43D16844F20704CFF6FB
:10102000F07421401943D1601169436B21F0406194
:10103000194311619168090743D490F83810037F70
:10104000490041EA8331D36844F20204A3431943BF
:10105000D160036914698BB144F480311161D2F815
:10106000C01043F6FF74A1430B4310E043F010029D
:101070004FF0010EC265704602B0B0BD24F480315D
:101080001161D2F8C01043F6FF7321EA0303C2F8DE
:10109000C03090F84010136901290FD140F2FD7162
:1010A00023EA010CD0E91134D0E9131543EA0C030B
:1010B00023431943294341F0010301E023F00103D5
:1010C00013614169136B012923F00F0302D1016AF7
:1010D00001390B431363C26D012161F30102C26543
:1010E000704602B0B0BD000010B592B0044601A831
:1010F00004304021FFF746FA2068B0F1A04F01D03C
:1011000012B010BD4FF4004001904FF0005010900D
:1011100001A801F0C9FC002818BFFFF733FC41F219
:101120004C00C4F20200016841F400510160006803
:1011300000F400500090009812B010BD2DE9F04767
:1011400040F208390446C5F20009D9F80000D4F885
:1011500018800D46B8F1080F00F01F0A02D10827C9
:1011600012E000BFBAF1090F00F28480012000FAFA
:101170000AF040F22121084200F07C802068C0681B
:10118000C00740F07D80042700F064FA21680A68F7
:101190003A423DD0E06D40F40070E065C86810F45C
:1011A000406F0FD1607F68B9086800070AD5E06D0D
:1011B00020F48070E065E06DC00403D4E06D40F081
:1011C0000100E065A9F502708142084608BF4FF0B2
:1011D000A0400246BAF1090F08BF0A46BAF1050F4E
:1011E00008BF0A46BAF1000F08BF0A46884208BF86
:1011F0000246D068B8F1080F02D1082003E000BF12
:10120000400401D40C2008600020BDE8F08700BF36
:101210000646681C2AD065B900F01CFA21680868E7
:1012200038420FD008683842F6D0B3E70868384231
:10123000B0D100F00FFA801B2168A842F6D90868E7
:101240003842F3D1E06D40F00400E065002084F8FE
:1012500058000320BDE8F087086838429AD1086832
:10126000384297D1086838427FF494AF0868384212
:10127000F2D08FE7D9F8000010F4604F3FF483AF4D
:10128000E06D40F02000E0650120BDE8F08700003F
:1012900070B540F20014C5F20004D4F80852016899
:1012A0008968490703D490F85810012902D1022017
:1012B00070BD00BF012180F858100646FFF792FA72
:1012C00020B1002086F85800012070BD3168F26D11
:1012D00040F601739A43304602F580760A46A142F1
:1012E00008BF4FF0A042531AB3FA83F35B0905F02D
:1012F0001F0CDB07C66502D1BCF1000F03D1C66D20
:1013000026F48016C665C66D0025F6044FF000066B
:1013100044BF066E26F0060606661C260E6080F8A0
:1013200058504BB9BCF1090F18D8012303FA0CF33C
:1013300040F22126334211D0CA68920104D5C26D11
:10134000012363F30D32C26588684FF6C072C7F699
:10135000FF72104004308860002070BDC16D41F400
:101360008011C165D16889015CBF002070BDC16D6D
:10137000012262F30D31C165002070BD014690F875
:101380002500022828D180B50868D1E910CE8A6CE2
:10139000036823F00E030360136823F48073136063
:1013A000026822F0010202600EF01F00012202FA20
:1013B00000F0CCF80400D1E913205060486D30B142
:1013C000026822F480720260D1E9160242600020B5
:1013D000BDE8804003E000BF0420C8630120012273
:1013E00081F82520002281F82420704790F82510EC
:1013F000022931D180B50168D0E910CE826C0B682A
:1014000023F00E030B600B6823F001030B601168DF
:1014100021F4807111600EF01F02012101FA02F225
:10142000CCF80420D0E913325A60426D32B113680F
:1014300023F480731360D0E91623536080F82510DD
:10144000826B002180F824100AB190470021BDE88A
:1014500080400846704700BF0421C163012100227B
:1014600080F8251080F8242008467047B0B504465F
:1014700000F0F0F8054640F20000C2F200004068BB
:10148000611C18BF044400BF00F0E4F8401BA042F8
:10149000FAD3B0BD2DE9F04F83B00E68002E00F0F6
:1014A000CF8000F1200241F2004C009200F1384759
:1014B000C4F6000C06224FEAB725604508BF052296
:1014C000052D38BF4FEAB722002500274FF000084E
:1014D00001920AE00E6808F1010836FA08F207F1F5
:1014E000020705F1040500F0AB80012202FA08FEB4
:1014F00016EA0E09EED0D1F804C003220CF0030B5B
:10150000ABF1010602FA07F4012E6FEA040A11D8C2
:101510008468CE6804EA0A04BE40344384604468A8
:1015200024EA0E06CCF3001404FA08F426434660BD
:1015300006E000BFBBF1030F02D14FF0030B21E027
:10154000C6688C6806EA0A06BC402643BBF1020F57
:10155000C66017D16FF00302009B02EA580605F03F
:101560001C020F2453F806C004FA02FE0C692CEA90
:101570000E0C04FA02F242EA0C029A51D1F804C0AD
:101580000CF0030B02680BFA07F302EA0A021A4393
:101590001CF4403F02609DD041F26003C4F202039C
:1015A0001A6840F2004E42F001021A601A68C4F252
:1015B000010E02F001020292029A28F003024FF695
:1015C000084C7244CFF6FF7C52F80C3005F00C0644
:1015D0000F24B440A343019C04FA06F6334342F8B7
:1015E0000C30DEF808204B6842EA090640F20C4C49
:1015F000DC0258BF22EA0906CEF80860C4F2010CEA
:10160000DCF800209C0242EA090658BF22EA0906DB
:10161000CCF80060DEF804209C0342EA090658BFBB
:1016200022EA0906CEF80460DEF80020DB0342EA75
:10163000090658BF22EA0906CEF800604AE700BF53
:1016400003B0BDE8F08F00001823002A08BF28234C
:10165000C150704741F60C20C2F20000006870478C
:1016600090F84120202A03D190F84020012A01D18E
:1016700002207047242280F841200268136823F07A
:1016800001031360136823F4805313601368194334
:101690001160116841F001011160202180F84110B2
:1016A000002180F8401000207047000090F8412091
:1016B000202A03D190F84020012A01D1022070474E
:1016C000242280F841200268136823F0010313608C
:1016D000136823F4706343EA01211160116841F03B
:1016E00001011160202180F84110002180F8401094
:1016F00000207047002804BF0120704710B590F803
:10170000411031B9002180F84010044600F04AF839
:101710002046242180F8411090E81210C3680A681E
:10172000012B22F001020A6024F070620A618A68CB
:1017300022F400428A6003D14CF400428A6009E03E
:101740004CF40442022B8A6004D14A6842F40062DD
:1017500003E000BF4A6822F400624A604A6800F170
:10176000100C42F0007242F400424A60CA6822F44F
:101770000042CA609CE81C101A4342EA0422CA6074
:10178000026A42EA0C020A600A6842F001020A6038
:1017900000212022416480F84120016380F842103A
:1017A000002010BD2DE9F04198B0044600201790AC
:1017B000CDE91500CDE9130002A84421FEF7E2FEB1
:1017C000206845F60001C4F2000188424ED045F27F
:1017D0000041C4F20001884240F091804020029014
:1017E00002A801F061F9002818BFFFF7CBF841F219
:1017F0004C05C4F20205286813AC40F001002860D3
:1018000028684FF0120800F0010001900198286844
:10181000002740F0020028602868042600F002003B
:10182000019001984FF4004013904FF090402146F2
:10183000CDF85080CDE915771796FFF72BFE4FF4C2
:101840000070CDE9130840F20040C4F600002146C4
:10185000CDE915771796FFF71DFEE86840F40010F4
:10186000E860E86800F4001047E000BF80200290C4
:1018700002A801F019F9002818BFFFF783F841F218
:101880004C05C4F20205286813AC40F0040028603F
:1018900028684FF0120800F00400019001982868B1
:1018A000002740F0010028602868042600F00100AD
:1018B000019001981020139040F20040C4F60000FF
:1018C00000F580602146CDF85080CDE91577179658
:1018D000FFF7E0FD4FF48070CDE913084FF0904022
:1018E0002146CDE915771796FFF7D4FDE86840F457
:1018F0008000E860E86800F480000190019818B06A
:10190000BDE8F08140F2000041F60C21C2F2000077
:10191000C2F2000140680A68104408607047000085
:1019200080B5032000F08CF80F2000F009F80028A3
:101930001CBF012080BD00F02BF8002080BD0000FE
:10194000B0B540F20005C2F200056968F1B1044685
:1019500040F22800C2F200004FF47A720068B2FB35
:10196000F1F1B0FBF1F001F00FFF01460F2C4FF049
:1019700001000AD8002918BFB0BD4FF0FF30214642
:10198000002200F031F800202C60B0BD0120B0BD75
:1019900082B041F25800C4F20200816841F00101B6
:1019A0008160816801F0010101910199016841F0B4
:1019B00080510160006800F080500090009802B0F3
:1019C00001F068B8002848BF704700F01F010122ED
:1019D00002FA01F11C2202EAD0004EF20012CEF20D
:1019E000000281507047000010B54EF60C5CCEF23C
:1019F000000CDCF80030C3F3022E8EF00704042C38
:101A000028BF0424BEF103034FF0FF3E0EFA04F496
:101A100038BF0023A14399400EFA03F39A431143C0
:101A200000F00F0200F160430901043A03F564433A
:101A30006244002848BF02F10C03197010BD000079
:101A40004EF60C51CEF200010A684FF6FF031A4021
:101A500060F30A2242F0806040F0FD700860704739
:101A600001220168C0F8D022002280F8C822B1F813
:101A7000540040F00100A1F85400B1F8540040F0C7
:101A800002020020A1F854207047000010B501297F
:101A9000044613D011BB607A48B103F011FC4EF636
:101AA0001050CEF20000016821F006010160D4F868
:101AB000D802BDE8104004F01FBE00BFD4F8D80221
:101AC00004F0A2FE607A002808BF10BD4EF6105048
:101AD000CEF20000016841F00601016010BD000077
:101AE00080B501F0070C0CEB8C0C00EBCC0C0CF16E
:101AF000100C01EB810E090600EBCE0058BF00F57B
:101B0000A87C5AB1ACF808301B0C01210A202CF833
:101B1000003000208CF80C1080BD00BF0021062092
:101B20002CF8003000208CF80C1080BD01EB8102F5
:101B3000D0F8D83200EBC200426A184604F09CBCD0
:101B400001EB8102D0F8D83200EBC200D0F864215A
:101B5000184604F0E5BC000010B501F0070E0A4677
:101B60004FFA81FC0EEB8E0100EBC10303F5A87167
:101B7000BCF1000F48BF03F1100190F89032D20978
:101B8000012B4A7081F800E004BF022010BD0268FA
:101B9000012380F890320446104605F0A7FA002091
:101BA00084F8900210BD0000027901F00F03934207
:101BB00084BF0120704710B501F0070303EB8302D7
:101BC00000EBC2024FFA81FC8E4602F5A871BCF10F
:101BD000000F48BF02F110014FEADE124A7090F880
:101BE00090224FF0000C012A81F802C00B7004BF54
:101BF000022010BD0268012380F89032044610468E
:101C000005F008FB002084F8900210BD01F00701E8
:101C100001EB810100EBC100D0F86C0170470000BE
:101C2000B0B501F007048C464FFA81FE04EB840145
:101C300000EBC10505F5A871BEF1000F48BF05F125
:101C400010014FEADC156FF3DF224D700C700A6152
:101C5000022BCB7004BF00220A7190F89022012A57
:101C600004BF0220B0BD0268012380F89032044610
:101C7000104605F0A9F8002084F89002B0BD0000DD
:101C800010B501F0070C0CEB8C0100EBC10E0068E5
:101C90000EF5A8710024CEF86421CEF86831CEF894
:101CA0006C418EF851418EF850C105F009FB0020BF
:101CB00010BD0000027901F0070C94454FF00102BD
:101CC0002AD810B501EB810300EBC3034FFA81FE64
:101CD00003F5A8730CEB8C04C90900EBC404BEF136
:101CE000000F48BF04F11003597090F890129A70D9
:101CF000012983F800C001D102220BE00168012212
:101D000080F8902204460846194605F0BFFA0022E2
:101D100084F89022BDE810401046704780B501F06D
:101D2000070C0CEB8C0100EBC10101F810CF00682F
:101D30004FF0010C01F1140781F824C04FF0000EA0
:101D400087E80C400B6281F801C005F0B9FA002069
:101D500080BD00002DE9F04F83B00446006805F017
:101D6000FFFD010422D4410500F1AA83410400F1E2
:101D7000B983810400F1CE83C10400F1D58301054C
:101D800000F1F883010600F10F84810500F11C8445
:101D9000C00540F1A3832068B0F8441021F480719D
:101DA000A0F8441003B0BDE8F08F00BF2068B0F980
:101DB0004410B1F1FF3F00F3918304F5A871019144
:101DC00004F1100148F2C005029104F5267140F6B5
:101DD0000F78009123E000BFB0F8501094F8502124
:101DE000014401EBC201B1F80634B4F85621009960
:101DF0006FF39F23C4F86C3105F0B6FD20680188AD
:101E000001EA080180310180204600F089FD00BF11
:101E10002068B0F94410B1F1FF3F00F35F83B0F8E0
:101E2000442012F00F090DD030F929104FEA490B68
:101E3000B1F1FF3F1FFA81FA2EDD5FEA0A60E7D5B4
:101E400030E100BF0188D2065ED401EA080101F545
:101E500000410180B0F85010227C084400EBC20021
:101E6000B0F80204616A6FF39F20E0620844606288
:101E700020460021FFF75AFE207B0028C8D0A06A28
:101E80000028C5D1207B216840F08000C0B2A1F8B5
:101E90004C0000202073BBE730F81B1001EA08015A
:101EA000803120F81B10019A09EB890102EBC10671
:101EB000317B00296CD0F178022979D1B0F850300B
:101EC0003178B26903445FEA4A4703EBC10300F18A
:101ED0008780B3F8067400236FF39F27D21B38BFA7
:101EE0001A46B26140F292805FEA4A6200F19C8039
:101EF00030F8212002EA08022A4320F82120002F8E
:101F000040F09380B0E000BF0A053FF565AF09B22D
:101F1000B1F1FF3F3FF77CAF018801EA0801803152
:101F20000180B0F8501094F85021014401EBC20137
:101F3000B1F806346FF39F23C4F86C3193B1D4F831
:101F4000641179B1B4F8562105F00EFDD4F864019E
:101F5000D4F86C110844C4F8640120460021FFF74E
:101F6000EFFD206801880A053FF552AF01F44051AA
:101F7000B1F5405F3FF44CAF018843F60F7211405A
:101F80004CF28002A2F580525140018040E700BF30
:101F9000B0F850103278014401EBC201B1F8067478
:101FA0006FF39F27002F5FD07169F28857E000BF61
:101FB000317830F8212002EA08022A4320F8212053
:101FC00030F82120B0F8503000EBC1015204194420
:101FD00016D4B1F806746FF39F2737BB44E000BFF7
:101FE000B3F8027400236FF39F27D21B38BF1A4641
:101FF000B2611DD95FEA4A6227D477BB34E000BFE3
:10200000B1F802746FF39F273FBB2DE030F8212019
:1020100043F60F731A4005F5FE535A4020F821206D
:102020005FEA4A627FF564AFF7B17169728916E0C1
:1020300030F8212043F60F731A4005F5FE535A403D
:1020400020F821205FEA4A62D7D530F8212002EA41
:1020500008022A4320F8212037B1716932893B46B2
:1020600005F082FC01E000BF0027F169D6E9050216
:1020700039443844F161706112B13069B84209D90C
:1020800031782046FFF75CFD5FEA0A607FF5C0AE5D
:1020900008E000BF2068314605F012F95FEA0A60E7
:1020A0007FF5B6AE206809EB890130F81B20029B52
:1020B00003EBC10602EA080101F5004120F81B10FC
:1020C000F378012B22D1317B00294FF00001B1615F
:1020D00000F025815FEA4A617AD47178012900F025
:1020E0000B81002940F01B81B0F850103278084471
:1020F00000EBC200B0F806146FF39F21A0F806149D
:10210000B0F8061441F40041FDE000BF5FEACA5197
:102110001CD4B0F850203178024402EBC102B2F86E
:102120000224B3696FF39F229B1A4FF0000738BF58
:102130003B46B36140F2F4807169F3691144716107
:102140009918F161314605F0BBF861E6B0F85050DE
:102150003178B2695FEA4A6700EBC10E50D40EF2E3
:10216000064C3CF8055000276FF39F25521B38BFE3
:102170003A46B26174D95FEA4A4208D430F8212065
:102180004CF2800302EA08021A4320F8212096F854
:102190002410012940F08581D6E90431D6E907727F
:1021A00029442F449A427161F76180F00781002A27
:1021B00000F042810023336286F82430134672789F
:1021C000012A40F00181B0F850202CF8023052E191
:1021D0007178012900F09A80002940F0A080B0F8C1
:1021E00050103278084400EBC200B0F802146FF3CC
:1021F0009F21A0F80214B0F8021441F400418CE0D1
:102200000EF2024C3CF8055000276FF39F25521B3D
:1022100038BF3A46B26147D95FEA4A4208D530F83A
:1022200021204CF2800302EA08021A4320F8212000
:1022300096F82410012940F03481D6E90431D6E91A
:10224000072729442A449F427161F26180F0D280BD
:102250000022002F86F8242040F0CE802F46CCE0CC
:102260007278012A60D0002A48F2C00567D1B0F820
:1022700050207244B2F802746FF39F27A2F80274E0
:10228000B2F8027447F40047A2F80274B0F8502084
:102290003CF802706FF39F272CF802703CF8027034
:1022A00047F4004749E000BF7278012A5CD0002A59
:1022B00048F2C00564D1B0F850203CF802506FF3EA
:1022C0009F252CF802503CF8025045F400452CF8AC
:1022D0000250B0F8502048F2C0057244B2F80674BB
:1022E0006FF39F27A2F80674B2F8067447F400470C
:1022F000A2F8067444E000BFB0F8501032780844E9
:1023000000EBC2000021A0F8061408E0B0F850105D
:102310003278084400EBC2000021A0F802143178A2
:102320002046FFF703FC73E5B0F8502048F2C005E3
:102330007244A2F80274B0F850202CF80270022BFC
:1023400009D130F8212040F63F731A40A5F120034F
:102350005A4020F821202046FFF7E8FB5FEA4A4078
:102360003FF556AD1FE000BFB0F8502000252CF817
:102370000250B0F850207244A2F8065448F2C0054A
:10238000022B09D130F8212040F63F731A40A5F105
:1023900020035A4020F821202046FFF7C7FB5FEAC0
:1023A0004A407FF535AD206831784CF2800330F833
:1023B000212002EA08021A437FE000BFD21A3262EB
:1023C0007278012A3FF4FFAE002A54D1B0F8507061
:1023D0003CF807206FF39F222CF80720A3B33E2B75
:1023E0003AD803F001023CF8075002EB530245EAE9
:1023F00082223EE0FA1A1F4632627278012A15D014
:10240000002A4AD1B0F850203CF802306FF39F23E5
:102410002CF80230E7B13E2F30D807F001033CF82A
:10242000025003EB570345EA832334E0B0F8502011
:102430002CF8027031E000BF002286F824202B46E1
:102440007278012AC0D1BEE63CF807200FE000BF39
:102450003CF802301DE000BF5A09DD063CF807E0F9
:102460004FF0FF3508BF05EB53124EEA822242F4CB
:1024700000422CF8072072899BB210E07B09FD0610
:102480003CF802E04FF0FF3508BF05EB57134EEA6A
:10249000832343F400432CF802303289BBB205F0A9
:1024A000B9FA2068317840F63F7330F8212048F2BD
:1024B000C0051A40A5F110035A4020F82120A7E4D6
:1024C0002068B0F8441021F48061A0F84410204640
:1024D00000F0E8F994F8900201280DD103B0BDE8AE
:1024E000F08F00BF2068B0F8441021F48041A0F8BC
:1024F000441003B0BDE8F08F0120002584F890025D
:1025000025732068002105F07DFA84F8905203B00D
:10251000BDE8F08F2068B0F8441021F40051A0F815
:10252000441003B0BDE8F08F2068B0F8401021F0EF
:102530000401A0F84010B0F8401021F00801A0F804
:10254000401094F8C802012806D1002084F8C8027F
:1025500020460021FFF79AFA204600F0B5F92068DE
:10256000B0F8441021F48051A0F8441003B0BDE845
:10257000F08F00BF2168B1F8400040F00800A1F8DA
:102580004000B1F8440020F40060A1F84400B1F824
:10259000400040F004022046A1F8402003B0BDE80E
:1025A000F04F00F0DBB900BF2068B0F8441021F014
:1025B0008001A0F8441094F8C81299B1204603B0E5
:1025C000BDE8F04F00F0CAB92168B1F8440020F42A
:1025D00000722046A1F8442003B0BDE8F04F00F09F
:1025E00087B900BFB0F8401041F00401A0F84010D6
:1025F000B0F8401041F00801A0F84010012184F823
:10260000C812B0F854003C2101EA90022046012192
:10261000C4F8CC2203B0BDE8F04FFFF737BA000092
:10262000002804BF01207047F0B581B0044690F83F
:10263000910228B9002084F89002204600F0FEF8AC
:10264000032084F89102206804F0DAFD94F804E095
:10265000BEF1000F00F0E0800EF0030CBEF1040F9D
:102660004FF0000238D30EF0FC03A4F1A0000321C8
:10267000012500BFCE1E80F8B0608E1E80F8D860A5
:102680004E1E80F8006180F828110E1D013180F87F
:10269000B15080F8B320C0E93022C0F8C82080F8DB
:1026A000D95080F8DB20C0E93A22C0F8F02080F849
:1026B000015180F80321C0E94422C0F8182180F8B4
:1026C000295180F82B21C0E94E22C0F84021A030CA
:1026D00099423146CED1F21EBCF1000F2ED004F14A
:1026E000100002EB820100EBC105012300F831204C
:1026F0000021BCF1010F6B70E970C5E90411A961FB
:102700001CD0551C05EB850600EBC607BCF1020F7B
:102710007B7000F83650F970C7E90411B9610DD02B
:10272000911C01EB810200EBC203012500F832107D
:1027300000205D70D870C3E904009861BEF1000FFD
:102740006AD0BEF1040F4FF0000235D30EF0FC004A
:1027500003212346CF1E83F850718F1E83F87871B2
:102760004F1E83F8C8110D1D013183F8512183F8E4
:102770005321C3E95822C3F8682183F8792183F8EB
:102780007B21C3E96222C3F8902183F8A12183F859
:10279000A07183F8A321C3E96C22C3F8B82183F8A0
:1027A000C92183F8CB21C3E97622C3F8E021A03305
:1027B00081422946CED1EA1EBCF1000F2CD004F58F
:1027C000A87002EB820300EBC3070021BCF1010FEC
:1027D000797000F83320F970C7E90411B9611BD092
:1027E000531C03EB830700EBC706BCF1020F7170AB
:1027F00000F83730F170C6E90411B1610CD0911CBA
:1028000001EB810200EBC20300275F7000F8321079
:10281000DF70C3E904779F6194E8070004F0E2FCED
:1028200000200121207384F89112A17A012903D19B
:102830002046FFF715F9002001B0F0BD10B592B0A9
:10284000044601A804304021FDF79CFE206845F6AF
:102850000041C4F20001884202D012B010BD00BF96
:102860004FF40050019001A800F01EF9002818BF95
:10287000FEF788F841F25800C4F202000168002215
:1028800041F4000101600068002100F400000090A4
:1028900000981420FFF7A8F81420FFF793F812B05F
:1028A00010BD000010B504464079022818BFFEF79D
:1028B00069F8D4F8D802012103F03AFFD4F8D8021D
:1028C000BDE8104003F0E4BE10B50446407A48B1BC
:1028D0004EF61050CEF20000016821F006010160B2
:1028E00002F0EEFCD4F8D802BDE8104003F004BFBB
:1028F000D0F8D80203F00ABF90F89022012A04BF52
:102900000220704710B5012280F8902201730268FE
:102910000446104605F076F8002084F8900210BDB9
:10292000D0F8D82200F52671104603F017BF00003A
:1029300090F89012012904BF0220704710B5016879
:10294000012280F890220446084604F0F9FF20682E
:1029500004F03EFC002084F8900210BD10B504463F
:10296000D0F8D80203F050FF607A002808BF10BDED
:102970004EF61050CEF20000016841F006010160F1
:1029800010BD000047F21401C4F2000151F8142CEC
:10299000B0F5007F3CD0002874D1C86E02F4C0624C
:1029A00020F48070B2F5806FC8662FD151F8140CF6
:1029B000012262F34A2041F8140C40F22800C2F2CE
:1029C00000000068322250434DF68362C4F21B328D
:1029D000A0FB0202900C00BF0A68520511D5421CF0
:1029E0000FD00A6852050CD558B10A68520508D5AF
:1029F000012806D00A68520503D50228A0F1040078
:102A0000EAD10868400544BF0320704700207047A2
:102A1000C86E02F4C06240F48070B2F5806FC86680
:102A2000F4D151F8140C012262F34A2041F8140C3D
:102A300040F22800C2F200000068322250434DF6F6
:102A40008362C4F21B32A0FB0202900C0A6852059A
:102A500011D5421C0FD00A6852050CD558B10A682E
:102A6000520508D5012806D00A68520503D5022868
:102A7000A0F10400EAD10868400544BF0320704774
:102A8000C4E700BF022060F34A2241F8142C002062
:102A90007047000047F20800C4F20000016841F4EA
:102AA00080410160704700002DE9F04182B004468A
:102AB000807841F288060007C4F2020602D40020A2
:102AC0002FE000BF56F8300C5FEAC0080BD456F870
:102AD000300C40F0805046F8300C56F8300C00F0C6
:102AE00080500190019847F20007C4F2000738684F
:102AF00040F480703860FEF7ADFD05463868C005CB
:102B000000F1D680FEF7A6FD401B0228F6D903206F
:102B1000B8F1000F05D456F8301C21F0805146F86A
:102B2000301C2168CA0713D18A0719D44A071FD459
:102B30000A0725D48A062BD44A0631D40A0637D48C
:102B4000CA053DD48A0543D44A0549D457E000BF9D
:102B50003268636822F003021A4332608A07E5D5BF
:102B60003268A36822F00C021A4332604A07DFD5AC
:102B70003268E36822F030021A4332600A07D9D57E
:102B80003268236922F0C0021A4332608A06D3D524
:102B90003268636922F440621A4332604A06CDD536
:102BA0003268A36922F440521A4332600A06C7D53C
:102BB0003268E36922F440421A433260CA05C1D543
:102BC0003268236A22F440321A4332608A05BBD548
:102BD0003268636A22F440221A4332604A050ED5F5
:102BE0003268A36A22F440121A43B3F5801F3260A0
:102BF00005D156F87C2C42F4801246F87C2C0A054C
:102C00000ED53268E36A22F440021A43B3F5800F0E
:102C1000326005D156F87C2C42F4801246F87C2CA8
:102C2000CA040ED53268236B22F040721A43B3F106
:102C3000807F326005D156F87C2C42F4801246F831
:102C40007C2C8A040ED53268636B22F040621A43F2
:102C5000B3F1006F326005D156F87C2C42F480123B
:102C600046F87C2C4A040ED53268A36B22F04062F1
:102C70001A43B3F1006F326005D156F87C2C42F450
:102C8000801246F87C2C09040ED53168E26B21F0E5
:102C900040511143B2F1805F316005D156F87C1C80
:102CA00041F4803146F87C1C02B0BDE8F08100BFE1
:102CB000B06810F4407010D0216C88420BD0B0681E
:102CC000B16820F4407041F48031B160B16821F402
:102CD0008031B160B060C0070CD1B068216C20F4C5
:102CE00040700843B0600020B8F1000F3FF519AF05
:102CF00011E700BFFEF7AEFC054641F2883700BF82
:102D0000B0688007E9D4FEF7A5FC401BB842F7D9AC
:102D1000FDE600002DE9F047002863D042F2000AEA
:102D2000C4F2020A0446DAF800000D4600F00F0073
:102D300088420CD2DAF8000020F00F002843CAF8CD
:102D40000000DAF8000000F00F00A8424AD1216824
:102D500041F20808C807C4F2020803D1880740F10D
:102D6000D080B5E0606858F8082C022838D00328D5
:102D70003CD1920136D5D8F80420D8F8043042F27C
:102D80000046C3F3031302F00302D8F804700133C2
:102D9000C0F2F406032A04BF43F20066C0F26E16C6
:102DA000B6FBF3F2D8F80430C7F306277A43C3F32F
:102DB0004163022707EB4303B2FBF3F24BF20043FC
:102DC000C0F2C4439A4259D9D8F8002012F0F00F4B
:102DD00049D0890752D5A16800294FD143E000BFEF
:102DE000910305D40120BDE8F08700BF5105F9D556
:102DF000D8F8001001F00C0104293FD0D8F80010D9
:102E000001F00C01082939D0D8F8001001F00C01AC
:102E10000C2933D1D8F80410D8F8042042F2004726
:102E2000C2F3031201F00301D8F804300132C0F2FA
:102E3000F407032904BF43F20067C0F26E17B7FB23
:102E4000F2F1D8F80420C3F306235943C2F34162D8
:102E5000022303EB4202B1FBF2F14BF20042C0F25B
:102E6000C44291420AD9D8F80010082262F307112F
:102E70004FF00109C8F8001002E000BF4FF0000950
:102E8000D8F8001021F003010843C8F80000FEF74D
:102E9000E1FB064641F28837D8F80000616800F08F
:102EA0000C00B0EB810F07D0FEF7D4FB801BB842BB
:102EB000F2D90320BDE8F0872168880708D4B9F16A
:102EC000000F1ED0D8F8000020F0F00017E000BF7F
:102ED000480705D5D8F8000040F4E060C8F80000C5
:102EE000080706D5D8F80000072262F30D20C8F8BD
:102EF0000000D8F80000A26820F0F0001043C8F8E5
:102F00000000DAF8000000F00F00A8421BD9DAF840
:102F1000000020F00F002843CAF80000FEF79AFBDB
:102F2000064641F2883700BFDAF8000000F00F00D3
:102F3000A84207D0FEF78EFB801BB842F4D90320CD
:102F4000BDE8F0872168480707D5D8F80000E26897
:102F500020F4E0601043C8F80000080708D5D8F84E
:102F60000000216920F4605040EAC100C8F8000068
:102F7000D8F8000042F20041C0F2F40100F00C0069
:102F8000042808462DD0D8F8000000F00C000828CE
:102F900043F20060C0F26E1023D0D8F8002002F097
:102FA0000C020C2A1CD1D8F80420D8F8043002F006
:102FB0000302C3F30313D8F804700133032A08BFD4
:102FC0000146B1FBF3F0D8F80410C7F30627C1F3AC
:102FD00041610222784302EB4101B0FBF1F000E0D5
:102FE0000020D8F8001047F64E42C1F30311C0F696
:102FF0000002515C40F2280201F01F0120FA01F1A9
:1030000040F20000C2F200000068C2F2000211604B
:10301000BDE8F047FEF794BC40F2280041F20801F9
:10302000C2F20000C4F202010068096847F65E427D
:10303000C1F30221C0F60002515C01F01F01C8403B
:103040007047000040F2280041F20801C2F200007F
:10305000C4F202010068096847F65E42C1F3C2216A
:10306000C0F60002515C01F01F01C840704700002B
:1030700041F20C01C4F2020151F8040C42F2004288
:10308000C0F2F40200F00C000428104608BF70479C
:1030900051F8040C00F00C00082843F20060C0F264
:1030A0006E1025D051F8043C03F00C030C2B1CBF10
:1030B0000020704780B5D1F800C00B680CF0030CFD
:1030C000C3F3031E0B680EF1010EBCF1030F08BF22
:1030D00002460968B2FBFEF0C3F30623C1F3416167
:1030E0000222584302EB4101B0FBF1F0BDE8804001
:1030F00070470000002804BF012070472DE9F0410F
:1031000082B00446007841F20006C007C4F202060D
:103110001ED1207880073DD42078000764D4207821
:10312000400700F187802078800600F1D980E569AA
:10313000002D00F04282B06800F00C000C2840F036
:103140003181012D40F08E81012002B0BDE8F08177
:10315000B06800F00C01F068082961D0032281F00A
:103160000C0122EA00000844B0FA80F0400957D16F
:1031700061683068B1F5803F07D0B1F5A02F40F00D
:10318000E38040F480203060306840F4803030606C
:10319000E4E000BFB068F16800F00C00042871D0D2
:1031A00001F0030180F00C0081F002010844B0FA44
:1031B00080F0400966D1E1683068002900F0E080C5
:1031C00040F480703060FEF745FA054630684005EF
:1031D00000F10A81FEF73EFA401B0228F6D90320CF
:1031E00002B0BDE8F08100BF6169D6F89400002903
:1031F00000F0948040F00100C6F89400FEF72AFA2F
:10320000054600BFD6F8940080073FF588AFFEF76B
:1032100021FA401B0228F5D9032002B0BDE8F08155
:10322000306880037FF575AF606800287FF471AF68
:103230003EE000BFB06D5FEAC00808D4B06D40F05A
:103240008050B065B06D00F080500190019847F259
:103250000007C4F200073868C0052DD4386840F470
:1032600080703860FEF7F6F9054600BF3868C00583
:1032700022D4FEF7EFF9401B0228F7D9032002B051
:10328000BDE8F0813068400501D5E06880B1706824
:10329000216920F0FE4040EA0160706040F20000C9
:1032A000C2F200000068FEF74BFB00283FF434AF89
:1032B000012002B0BDE8F081A168D6F89000012994
:1032C00008D0052940F0AE8040F00400C6F8900018
:1032D000D6F8900040F00100C6F89000AEE000BFC4
:1032E000A169D6F89800002900F0868040F001001E
:1032F000C6F89800FEF7AEF9054600BFD6F898006C
:1033000080073FF514AFFEF7A5F9401B02284FF0E8
:103310000300F3D902B0BDE8F08100BF20F0010046
:10332000C6F89400FEF796F9054600BFD6F894005B
:1033300080077FF5F4AEFEF78DF9401B0228F5D922
:10334000032002B0BDE8F08120F4803030603068A6
:10335000002920F48020306000F0BE80FEF77AF96A
:10336000054600BF306880033FF5D3AEFEF772F923
:10337000401B6428F6D9032002B0BDE8F08100BFED
:1033800020F480703060FEF765F90546306840052E
:103390007FF5C2AEFEF75EF9401B02284FF0030036
:1033A000F4D9B7E7306820F080703060FEF752F94A
:1033B000022D05460CD100BF3068800140F1B88075
:1033C000FEF748F9401B02284FF00300F4D9A1E7AB
:1033D0003068800140F1EA80FEF73CF9401B02288A
:1033E0004FF00300F4D995E77068216920F0FE40A2
:1033F00040EA016070608FE620F00100C6F8980096
:10340000FEF728F9054600BFD6F8980080077FF53B
:103410008EAEFEF71FF9401B02284FF00300F3D9D0
:1034200078E700BF20F00100C6F89000D6F89000C1
:10343000002920F00400C6F890005DD0FEF70AF9DC
:10344000054641F2883700BFD6F89000800765D462
:10345000FEF700F9401BB842F6D9032002B0BDE8E0
:10346000F08100BFF068216A00F003028A427FF415
:103470001FAF626A6FF00F0300F0F00103EB02125E
:1034800091427FF415AFA16A00F4FE42B2EB012F26
:103490007FF40EAFE16A00F07842B2EBC16F7FF4C7
:1034A00007AF226B0023CFF6E07303EA025200F469
:1034B000C001A2F5001291427FF4FAAE616B4FF0A9
:1034C0007E4202EA016100F0C06001F17E41884263
:1034D0007FF4EEAE71E000BFFEF7BCF8054600BF1A
:1034E000306880037FF515AEFEF7B4F8401B642802
:1034F0004FF00300F4D90DE7FEF7ACF8054641F2B2
:10350000883700BFD6F89000800707D5FEF7A2F8ED
:10351000401BB8424FF00300F4D9FBE6B8F1000FAE
:103520003FF501AEB06D20F08050B065FBE500BF07
:10353000F06848F20C01C0F29F1104F1200700EA84
:10354000010C8ECF6FF00F00D4E90C5400EB021089
:103550000022CFF6E07241EA0C0102EA055208436C
:10356000A2F500124FF07E4540EA032005EA04650B
:10357000104305F17E4540EAC7602843F06030689B
:1035800040F080703060F06840F08070F060FEF7CE
:1035900061F80446306880010FD4FEF75BF8001B29
:1035A00002284FF00300F5D9B4E600BFF0684FF6EB
:1035B000FC71CFF6EE610840F060002002B0BDE87B
:1035C000F0810000002804BF01207047416A19B152
:1035D00000210161142104E04168B1F5827F02D02D
:1035E0001C2100224250B0B50025856290F85D1084
:1035F00029B980F85C50044600F056F820460221B4
:1036000080F85D100168D0F80CE00B68BEF5E06F43
:1036100023F040030B6098BF01254EF40063B3F51F
:10362000706F4FEA053C1CBF00258562D0E901544C
:10363000D0E9043205F4827504F404442C4403F008
:1036400002032344846902F00102C5691A4404F4A8
:1036500000731A4405F03803056A1A4405F0800324
:10366000856A1A4405F400531A430A600422436A27
:103670000EF4706502EA1442446B45EA0C0503F04F
:1036800010032A4304F008041A4322434A60CA691B
:1036900022F40062CA6100210122016680F85D20E7
:1036A000BDE8B04008467047B0B586B0006843F644
:1036B0000002C4F2000200219042CDE90411CDE9DC
:1036C0000211019138D043F20001C4F20101884295
:1036D00058D141F24C00C4F202004169022441F485
:1036E000805141614169002501F4805100910099A8
:1036F000016841F001010160016801F001010091E0
:103700000099016841F002010160006801A900F020
:1037100002000090009860200190052005904FF075
:1037200090400294CDE90355FDF7B4FE202001A995
:1037300031C104951DE000BF41F24C00C4F202000B
:10374000C26842F48042C260C26802F480420092C1
:10375000009A026842F002020260006800F0020073
:10376000009000984FF4604001900220CDE90201E2
:1037700004910520059040F20040C4F6000001A924
:10378000FDF788FE06B0B0BD411E0020B0EB116F02
:103790001CBF012070474EF21002CEF200025160B1
:1037A0004EF62351CEF20001F0230B7007219060FA
:1037B0001160704790F83C20012A04BF0220704736
:1037C000B0B5D1E90232D1E900CE22F47C5223F423
:1037D000705343EA020448F2FF73CEF6F0730EEA28
:1037E0000302224303F5006404EA0C0442EA040CD9
:1037F0000C6903F5C05222404C6942EA0C02224394
:1038000003F5605422400C6B03F5F04323401A4348
:103810008B6940F2000CCC69CEF6FF7C0CEA034CBD
:103820001443026843F20043C4F201039A4244EA9B
:103830000C0305D042F60044C4F20104A24217D1A1
:103840004FF6FF74CDF60F4403EA040ED1E9084C9D
:10385000D1E90A310025CDF6F04505EA035343EAE4
:103860000E0324F008552B432CF000552B430B433B
:103870000021536480F83C100020B0BD90F83C203B
:10388000012A4FF002024AD070B580F83D2002684C
:1038900043F2004C54689368C4F2010C42F6004EA7
:1038A0006245C4F2010E01D0724503D14D6824F483
:1038B00070042C434FF68F75CFF6FF550E682C40E1
:1038C00042F6FF35C4F201053443AA4254600FDCCE
:1038D000B2F1804F16D040F20046C4F20006B24268
:1038E00010D040F60006C4F20006B2420AD00EE044
:1038F000724507D044F20006C4F20106B24201D07C
:10390000624504D1896823F0800319439160012145
:10391000002280F83D1080F83C20BDE87040104641
:1039200070470000B0B586B0006840F2FF71C4F285
:10393000000188424FF000010591CDE90311CDE966
:10394000011133DCB0F1804F5AD040F20041C4F293
:103950000001884240F08A8041F24C00C4F202002B
:103960000168022441F0010101600168002501F0B5
:10397000010100910099016841F0020101600068B5
:1039800001A900F0020000900098102001904FF073
:1039900090400294CDE903550594FDF77BFD03208B
:1039A00001A931C1CDE9045459E000BF40F600013E
:1039B000C4F2000188423DD043F20041C4F201014B
:1039C000884253D141F24C00C4F20200016841F038
:1039D00004010160006800F004000090009840209D
:1039E0000190022002900020CDE903000420059000
:1039F00040F20040C4F6000000F5806033E000BFF4
:103A000041F24C00C4F20200016841F00101016082
:103A1000006800F00100009000980320019002204F
:103A200002900020CDE90300012005904FF0904066
:103A300019E000BF41F24C00C4F20200016841F0FD
:103A4000020101600068002100F00200009000986F
:103A5000C020019002200290CDE90311059040F2B0
:103A60000040C4F6000001A9FDF714FD06B0B0BD8A
:103A700090F83C30012B04BF022070474FEAB2029D
:103A8000052A00F2D3812DE9F041DFE812F00700AA
:103A900035018D00E1005100870100BF03681D6AF8
:103AA0001A6AA3F1804622F001021A621A465C6883
:103AB00052F818CF8F68A6F59636D1F800E025F0B9
:103AC00002054FEAB626072E45EA07050AD8012760
:103AD000B74017F0E50F1FBFCF6825F00C0527F0A2
:103AE00004073D43072E0BD8012707FA06F616F008
:103AF000E50F1FBFD1E9056724F4407434433C430C
:103B00004FF68C76CFF6FE760CEA060747EA0E07EC
:103B10005C609F614F6809695F631D629F6947F040
:103B200008079F619F6927F004079F6173E100BF49
:103B30000368D3F820C01A6AA3F1804722F48032C8
:103B40001A621A46A7F596375D6852F8508FD1F879
:103B500000E08E684FEAB727072F09D80124BC4040
:103B600014F0E50F1EBF4C6925F4803545EA0425A5
:103B70002CF4003747EA06474FF68C76CFF6FE76F0
:103B8000033606EA080646EA0E065D601E654E68C4
:103B900009699E641F621F6D47F008071F651F6D4E
:103BA00027F004071F6536E1036843F200461D6AEB
:103BB0001A6AC4F2010622F480721A621A46D3F815
:103BC00004C052F81CEFB3428E68D1F8008025F48F
:103BD000007545EA062505D042F60046C4F2010606
:103BE000B34207D1CE6840F2FF47360225F4406564
:103BF000BE433543A3F18046A6F596364FEAB62676
:103C0000072E0CD8012707FA06F616F0E50F1FBF9E
:103C1000D1E905672CF44054374344EA071C4FF6BA
:103C20008C74CFF6FE740EEA040747EA0807C3F85F
:103C300004C0DF614F680969DF631D62DF6947F017
:103C40000807DF61DF6927F00407DF61E3E000BFF9
:103C5000036843F200461D6A1A6AC4F2010622F4A0
:103C600080521A621A46D3F804C052F81C8FB3422D
:103C70008E68D1F800E025F4005545EA063505D0F8
:103C800042F60046C4F20106B34207D1CE6844F6BC
:103C9000FF77360325F44045BE433543A3F1804604
:103CA000A6F596364FEAB626072E0CD8012707FA56
:103CB00006F616F0E50F1FBFD1E905672CF4404466
:103CC000374344EA871C48F6FF44CFF6FF6404EA12
:103CD000080444EA0E27C3F804C0DF614F6809698D
:103CE0001F641D62DF6947F40067DF61DF6927F445
:103CF0008067DF618EE000BF036843F200461D6A03
:103D00001A6AC4F2010622F010021A621A465C68AE
:103D100052F818CFB3428E68D1F800E025F02005A4
:103D200045EA061505D042F60046C4F20106B34244
:103D300007D1CE686FF0400725F0C00507EA0616E8
:103D40003543A3F18046A6F596364FEAB626072EF0
:103D50000CD8012707FA06F616F0E50F1FBFD1E9C8
:103D6000056724F440643E4344EA860448F6FF466F
:103D7000CFF6FF660CEA060747EA0E275C609F61F4
:103D80004F6809699F631D629F6947F400679F61DF
:103D90009F6927F480679F613CE000BF0368D3F808
:103DA00020C01A6AA3F1804722F480121A621A46D0
:103DB000A7F596375D6852F8508FD1F800E08E680D
:103DC0004FEAB727072F09D80124BC4014F0E50FAC
:103DD0001EBF4C6925F4802545EA84252CF4001784
:103DE00047EA065748F6FF46CFF6FF6606F54076E7
:103DF00006EA080646EA0E265D601E654E680969F9
:103E0000DE641F621F6D47F400671F651F6D27F496
:103E100080671F6509021368194311600021BDE81E
:103E2000F041002280F83C20084670470121002222
:103E300080F83C2008467047002804BF01207047E6
:103E400010B5044690F83D0028B9002084F83C00E5
:103E5000204600F023F8022084F83D002068211D50
:103E600001F070FA012084F8480084F83E0084F8DC
:103E70003F0084F8400084F8410084F8420084F850
:103E8000430084F8440084F8450084F8460084F830
:103E9000470084F83D00002010BD000081B000689C
:103EA00040F2FF71C4F20001884215DCB0F1804F8E
:103EB0002AD040F20041C4F2000188423DD141F2D3
:103EC0005800C4F20200016841F00201016000687C
:103ED00000F002002FE000BF40F60001C4F2000134
:103EE00088421DD043F20041C4F20101884224D12E
:103EF00041F25800C4F20200816841F4005181602F
:103F0000806800F4005016E041F25800C4F202004C
:103F1000016841F001010160006800F001000AE061
:103F200041F25800C4F20200016841F0040101604E
:103F3000006800F004000090009801B07047000095
:103F400090F88410012904BF022070472421C0F892
:103F5000881001680A680B6822F0005223F0010300
:103F60000B60002343660A602021C0F8881080F8A7
:103F70008430002070470000704700007047000048
:103F800090F88420012A04BF02207047B0B5242293
:103F9000C0F888200268D0F864E0D2F800C0136846
:103FA000BEF1000F23F001031360936823F06063F8
:103FB00041EA0301916019D09368916847F6904EE9
:103FC000490FC0F6000E47F698451EF80140C0F6AE
:103FD0000005695CC3F34263E400B4FBF1F11EF831
:103FE0000340EB5CE500B5FBF3F301E001210123A5
:103FF000A0F86A102021A0F86830C2F800C0C0F80C
:104000008810002180F884100020B0BD90F8842032
:10401000012A04BF02207047B0B52422C0F88820CE
:104020000268D0F864E0D2F800C01368BEF1000F57
:1040300023F001031360936823F0604341EA030116
:10404000916019D09368916847F6904E490FC0F679
:10405000000E47F698451EF80140C0F60005695C61
:10406000C3F34263E400B4FBF1F11EF80340EB5CE0
:10407000E500B5FBF3F301E001210123A0F86A108C
:104080002021A0F86830C2F800C0C0F888100021D4
:1040900080F884100020B0BD704700007047000019
:1040A0007047000070B5026840F62F04D3691168AC
:1040B00096681C40202C0BD101F0200406F080559E
:1040C0002D1916D0416F61B3BDE87040084700BF9D
:1040D00040F60F052B420CD00125C1F2000506EA7F
:1040E000050C40F22015C0F200450D4015EB0C0503
:1040F00024D1C46EDD0615D5012C13D111F01005A5
:1041000010D0102111629168490661D4B0F85C109A
:10411000B0F85E20B0F85E30002B18BF914240F03E
:10412000518270BDDD0215D516F4800512D04FF412
:1041300080111162BDE87040FFF7B0BFDD0718BF06
:1041400011F4807540F020819D0706F0010E00F10A
:10415000278130E11A0606D501F0800206F4000638
:10416000921940F0AF825A0640F1028111F04002EC
:1041700000F0FE80016851E8001F026821F0400154
:1041800042E80013DBB1016851E8001F026821F02A
:10419000400142E8001393B1016851E8001F026832
:1041A00021F0400142E800134BB1016851E8001FC3
:1041B000026821F0400142E80013002BDAD12021EF
:1041C000C0F8881000218167BDE8704000F00ABC8B
:1041D000D0F880100A685368B0F85C4099B20029A2
:1041E00000F0B880A14280F0B580A0F85E30116880
:1041F000890600F1A38000BF016851E8001F026832
:1042000021F4807142E80013E3B1016851E8001F16
:10421000026821F4807142E800139BB1016851E803
:10422000001F026821F4807142E8001353B1016855
:1042300051E8001F026821F4807142E80013002B4E
:10424000DAD100BF016851E8021F026821F00101C4
:1042500042E80213BBB3016851E8021F026821F073
:10426000010142E8021373B3016851E8021F0268BA
:1042700021F0010142E802132BB3016851E8021F4B
:10428000026821F0010142E80213002BDAD11AE0A2
:10429000016851E8021F026821F0400142E8021360
:1042A000DBB1016851E8021F026821F0400142E8D9
:1042B000021393B1016851E8021F026821F0400126
:1042C00042E802134BB1016851E8021F026821F075
:1042D000400142E80213002BDAD12021C0F88C10F3
:1042E0000021C166016851E8001F026821F0100139
:1042F00042E80013DBB1016851E8001F026821F0B9
:10430000100142E8001393B1016851E8001F0268F0
:1043100021F0100142E800134BB1016851E8001F81
:10432000026821F0100142E80013002BDAD1D0F826
:10433000801004460846FDF721F820460221016757
:10434000B0F85C10B0F85E20891A89B2BDE8704000
:10435000FFF712BE8C427FF4E4AE126892067FF53E
:10436000E0AE02220267BDE87040FFF705BE00BF65
:104370001A0240F1B38111F0804200F0AF81BDE834
:104380007040FFF789BE00BF01251562D0F890503C
:1043900045F00105C0F890509D0706F0010E0AD5C2
:1043A000BEF1000F07D002241462D0F8904044F010
:1043B0000404C0F890405C070AD5BEF1000F07D096
:1043C00004251562D0F8905045F00205C0F89050D1
:1043D0001D070CD501F0200555EA0C0507D008256E
:1043E0001562D0F8905045F00805C0F890501D05B2
:1043F0000BD511F0806508D04FF400651562D0F838
:10440000905045F02005C0F89050D0F89050002D05
:104410003FF487AE9B060BD501F0200106F08053D8
:10442000C91805D0416F19B1044688472268204653
:10443000D0F89010926801F0280102F0400289182B
:1044400006D10446FFF72CFE0020C4F8900070BD92
:10445000016851E8001F026821F4907142E80013DE
:10446000DBB1016851E8001F026821F4907142E855
:10447000001393B1016851E8001F026821F49071A4
:1044800042E800134BB1016851E8001F026821F4B3
:10449000907142E80013002BDAD14FF6FE71CEF690
:1044A000FF7100BF026852E8022F03680A4043E828
:1044B0000226C6B1026852E8022F03680A4043E8A8
:1044C000022686B1026852E8022F03680A4043E8D8
:1044D000022646B1026852E8022F03680A4043E808
:1044E0000226002EDED1C16E012924D1016851E8D7
:1044F000001F026821F0100142E80013DBB10168DF
:1045000051E8001F026821F0100142E8001393B146
:10451000016851E8001F026821F0100142E8001311
:104520004BB1016851E8001F026821F0100142E818
:104530000013002BDAD12021C0F88C100021C166B5
:10454000026841679168490640F1C480016851E8FA
:10455000021F026821F0400142E80213DBB101684A
:1045600051E8021F026821F0400142E8021393B1B2
:10457000016851E8021F026821F0400142E802137D
:104580004BB1016851E8021F026821F0400142E886
:104590000213002BDAD1D0F88010002900F09A80A5
:1045A00045F2D962C0F60002044608468A63FCF769
:1045B0001DFF00283FF4B5ADD4F88000816BBDE845
:1045C00070400847891A00BF026852E8002F03684C
:1045D00022F4907243E80026DEB1026852E8002F10
:1045E000036822F4907243E8002696B1026852E80C
:1045F000002F036822F4907243E800264EB102684F
:1046000052E8002F036822F4907243E80026002E3F
:10461000DAD14FF6FE72CEF6FF7200BF036853E8A0
:10462000023F0668134046E80235C5B1036853E807
:10463000023F0668134046E8023585B1036853E837
:10464000023F0668134046E8023545B1036853E867
:10465000023F0668134046E80235002DDED12022D5
:10466000C0F88C200022C266426700BF026852E890
:10467000002F036822F0100243E80026DEB1026832
:1046800052E8002F036822F0100243E8002696B19A
:10469000026852E8002F036822F0100243E8002667
:1046A0004EB1026852E8002F036822F0100243E87E
:1046B0000026002EDAD1022289B20267BDE87040DE
:1046C000FFF75ABC816F00293FF42BADBDE8704065
:1046D000084700BFBDE87040FFF7E2BCDA017FF594
:1046E00020ADB1F1FF3FC8BF70BDBDE87040FFF71E
:1046F00045BC000010B5D0B10446D0F8880028B9F8
:10470000002084F88400204600F026F82420C4F815
:1047100088002068A16A026822F00102026011B1DB
:10472000204600F0AFFE204600F0DCFF10B1012073
:1047300010BD00BF2168486820F490404860886838
:1047400020F02A008860086840F0010220460A60D4
:10475000BDE8104000F00ABF10B598B00446002034
:104760001790CDE91500CDE9130002A84421FBF70D
:1047700009FF206844F6FF31C4F20001884243DD9E
:1047800044F60041C4F20001884200F0838043F601
:104790000001C4F20101884200F0B68048F2000135
:1047A000C4F20001884240F01B812020029002A840
:1047B000FEF77AF9002818BFFCF7E4F841F24C0044
:1047C000C4F20200016941F001010161016901F0D7
:1047D000010101910199016841F001010160006846
:1047E000022100F00100019001980C201491002199
:1047F0001390CDE91511179013A94FF09040FCF7D5
:1048000049FE18B010BD00BF44F20041C4F20001DF
:10481000884200F0AF8044F60001C4F200018842F3
:1048200040F0DE800420029002A8FEF73DF9002847
:1048300018BFFCF7A7F841F24C00C4F20200C168AF
:1048400041F48021C160C16801F480210191019986
:10485000016841F002010160006813A900F0020044
:10486000019001984FF440601390022014900020B2
:10487000CDE915000720179040F20040C4F6000073
:10488000FCF708FE272000210022FDF7ADF82720C5
:10489000A4E000BF0820029002A8FEF705F9002856
:1048A00018BFFCF76FF841F24C00C4F20200C16877
:1048B00041F40021C160C16801F400210191019916
:1048C000016841F004010160006813A900F00400D0
:1048D000019001984FF44060139002201490002042
:1048E000CDE915000520179040F20040C4F6000005
:1048F00000F58060FCF7CEFD342000210022FDF79A
:1049000073F834206AE000BF0120029002A8FEF78D
:10491000CBF8002818BFFCF735F841F24C00C4F280
:104920000200416941F480414161416901F48041E3
:1049300001910199016841F001010160006813A92A
:1049400000F00100019001984FF4C0601390022024
:1049500014900020CDE91500072017904FF09040EB
:10496000FCF798FD252000210022FDF73DF82520C9
:1049700034E000BF022402A80294FEF795F8002854
:1049800018BFFBF7FFFF41F24C00C4F20200C16800
:1049900041F40031C160C16801F400310191019915
:1049A000016841F002010160006813A900F00200F3
:1049B000019001981820CDE913040020CDE91500DD
:1049C0000720179040F20040C4F60000FCF762FD9B
:1049D000262000210022FDF707F82620FCF7F2FF31
:1049E00018B010BD70470000FEE7000010B58CB095
:1049F00041F2DC00C2F200004FF0A04100244FF46D
:104A00004032042380E816000121CDE90A44CDE9B3
:104A10000744CDE90544CDE90344CDE90144C0E9AB
:104A20000344C0E905438483016280F82440C0E95F
:104A30000B4480F83840C46380F84040FCF740FAEB
:104A4000002818BFFBF79EFF41F2DC00C2F2000015
:104A500009A90994FCF706F8002818BFFBF792FF94
:104A60000020CCF6843001900620029005200390AF
:104A70007F200490042005900020069041F2DC0085
:104A8000C2F2000001A9FCF749F8002818BFFBF7A3
:104A900079FF0CB010BD0000F0B587B0002641F2E0
:104AA0004C000696CDE90466CDE90266C4F2020028
:104AB000016840F6000441F0040101600168C4F699
:104AC000000401F00401019101990168002241F004
:104AD0002001016001684FF4604501F0200101915F
:104AE0000199016841F001010160016801F00101D3
:104AF00001910199016841F00201016000684FF4E1
:104B0000604100F00200019001982046FCF79CFDF6
:104B10000295012002ADCDE90306204629460596FF
:104B2000FCF7B8FC802002904FF488174FF09040BB
:104B30002946CDE90376FCF7ADFC41F20400CDE94E
:104B40000207A4F5806029460496FCF7A3FC07B091
:104B5000F0BD000080B541F2481045F20041C2F2BC
:104B60000000C4F2000148F2C2520023C4F2B202B3
:104B70004FF0010C80E80E10C0E90433C0E90633A1
:104B80000362FCF7B7FD002818BFFBF7FBFE41F2FC
:104B90004810C2F200000021FCF762FD002818BF97
:104BA000FBF7F0FE41F24810C2F200000021FCF7D2
:104BB0007DFD002808BF80BDBDE88040FBF7E2BE58
:104BC00080B541F29C1045F60001C2F20000C4F22B
:104BD000000148F2C2520023C4F2B2024FF0010CAD
:104BE00080E80E10C0E90433C0E906330362FCF725
:104BF00081FD002818BFFBF7C5FE41F29C10C2F2F0
:104C000000000021FCF72CFD002818BFFBF7BAFEBE
:104C100041F29C10C2F200000021FCF747FD002881
:104C200008BF80BDBDE88040FBF7ACBE80B541F257
:104C3000F01048F20001C2F20000C4F2000143F299
:104C4000243200234FF00C0CC0F2030280E80E0067
:104C5000C0E90333C0E905C3C0E908338362FFF745
:104C600049FD002818BFFBF78DFE41F2F010C2F29B
:104C700000000021FFF7CAF9002818BFFBF782FEE9
:104C800041F2F010C2F200000021FFF779F900288C
:104C900018BFFBF777FE41F2F010C2F20000FFF7F9
:104CA0004FF9002808BF80BDBDE88040FBF76ABE11
:104CB00010B541F2605043F20001C2F20000C4F2AC
:104CC00001014FF4827200234FF4407C4FF4007EC8
:104CD000102480E80E1007210822C0E90433C0E93F
:104CE00006E4C0E90833C0E90A31C0E90C32FEF736
:104CF00069FC002808BF10BDBDE81040FBF742BEAC
:104D000010B541F2C45043F60001C2F20000C4F2F3
:104D100000014FF4827200234FF4407C4FF4007E78
:104D2000102480E80E1007210822C0E90433C0E9EE
:104D300006E4C0E90833C0E90A31C0E90C32FEF7E5
:104D400041FC002808BF10BDBDE81040FBF71ABEAB
:104D500010B58AB041F228600024C2F200004FF082
:104D600080414FF0FF320894CDE90544CDE903447A
:104D7000C0E90014C0E9024204618461FFF75CF8F5
:104D8000002818BFFBF7FEFD41F22860C2F20000C8
:104D900007A907940994FEF771FD002818BFFBF7D7
:104DA000F1FD602000900020CDE90100049041F267
:104DB0002860C2F2000069460022FEF759FE002872
:104DC00018BFFBF7DFFD41F22860C2F20000694620
:104DD0000422FEF74DFE002818BFFBF7D3FD41F279
:104DE0002860C2F20000FEF79DFD0AB010BD000071
:104DF00010B58AB041F2746040F200410024C2F262
:104E00000000C4F200014FF6FF720894CDE905449A
:104E1000CDE90344C0E90014C0E9024204618461A1
:104E2000FFF70AF8002818BFFBF7ACFD41F27460E9
:104E3000C2F2000007A907940994FEF71FFD00289D
:104E400018BFFBF79FFD602000900020CDE9010016
:104E5000049041F27460C2F2000069460422FEF739
:104E600007FE002818BFFBF78DFD41F27460C2F207
:104E7000000069460822FEF7FBFD002818BFFBF77B
:104E800081FD41F27460C2F2000069460C22FEF717
:104E9000EFFD002818BFFBF775FD41F27460C2F208
:104EA0000000FEF73FFD0AB010BD000010B58AB04B
:104EB00041F2C06040F600010024C2F20000C4F2DA
:104EC00000014FF6FF720894CDE90544CDE9034493
:104ED000C0E90014C0E9024204618461FEF7ACFF3E
:104EE000002818BFFBF74EFD41F2C060C2F200007F
:104EF00007A907940994FEF7C1FC002818BFFBF727
:104F000041FD602000900020CDE90100049041F2B5
:104F1000C060C2F2000069460022FEF7A9FD002829
:104F200018BFFBF72FFD41F2C060C2F200006946D6
:104F30000422FEF79DFD002818BFFBF723FD41F278
:104F4000C060C2F20000FEF7EDFC0AB010BD000028
:104F500010B598B0002401A834211494CDE912446E
:104F6000CDE91044CDE90E44FBF70CFB41F20C7087
:104F700043F20041C2F20000C4F201014FF6FF7299
:104F8000C0E90014C0E90242C0E904448461FEF7AC
:104F900053FF002818BFFBF7F5FC41F20C70C2F27A
:104FA000000015A9CDE915441794FEF767FC002809
:104FB00018BFFBF7E7FC60200E9041F20C70002454
:104FC000C2F200000EA90022CDE90F44CDE9114440
:104FD000CDE91344FEF74CFD002818BFFBF7D2FCC7
:104FE0004FF40050CDE906044FF00070CDE90A04FB
:104FF00041F20C70C2F2000001A90594CDE903440E
:10500000CDE90144CDE90844CDE90C44FEF7D2FBDB
:10501000002818BFFBF7B6FC41F20C70C2F200008A
:10502000FEF780FC18B010BD80B541F6141044F6B0
:105030000041C2F20000C4F2000100234FF00C0C4A
:105040004FF4E13280E80E00C0E90333C0E905C344
:10505000C0E90733C0E90933FFF74CFB002818BF4C
:10506000FBF790FC41F61410C2F200000021FEF79D
:10507000CDFF002818BFFBF785FC41F61410C2F2E3
:1050800000000021FEF77CFF002818BFFBF77AFC28
:1050900041F61410C2F20000FEF752FF002808BFCC
:1050A00080BDBDE88040FBF76DBC000080B541F2DB
:1050B000587043F60001C2F20000C4F2010100235F
:1050C0004FF00C0C4FF4E13280E80E00C0E90333DE
:1050D000C0E905C3C0E90733C0E90933FFF70AFB9C
:1050E000002818BFFBF74EFC41F25870C2F20000D6
:1050F0000021FEF78BFF002818BFFBF743FC41F2AD
:105100005870C2F200000021FEF73AFF002818BFD5
:10511000FBF738FC41F25870C2F20000FEF710FFB6
:10512000002808BF80BDBDE88040FBF72BBC000015
:1051300080B541F2EC7044F20041C2F20000C4F2CA
:10514000000100234FF00C0C4FF4E12280E80E0028
:10515000C0E90333C0E905C3C0E90733C0E9093337
:10516000FFF7C8FA002818BFFBF70CFC41F2EC70FF
:10517000C2F200000021FEF749FF002818BFFBF72C
:1051800001FC41F2EC70C2F200000021FEF7F8FED3
:10519000002818BFFBF7F6FB41F2EC70C2F20000EA
:1051A000FEF7CEFE002808BF80BDBDE88040FBF7BB
:1051B000E9BB000080B541F6800044F60001C2F270
:1051C0000000C4F2000100234FF00C0C4FF4E13258
:1051D00080E80E00C0E90333C0E905C3C0E9073326
:1051E000C0E90933FFF786FA002818BFFBF7CAFBAE
:1051F00041F68000C2F200000021FEF707FF002800
:1052000018BFFBF7BFFB41F68000C2F2000000218F
:10521000FEF7B6FE002818BFFBF7B4FB41F680008E
:10522000C2F20000FEF78CFE002808BF80BDBDE87A
:105230008040FBF7A7BB000080B540F60C6040F251
:105240000801C2F20000C2F20001002201F0DAF807
:10525000002818BFFBF796FB40F60C6040F22C01CB
:10526000C2F20000C2F2000101F0F6FA002818BFF5
:10527000FBF788FB40F60C6040F25011C2F20000D0
:10528000C2F2000100F096FE002818BFFBF77AFB7F
:1052900040F60C60C2F2000001F0FEFA002808BFE0
:1052A00080BDBDE88040FBF76DBB0000FEE700005D
:1052B000FEE700007047000070470000FCF722BBCB
:1052C000B0B594B000240020CDE90A44CDE90844EB
:1052D000FDF758FB212006904FF480300790012005
:1052E00006210C9002200F9155210D900325CDE948
:1052F0001010CDE9120006A80E95FDF7FBFE28B1AF
:10530000EFF3108072B600BFFEE700BF0F20CDE9BB
:10531000010501A80421CDE903440594FDF7FAFC39
:1053200020B1EFF3108072B6FEE700BF14B0B0BD3D
:105330004EF68850CEF20000016841F47001016021
:105340007047000040F2FF7C0268C4F2000C604528
:1053500024DD40F60003C4F20003984227D043F254
:105360000043C4F20103984221D042F60043C4F244
:10537000010398421BD043F2FF33C4F20103984269
:105380001FDC604530DCB0F1804F47D040F2004375
:10539000C4F20003984241D044E000BFB0F1804F16
:1053A00005D040F20043C4F200039842E3D14B68B9
:1053B00022F070021A4343F2FF33C4F20103984211
:1053C000DFDD44F2FF33C4F2010398421ADC43F2FA
:1053D0000043C4F20103984220D044F20003C4F217
:1053E000010398421AD01DE040F60003C4F2000306
:1053F000984213D042F60043C4F2010398420DD004
:1054000010E000BF44F60003C4F20103984205D047
:1054100044F20043C4F20103984203D1CB6822F462
:1054200040721A4380B54B6922F0800E8A6843EAC5
:105430000E03D1F800C00360C262A0F18042A2F561
:1054400096324FEAB222072AC0F828C0BDE8804051
:1054500007D8012303FA02F212F0E50F1CBF096915
:105460000163012141610169C90708BF70470169F2
:1054700021F001010161704741F61410C2F20000F1
:10548000FEF710BE816A0A070CD4CA0715D18A0735
:105490001ED44A0727D4CA0630D48A0639D44A060D
:1054A00042D457E00268D0F838C0536823F4004370
:1054B00043EA0C035360CA07E9D00268D0F82CC055
:1054C000536823F4003343EA0C0353608A07E0D5A2
:1054D0000268D0F830C0536823F4803343EA0C03E9
:1054E00053604A07D7D50268D0F834C0536823F414
:1054F000802343EA0C035360CA06CED50268D0F875
:105500003CC0936823F4805343EA0C0393608A06FB
:10551000C5D50268D0F840C0936823F4005343EA2D
:105520000C0393604A0615D5D0F800C0436CDCF834
:105530000420B3F5801F22F4801242EA0302CCF863
:10554000042007D1DCF80420836C22F4C0021A4343
:10555000CCF80420090658BF70470168C06C4A683F
:1055600022F400221043486070470000B0B582B0BA
:1055700004460020C4F89000FCF76CF8216805464A
:105580000A68120737D56FF07E4C20464FF40011A1
:1055900000222B46CDF800C000F0F0F950B300BF58
:1055A000206850E8000F216820F0800041E80002E8
:1055B000DAB1206850E8000F216820F0800041E84F
:1055C000000292B1206850E8000F216820F08000AE
:1055D00041E800024AB1206850E8000F216820F03D
:1055E000800041E80002002ADAD10320202188222D
:1055F0006BE000BF2168086840075DD56FF07E4C06
:1056000020464FF4800100222B46CDF800C000F068
:10561000B5F9002850D000BF206850E8000F21687D
:1056200020F4907041E80002BAB3206850E8000FFF
:10563000216820F4907041E8000272B3206850E8BD
:10564000000F216820F4907041E800022AB320681E
:1056500050E8000F216820F4907041E80002002A11
:10566000DAD11AE0206850E8020F216820F001002A
:1056700041E80202DAB1206850E8020F216820F008
:10568000010041E8020292B1206850E8020F21684F
:1056900020F0010041E802024AB1206850E8020F00
:1056A000216820F0010041E80202002ADAD103203B
:1056B00020218C2209E000BF2020C4F88800C4F813
:1056C0008C00002170220020E166A150002184F8A6
:1056D000841002B0B0BD0000806A0021A0F85E1006
:1056E000FEF7DEBC70B5054605F108041ECC006867
:1056F000194341EA0403EE69046846F6F311CCF657
:10570000FF712140194331430160416848F2000CA8
:1057100021F4405111434160AA69C4F2000C604574
:105720001CBF296A0A4381684FF2FF43C1F2FF138D
:10573000194011438160C16AD5F824E021F00F01BE
:1057400041EA0E01C16244F6FF31C4F20001884211
:105750004FF0100314DD44F60041C4F2000188420A
:1057600022D0604528D043F60001C4F201018842EE
:1057700038D141F28801C4F202010B687BA22DE00E
:1057800044F20041C4F2000188421DD044F60001F9
:10579000C4F20001884225D141F28801C4F202011D
:1057A00009680B0916E000BF41F28801C4F202014A
:1057B00009688B090EE000BF41F28801C4F20201C2
:1057C00009688B0A06E000BF41F28801C4F20201B9
:1057D00009688B0847F68042C0F6000203F0030117
:1057E00052F82130604542F20040C0F2F40015D07A
:1057F000B6F5004F22D1082B4FF0010100F2AD8029
:10580000DFE803F0065C74AB64ABABAB720000BFC7
:10581000FDF702FC002840F05D809AE0082B4FF075
:10582000010100F29A80DFE803F0059825981B98A3
:1058300098982300FDF7F0FBB0B98AE0082B4FF0F1
:10584000010100F28A80DFE803F0053D6F88498896
:1058500088886D00FDF7E0FB002842D179E000BFA9
:10586000FDF706FC002874D0D5F824E002E000BF64
:105870004FF4004047F66641C0F6000131F81E10B3
:105880006A68B0FBF1F002EB420188424FF001017F
:1058900063D31303984260D8010E000210EB52004C
:1058A00041F100010023FAF745FD4FF60052A0F543
:1058B0004071C0F20F02914249D34DE0FDF7C2FBA7
:1058C00040B946E0FDF7BEFB58B942E0FDF7D0FB1A
:1058D00000283ED0D5F824E008E000BFFDF7C8FB63
:1058E000B8B3D5F824E01FE04FF4004047F6664116
:1058F000C0F6000131F81E106A68B0FBF1F05108E3
:1059000001EB4000B0FBF2F04FF6EF72A0F1100196
:10591000914221D84FF6F0710140C0F34200084493
:1059200015E000BF4FF4004047F66641C0F60001A5
:1059300031F81E104FF6EF72B0FBF1F0696800EB22
:105940005100B0FBF1F0A0F11001914204D8296898
:10595000C860002101E000BF01214FF00110A866DE
:10596000002208466A67AA6770BD00BF01000000F8
:105970000400000002000000080000002DE9F041D2
:10598000804600681546C2690E461140891BB1FA6F
:1059900081F14909A94223D1069C2CB3611C29D16C
:1059A000C1693140891BB1FA81F14909A94217D176
:1059B000C1693140891BB1FA81F14909A9420FD16E
:1059C000C1693140891BB1FA81F14909A94207D166
:1059D000C1693140891BB1FA81F14909A942DFD07F
:1059E0000020BDE8F08100BFFBF734FE0320BDE8D6
:1059F000F08100BF1F4607E0C0693040801BB0FA4D
:105A000080F04009A842EBD1FBF724FEC01BA04266
:105A100000F2AE80D8F8000001684907ECD5402EAE
:105A2000EAD0802EE8D0C169090700F1A580C169DC
:105A30000905E1D54FF400610162D8F8000050E893
:105A4000000FD8F8001020F4907041E800020AB36B
:105A5000D8F8000050E8000FD8F8001020F490703B
:105A600041E80002B2B1D8F8000050E8000FD8F8C1
:105A7000001020F4907041E800025AB1D8F80000FC
:105A800050E8000FD8F8001020F4907041E80002B0
:105A9000002AD2D14FF6FE70CEF6FF70D8F8001073
:105AA00051E8021FD8F80020014042E80213F3B188
:105AB000D8F8001051E8021FD8F80020014042E851
:105AC0000213A3B1D8F8001051E8021FD8F8002043
:105AD000014042E8021353B1D8F8001051E8021F08
