:020000040800F2
:10000000905D002091030008FDA70008B56C000872
:10001000ED9D00084D19000889FB00080000000054
:1000200000000000000000000000000089AF000890
:10003000D91B000800000000BDAE000819B0000880
:10004000AB030008AB030008AB030008AB030008D8
:10005000AB030008AB030008AB030008AB030008C8
:10006000F51B0008AB030008AB030008AB03000856
:10007000AB030008AB030008AB030008AB030008A8
:10008000AB03000800000000AB030008AB0300084E
:1000900045FA0008AB030008AB030008AB030008F7
:1000A000AB030008AB030008AB030008AB03000878
:1000B000AB030008AB030008AB030008AB03000868
:1000C000AB030008AB030008AB030008AB03000858
:1000D000AB03000841C4000851C4000861C4000813
:1000E000AB030008AB030008AB030008AB03000838
:1000F000AB030008AB030008AB03000800000000DE
:1001000000000000AB03000800000000AB03000883
:1001100099B9000800000000AB030008AB03000819
:10012000AB030008AB030008AB030008AB030008F7
:10013000AB0300080000000000000000AB03000853
:10014000AB030008AB030008000000000000000043
:10015000000000000000000000000000000000009F
:10016000000000000000000000000000AB030008D9
:10017000AB030008000000000000000000000000C9
:1001800000000000AB0300080000000000000000B9
:10019000000000000000000000000000000000005F
:1001A0000000000000000000AB030008AB030008E3
:1001B000AB030008AB030008AB030008000000001D
:1001C00000000000AB030008000000000000000079
:1001D000AB030008AB03000800F002F800F0C8F819
:1001E00014A696E8000CB244B344DA4501D100F0FD
:1001F000BFF8BAE80F000FA696E83000A5EB04059B
:1002000004EB0607AAEB0704A7F101074FEA15154F
:100210004FEA3414A4F10104AC4201D300F0A8F871
:1002200013F0010F18BFFB1A43F0010300F001F8AF
:10023000DBE71847ECA301000CA401000A444FF0CF
:10024000000C10F8013B13F0070408BF10F8014B35
:100250001D1108BF10F8015B641E05D010F8016B7A
:10026000641E01F8016BF9D113F0080F1EBF10F8DE
:10027000014BAD1C0C1B09D16D1E58BF01F801CB01
:10028000FAD505E014F8016B01F8016B6D1EF9D584
:100290009142D6D37047000070470000002300242D
:1002A00000250026103A28BF78C1FBD8520728BF86
:1002B00030C148BF0B6070476E2900F0F98170298A
:1002C00000F03B83662919F0B687652919F0B387DA
:1002D000672919F0B087612919F0AF8703681B0AF5
:1002E00028BF41F08001692900F0A681642900F04F
:1002F000A381752900F0A0816F2900F0C9827829B7
:1003000000F00783E92900F06382E42900F06082AD
:10031000F52900F05D82EF2900F0C682F82900F08F
:1003200006830368DB0928BF41F08001632901F0DF
:100330007380732901F07880E32901F08380F32929
:1003400001F08880002070471FB519F062FF01F0AE
:100350000DF904000020002119F09AF8401C60609B
:100360000020002119F07EF8E0601FBD10B510BD1F
:1003700001F0CEF81146FFF7E7FF16F023FF01F07A
:10038000ABF903B4FFF7F2FF03BC01F0EFF9000093
:100390000948804709480047FEE7FEE7FEE7FEE719
:1003A000FEE7FEE7FEE7FEE7FEE7FEE70448054955
:1003B000054A064B70470000A1B00008D9010008AB
:1003C000902D0020905D0020903D0020903D002069
:1003D00053EA020C00F069802DE9F04B4FF0000663
:1003E000002B1FBFB3FA83F503FA05F424FA05F6D0
:1003F0005E4012BF1643B2FA82F502FA05F4C5F167
:1004000020051EBF22FA05FC44EA0C04203556EAFA
:10041000044C4FEA144418BF641C4FF000084FF01E
:100420000009904271EB030C39D3002919BFB1FACE
:1004300081F701FA07F6B0FA80F700FA07F6C7F17C
:1004400020071EBF20FA07FC46EA0C062037B6FB41
:10045000F4FCA7EB0507103F07F01F0BCBF12006BC
:100460002CFA06F60CFA0BFB44BFB3460026202FED
:10047000A4BF5E464FF0000B5BEA060C08BF4FF0CE
:10048000010B19EB0B0948EB0608ABFB027C06FBE2
:1004900002CC0BFB03CCC01B71EB0C01C1E70B467C
:1004A000024641464846BDE8F08B13B5084318BFE5
:1004B0004FF0FF300146AFF30080BDE81C407047AD
:1004C0000FB41CB5084B06AA7B44694600900598FA
:1004D00000F007F904460020694600F015F92046AF
:1004E0001CBC5DF814FB00003D02000001B500F0EB
:1004F000F3FA01BD01B501F0FF03114643EA0322FF
:1005000042EA024200F02FFB01BD4FF0000200B5AD
:10051000134694469646203922BFA0E80C50A0E826
:100520000C50B1F12001BFF4F7AF090728BFA0E8D4
:100530000C5048BF0CC05DF804EB890028BF40F8A0
:10054000042B08BF704748BF20F8022B11F0804FE2
:1005500018BF00F8012B704770477047704710B5FF
:1005600000F022FB006810BD10B5044600F01CFB33
:10057000046010BD70B5044685690068C10601D5E8
:10058000302600E02026C00707D070BDD4E9012145
:1005900030469047206A401C20626D1EF6D570BD23
:1005A00070B5044685690078C00707D170BDD4E9ED
:1005B000012120209047206A401C20626D1EF6D544
:1005C00070BD09684A0501D540B27047C905FCD520
:1005D00000B2704709684A0501D5C0B27047C90525
:1005E000FCD580B2704770B50C460546012A05D08F
:1005F0002878800600D5EA69002302E0012305E09F
:100600005B1C934202D2E05C0028F9D1A869E6188D
:10061000C01AA861286A184428622846FFF7AAFF72
:1006200004E0D5E9012114F8010B9047B442F8D356
:100630002846FFF7B5FF70BD2DE9F04106460024BE
:1006400010687529314616A510D0FFF7BAFF0028AB
:1006500002DA404213A507E031688A0701D512A5E6
:1006600002E0490704D511A5012401E0FFF7B2FF1C
:1006700000210A2206F1240709E0B0FBF2FCB0FBDE
:10068000F2F302FB1C00303078541846491C002855
:10069000F3D123462A463046BDE8F04100F0CDBAFA
:1006A000000000002D0000002B00000020000000D2
:1006B00011680268006A530501D508700AE0D30585
:1006C00001D5088006E0130603D5C217C1E9000270
:1006D00000E008600120704701694A1C0261087847
:1006E000704700B58FB0CDE9013100210591054972
:1006F0007944CDE903101146684600F029F90FB09E
:1007000000BD0000E5FFFFFF0A6802F8010B0A6068
:10071000704700002DE9FF5F15468A460446DFF862
:10072000AC80F8440027D8E900103E46CDE900101F
:1007300010E03AF816106A4602A800F08FFE411C3D
:1007400007D02178890603D5E269391891420DD87E
:100750000744761C2078800602D5E069B84205DDA2
:10076000AE42E6DB3AF816000028E2D1A069C01BD1
:10077000A0612046FFF7FEFED8E90010CDE9001089
:10078000002017E03AF818106A4602A800F066FE4A
:10079000B0F1FF3F81460BD000250DF1080B05E0BD
:1007A000D4E901211BF8050090476D1C4D45F7D396
:1007B00008F10100B0428046E4DB206A3844206240
:1007C0002046FFF7EDFEBDE8FF9F00001A9B0100E9
:1007D0002DE9F0418046D21D22F007020025D2E922
:1007E0000002F52915A614D0011E72F1000106DAE7
:1007F0000023D0EB030063EB020211A608E0D8F857
:1008000000108B0701D50FA602E0490701D50EA6FF
:1008100001251146002408F1240704E000F0C8F97E
:1008200030323A55641C50EA0102F7D12B46324669
:1008300021464046BDE8F04100F0FFB9000000004D
:100840002D0000002B0000002000000030B400212B
:1008500000F1240408E002F00705D208303542EA2E
:100860004372DB086554491C52EA0305F3D104685E
:10087000002310A2250708D504F020040C4304D05F
:10088000C46901230CA2641EC46130BC00F0D5B958
:1008900010B5044621461068FFF79CFE024620462C
:1008A000BDE810400023D1E7D21D22F00701D1E9B5
:1008B0000023CBE70000000030000000F0B40D463C
:1008C0000188090502D5214C7C4402E01F4C7C4480
:1008D0000E34002100F1240608E002F00F0712098F
:1008E000E75D42EA03721B097754491C52EA030789
:1008F000F3D102780023120704D5702D06D009B178
:10090000022311342246F0BC00F097B901231034C1
:10091000F8E770B504460D4621461068FFF75AFE09
:10092000024629462046BDE870400023C6E7D21D96
:1009300022F00703D3E90023C0E70368126843F0FD
:10094000200303600823C3610023B7E77C990100FB
:100950002DE9F05F894604464FF0000ADFF874B1D4
:10096000FB44C0F820A02046E1688847002874D0E6
:10097000252806D0D4E901219047206A401C206236
:10098000F1E700265F462046E168884720280546B3
:1009900007DB312D05D2781910F8200C08B1064379
:1009A000F1E7B00701D526F00406C4F81CA0002723
:1009B000C4F818A02A2D09D0284618F09DFC38B399
:1009C00004EB8708303DC8F8185019E059F8041BAB
:1009D000204604EB87029161E1688847012F0546B4
:1009E00018D1E069002820DA26F020061DE0D8F8AA
:1009F000180000EB800005EB40003038C8F8180004
:100A00002046E1688847054618F076FC0028EED1BC
:100A1000012F0AD02E2D08D12046E16888477F1C7F
:100A20000546022F46F02006C4DBA069002803DA41
:100A3000404246F00106A061F00701D026F0100602
:100A40006C2D0BD0682D09D04C2D39D06A2D35D0A6
:100A5000742D35D07A2D33D016E038E0E1682F467A
:100A600020468847B842054609D16C2F26D04FF45E
:100A70008060E168064320468847054604E06C2F05
:100A80001AD04FF4807006430DB3A5F14100192828
:100A900002D8203546F400664A462946204626609C
:100AA0004E46FFF709FC80B101280BD0F61D26F059
:100AB000070000F1080956E74020E4E78020D8E766
:100AC0000020D6E706F104094DE7284652E7206AE0
:100AD000BDE8F09F0C990100032A40F2308010F02D
:100AE000030C00F0158011F8013BBCF1020F6244C9
:100AF00098BF11F801CB00F8013B38BF11F8013B5A
:100B0000A2F1040298BF00F801CB38BF00F8013B06
:100B100011F0030300F0C684083AC0F0088051F8D1
:100B2000043B083A51F804CBA0E80810F5E7121D81
:100B30005CBF51F8043B40F8043BAFF30080D207A0
:100B400024BF11F8013B11F801CB48BF11F8012B6C
:100B500024BF00F8013B00F801CB48BF00F8012B8F
:100B600070474FF000020429C0F0128010F0030C0F
:100B70003FF4CDACCCF1040CBCF1020F18BF00F86F
:100B8000012BA8BF20F8022BA1EB0C01FFF7BFBC83
:100B90005FEAC17C24BF00F8012B00F8012B48BF9D
:100BA00000F8012B7047000000487047E40900205E
:100BB00030B5B0F10A0271F100034FEA900E4EEA2F
:100BC000817EB0EB0E0061EB91014FEA101E4EEA00
:100BD000017E10EB0E0041EB11114FEA102E4EEA90
:100BE000016E10EB0E0041EB11214FEA104E4EEA60
:100BF000014E10EB0E0041EB1141401841F1000194
:100C00004FEAD00040EA41704FEAD1014FEA810437
:100C100044EA907410EB800544EB01046D1944EB39
:100C20000404521BA3414FF0000348BF0A3200D511
:100C300030BD401C41F1000130BD2DE9F0470D46AB
:100C400099469246044600F124080168880604D5B6
:100C5000E06921F01001216000E00120A84201DDDF
:100C6000471B00E00027A1697A1902EB0900081A66
:100C7000A0612078C00602D42046FFF77BFC002646
:100C800008E0D4E901211AF806009047206A401CC8
:100C9000761C20624E45F4DB2078C0060AD520463B
:100CA000FFF768FC06E0D4E9012130209047206A74
:100CB000401C2062381EA7F10107F4DC07E0D4E9EC
:100CC000012118F805009047206A401C2062281E68
:100CD000A5F10105F3DC2046FFF762FC2078000651
:100CE00002D50220BDE8F0870120FBE72DE9FF4F88
:100CF0000C461E464FF0FF378BB0D2E90001DDF8FD
:100D000060800A908A46C1F30A5505B93D46002124
:100D100008464FF00000BAF1000F00F4400005DA79
:100D200000EB80004FF4400101EA50004FEA905977
:100D3000B9F1010F00DDB9460A9850EA4A000ED019
:100D400044F61050A5F2FF3545432F14B8F1000FBB
:100D50001ED07542291E1EDDC9F100021CE0B8F14B
:100D6000010F4FF0000001D0302103E0F24305E015
:100D70002154401CB042FBDB3046002200212154AC
:100D80000B99C1F80880C1E900200FB0BDE8F08FD1
:100D9000BD1B6D1CDEE74A4600DA694206A800F07A
:100DA00029FC06AB93E8070003AB83E80700504635
:100DB0000A9916F0ABFD8DE80700A0F500501F382A
:100DC00000900398002D0ADD42F21F014A460844B4
:100DD000002303A90390684617F014F809E0A0F572
:100DE00000504A461F38002303A90390684617F0B5
:100DF0001EF88DE807000004000C03D04FF0FF3010
:100E0000410800E01046B8F1000F03D00022009224
:100E100015461EE0751E05D4FFF7CAFE3032625536
:100E20006D1EF9D5B3460122084302D000227F1C73
:100E300004E02078302801D100227F1E002A099783
:100E400084D01DE0112D07DAFFF7B2FE3032625573
:100E50006D1C50EA0102F5D1084302D00098C8B1D8
:100E60000EE00021681E05E0235C625C635422549E
:100E7000401E491C8142F7DBAB46A81B401E09906F
:100E8000002004F80B000B98099AC0F80880C0E90C
:100E9000002B7AE711264FF0000857E72DE9F04FB5
:100EA00088460446D21D22F0070191B0D1E9000125
:100EB000CDE90A0117F0F2F802460B98C00F01D0F5
:100EC0002D2007E02068810701D52B2002E020219A
:100ED00001EAC000032A099001D0072A05DB034676
:100EE0004146204600F046FB0BE12078800601D504
:100EF000E06900E00620B8F1650F814606D0B8F140
:100F0000660F18D0B8F1670F70D131E00020B9F149
:100F1000110F009001DB112301E009F101030AAA7E
:100F200001A90CA8FFF7E2FEDDE90C70002609F12B
:100F30000105834647E001204B4600904FF00047F3
:100F40000AAA01A90CA8FFF7D1FEDDE90DB00C99A2
:100F50005D46002610B909F101000D18B9EB050036
:100F600003D4C0F1FF3609F10105A5EB09002BE020
:100F7000B9F1010F01DA4FF001090020B9F1110FA9
:100F80000090484601DD112300E003460AAA01A9AA
:100F90000CA8FFF7ABFEDDE90C704D46002683463A
:100FA000207800070AD4AB4500DA5D4601A8012D80
:100FB00004DD411911F8011C302907D04F4502DA30
:100FC00017F1040F04DA012082460FE06D1EEEE7F0
:100FD000002F02DCED1B3E4403E0781CA84200DD3C
:100FE0007D1CB81B00F1010A4FF000472078000774
:100FF00003D4AA4501DB4FF0FF3A0021B7F1004FBF
:101000000DF143088DF8431024D002202B23002F2C
:1010100001DA7F422D230A21021EA0F1010000DC2B
:101020005FB197FBF1FC97FBF1F201FB1C7C1746CB
:101030000CF1300C08F801CDEEE7A8F101000370C7
:101040002188090501D5452100E06521A0F10108AD
:1010500000F8011C09980FA9A1EB0807FF1D00B1BA
:101060000120411901EBEA70A1693844081A401EB9
:10107000A0612078C00602D42046FFF77BFA0998C9
:1010800028B1D4E901219047206A401C20622078D1
:10109000C00622D52046FFF76DFA1EE0002E04DBC5
:1010A000B34502DD01A8805D00E03020D4E90121D4
:1010B0009047206A401C2062761CAAF101005FEA7A
:1010C000000A0AD100F052FAC0680168405CD4E915
:1010D00001219047206A401C2062281EA5F10105CD
:1010E000DCDC07E0D4E9012118F8010B9047206A05
:1010F000401C2062381EA7F10107F3DC2046FFF7F1
:101100004FFA032011B041E62DE9F04F04460D4699
:10111000D21D22F0070089B0D0E900974846394631
:1011200016F0BCFF0246F80F01D02D2307E020681F
:10113000810701D52B2302E0202101EAC0038DF8AD
:1011400020300BB1012000E00020032A824601D0AC
:10115000072A04DB2946204600F00CFA3FE12078FC
:10116000800601D40D2500E0E569C7F30A560D2D70
:1011700049DA00214FEA175B08464FF00000002FC4
:1011800000F4400007DA00EB80004FF4400100EB70
:10119000D07001EA60008115012901DD4FF0FF31B7
:1011A00000224FEA850CBCF1180F06D31346ACF1B0
:1011B00018004FF08052C24003E04FF4801323FA2E
:1011C0000CF30CF10C0CBCF1200F04D3ACF1200C8F
:1011D00009FA0CF001E007FA0CF000294FF0004882
:1011E00001DD18B90FE00ED140450CD319EB02090F
:1011F0005F4121B9404502D19F4329EA0209BBEB77
:10120000175F00D0761C2088000502D57B48784403
:1012100002E07A487844193808AA302302F80A30E4
:10122000037C0AF10101002E0AF1020A53546A46B6
:1012300002DC4FF0300101E04FF031014FF00108C6
:101240008DF8001002D0A6F2FF3603E059EA4701FC
:1012500000D06B4E002D02DC2178090704D54FF039
:1012600002082E218DF80110C44600210BE0C7F3BF
:1012700003433F01C35C491C6D1E02F80830052979
:1012800008F1010801DA002DF1DC00210CE000EB8F
:101290001973491C1B786D1E082902F808304FEAA3
:1012A000091908F1010801DA002DF0DC21688B062C
:1012B00002D516E0A8F10108E04505DD02EB0803C0
:1012C00013F8013C302BF5D0B8F1000F09DD02EB2B
:1012D000080313F8013C2E2B03D1090701D4A8F110
:1012E0000108002D05DD3E2102F808106D1E08F1F1
:1012F0000108407C002E02F8080008F1010804DA19
:101300002D20764202F8080002E02B2002F80800A7
:101310000A214FF47A70864208F101080BDB96FB34
:10132000F0F3303302F8083096FBF0F308F10108CF
:1013300000FB136601E0642E0CDB642096FBF0F3E7
:10134000303302F8083096FBF0F308F1010800FB97
:10135000136601E00A2E06DB96FBF1F0303002F84E
:10136000080008F1010896FBF1F001FB1060303035
:1013700002F80800A16908F1010808EB050202EB78
:101380000A00081AA0612078C00602D42046FFF7A0
:10139000F1F8216A08AE01EB0A00206204E0D4E90A
:1013A000012116F8010B9047BAF1010AF7D2207813
:1013B000C00602D52046FFF7DDF86E4609E016F8B4
:1013C000010B3E280FD0D4E901219047206A401C30
:1013D0002062B8F10108F2D22046FFF7E1F809B027
:1013E0000320BDE8F08F206A2844206203E0D4E99E
:1013F0000121302090476D1EEBD3F8E749910100A1
:1014000002FCFFFF10B5436913B1AFF3008001E0A8
:10141000FFF7E9F8012010BD127800F124010A70ED
:1014200000224A700122EDE711684FF0FF32E9E730
:1014300010B5436913B1AFF3008001E0FFF76AF91B
:10144000012010BD128800F1240182840022C28490
:101450000122EDE711684FF0FF32E9E72DE9F04195
:1014600016460C46054600F079F8036893F801012A
:10147000012807D0FF2C12D8185D80B101202C70F4
:10148000BDE8F081D3F807013246214603F2071385
:10149000C7182846BC46BDE8F041002360474FF01E
:1014A000FF30EDE710B5203AC0F00B80B1E81850DE
:1014B000A0E81850B1E81850A0E81850203ABFF43E
:1014C000F5AF5FEA027C24BFB1E81850A0E81850DD
:1014D00044BF18C918C0BDE810405FEA827C24BF31
:1014E00051F8043B40F8043B08BF7047D20728BFBF
:1014F00031F8023B48BF11F8012B28BF20F8023B0E
:1015000048BF00F8012B704700487047E4090020ED
:101510007546FFF7F9FFAE4605006946534620F0D1
:101520000700854618B020B5FEF740FFBDE8204013
:101530004FF000064FF000074FF000084FF0000B8F
:10154000AC46ACE8C009ACE8C009ACE8C009ACE8FE
:10155000C00921F007018D467047000010B500F06A
:1015600005F8001D10BD00BF297F0100004870472D
:10157000040A00202DE9F0411F46044603260168B5
:10158000072A01F4006004DB08B116A505E016A5E2
:1015900003E008B115A500E015A521F010002060BA
:1015A000A069C01EA0610FB1401EA0612046FEF7D9
:1015B000E1FF4FB1D4E9012138469047206A401C31
:1015C0002062C01C206206E0206AFAE7D4E901210B
:1015D00015F8010B9047761EF8D22046FEF7E0FF83
:1015E000BDE8F0814E414E006E616E00494E4600EE
:1015F000696E66002DE9F047814616468AB0354887
:1016000078440DC88DE80D0032487844801C03AC46
:101610000DC884E80D0041F69B300844372190FB4B
:10162000F1F290FBF1F5A5F1800501FB12041B3CE2
:1016300002D56442012000E00020DFF898A0804637
:101640000027FA44AAF1BE0A0EE0E0070AD03246AB
:10165000684607EB470101230AEB810116F0E7FB1F
:101660008DE8070064107F1C002CEED1194F7F44D9
:10167000AE3F19E0E80715D007EB04100DF1180A8A
:1016800090E80E008AE80E00C068F04201D1981977
:1016900008903246012306A903A816F0C8FB03AB45
:1016A00083E807006D10641C002DE3D14FF00103A7
:1016B00032466946B8F1000F03A802D016F0A2FB2B
:1016C00001E016F0B4FBC9E90001C9F808200AB02E
:1016D000BDE8F087E88D010010B50446AFF3008047
:1016E0002046BDE81040FEF74CBE000000000000A0
:1016F00030B44FF0013C50F8042B51F8043BCCFAC5
:1017000052F4D51A20D1FCB950F8042B51F8043BFF
:10171000CCFA52F4D51A17D1B4B950F8042B51F8B9
:10172000043BCCFA52F4D51A0ED16CB950F8042B04
:1017300051F8043BCCFA52F4D51A05D1002CDAD07A
:1017400030BC4FF00000704729BAB1FA81F111F0B6
:101750001801D1F120008440F2D1CA40CB4012F0F0
:10176000FF0213F0FF0330BCD01A70470149182064
:10177000ABBEFEE7260002007047000080B500F017
:1017800047FF80BD80B582B00020019040F6183040
:10179000C2F200000068D8B1FFE740F61831C2F28B
:1017A000000108680138086088B9FFE741F63C206D
:1017B000C2F20000009005F07FFA009800F0CCFF24
:1017C00020B1FFE76FF007000190FFE7FFE7FFE7B9
:1017D000019802B080BD000080B582B00020019069
:1017E00041F63C21C2F2000145F20040C4F2000083
:1017F000086040F61832C2F200021068411C116005
:1018000088BBFFE741F63C20C2F2000000F0DAFF9F
:1018100040BBFFE741F63C20C2F2000005F068FA49
:101820000198F0B9FFE741F63C20C2F2000007F052
:1018300005FF20B1FFE76FF00700019010E041F6CF
:101840003C20C2F20000002100F0E8FE20B1FFE7DA
:101850006FF00700019002E000200190FFE7FFE732
:10186000FFE7FFE7FFE7019802B080BD80B588B0D1
:10187000ADF81E00ADF81C100692ADF81630002031
:101880000490BDF81E10BDF81C200698BDF816C0C7
:101890006B464FF4805EC3F808E0C3F804C01860DC
:1018A00041F63C20C2F20000012301F01DF890B186
:1018B000FFE741F63C20C2F2000000F07DFF042863
:1018C00004D1FFE76FF06500049003E06FF00300C0
:1018D0000490FFE7FFE7049808B080BD80B588B0AA
:1018E000ADF81E00ADF81C100692ADF816300020C1
:1018F0000490BDF81E10BDF81C200698BDF816C057
:101900006B464FF4805EC3F808E0C3F804C018606B
:1019100041F63C20C2F20000012301F02BF990B106
:10192000FFE741F63C20C2F2000000F045FF04282A
:1019300004D1FFE76FF06500049003E06FF003004F
:101940000490FFE7FFE7049808B080BDFFE7FEE7DB
:1019500084B08DF80F000291ADF806209DF80F00BD
:101960000146009123281DD80099DFE801F01213E9
:101970001415161B1B1B1B1B1B1B1B1B1B1B1B1BC9
:101980001B1B1B1B1B1B1B1B1B1B1B1B1B1B1718AE
:10199000191A08E007E006E005E004E003E002E0D1
:1019A00001E000E0FFE7002004B07047002070472E
:1019B00080B582B041F24870C2F20000009041F25E
:1019C0004031C2F20001002201920BF017F800989A
:1019D00040F64071C2F200010AF0F6FF019802B031
:1019E00080BD000080B584B003900291039941F25C
:1019F0004870C2F2000001900AF0E6FF01980AF078
:101A00008DFF002004B080BD83B0029001918DF85D
:101A1000032000208DF802009DF9020003B07047FA
:101A200080B586B00490ADF80E1000208DF80D0042
:101A300041F24870C2F20000D0F8BC020290029855
:101A4000D0F8140220B1FFE701208DF8170013E051
:101A50000499BDF80E2041F24870C2F200000190D6
:101A60000AF0CCFF01980BF0B7F88DF80D009DF847
:101A70000D008DF81700FFE79DF8170006B080BD38
:101A80002DE9F041099C069F207008686060486855
:101A9000A0608868E060C868206108696061486982
:101AA000A0618869E061C8692062096A6162DDE954
:101AB00007651188D2ED017A2185803204F1300862
:101AC0004FF0000EA2F17801404651F804CB40F8E7
:101AD00004CB9142F9D10EF11E0EBEF15A0F08F15E
:101AE000780801F17802EDD1C4ED0B7A1A88D3F8A9
:101AF0000480A4F89821803304F5D07E4FF0000CC8
:101B0000A3F17802714652F8040B41F8040B9A4293
:101B1000F9D10CF11E0CBCF15A0F0EF1780E02F146
:101B20007803EDD1C4F89C813B88D7F804E0A4F891
:101B3000083307F1800004F5447C0027A0F1780306
:101B4000624653F8041B42F8041B9842F9D11E3731
:101B50005A2F0CF1780C00F17800EFD1C4F80CE3A7
:101B60003388D6F804C0A4F8783406F1800004F570
:101B700090670026A0F178033A4653F8041B42F818
:101B8000041B9842F9D11E365A2E07F1780700F14E
:101B90007800EFD104F58F63AA69C3F804C004F597
:101BA000BD63297884F8E8159A616A685A60AA6862
:101BB0009A60EA68DA602A691A616A695A61EA69B0
:101BC000DA612A6A1A626A6A5A62AA6A9A62EA6AD6
:101BD000DA62BDE8F08100BF7047000080B540F6D2
:101BE0000000C4F600004FF40041002200F0FAFCAF
:101BF00080BD000080B5042000F010FB80BD000017
:101C000081B0EFF3108072B60090FFE7FEE70000AE
:101C100080B584B047F29050C1F6FF700068039021
:101C200047F29450C1F6FF700068029047F2985056
:101C3000C1F6FF7000680190019903980844039071
:101C4000039888B1FFE7039840F26011C2F20001E7
:101C500000910231082205F0C3FB0099029812316D
:101C6000042205F0BDFBFFE704B080BD87B00690FD
:101C70000591049200208DF80F001F2002909DF81E
:101C80001400C00720B9FFE701208DF80F004BE0DA
:101C9000FFE70299481E02900020019051B1FFE732
:101CA0000598029901F01F0120FA01F101208843F3
:101CB0000190FFE70198C00708B1FFE7E9E7049842
:101CC000009018282BD80099DFE801F0282929294D
:101CD000292929291F292929292929291629292991
:101CE000292929290D000298072804D3FFE701209C
:101CF0008DF80F00FFE716E00298082804D3FFE7ED
:101D000001208DF80F00FFE70DE00298102804D3A2
:101D1000FFE701208DF80F00FFE704E003E001205A
:101D20008DF80F00FFE7FFE79DF80F0078B9FFE798
:101D3000059806990968486106980068806820F04F
:101D4000180004990843069909688860FFE79DF820
:101D50000F0007B07047000080B582B00090009877
:101D600020B9FFE701208DF8070057E00098407F79
:101D700038B9FFE7009900200877009800F052F882
:101D8000FFE70099022048770098007980B9FFE7C3
:101D90000098016841F6B750C0F2C1404861009810
:101DA0000068806820F018000099096888600BE0DE
:101DB00000988168C268FFF759FF20B1FFE7012052
:101DC0008DF807002AE0FFE70098407930B9FFE777
:101DD000009801684FF0FF30086104E00098016846
:101DE00000690861FFE700980068806820F06000E3
:101DF000009A1168526910438860009800688068F2
:101E000020F08000009A1168926910438860009960
:101E10000120487700208DF80700FFE79DF80700B4
:101E200002B080BD82B001900198006843F20001C9
:101E3000C4F20201884210D1FFE7FFE741F24800F7
:101E4000C4F20200016841F480510160006800F4AE
:101E5000805000900098FFE7FFE702B07047000055
:101E600082B0019000208DF80300019890F82500C1
:101E7000022807D0FFE701990420C86301208DF8EC
:101E800003002DE001980168086820F00E0008604A
:101E90000198816C086820F48070086001980168DE
:101EA000086820F0010008600198016C406C00F0A7
:101EB0001F020120904048600198C16C006D48608D
:101EC0000198406D58B1FFE70198416D086820F412
:101ED000807008600198816DC06D4860FFE7FFE782
:101EE0000199012081F82500FFE70199002081F880
:101EF0002400FFE79DF8030002B0704780B582B070
:101F0000019000208DF80300019890F82500022828
:101F100011D0FFE701990420C8630199012081F8DD
:101F20002500FFE70199002081F82400FFE7012048
:101F30008DF803003FE001980168086820F00E006A
:101F4000086001980168086820F0010008600198A5
:101F5000816C086820F4807008600198016C406C06
:101F600000F01F020120904048600198C16C006D94
:101F700048600198406D58B1FFE70198416D0868CD
:101F800020F4807008600198816DC06D4860FFE7A3
:101F90000199012081F82500FFE70199002081F8CF
:101FA0002400FFE70198806B20B1FFE70198816B67
:101FB0008847FFE7FFE79DF8030002B080BD0000FF
:101FC00080B584B0039000F023FB02900398019049
:101FD0000198013048B1FFE740F27C10C2F20000E6
:101FE0000168019808440190FFE7FFE700F010FB4B
:101FF0000299401A0199884201D2FFE7F6E704B03E
:1020000080BD00008BB00A90099100200890FFE786
:1020100009980899C840002800F0DE80FFE7099879
:10202000089A01219140084007900798002800F085
:10203000CF80FFE7089820F003000821C4F20101D7
:1020400040580690089800F0030081000F2000FA25
:1020500001F1069808400690069805900A98B0F19C
:10206000904F03D1FFE70020049042E00A9840F22D
:102070000041C4F60001884203D1FFE7012003902C
:1020800034E00A9840F60001C4F60001884203D10A
:10209000FFE70220029026E00A9840F60041C4F6CD
:1020A0000001884203D1FFE70320019018E00A985D
:1020B00041F20001C4F60001884203D1FFE7042089
:1020C00000900AE00A9941F20042C4F6000206209C
:1020D000914208BF05200090FFE700980190FFE7BC
:1020E00001980290FFE702980390FFE7039804909D
:1020F000FFE705980499089A02F0030292009140C4
:10210000884232D1FFE7079A40F20041C4F2010150
:10211000086890430860079A40F20441C4F2010144
:10212000086890430860079A40F20C41C4F201012C
:10213000086890430860079A40F20841C4F2010120
:10214000086890430860089800F0030081000F20A1
:1021500088400690069B089820F003010822C4F2EC
:102160000102885898438850FFE7089841000320EF
:1021700000FA01F30A9A116819431160DDF820C0D2
:102180000CF007018A000F2101FA02F30A996FF09F
:10219000030202EA5C020A44116A99431162089937
:1021A000490000FA01F30A9AD1689943D160089A6C
:1021B000012101FA02F30A9A516899435160089982
:1021C000490000FA01F20A99886890438860FFE7A5
:1021D0000898013008901BE70BB0704780B582B0BB
:1021E000ADF80600BDF80600042814D1FFE740F65C
:1021F0000000C4F600004FF4005100F0DFF940F693
:102200004420C2F2000005F05BFE40F61631C2F237
:1022100000010870FFE702B080BD000080B582B009
:10222000ADF8060040F21440C4F201000068BDF8A9
:10223000061008420CD0FFE7BDF8060040F214413A
:10224000C4F201010860BDF80600FFF7C7FFFFE711
:1022500002B080BD8BB00A90099100200890FFE782
:10226000099800680899C840002800F0A581FFE798
:1022700009980068089A0121914008400790079842
:10228000002800F09581FFE70998406800F00300FE
:10229000012807D0FFE70998406800F003000228F2
:1022A0002FD1FFE70A988068069008984100032024
:1022B00000FA01F10698884306900998C0680899C9
:1022C000490000FA01F106980843069006980A9919
:1022D00088600A98406806900899012000FA01F188
:1022E00006988843069009984068C0F30010089942
:1022F00000FA01F106980843069006980A9948608A
:10230000FFE70998406800F00300032818D0FFE7B2
:102310000A98C068069008984100032000FA01F16D
:10232000069888430690099880680899490000FA41
:1023300001F106980843069006980A99C860FFE7DD
:102340000998406800F00300022826D1FFE70A98A8
:1023500008996FF0030202EA51010844006A0690EE
:10236000089800F0070081000F2000FA01F106989C
:102370008843069009980069089901F007018900CF
:1023800000FA01F106980843069006980A99089BFE
:1023900002EA530211440862FFE70A9800680690B7
:1023A00008984100032000FA01F10698884306903E
:1023B0000998406800F003000899490000FA01F10B
:1023C00006980843069006980A990860099880794B
:1023D0008007002800F0EB80FFE7FFE741F2600094
:1023E000C4F20200016841F001010160006800F0E0
:1023F000010005900598FFE7089820F003000821E8
:10240000C4F2010140580690089800F003008100D2
:102410000F2000FA01F10698884306900A98B0F15F
:10242000904F03D1FFE70020049042E00A9840F269
:102430000041C4F60001884203D1FFE70120039068
:1024400034E00A9840F60001C4F60001884203D146
:10245000FFE70220029026E00A9840F60041C4F609
:102460000001884203D1FFE70320019018E00A9899
:1024700041F20001C4F60001884203D1FFE70420C5
:1024800000900AE00A9941F20042C4F600020620D8
:10249000914208BF05200090FFE700980190FFE7F8
:1024A00001980290FFE702980390FFE703980490D9
:1024B000FFE70498089901F00301890000FA01F18F
:1024C0000698084306900698089921F0030108220F
:1024D000C4F20102885040F20840C4F201000068D2
:1024E0000690079906988843069009988079C00657
:1024F000002805D5FFE70799069808430690FFE7EF
:10250000069840F20841C4F20101086040F20C4014
:10251000C4F2010000680690079906988843069067
:10252000099880798006002805D5FFE70799069865
:1025300008430690FFE7069840F20C41C4F20101FF
:10254000086040F20440C4F2010000680690079958
:10255000069888430690099880798007002805D559
:10256000FFE70799069808430690FFE7069840F2B0
:102570000441C4F20101086040F20040C4F20100CD
:102580000068069007990698884306900998807914
:10259000C00728B1FFE70799069808430690FFE7B0
:1025A000069840F20041C4F201010860FFE7FFE72E
:1025B00008980130089053E60BB0704783B0029042
:1025C000ADF80610029840690090009ABDF8060028
:1025D00002EA0001904340EA01400299886103B099
:1025E0007047000082B00190ADF802108DF8012014
:1025F0009DF8010028B1FFE7BDF80200019988614C
:1026000004E0BDF8020001998862FFE702B070475C
:1026100042F68850C2F200000068704783B0019013
:102620000091019890F8410020283BD1FFE7FFE797
:10263000019890F84000012804D1FFE702208DF8AE
:102640000B0033E00199012081F84000FFE7FFE72C
:102650000199242081F8410001980168086820F060
:102660000100086001980168086820F48050086043
:10267000009A019801680868104308600198016891
:10268000086840F0010008600199202081F84100AD
:10269000FFE70199002081F84000FFE700208DF856
:1026A0000B0003E002208DF80B00FFE79DF80B0004
:1026B00003B0704784B002900191029890F84100F5
:1026C000202840D1FFE7FFE7029890F8400001285A
:1026D00004D1FFE702208DF80F0038E002990120B5
:1026E00081F84000FFE7FFE70299242081F84100CC
:1026F00002980168086820F00100086002980068EC
:1027000000680090009820F4706000900199009893
:1027100040EA012000900098029909680860029838
:102720000168086840F0010008600299202081F8E3
:102730004100FFE70299002081F84000FFE70020F8
:102740008DF80F0003E002208DF80F00FFE79DF8E1
:102750000F0004B07047000080B582B00090009870
:1027600020B9FFE701208DF8070021E0009924201F
:1027700081F8410000980168086820F001000860B5
:10278000009800F031FB009900204864009981F81E
:10279000410000990863009981F84200FFE7009921
:1027A000002081F84000FFE700208DF80700FFE7D8
:1027B0009DF8070002B080BD81B000900098406C89
:1027C00001B0704781B00090009890F8410001B0CE
:1027D0007047000080B582B00090009820B9FFE7F4
:1027E00001208DF807007BE0009890F8410040B987
:1027F000FFE70099002081F84000009800F0F8FA07
:10280000FFE70099242081F84100009801680868DA
:1028100020F00100086000980168406820F07060B6
:10282000086100980168886820F40040886000987A
:10283000C068012807D1FFE700980168806840F46C
:102840000040886006E000980168806840F4044019
:102850008860FFE70098C068022807D1FFE700986A
:102860000168486840F40060486006E0009801682C
:10287000486820F400604860FFE7009801684868F5
:1028800048F20002C0F2002210434860009801683C
:10289000C86820F40040C860009A11681069536944
:1028A0009269184340EA0220C860009A1168D06912
:1028B000126A1043086000980168086840F001003F
:1028C0000860009900204864009A202182F8411095
:1028D00000990863009981F842008DF80700FFE72E
:1028E0009DF8070002B080BD10B588B084460C98F2
:1028F0000B98DDF828E0CDF818C0ADF81610ADF84B
:102900001420ADF81230ADF81000069890F8410090
:10291000202840F02681FFE70A9820B1FFE7BDF8A4
:10292000100040B9FFE706994FF400704864012099
:102930008DF81F0019E1FFE7069890F84000012884
:1029400004D1FFE702208DF81F000EE10699012057
:1029500081F84000FFE7FFE7FFF75AFE0390069873
:1029600003996A4611604FF400410122192304F0D3
:102970002DFC20B1FFE701208DF81F00F5E006993E
:10298000222081F841000699402081F842000699F2
:10299000002048640A99069A5162BDF81010069A00
:1029A0005185069948630698BDF81610BDF81420A5
:1029B000BDF81230DDF830C0039CEE46CEF804407E
:1029C000CEF800C004F018FB50B1FFE7FFE706990E
:1029D000002081F84000FFE701208DF81F00C4E0CF
:1029E0000698408DB0F5807F14D3FFE70699FF204D
:1029F00008850698BDF8161090F82820EC4642F29B
:102A00000043C8F20003CCF800304FF0807304F0AC
:102A1000B3FB14E00698408D069908850698BDF82A
:102A2000161090F82820EC4642F20043C8F200034A
:102A3000CCF800304FF0007304F09EFBFFE7FFE797
:102A400006980C9B03996A4611600421002204F049
:102A5000BDFB20B1FFE701208DF81F0085E006983F
:102A60000068406A0699496A08700699486A013008
:102A700048620699088D013808850699488D013805
:102A800048850698408DE8B3FFE70698008DC8BBDF
:102A9000FFE706980C9B03996A461160802100228B
:102AA00004F094FB20B1FFE701208DF81F005CE0EB
:102AB0000698408DB0F5807F11D3FFE70699FF207F
:102AC00008850698BDF8161090F82820EC460023DB
:102AD000CCF800304FF0807304F04EFB11E0069804
:102AE000408D069908850698BDF8161090F82820A4
:102AF000EC460023CCF800304FF0007304F03CFBB0
:102B0000FFE7FFE7FFE70698408D002898D1FFE731
:102B100006980C99039A04F0BBFB20B1FFE7012053
:102B20008DF81F0021E0069801682020C8610699F1
:102B30000A6851684EF60003CFF6006319405160F1
:102B4000069981F841000699002081F84200FFE7CC
:102B50000699002081F84000FFE700208DF81F0053
:102B600003E002208DF81F00FFE79DF81F0008B06A
:102B700010BD000010B588B084460C980B98DDF8A5
:102B800028E0CDF818C0ADF81610ADF81420ADF857
:102B90001230ADF81000069890F84100202840F05F
:102BA0001B81FFE70A9820B1FFE7BDF8100040B98C
:102BB000FFE706994FF40070486401208DF81F006C
:102BC0000EE1FFE7069890F84000012804D1FFE7E6
:102BD00002208DF81F0003E10699012081F84000D2
:102BE000FFE7FFE7FFF714FD0390069803996A4695
:102BF00011604FF400410122192304F0E7FA20B1DB
:102C0000FFE701208DF81F00EAE00699212081F8F6
:102C100041000699402081F842000699002048644E
:102C20000A99069A5162BDF81010069A51850699C4
:102C300048630698BDF81610BDF81420BDF8123090
:102C4000DDF830C0039CEE46CEF80440CEF800C05C
:102C500004F032FA50B1FFE7FFE70699002081F84F
:102C60004000FFE701208DF81F00B9E00698408D75
:102C7000B0F5807F11D3FFE70699FF2008850698FD
:102C8000BDF8161090F82820EC460023CCF8003050
:102C90004FF0807304F070FA11E00698408D0699A9
:102CA00008850698BDF8161090F82820EC460023F9
:102CB000CCF800304FF0007304F05EFAFFE7FFE756
:102CC00006980C99039A04F035FB20B1FFE7012028
:102CD0008DF81F0084E006980168406A00788862D9
:102CE0000699486A013048620699488D013848853E
:102CF0000699088D013808850698408DE8B3FFE7EE
:102D00000698008DC8BBFFE706980C9B03996A469E
:102D100011608021002204F059FA20B1FFE7012060
:102D20008DF81F005CE00698408DB0F5807F11D3D0
:102D3000FFE70699FF2008850698BDF8161090F861
:102D40002820EC460023CCF800304FF0807304F0CC
:102D500013FA11E00698408D069908850698BDF88B
:102D6000161090F82820EC460023CCF800304FF0E5
:102D7000007304F001FAFFE7FFE7FFE70698408DD4
:102D800000289DD1FFE706980C99039A04F080FA79
:102D900020B1FFE701208DF81F0021E006980168AF
:102DA0002020C86106990A6851684EF60003CFF6E4
:102DB000006319405160069981F84100069900208E
:102DC00081F84200FFE70699002081F84000FFE704
:102DD00000208DF81F0003E002208DF81F00FFE7A0
:102DE0009DF81F0008B010BD81B0009001B0704781
:102DF00081B0009001B0704740F27C10C2F2000038
:102E0000026842F68851C2F2000108681044086066
:102E10007047000080B582B000208DF807000320C5
:102E200000F09AF80F2000F00DF820B1FFE7012024
:102E30008DF8070002E000F049F8FFE79DF8070071
:102E400002B080BD80B582B0019000208DF80300F3
:102E500040F27C10C2F20000006878B3FFE740F255
:102E60002000C2F20000006840F27C11C2F20001B2
:102E70000A684FF47A71B1FBF2F1B0FBF1F002F0A5
:102E80004BFDB0B9FFE701980F280DD8FFE7019976
:102E90004FF0FF30002200F047F8019840F2801117
:102EA000C2F20001086003E001208DF80300FFE793
:102EB00003E001208DF80300FFE703E001208DF817
:102EC0000300FFE79DF8030002B080BD80B582B02B
:102ED000FFE741F26000C4F20200016841F0010125
:102EE0000160006800F0010001900198FFE7FFE732
:102EF00041F25800C4F20200016841F080510160C3
:102F0000006800F0805000900098FFE701F068FB37
:102F100002B080BD80B582B08DF807009DF9070032
:102F20000CF04AFE02B080BD80B586B08DF8170067
:102F3000049103920CF058FE02909DF91700019045
:102F400002980499039A07F05BFC014601980CF083
:102F500053FE06B080BD000080B582B0019001989C
:102F60000CF06CFE02B080BD82B001900198006848
:102F7000009001990120C1F8D0020199002081F848
:102F8000C802009AB2F8541041F00101A2F854109E
:102F9000009AB2F8541041F00201A2F8541002B0A5
:102FA0007047000080B584B003908DF80B109DF839
:102FB0000B000146019120B1FFE70198012815D0CF
:102FC00027E00398407A58B1FFE708F029F84EF659
:102FD0001051CEF20001086820F006000860FFE7FB
:102FE0000398D0F8D8020AF02BFC12E00398D0F82E
:102FF000D8020AF00BFD0398407A48B1FFE74EF67D
:103000001051CEF20001086840F006000860FFE7AA
:10301000FFE704B080BD000084B00390ADF80A1053
:10302000ADF808200193BDF80A00000600280CD571
:10303000FFE70398BDF80A1001F0070101EB8101D9
:1030400000EBC100103000900AE00398BDF80A10B0
:1030500001EB810100EBC10000F5A8700090FFE7D3
:10306000BDF8080038B9FFE70099002008730198FF
:103070000099C8800AE0009901200873019800991E
:103080000881BDF8060000994881FFE7002004B0E0
:103090007047000080B582B001908DF80310019A4E
:1030A000D2F8D8029DF8031001EB810302EBC302B2
:1030B000526A0AF07DF902B080BD000080B582B08E
:1030C00001908DF80310019AD2F8D8029DF80310F0
:1030D00001EB810302EBC302D2F864210AF00EFA7D
:1030E00002B080BD80B584B002908DF807109DF8C5
:1030F0000700000600280FD5FFE702989DF807108B
:1031000001F0070101EB810100EBC10010300090DC
:103110000099012048700FE002989DF8071001F017
:10312000070101EB810100EBC10000F5A8700090E0
:10313000009900204870FFE79DF8070000F00700A5
:1031400000990870FFE7029890F89002012804D1D6
:10315000FFE702208DF80F0014E00299012081F8AA
:103160009002FFE7FFE70298006800990BF0AAFCC5
:10317000FFE70299002081F89002FFE700208DF818
:103180000F00FFE79DF80F0004B080BD80B584B04C
:1031900002908DF807109DF8070000F00F000299CB
:1031A0000979884204D9FFE701208DF80F004DE02E
:1031B0009DF80700000600280FD5FFE702989DF84C
:1031C000071001F0070101EB810100EBC100103095
:1031D00000900099012048700FE002989DF80710B8
:1031E00001F0070101EB810100EBC10000F5A870BF
:1031F0000090009900204870FFE700990020887037
:103200009DF8070000F0070000990870FFE702989A
:1032100090F89002012804D1FFE702208DF80F00FA
:1032200014E00299012081F89002FFE7FFE702987D
:10323000006800990BF026FEFFE70299002081F854
:103240009002FFE700208DF80F00FFE79DF80F00C8
:1032500004B080BD80B586B005900491ADF80E2015
:10326000BDF80E004004002876D5FFE705980068F9
:10327000B0F850000499097800EBC100059909687D
:103280000844B0F802046FF39F20ADF80C000498D6
:103290008069BDF80C10884207D3FFE7BDF80C2009
:1032A00004998869801A886103E004990020886184
:1032B000FFE704988069F8B9FFE7FFE70598006821
:1032C0000499097830F821004BF68F710840ADF869
:1032D0000A00BDF80A0080F40050ADF80A00BDF8FD
:1032E0000A0048F28001084305990968049A127897
:1032F00021F82200FFE7FFE7BDF80E004006002896
:103300001BD5FFE7FFE7FFE70598006804990978F8
:1033100030F8210048F68F710840ADF80800BDF87C
:10332000080048F2C001084305990968049A127818
:1033300021F82200FFE7FFE7FFE7BDF80C0050B1DE
:10334000FFE705980068049A51691289BDF80C30AE
:103350000CF08AFBFFE775E005980068B0F85000B4
:103360000499097800EBC100059909680844B0F890
:1033700006046FF39F20ADF80C0004988069BDF837
:103380000C10884207D3FFE7BDF80C200499886928
:10339000801A886103E0049900208861FFE704989F
:1033A0008069F8B9FFE7FFE7059800680499097894
:1033B00030F821004BF68F710840ADF80600BDF8DB
:1033C000060080F40050ADF80600BDF8060048F293
:1033D0008001084305990968049A127821F82200AF
:1033E000FFE7FFE7BDF80E00400600281BD4FFE70B
:1033F000FFE7FFE7059800680499097830F8210095
:1034000048F68F710840ADF80400BDF8040048F29A
:10341000C001084305990968049A127821F822002E
:10342000FFE7FFE7FFE7BDF80C0050B1FFE70598A5
:103430000068049A51695289BDF80C300CF014FBF5
:10344000FFE7FFE7BDF80C0006B080BD80B5AAB06D
:1034500028902791ADF89A20BDF89A0040060028E0
:1034600040F1E181FFE728980068B0F85000279903
:10347000097800EBC100289909680844B0F80204F3
:103480006FF39F20ADF8920027988069BDF89210E5
:10349000884207D9FFE7BDF8922027998869801AEA
:1034A000886103E0279900208861FFE727988069F9
:1034B000002840F0D780FFE7FFE72798407808BB57
:1034C000FFE7FFE728980068239028980068B0F885
:1034D000501023980844239023982799097800EBEB
:1034E000C10000F202402290FFE7229908886FF3A2
:1034F0009F2008802299088840F400400880FFE758
:10350000FFE71DE027984078012818D1FFE7FFE783
:1035100028980068209028980068B0F850102098EB
:103520000844209020982799097800EBC10000F208
:1035300002401F901F9900200880FFE7FFE7FFE788
:10354000FFE7FFE7289800681E902798407808BB9F
:10355000FFE7FFE7289800681C9028980068B0F8FB
:1035600050101C9808441C901C982799097800EB6F
:10357000C10000F206401B90FFE71B9908886FF31B
:103580009F2008801B99088840F400400880FFE7CE
:10359000FFE718E027984078012813D1FFE7289823
:1035A0000068B0F850101E9808441E901E98279985
:1035B000097800EBC10000F206401D901D99002023
:1035C0000880FFE7FFE7FFE72798C07802281FD1B0
:1035D000FFE7FFE7289800682799097830F821006D
:1035E00048F6BF710840ADF86600BDF8660080F08F
:1035F0002000ADF86600BDF8660048F2800108437F
:1036000028990968279A127821F82200FFE7FFE736
:10361000289827990978FFF73DFDBDF89A004004E6
:1036200000281BD5FFE7FFE7FFE7289800682799E8
:10363000097830F8210048F68F710840ADF8640031
:10364000BDF864004CF28001084328990968279A64
:10365000127821F82200FFE7FFE7FFE700208DF84E
:10366000A700E6E2BDF89A00400400281BD5FFE75A
:10367000FFE7FFE7289800682799097830F82100CC
:1036800048F68F710840ADF86200BDF862004CF258
:103690008001084328990968279A127821F82200A6
:1036A000FFE7FFE7FFE7279890F82400012840F0A4
:1036B000B880FFE7BDF89220279948691044486117
:1036C000BDF892202799C8691044C86127980169FC
:1036D000006A884209D3FFE7279800692590259A58
:1036E0002799086A801A086216E02798006A40B98C
:1036F000FFE7BDF8920025902799002081F824006B
:1037000009E02799002081F824002799096A25916A
:1037100027990862FFE7FFE7FFE72798407800282E
:1037200056D1FFE7FFE728980068179028980068AF
:10373000B0F85010179808441790179827990978EF
:1037400000EBC10000F202401690FFE716990888CE
:103750006FF39F200880259830B9FFE716990888F5
:1037600040F40040088030E025983E2815D8FFE757
:10377000FFE72598400815909DF89400C00720B1F8
:10378000FFE7159801301590FFE7159A16990888FC
:1037900040EA82200880FFE716E0FFE7259840090D
:1037A00015909DF89400C00620B9FFE715980138E0
:1037B0001590FFE7159A1699088840EA822040F490
:1037C00000400880FFE7FFE7FFE7FFE7FFE71DE0B6
:1037D00027984078012818D1FFE7FFE7289800686C
:1037E000149028980068B0F8501014980844149069
:1037F00014982799097800EBC10000F20240139059
:10380000259813990880FFE7FFE7FFE7FFE728986F
:103810000068279A51691289BDF894300CF076F946
:10382000FFE7FFE7DDE128980068B0F8500027992E
:10383000097800EBC100289909680844B0F806042B
:103840006FF39F20ADF8920027988069BDF8921021
:10385000884207D3FFE7BDF8922027998869801A2C
:10386000886103E0279900208861FFE72798806935
:10387000002840F0D780FFE7FFE72798407808BB93
:10388000FFE7FFE728980068129028980068B0F8D2
:10389000501012980844129012982799097800EB5A
:1038A000C10000F202401190FFE7119908886FF300
:1038B0009F2008801199088840F400400880FFE7A5
:1038C000FFE71DE027984078012818D1FFE7FFE7C0
:1038D000289800680F9028980068B0F850100F984A
:1038E00008440F900F982799097800EBC10000F267
:1038F00002400E900E9900200880FFE7FFE7FFE7E7
:10390000FFE7FFE7289800680D902798407808BBEC
:10391000FFE7FFE7289800680B9028980068B0F848
:1039200050100B9808440B900B982799097800EBDE
:10393000C10000F206400A90FFE70A9908886FF379
:103940009F2008800A99088840F400400880FFE71B
:10395000FFE718E027984078012813D1FFE728985F
:103960000068B0F850100D9808440D900D982799F4
:10397000097800EBC10000F206400C900C99002081
:103980000880FFE7FFE7FFE72798C07802281FD1EC
:10399000FFE7FFE7289800682799097830F82100A9
:1039A00048F6BF710840ADF82200BDF8220080F053
:1039B0002000ADF82200BDF8220048F28001084343
:1039C00028990968279A127821F82200FFE7FFE773
:1039D000289827990978FFF75DFBBDF89A00400405
:1039E00000281BD4FFE7FFE7FFE728980068279926
:1039F000097830F8210048F68F710840ADF82000B2
:103A0000BDF820004CF28001084328990968279AE4
:103A1000127821F82200FFE7FFE7FFE700208DF88A
:103A2000A70006E1BDF89A00400400281BD4FFE778
:103A3000FFE7FFE7289800682799097830F8210008
:103A400048F68F710840ADF81E00BDF81E004CF21C
:103A50008001084328990968279A127821F82200E2
:103A6000FFE7FFE7FFE7279890F82400012840F0E0
:103A7000B680FFE7BDF89220279948691044486155
:103A8000BDF892202799C8691044C8612798016938
:103A9000006A884209D3FFE7279800692590259A94
:103AA0002799086A801A086216E02798006A40B9C8
:103AB000FFE7BDF8920025902799002081F82400A7
:103AC00009E02798006A2590279900200862279925
:103AD00081F82400FFE7FFE7FFE7289800680690D9
:103AE00027984078002856D1FFE7FFE7289800681C
:103AF000049028980068B0F8501004980844049086
:103B000004982799097800EBC10000F20640039061
:103B1000FFE7039908886FF39F200880259830B944
:103B2000FFE70399088840F40040088030E02598BA
:103B30003E2815D8FFE7FFE72598400802909DF83A
:103B40009400C00720B1FFE7029801300290FFE720
:103B5000029A0399088840EA82200880FFE716E06D
:103B6000FFE72598400902909DF89400C00620B90F
:103B7000FFE7029801380290FFE7029A039908884C
:103B800040EA822040F400400880FFE7FFE7FFE7BB
:103B9000FFE7FFE718E027984078012813D1FFE7F7
:103BA00028980068B0F850100698084406900698C7
:103BB0002799097800EBC10000F20640059025988E
:103BC00005990880FFE7FFE7FFE728980068279A34
:103BD00051695289BDF894300BF098FFFFE7FFE779
:103BE000FFE7FFE7289800682799097830F8210057
:103BF00048F6BF710840ADF80600BDF8060080F039
:103C00001000ADF80600BDF8060080F02000ADF809
:103C10000600BDF8060048F28001084328990968AB
:103C2000279A127821F82200FFE700208DF8A700DC
:103C3000FFE79DF8A7002AB080BD000082B0019088
:103C40008DF8031001989DF8031001F0070101EBB6
:103C5000810100EBC100D0F86C0102B07047000098
:103C600080B586B004908DF80F10ADF80C208DF85B
:103C70000B3000208DF80A009DF80F000006002888
:103C80000FD5FFE704989DF80F1001F0070101EB35
:103C9000810100EBC10010300190019901204870B2
:103CA0000FE004989DF80F1001F0070101EB81016E
:103CB00000EBC10000F5A870019001990020487048
:103CC000FFE79DF80F0000F0070001990870BDF8AC
:103CD0000C006FF3DF20019908619DF80B0001993A
:103CE000C8709DF80B00022804D1FFE7019900205D
:103CF0000871FFE7FFE7049890F89002012804D1CB
:103D0000FFE702208DF8170015E00499012081F8E3
:103D10009002FFE7FFE70498006801990AF08EFA25
:103D2000FFE70499002081F89002FFE79DF80A0060
:103D30008DF81700FFE79DF8170006B080BD000062
:103D400080B586B005908DF8131003920293059804
:103D50009DF8131001F0070101EB810100EBC10098
:103D600000F5A870019003980199486102980199A3
:103D70008861019900200090C861019948709DF800
:103D8000130000F007000199087005980068019978
:103D90000BF05AF9009806B080BD000080B584B0E1
:103DA00002908DF807109DF8070000F007000299B7
:103DB0000979884204D9FFE701208DF80F004BE014
:103DC0009DF80700000600280FD5FFE702989DF830
:103DD000071001F0070101EB810100EBC100103079
:103DE00000900099012048700DE002989DF807109E
:103DF00001EB810100EBC10000F5A8700090009973
:103E000000204870FFE70099012088709DF80700A6
:103E100000F0070000990870FFE7029890F8900200
:103E2000012804D1FFE702208DF80F0014E0029969
:103E3000012081F89002FFE7FFE7029800680099EF
:103E40000BF0BEF8FFE70299002081F89002FFE72F
:103E500000208DF80F00FFE79DF80F0004B080BD33
:103E600080B586B005908DF81310039202930598E3
:103E70009DF8131001F0070101EB810100EBC10077
:103E80001030019003980199486102980199886166
:103E90000199012081F824000299019A1162019A86
:103EA00000210091D161019948709DF8130000F044
:103EB0000700019908700598006801990BF0C4F893
:103EC000009806B080BD000080B582B001900198D6
:103ED00000680BF0BFFD00909DF80100000600286F
:103EE00004D5FFE7019806F0C1FCDFE09DF8010072
:103EF0004007002810D5FFE701980168B1F8440099
:103F000020F48060A1F84400019800F0D3F90198F2
:103F1000002100F00FFAC9E09DF8010040060028DA
:103F200009D5FFE701980168B1F8440020F480400A
:103F3000A1F84400BAE09DF801008006002809D5E8
:103F4000FFE701980168B1F8440020F40050A1F89F
:103F50004400ABE09DF80100C00600282AD5FFE729
:103F600001980168B1F8400020F00400A1F8400079
:103F700001980168B1F8400020F00800A1F8400065
:103F8000019890F8C802012808D1FFE701980021A4
:103F900080F8C8120198FFF705F8FFE7019800F0D4
:103FA000A5F901980168B1F8440020F48050A1F807
:103FB00044007BE09DF80100000700281CD5FFE7C6
:103FC00001980168B1F8400040F00800A1F84000F5
:103FD00001980168B1F8440020F40060A1F84400A1
:103FE00001980168B1F8400040F00400A1F84000D9
:103FF000019800F003FA59E09DF80000000600283F
:1040000034D5FFE701980168B1F8440020F0800042
:10401000A1F84400019890F8C80210BBFFE701988E
:104020000168B1F8400040F00400A1F84000019898
:104030000168B1F8400040F00800A1F84000019884
:10404000012180F8C81201980068B0F8540000F00F
:10405000F0008008019AC2F8CC020198FEF7A2FF96
:1040600003E0019800F0CAF9FFE71FE09DF80100A6
:10407000800700280CD5FFE701980168B1F84400DB
:1040800020F40070A1F84400019800F049F90DE017
:104090009DF80100C00748B1FFE701980168B1F839
:1040A000440020F48070A1F84400FFE702B080BD16
:1040B00080B584B00290029820B9FFE701208DF806
:1040C0000F00BBE0029890F8910240B9FFE7029917
:1040D000002081F89002029800F0B4F8FFE70299FE
:1040E000032081F89102029800680AF0BBFE0020CC
:1040F0008DF80700FFE79DF80700029909798842CB
:1041000039DAFFE702989DF8071001EB810100EB17
:10411000C101012048749DF80700029900EB80025C
:1041200001EBC201087402989DF8071001EB8101B0
:1041300000EBC1010020C87402999DF8072002EB32
:10414000820201EBC201086202999DF8072002EB8E
:10415000820201EBC201486202999DF8072002EB3E
:10416000820201EBC2018862FFE79DF8070001307F
:104170008DF80700BFE700208DF80700FFE79DF8E6
:1041800007000299097988423EDAFFE702989DF814
:10419000071001EB810100EBC101002081F8510102
:1041A0009DF80710029A01EB810302EBC30282F82B
:1041B000501102999DF8072002EB820201EBC20127
:1041C00081F8530102999DF8072002EB820201EB6E
:1041D000C201C1F8600102999DF8072002EB82023A
:1041E00001EBC201C1F8640102999DF8072002EBBE
:1041F000820201EBC201C1F86801FFE79DF80700E8
:1042000001308DF80700BAE7029A10685168926889
:104210000AF014FE0299002008730299012081F827
:1042200091020298807A012804D1FFE70298FEF7F4
:104230009BFEFFE700208DF80F00FFE79DF80F00C1
:1042400004B080BD80B594B0139002A84421FCF75F
:104250005CF91398006845F60041C4F200018842F9
:1042600026D1FFE74FF40050029000200F9002A8E3
:1042700000F0C0F918B1FFE7FDF7C2FCFFE7FFE768
:1042800041F25800C4F20200016841F400010160EB
:10429000006800F4000001900198FFE714200090EE
:1042A00000221146FEF740FE0098FEF733FEFFE7BE
:1042B00014B080BD80B582B0019001208DF803005C
:1042C00001984079022803D0FFE7FDF799FCFFE74A
:1042D0000198D0F8D8029DF8031009F0EBFA019884
:1042E000D0F8D80209F05CFA02B080BD80B582B087
:1042F00001900198407A58B1FFE74EF61051CEF286
:104300000001086820F00600086006F089FEFFE75B
:104310000198D0F8D80209F093FA02B080BD0000ED
:1043200080B582B001900198D0F8D80209F09AFACD
:1043300002B080BD80B584B002908DF80710FFE711
:10434000029890F89002012804D1FFE702208DF82E
:104350000F0019E00299012081F89002FFE7FFE7C2
:104360009DF8070002990873029800689DF80710ED
:104370000BF0BCFBFFE70299002081F89002FFE7F9
:1043800000208DF80F00FFE79DF80F0004B080BDFE
:1043900080B582B001900199D1F8D80201F526715B
:1043A00009F0B2FA02B080BD80B582B00090FFE79C
:1043B000009890F89002012804D1FFE702208DF8C0
:1043C000070017E00099012081F89002FFE7FFE75E
:1043D000009800680BF026FB009800680AF022FDA8
:1043E000FFE70099002081F89002FFE700208DF898
:1043F0000700FFE79DF8070002B080BD80B582B0DE
:1044000001900198D0F8D80209F000FB0198407A99
:1044100048B1FFE74EF61051CEF20001086840F0B7
:1044200006000860FFE702B080BD000085B0039081
:10443000039800285ED1FFE747F20000C4F20000B5
:10444000006800F4C060B0F5806F49D1FFE747F223
:104450008001C4F20001086820F48070086047F20F
:104460000002C4F200021168012060F34A211160C9
:1044700040F22001C2F200010968322251434DF698
:104480008362C4F21B32A1FB022100EB9140029037
:10449000FFE747F21400C4F200000168002049055C
:1044A0000029019006D5FFE70298002818BF0120D7
:1044B0000190FFE70198C00720B1FFE7029801389B
:1044C0000290E6E747F21400C4F2000000684005DD
:1044D000002804D5FFE703208DF813007CE008E0F6
:1044E00047F28001C4F20001086820F4807008607F
:1044F000FFE76DE00398B0F5007F5ED1FFE747F27C
:104500000000C4F20000006800F4C060B0F5806FE5
:1045100049D1FFE747F28001C4F20001086840F486
:104520008070086047F20002C4F2000211680120A6
:1045300060F34A21116040F22001C2F200010968D3
:10454000322251434DF68362C4F21B32A1FB022199
:1045500000EB91400290FFE747F21400C4F2000024
:104560000168002049050029009006D5FFE7029860
:10457000002818BF01200090FFE70098C00720B175
:10458000FFE7029801380290E6E747F21400C4F210
:10459000000000684005002804D5FFE703208DF8DF
:1045A000130019E008E047F28001C4F20001086836
:1045B00040F480700860FFE709E047F20001C4F2B0
:1045C00000010868022262F34A200860FFE7FFE763
:1045D00000208DF81300FFE79DF8130005B0704729
:1045E00047F20801C4F20001086840F48040086006
:1045F0007047000080B586B0059000208DF80B0054
:104600008DF80A00059880780007002840F1B580F1
:10461000FFE700208DF8090041F25800C4F20200C3
:104620000068C000002813D4FFE7FFE741F25800FC
:10463000C4F20200016841F080510160006800F09E
:10464000805001900198FFE701208DF80900FFE7F5
:1046500047F20001C4F20001086840F4807008606D
:10466000FDF7D6FF0390FFE747F20000C4F2000019
:104670000068C00500280CD4FFE7FDF7C9FF0399C7
:10468000401A032804D3FFE703208DF80B0000E055
:10469000EAE79DF80B0000285BD1FFE741F29000AC
:1046A000C4F20200006800F4407004900498C8B19D
:1046B000FFE704980599096C884213D0FFE741F29F
:1046C0009001C4F20201086820F440700490086868
:1046D00040F480300860086820F480300860049856
:1046E0000860FFE79DF81000C007E0B1FFE7FDF7A5
:1046F0008FFF0390FFE741F29000C4F202000068D0
:10470000800700280ED4FFE7FDF782FF0399401AC7
:1047100041F28931884204D3FFE703208DF80B0072
:1047200000E0E8E7FFE79DF80B0060B9FFE741F222
:104730009001C4F20201086820F44070059A126CDE
:104740001043086004E09DF80B008DF80A00FFE7B5
:1047500004E09DF80B008DF80A00FFE79DF80900C2
:10476000012809D1FFE741F25801C4F202010868AB
:1047700020F080500860FFE7FFE705980078C00749
:1047800060B1FFE741F28801C4F20201086820F03D
:104790000300059A526810430860FFE70598007807
:1047A000800700280CD5FFE741F28801C4F202011E
:1047B000086820F00C00059A926810430860FFE733
:1047C00005980078400700280CD5FFE741F28801E2
:1047D000C4F20201086820F03000059AD268104344
:1047E0000860FFE705980078000700280CD5FFE770
:1047F00041F28801C4F20201086820F0C000059A65
:10480000126910430860FFE70598007880060028C9
:104810000CD5FFE741F28801C4F20201086820F4D8
:104820004060059A526910430860FFE705980078D8
:10483000400600280CD5FFE741F28801C4F20201CE
:10484000086820F44050059A926910430860FFE719
:1048500005980078000600280CD5FFE741F2880192
:10486000C4F20201086820F44040059AD26910435E
:104870000860FFE705984078C00760B1FFE741F2A4
:104880008801C4F20201086820F44030059A126AD7
:1048900010430860FFE705984078800700280CD592
:1048A000FFE741F28801C4F20201086820F44020C9
:1048B000059A526A10430860FFE705984078400760
:1048C00000281BD5FFE741F28801C4F20201086805
:1048D00020F44010059A926A104308600598806A97
:1048E000B0F5801F09D1FFE741F20C01C4F20201CB
:1048F000086840F480100860FFE7FFE705984078FB
:10490000000700281BD5FFE741F28801C4F202012D
:10491000086820F44000059AD26A104308600598A0
:10492000C06AB0F5800F09D1FFE741F20C01C4F273
:104930000201086840F480100860FFE7FFE705986F
:104940004078C00600281BD5FFE741F28801C4F279
:104950000201086820F04070059A126B104308604D
:104960000598006BB0F1807F09D1FFE741F20C019F
:10497000C4F20201086840F480100860FFE7FFE716
:1049800005984078800600281BD5FFE741F2880192
:10499000C4F20201086820F04060059A526B10438F
:1049A00008600598406BB0F1006F09D1FFE741F254
:1049B0000C01C4F20201086840F480100860FFE7AF
:1049C000FFE705984078400600281BD5FFE741F235
:1049D0008801C4F20201086820F04060059A926BD9
:1049E000104308600598806BB0F1006F09D1FFE7B4
:1049F00041F20C01C4F20201086840F48010086022
:104A0000FFE7FFE705984078000600281BD5FFE781
:104A100041F28801C4F20201086820F04050059A72
:104A2000D26B104308600598C06BB0F1805F09D16C
:104A3000FFE741F20C01C4F20201086840F4803043
:104A40000860FFE7FFE79DF80A0006B080BD0000A0
:104A500080B586B00490039100200090049820B99E
:104A6000FFE701208DF8170081E1039842F2000171
:104A7000C4F20201096801F00F01884216D9FFE76C
:104A800042F20000C4F20200016821F00F01039A13
:104A900011430160006800F00F000399884204D0C0
:104AA000FFE701208DF8170061E1FFE70498007827
:104AB000C007002800F0A380FFE70498406803289F
:104AC00039D1FFE741F20000C4F202000068800122
:104AD000002804D4FFE701208DF8170047E106F015
:104AE000EFF9019001984BF20141C0F2C4418842B4
:104AF00020D3FFE741F20800C4F20200006810F082
:104B0000F00F0AD0FFE7049800788007002810D53E
:104B1000FFE70498806860B9FFE741F20801C4F23A
:104B200002010868082262F30710086080200090E4
:104B3000FFE7FFE738E00498406802280ED1FFE75E
:104B400041F20000C4F2020000688003002804D48F
:104B5000FFE701208DF8170009E10DE041F20000A8
:104B6000C4F2020000684005002804D4FFE70120D9
:104B70008DF81700FBE0FFE700F02CF90190019899
:104B80004BF20141C0F2C44188420CD3FFE741F22D
:104B90000801C4F202010868082262F307100860E5
:104BA00080200090FFE7FFE741F20801C4F2020114
:104BB000086820F00300049A526810430860FDF76B
:104BC00027FD0290FFE741F20800C4F202000068EE
:104BD00000F00C0004994968B0EB810F0ED0FFE79C
:104BE000FDF716FD0299401A41F28931884204D33B
:104BF000FFE703208DF81700B9E0E4E7FFE704982A
:104C00000078800700282CD5FFE70498007840073B
:104C1000002809D5FFE741F20801C4F20201086843
:104C200040F4E0600860FFE704980078000700287F
:104C30000BD5FFE741F20801C4F20201086840F415
:104C4000E06020F460500860FFE741F20801C4F220
:104C50000201086820F0F000049A9268104308608E
:104C60000DE00098802809D1FFE741F20801C4F265
:104C70000201086820F0F0000860FFE7FFE70398F2
:104C800042F20001C4F20201096801F00F018842FA
:104C900028D2FFE742F20001C4F20201086820F0C6
:104CA0000F00039A10430860FDF7B2FC0290FFE783
:104CB00042F20000C4F20200006800F00F00039905
:104CC00088420ED0FFE7FDF7A3FC0299401A41F29B
:104CD0008931884204D3FFE703208DF8170046E0AE
:104CE000E6E7FFE704980078400700280CD5FFE7C7
:104CF00041F20801C4F20201086820F4E060049A5D
:104D0000D26810430860FFE7049800780007002885
:104D10000DD5FFE741F20801C4F20201086820F452
:104D20006050049A126940EAC2000860FFE700F090
:104D300051F841F20801C4F202010968C9B20A0936
:104D40004AF28441C0F60101895C01F01F01C840AC
:104D500040F22001C2F20001086040F28010C2F26D
:104D600000000068FEF76EF88DF81700FFE79DF869
:104D7000170006B080BD000040F22000C2F2000023
:104D80000068704780B5FFF7F7FF41F20801C4F2F1
:104D900002010968C1F302224AF29441C0F60101FE
:104DA000895C01F01F01C84080BD000080B5FFF79D
:104DB000E3FF41F20801C4F202010968C1F3C22213
:104DC0004AF29441C0F60101895C01F01F01C8401C
:104DD00080BD000086B041F20800C4F20200006805
:104DE00000F00C00042806D1FFE742F20040C0F2B8
:104DF000F400019069E041F20800C4F2020000688A
:104E000000F00C00082806D1FFE743F20060C0F272
:104E10006E10019058E041F20800C4F202000068F0
:104E200000F00C000C284BD1FFE741F20C00C4F25B
:104E30000200016801F0030104910068C1B2012081
:104E400000EB1110029004980090022815D0FFE7A3
:104E50000098032812D1FFE7029943F20060C0F2E4
:104E60006E10B0FBF1F041F20C01C4F202010968CE
:104E7000C1F306214843059011E0FFE7029942F291
:104E80000040C0F2F400B0FBF1F041F20C01C4F2BA
:104E900002010968C1F3062148430590FFE741F28A
:104EA0000C00C4F20200006800F0C061022000EBB8
:104EB0001160039005980399B0FBF1F0019002E0B6
:104EC00000200190FFE7FFE7FFE7019806B0704779
:104ED000B0B588B00690069820B9FFE701208DF89C
:104EE0001F00CCE306980078C007002800F09B80E4
:104EF000FFE741F20800C4F20200006800F00C0075
:104F0000049041F20C00C4F20200006800F00300BB
:104F1000039004980C2804D1FFE70398032804D0D9
:104F2000FFE70498082812D1FFE741F20000C4F21D
:104F3000020000688003002808D5FFE70698406853
:104F400020B9FFE701208DF81F0098E36AE0FFE732
:104F500006984068B0F5803F09D1FFE741F20001B3
:104F6000C4F20201086840F48030086020E006982E
:104F70004068B0F5A02F0DD1FFE741F20001C4F267
:104F80000201086840F480200860086840F480301E
:104F900008600CE041F20001C4F20201086820F44C
:104FA00080300860086820F480200860FFE7FFE791
:104FB000FFE706984068D0B1FFE7FDF729FB0590B1
:104FC000FFE741F20000C4F20200006880030028FD
:104FD0000CD4FFE7FDF71CFB0599401A652804D3A4
:104FE000FFE703208DF81F0049E3EAE719E0FDF72A
:104FF0000FFB0590FFE741F20000C4F202000068D9
:10500000800300280CD5FFE7FDF702FB0599401A45
:10501000652804D3FFE703208DF81F002FE3EAE79C
:10502000FFE7FFE7FFE7069800788007002840F1D8
:105030009F80FFE741F20800C4F20200006800F020
:105040000C00049041F20C00C4F20200006800F071
:105050000300039004980C2804D1FFE7039802286A
:1050600004D0FFE7049804282CD1FFE741F20000A8
:10507000C4F2020000684005002808D5FFE7069842
:10508000C06820B9FFE701208DF81F00F7E241F268
:105090000401C4F20201086820F0FE40069A126979
:1050A00040EA0260086040F28010C2F2000000682E
:1050B000FDF7C8FE20B1FFE701208DF81F00DEE2FA
:1050C000FFE754E00698C06870B3FFE741F20001C3
:1050D000C4F20201086840F480700860FDF798FA95
:1050E0000590FFE741F20000C4F2020000684005AD
:1050F00000280CD4FFE7FDF78BFA0599401A032826
:1051000004D3FFE703208DF81F00B8E2EAE741F27D
:105110000401C4F20201086820F0FE40069A1269F8
:1051200040EA0260086021E041F20001C4F202019D
:10513000086820F480700860FDF76AFA0590FFE7C0
:1051400041F20000C4F202000068400500280CD5BE
:10515000FFE7FDF75DFA0599401A032804D3FFE73E
:1051600003208DF81F008AE2EAE7FFE7FFE7FFE789
:10517000069800780007002849D5FFE7069840699F
:1051800010B3FFE741F29401C4F20201086840F055
:1051900001000860FDF73CFA0590FFE741F294003A
:1051A000C4F202000068800700280CD4FFE7FDF776
:1051B0002FFA0599401A032804D3FFE703208DF83E
:1051C0001F005CE2EAE721E041F29401C4F202012F
:1051D000086820F001000860FDF71AFA0590FFE763
:1051E00041F29400C4F202000068800700280CD548
:1051F000FFE7FDF70DFA0599401A032804D3FFE7EE
:1052000003208DF81F003AE2EAE7FFE7FFE7069880
:1052100000784007002840F1C680FFE700208DF8A5
:105220000B0041F25800C4F202000068C0000028E0
:1052300013D4FFE7FFE741F25800C4F2020001680F
:1052400041F080510160006800F0805001900198A9
:10525000FFE701208DF80B00FFE747F20000C4F2E2
:1052600000000068C005002822D4FFE747F20001D3
:10527000C4F20001086840F480700860FDF7C8F9C6
:105280000590FFE747F20000C4F200000068C00587
:1052900000280CD4FFE7FDF7BBF90599401A032855
:1052A00004D3FFE703208DF81F00E8E1EAE7FFE7FA
:1052B000FFE706988068012809D1FFE741F29001D5
:1052C000C4F20201086840F0010008601FE006987F
:1052D000806805280DD1FFE741F29001C4F2020178
:1052E000086840F004000860086840F001000860A9
:1052F0000CE041F29001C4F20201086820F00100C4
:105300000860086820F004000860FFE7FFE7FFE797
:1053100006988068E0B1FFE7FDF77AF90590FFE7AE
:1053200041F29000C4F202000068800700280ED409
:10533000FFE7FDF76DF90599401A41F2893188427E
:1053400004D3FFE703208DF81F0098E1E8E71BE096
:10535000FDF75EF90590FFE741F29000C4F202000C
:105360000068800700280ED5FFE7FDF751F9059981
:10537000401A41F28931884204D3FFE703208DF8B7
:105380001F007CE1E8E7FFE79DF80B00012809D149
:10539000FFE741F25801C4F20201086820F0805092
:1053A0000860FFE7FFE7069800788006002849D5E7
:1053B000FFE70698806910B3FFE741F29801C4F255
:1053C0000201086840F001000860FDF721F905902E
:1053D000FFE741F29800C4F202000068800700284D
:1053E0000CD4FFE7FDF714F90599401A032804D3FC
:1053F000FFE703208DF81F0041E1EAE721E041F2D9
:105400009801C4F20201086820F001000860FDF76D
:10541000FFF80590FFE741F29800C4F2020000682F
:10542000800700280CD5FFE7FDF7F2F80599401A30
:10543000032804D3FFE703208DF81F001FE1EAE7EC
:10544000FFE7FFE70698C069002800F01481FFE736
:1054500041F20800C4F20200006800F00C000C28C1
:1054600000F0B080FFE70698C06902287CD1FFE712
:1054700041F20001C4F20201086820F08070086067
:10548000FDF7C6F80590FFE741F20000C4F2020004
:105490000068800100280CD5FFE7FDF7B9F80599F1
:1054A000401A032804D3FFE703208DF81F00E6E02D
:1054B000EAE741F20C01C4F20201086848F20C026A
:1054C000C0F29F121040DDF818C0DCF82020DCF894
:1054D0002450DCF828E0DCF82C306FF00F0404EBEB
:1054E0000514224342EA0E22DCF8304040F2000E5E
:1054F000CFF6E07E0EEA045EAEF5001E42EA0E0232
:10550000DCF834E04FF07E4C0CEA0E6C0CF17E4C73
:1055100042EA0C0242EAC3621043086041F2000210
:10552000C4F20202106840F080701060086840F019
:1055300080700860FDF76CF80590FFE741F200000D
:10554000C4F202000068800100280CD4FFE7FDF7D8
:105550005FF80599401A032804D3FFE703208DF86C
:105560001F008CE0EAE72CE041F20001C4F20201E6
:10557000086820F080700860FDF74AF80590FFE7A2
:1055800041F20000C4F202000068800100280CD53E
:10559000FFE7FDF73DF80599401A032804D3FFE71C
:1055A00003208DF81F006AE0EAE741F20C01C4F223
:1055B000020108684FF6FC72CFF6EE6210400860F8
:1055C000FFE757E00698C069012804D1FFE70120F2
:1055D0008DF81F0053E041F20C00C4F20200006895
:1055E0000390039800F003000699096A88423BD1B2
:1055F000FFE7039800F0F00006994A6A6FF00F0188
:1056000001EB021188422FD1FFE7039800F4FE401E
:105610000699896AB0EB012F26D1FFE7039800F0C5
:1056200078400699C96AB0EBC16F1DD1FFE70398B6
:1056300000F4C00006990A6B0021CFF6E07101EA80
:105640000251A1F5001188420ED1FFE7039800F046
:10565000C06006994A6B4FF07E4101EA026101F198
:105660007E41884204D0FFE701208DF81F0006E04C
:10567000FFE7FFE7FFE700208DF81F00FFE79DF839
:105680001F0008B0B0BD000080B584B00290029841
:1056900020B9FFE701208DF80F0099E00298406AD9
:1056A00060B9FFE702984068B0F5827F01D1FFE75B
:1056B00003E002990020C861FFE705E0029900209D
:1056C000086102994861FFE7029900208862029808
:1056D00090F85D0040B9FFE70299002081F85C0076
:1056E000029800F079F8FFE70299022081F85D0046
:1056F00002980168086820F0400008600298C068BD
:10570000B0F5E06F03D9FFE70020019003E04FF40C
:1057100080500190FFE70298C068B0F5706F0AD022
:10572000FFE70298C068B0F5E06F04D0FFE7029988
:1057300000208862FFE7029A009211685068D2F850
:1057400008C0136900F482700CF4044C604403F048
:1057500002031844536903F001031844936903F4E6
:1057600000731844D36903F038031844136A03F034
:1057700080031844926A02F4005210430860029BAE
:105780001968DA68D3F818E0D3F824C0042000EAD6
:105790001E400CF0100C60445B6B03F008031844CF
:1057A00002F470621044019A02F48052104448607E
:1057B00002980168C86920F40060C861029900205D
:1057C0000866029A012182F85D108DF80F00FFE74C
:1057D0009DF80F0004B080BD80B590B00F90002000
:1057E0000E900D900C900B900A900F98006843F269
:1057F0000001C4F20101884252D1FFE7FFE741F204
:105800006000C4F20200016841F480510160006848
:1058100000F4805009900998FFE7FFE741F24C003F
:10582000C4F20200016841F001010160006800F06B
:10583000010008900898FFE7FFE741F24C00C4F22E
:105840000200016841F002010160006800F00200FE
:1058500007900798FFE760200A90022001900B90C4
:10586000002002900C900D90052003900E904FF0B8
:1058700090400AA90491FCF7EDFC019B029A039861
:1058800004994FF0200CCDF828C00B930C920D9288
:105890000E9040F20040C4F60000FCF7DBFC39E05B
:1058A0000F98006843F60001C4F20001884230D12D
:1058B000FFE7FFE741F25800C4F20200016841F43B
:1058C00080410160006800F4804006900698FFE780
:1058D000FFE741F24C00C4F20200016841F002010E
:1058E0000160006800F0020005900598FFE74FF4A2
:1058F00060400A9002200B9000200C900D90052033
:105900000E9040F20040C4F600000AA9FCF7A2FC89
:10591000FFE7FFE710B080BD80B582B0019001982D
:1059200005F050FB02B080BD84B0029001910020D0
:105930000090FFE7029890F83C00012804D1FFE7AF
:1059400002208DF80F0083E00299012081F83C00CD
:10595000FFE7FFE7009820F0FF000199C9680843BE
:105960000090009820F440700199896808430090E5
:10597000009820F4806001994968084300900098DD
:1059800020F400600199096808430090009820F411
:1059900080500199096908430090009820F4005054
:1059A0000199496908430090009820F480400199CA
:1059B000096B08430090009820F4702001998969D0
:1059C00040EA01400090009820F080500199C96998
:1059D000084300900298006842F60041C4F20101B9
:1059E000884209D0FFE70298006843F20041C4F200
:1059F000010188421ED1FFE7009820F47000019950
:105A0000896A40EA01500090009820F08070019966
:105A1000096A08430090009820F000700199496AD3
:105A200008430090009820F000500199C96A08438B
:105A30000090FFE70098029909684864FFE702991F
:105A4000002081F83C00FFE700208DF80F00FFE701
:105A50009DF80F0004B0704785B003900291FFE7F6
:105A6000039890F83C00012804D1FFE702208DF84C
:105A700013008CE00399012081F83C00FFE7FFE769
:105A80000399022081F83D00039800684068019066
:105A900003980068806800900398006842F600410F
:105AA000C4F20101884209D0FFE70398006843F27D
:105AB0000041C4F2010188420AD1FFE7019820F4B5
:105AC0007000019002984168019808430190FFE737
:105AD00001984FF68F71CFF6FF5108400190029860
